:020000040800F2
:1000000000000120413700080F24000815240008D3
:100010001B240008212400082724000800000000F9
:100020000000000000000000000000002D24000877
:10003000392400080000000045240008512400086D
:1000400091370008913700085D24000891370008B7
:100050009137000891370008913700089137000860
:100060009137000891370008913700087124000883
:10007000852400089924000891370008913700086A
:100080009137000891370008913700089137000830
:1000900000000000913700089137000891370008F0
:1000A0009137000891370008913700089137000810
:1000B000AD240008CD2400089137000891370008CE
:1000C00091370008913700089137000891370008F0
:1000D000ED24000801250008913700089137000839
:1000E00091370008152500082525000891370008DC
:1000F0009137000800000000000000009137000860
:100100009137000891370008392500089137000819
:10011000913700089137000891370008913700089F
:10012000913700089137000891370008913700088F
:08013000913700084D2500087D
:1001380010B5054C237833B9044B13B10448AFF319
:1001480000800123237010BD9C05002000000000E2
:1001580080F5010808B5034B1BB103490348AFF309
:10016800008008BD00000000A005002080F50108FF
:10017800034613F8012B002AFBD1181A01387047DF
:1001880081F0004102E000BF83F0004330B54FEA40
:1001980041044FEA430594EA050F08BF90EA020FAD
:1001A8001FBF54EA000C55EA020C7FEA645C7FEA40
:1001B800655C00F0E2804FEA5454D4EB5555B8BF63
:1001C8006D420CDD2C4480EA020281EA030382EAD4
:1001D800000083EA010180EA020281EA0303362D66
:1001E80088BF30BD11F0004F4FEA01314FF4801C39
:1001F8004CEA113102D0404261EB410113F0004F4B
:100208004FEA03334CEA133302D0524263EB430301
:1002180094EA050F00F0A780A4F10104D5F1200E9F
:100228000DDB02FA0EFC22FA05F2801841F10001FA
:1002380003FA0EF2801843FA05F359410EE0A5F1CE
:1002480020050EF1200E012A03FA0EFC28BF4CF0FF
:10025800020C43FA05F3C01851EBE37101F00045B5
:1002680007D54FF0000EDCF1000C7EEB00006EEBC2
:100278000101B1F5801F1BD3B1F5001F0CD349084C
:100288005FEA30004FEA3C0C04F101044FEA4452A3
:1002980012F5800F80F09A80BCF1004F08BF5FEA2A
:1002A800500C50F1000041EB045141EA050130BD0A
:1002B8005FEA4C0C404141EB0101013C28BFB1F51C
:1002C800801FE9D291F0000F04BF01460020B1FA67
:1002D80081F308BF2033A3F10B03B3F120020CDA3A
:1002E8000C3208DD02F1140CC2F10C0201FA0CF018
:1002F80021FA02F10CE002F11402D8BFC2F1200C7D
:1003080001FA02F120FA0CFCDCBF41EA0C01904032
:10031800E41AA2BF01EB0451294330BD6FEA04047B
:100328001F3C1CDA0C340EDC04F11404C4F1200266
:1003380020FA04F001FA02F340EA030021FA04F378
:1003480045EA030130BDC4F10C04C4F1200220FACF
:1003580002F001FA04F340EA0300294630BD21FA0D
:1003680004F0294630BD94F0000F83F4801306BFD3
:1003780081F480110134013D4EE77FEA645C18BFC7
:100388007FEA655C29D094EA050F08BF90EA020F5E
:1003980005D054EA000C04BF1946104630BD91EA56
:1003A800030F1EBF0021002030BD5FEA545C05D159
:1003B8004000494128BF41F0004130BD14F5800498
:1003C8003CBF01F5801130BD01F0004545F0FE410C
:1003D80041F470014FF0000030BD7FEA645C1ABF41
:1003E800194610467FEA655C1CBF0B46024650EA78
:1003F800013406BF52EA033591EA030F41F40021A4
:1004080030BD00BF90F0000F04BF0021704730B529
:100418004FF4806404F132044FF000054FF00001FE
:1004280050E700BF90F0000F04BF0021704730B5BF
:100438004FF4806404F1320410F0004548BF404294
:100448004FF000013EE700BF42004FEAE2014FEAE9
:1004580031014FEA02701FBF12F07F4393F07F4FC4
:1004680081F06051704732F07F4208BF704793F0C7
:100478007F4F04BF41F40021704730B54FF46074DA
:1004880001F0004521F000411CE700BF50EA0102DD
:1004980008BF704730B54FF000050AE050EA010286
:1004A80008BF704730B511F0004502D5404261EBF6
:1004B80041014FF4806404F132045FEA915C3FF437
:1004C800D8AE4FF003025FEADC0C18BF03325FEAD4
:1004D800DC0C18BF033202EBDC02C2F1200300FA85
:1004E80003FC20FA02F001FA03FE40EA0E0021FAAA
:1004F80002F11444BDE600BF70B54FF0FF0C4CF498
:10050800E06C1CEA11541DBF1CEA135594EA0C0F49
:1005180095EA0C0F00F0DEF82C4481EA030621EA84
:100528004C5123EA4C5350EA013518BF52EA0335BF
:1005380041F4801143F4801338D0A0FB02CE4FF071
:100548000005E1FB02E506F00042E0FB03E54FF0A1
:100558000006E1FB03569CF0000F18BF4EF0010E99
:10056800A4F1FF04B6F5007F64F5407404D25FEA95
:100578004E0E6D4146EB060642EAC62141EA555148
:100588004FEAC52040EA5E504FEACE2EB4F1FD0C8A
:1005980088BFBCF5E06F1ED8BEF1004F08BF5FEA08
:1005A800500E50F1000041EB045170BD06F00046BA
:1005B80046EA010140EA020081EA0301B4EB5C0467
:1005C800C2BFD4EB0C0541EA045170BD41F480115F
:1005D8004FF0000E013C00F3AB8014F1360FDEBF84
:1005E800002001F0004170BDC4F10004203C35DA60
:1005F8000C341BDC04F11404C4F1200500FA05F3E3
:1006080020FA04F001FA05F240EA020001F0004283
:1006180021F0004110EBD37021FA04F642EB0601F9
:100628005EEA430E08BF20EAD37070BDC4F10C0423
:10063800C4F1200500FA04F320FA05F001FA04F2E7
:1006480040EA020001F0004110EBD37041F10001D3
:100658005EEA430E08BF20EAD37070BDC4F12005DE
:1006680000FA05F24EEA020E20FA04F301FA05F246
:1006780043EA020321FA04F001F0004121FA04F2EE
:1006880020EA020000EBD3705EEA430E08BF20EABE
:10069800D37070BD94F0000F0FD101F000464000F8
:1006A80041EB010111F4801F08BF013CF7D041EA7A
:1006B800060195F0000F18BF704703F0004652007E
:1006C80043EB030313F4801F08BF013DF7D043EA4F
:1006D8000603704794EA0C0F0CEA135518BF95EA05
:1006E8000C0F0CD050EA410618BF52EA4306D1D18C
:1006F80081EA030101F000414FF0000070BD50EAAB
:10070800410606BF1046194652EA430619D094EA34
:100718000C0F02D150EA013613D195EA0C0F05D11E
:1007280052EA03361CBF104619460AD181EA030172
:1007380001F0004141F0FE4141F470014FF000002A
:1007480070BD41F0FE4141F4780170BD70B54FF0C5
:10075800FF0C4CF4E06C1CEA11541DBF1CEA135545
:1007680094EA0C0F95EA0C0F00F0A7F8A4EB050427
:1007780081EA030E52EA03354FEA013100F088801E
:100788004FEA03334FF0805545EA131343EA1263E7
:100798004FEA022245EA111545EA10654FEA00269C
:1007A8000EF000419D4208BF964244F1FD0404F555
:1007B800407402D25B084FEA3202B61A65EB0305B1
:1007C8005B084FEA32024FF480104FF4002CB6EB6E
:1007D800020E75EB030E22BFB61A754640EA0C00EE
:1007E8005B084FEA3202B6EB020E75EB030E22BF2E
:1007F800B61A754640EA5C005B084FEA3202B6EB6F
:10080800020E75EB030E22BFB61A754640EA9C002D
:100818005B084FEA3202B6EB020E75EB030E22BFFD
:10082800B61A754640EADC0055EA060E18D04FEABB
:10083800051545EA16754FEA06164FEAC30343EA5B
:1008480052734FEAC2025FEA1C1CC0D111F4801F28
:100858000BD141EA00014FF000004FF0004CB6E721
:1008680011F4801F04BF01430020B4F1FD0C88BFC0
:10087800BCF5E06F3FF6AFAEB5EB030C04BFB6EBCB
:10088800020C5FEA500C50F1000041EB045170BDBE
:100898000EF0004E4EEA113114EB5C04C2BFD4EBEB
:1008A8000C0541EA045170BD41F480114FF0000E6F
:1008B800013C90E645EA060E8DE60CEA135594EAEB
:1008C8000C0F08BF95EA0C0F3FF43BAF94EA0C0FEE
:1008D8000AD150EA01347FF434AF95EA0C0F7FF463
:1008E80025AF104619462CE795EA0C0F06D152EAB7
:1008F80003353FF4FDAE1046194622E750EA41069B
:1009080018BF52EA43067FF4C5AE50EA41047FF4AB
:100918000DAF52EA43057FF4EBAE12E74FF0FF3C10
:1009280006E000BF4FF0010C02E000BF4FF0010CE1
:100938004DF804CD4FEA410C7FEA6C5C4FEA430C5A
:1009480018BF7FEA6C5C1BD001B050EA410C0CBFA9
:1009580052EA430C91EA030F02BF90EA020F00200B
:10096800704710F1000F91EA030F58BF994208BF72
:1009780090422CBFD8176FEAE37040F0010070472F
:100988004FEA410C7FEA6C5C02D150EA013C07D186
:100998004FEA430C7FEA6C5CD6D152EA033CD3D0D1
:1009A8005DF8040B704700BF8446104662468C46CB
:1009B8001946634600E000BF01B5FFF7B7FF0028FE
:1009C80048BF10F1000F01BD4DF808EDFFF7F4FF27
:1009D8000CBF012000205DF808FB00BF4DF808EDB2
:1009E800FFF7EAFF34BF012000205DF808FB00BFD5
:1009F8004DF808EDFFF7E0FF94BF012000205DF8F7
:100A080008FB00BF4DF808EDFFF7CEFF94BF0120AB
:100A180000205DF808FB00BF4DF808EDFFF7C4FFA4
:100A280034BF012000205DF808FB00BF4FEA4102F7
:100A380012F5001215D211D56FF47873B3EB625228
:100A480012D94FEAC12343F0004343EA505311F04F
:100A5800004F23FA02F018BF404270474FF00000E1
:100A6800704750EA013005D111F0004008BF6FF01F
:100A7800004070474FF00000704700BF4FEA410246
:100A8800B2F1E04324BFB3F5001CDCF1FE5C0DD9E4
:100A980001F0004C4FEAC0024CEA5070B2F1004F2E
:100AA80040EB830008BF20F00100704711F0804F31
:100AB80021D113F13872BCBF01F00040704741F4F6
:100AC80080114FEA5252C2F11802C2F1200C10FAFA
:100AD8000CF320FA02F018BF40F001004FEAC123DE
:100AE8004FEAD32303FA0CFC40EA0C0023FA02F382
:100AF8004FEA4303CCE77FEA625307D150EA013358
:100B08001EBF4FF0FE4040F44000704701F0004027
:100B180040F0FE4040F40000704700BF80F0004005
:100B280002E000BF81F0004142001FBF5FEA4103BD
:100B380092EA030F7FEA226C7FEA236C6AD04FEABD
:100B48001262D2EB1363C1BFD21841404840414002
:100B5800B8BF5B42192B88BF704710F0004F40F4B4
:100B6800000020F07F4018BF404211F0004F41F4D0
:100B7800000121F07F4118BF494292EA030F3FD09C
:100B8800A2F1010241FA03FC10EB0C00C3F12003AF
:100B980001FA03F100F0004302D5494260EB40003E
:100BA800B0F5000F13D3B0F1807F06D340084FEAA9
:100BB800310102F10102FE2A51D2B1F1004F40EB9E
:100BC800C25008BF20F0010040EA03007047490006
:100BD80040EB0000013A28BFB0F5000FEDD2B0FAA3
:100BE80080FCACF1080CB2EB0C0200FA0CF0AABFC6
:100BF80000EBC25052421843BCBFD0401843704764
:100C080092F0000F81F4000106BF80F40000013269
:100C1800013BB5E74FEA41037FEA226C18BF7FEA40
:100C2800236C21D092EA030F04D092F0000F08BF82
:100C38000846704790EA010F1CBF0020704712F069
:100C48007F4F04D1400028BF40F00040704712F1A8
:100C580000723CBF00F50000704700F0004343F00D
:100C6800FE4040F4000070477FEA226216BF084643
:100C78007FEA23630146420206BF5FEA412390EA06
:100C8800010F40F4800070474FF0000304E000BFFC
:100C980010F0004348BF40425FEA000C08BF7047AD
:100CA80043F0964301464FF000001CE050EA010271
:100CB80008BF70474FF000030AE000BF50EA010286
:100CC80008BF704711F0004302D5404261EB410173
:100CD8005FEA010C02BF84460146002043F0B64398
:100CE80008BFA3F18053A3F50003BCFA8CF2083ABD
:100CF800A3EBC25310DB01FA02FC634400FA02FCC6
:100D0800C2F12002BCF1004F20FA02F243EB0200CC
:100D180008BF20F00100704702F1200201FA02FC2E
:100D2800C2F1200250EA4C0021FA02F243EB020021
:100D380008BF20EADC7070474FF0FF0C1CEAD05265
:100D48001EBF1CEAD15392EA0C0F93EA0C0F6FD026
:100D58001A4480EA010C400218BF5FEA41211ED004
:100D68004FF0006343EA501043EA5111A0FB0131F0
:100D78000CF00040B1F5000F3EBF490041EAD371C5
:100D88005B0040EA010062F17F02FD2A1DD8B3F141
:100D9800004F40EBC25008BF20F00100704790F0B0
:100DA800000F0CF0004C08BF49024CEA502040EA02
:100DB80051207F3AC2BFD2F1FF0340EAC2507047C8
:100DC80040F400004FF00003013A5DDC12F1190F06
:100DD800DCBF00F000407047C2F10002410021FA78
:100DE80002F1C2F1200200FA02FC5FEA310040F190
:100DF800000053EA4C0308BF20EADC70704792F009
:100E0800000F00F0004C02BF400010F4000F013A40
:100E1800F9D040EA0C0093F0000F01F0004C02BF3B
:100E2800490011F4000F013BF9D041EA0C018FE7AA
:100E38000CEAD15392EA0C0F18BF93EA0C0F0AD0B0
:100E480030F0004C18BF31F0004CD8D180EA0100D6
:100E580000F00040704790F0000F17BF90F0004F6F
:100E6800084691F0000F91F0004F14D092EA0C0F51
:100E780001D142020FD193EA0C0F03D14B0218BFE4
:100E8800084608D180EA010000F0004040F0FE402A
:100E980040F40000704740F0FE4040F440007047C6
:100EA8004FF0FF0C1CEAD0521EBF1CEAD15392EA45
:100EB8000C0F93EA0C0F69D0A2EB030280EA010C35
:100EC80049024FEA402037D04FF0805343EA1111CE
:100ED80043EA10130CF000408B4238BF5B0042F12C
:100EE8007D024FF4000C8B4224BF5B1A40EA0C00D1
:100EF800B3EB510F24BFA3EB510340EA5C00B3EB03
:100F0800910F24BFA3EB910340EA9C00B3EBD10FF0
:100F180024BFA3EBD10340EADC001B0118BF5FEA42
:100F28001C1CE0D1FD2A3FF650AF8B4240EBC2506B
:100F380008BF20F0010070470CF0004C4CEA50202C
:100F48007F32C2BFD2F1FF0340EAC250704740F47B
:100F580000004FF00003013A37E792F0000F00F06D
:100F6800004C02BF400010F4000F013AF9D040EAEB
:100F78000C0093F0000F01F0004C02BF490011F47F
:100F8800000F013BF9D041EA0C0195E70CEAD15377
:100F980092EA0C0F08D142027FF47DAF93EA0C0F5E
:100FA8007FF470AF084676E793EA0C0F04D14B0242
:100FB8003FF44CAF08466EE730F0004C18BF31F0F4
:100FC800004CCAD130F000427FF45CAF31F00043EE
:100FD8007FF43CAF5FE700BF4FF0FF3C06E000BF87
:100FE8004FF0010C02E000BF4FF0010C4DF804CDAA
:100FF8004FEA40024FEA41037FEA226C18BF7FEABA
:10100800236C11D001B052EA530C18BF90EA010FBB
:1010180058BFB2EB030088BFC81738BF6FEAE1704A
:1010280018BF40F0010070477FEA226C02D15FEAE6
:10103800402C05D17FEA236CE4D15FEA412CE1D052
:101048005DF8040B704700BF844608466146FFE719
:101058000FB5FFF7C9FF002848BF10F1000F0FBDFB
:101068004DF808EDFFF7F4FF0CBF012000205DF8F4
:1010780008FB00BF4DF808EDFFF7EAFF34BF012079
:1010880000205DF808FB00BF4DF808EDFFF7E0FF12
:1010980094BF012000205DF808FB00BF4DF808ED63
:1010A800FFF7D2FF94BF012000205DF808FB00BFC6
:1010B8004DF808EDFFF7C8FF34BF012000205DF8A8
:1010C80008FB00BF4FEA4002B2F1FE4F0FD34FF0CA
:1010D8009E03B3EB12620DD94FEA002343F000439D
:1010E80010F0004F23FA02F018BF404270474FF04B
:1010F8000000704712F1610F01D1420205D110F0D2
:10110800004008BF6FF0004070474FF00000704784
:1011180042000ED2B2F1FE4F0BD34FF09E03B3EB59
:10112800126209D44FEA002343F0004323FA02F085
:1011380070474FF00000704712F1610F01D1420271
:1011480002D14FF0FF3070474FF00000704700BFEA
:1011580053B94AB9002908BF00281CBF4FF0FF3116
:101168004FF0FF3000F074B9ADF1080C6DE904CE12
:1011780000F006F8DDF804E0DDE9022304B070476A
:101188002DE9F047089E0D4604468846002B4DD1B0
:101198008A42944668D9B2FA82F252B101FA02F34D
:1011A800C2F1200120FA01F10CFA02FC41EA03081D
:1011B80094404FEA1C45210CB8FBF5FE1FFA8CF74A
:1011C80005FB1E8341EA03430EFB07F199420BD945
:1011D8001CEB03030EF1FF3080F01E81994240F2B0
:1011E8001B81AEF1020E63445B1AA4B2B3FBF5F0A7
:1011F80005FB103344EA034400FB07F7A7420AD96A
:101208001CEB040400F1FF3380F00881A74240F290
:10121800058164440238E41B40EA0E4000211EB1F7
:10122800D4400023C6E90043BDE8F0878B4208D9C3
:10123800002E00F0EE800021C6E900050846BDE852
:10124800F087B3FA83F100294AD1AB4202D3824234
:1012580000F2F980841A65EB030301209846002EFA
:10126800E2D0C6E90048DFE702B9FFDEB2FA82F24F
:10127800002A40F09180A1EB0C054FEA1C471FFAA9
:101288008CFE0121B5FBF7F307FB1350250C45EA4B
:1012980000450EFB03F0A84208D91CEB050503F135
:1012A800FF3802D2A84200F2CB8043462D1AA4B2DE
:1012B800B5FBF7F007FB105544EA05440EFB00FEAA
:1012C800A64508D91CEB040400F1FF3502D2A64557
:1012D80000F2BB802846A4EB0E0440EA03409EE7D8
:1012E800C1F120078B4022FA07FC4CEA030C20FAD4
:1012F80007F405FA01F31C43FD404FEA1C4900FAC4
:1013080001F3B5FBF9F8200C1FFA8CFE09FB185500
:1013180040EA054508FB0EF0A84202FA01F20BD993
:101328001CEB050508F1FF3A80F08880A84240F2DE
:101338008580A8F1020865442D1AA4B2B5FBF9F01E
:1013480009FB105544EA054500FB0EFEAE4508D9D9
:101358001CEB050500F1FF346CD2AE456AD90238A2
:10136800654440EA0840A0FB0294A5EB0E05A5429F
:10137800C846A64656D353D05EB1B3EB080265EB18
:101388000E0505FA07F722FA01F3CD401F43C6E917
:1013980000750021BDE8F087C2F1200320FA03F1AF
:1013A8000CFA02FC25FA03F395400D434FEA1C475B
:1013B8001FFA8CFEB3FBF7F107FB11302B0C43EA45
:1013C800004301FB0EF0984204FA02F408D91CEB22
:1013D800030301F1FF382FD298422DD90239634413
:1013E8001B1AADB2B3FBF7F007FB103345EA034510
:1013F80000FB0EF3AB4208D91CEB050500F1FF38E2
:1014080016D2AB4214D902386544ED1A40EA0141BC
:1014180038E73146304607E78646E5E61846FAE6F5
:101428004B45A9D2B9EB020864EB0C0E0138A3E7CF
:101438004046EAE7204694E74146D1E7D0467BE7B5
:10144800023B654432E7084609E76444023842E74C
:10145800704700BF80B485B000AF78604FF0B043EC
:101468001A6E4FF0B0417B6813430B664FF0B043E0
:101478001A6E7B681340FB60FB6800BF1437BD46DB
:1014880080BC704780B483B000AF78604FF0B04341
:101498001A6E7B68DB434FF0B04113400B6600BF08
:1014A8000C37BD4680BC704780B500AF234B244A3B
:1014B8001A60224B4FF000425A60204B00229A607B
:1014C8001E4B0022DA601D4B00221A611B4B0422BE
:1014D8005A611A4B00221A76184B00225A76174B7B
:1014E80000229A76154B0122DA61144B002283F808
:1014F8002020124B00225A62104B00229A620F4B96
:10150800002283F82C200D4B4FF480521A630B4BAA
:1015180007225A63094B07229A63084B002283F873
:101528003C20064B0022DA64044802F0EDFB034637
:10153800002B01D000F0F2FD00BF80BDB8050020EF
:101548000024014080B582B000AF78607B681B68DA
:10155800054A934203D14FF40070FFF77BFF00BFA9
:101568000837BD4680BD00BF0024014080B582B069
:1015780000AF78607B681B68054A934203D14FF43B
:101588000070FFF77FFF00BF0837BD4680BD00BF72
:101598000024014080B400AF034B044A1A6000BF26
:1015A800BD4680BC704700BFB8050020002401403C
:1015B80080B582B000AF0023FB8000233B60134856
:1015C80000F02AF838603B68002B02D10023FB802A
:1015D80016E00F4B1B884FF6FF7293420BD00C4B53
:1015E8001B881A4640F6E44303FB02F23B68B2FB51
:1015F800F3F3FB8004E0074A3B68B2FBF3F3FB809C
:10160800FB8818460837BD4680BD00BF002000B4DF
:10161800AA75FF1FD8084C0080B586B000AF786067
:1016280000237B6107F1080300221A605A609A6060
:10163800FFF73AFF1A4803F096F90346002B01D04A
:1016480000F06CFD7B68BB600023FB6000233B61FE
:1016580007F108031946124802F0A2FE0346002BC0
:1016680001D000F05BFD0E4802F07EFD0346002B22
:1016780001D000F053FD4FF0FF31094802F0ECFDB6
:10168800074802F0B7FD064802F07DFE786104487D
:1016980002F0EEFC7B6918461837BD4680BD00BFD6
:1016A800B805002080B485B000AF78604FF0B04333
:1016B8009A6C4FF0B0417B6813438B644FF0B04392
:1016C8009A6C7B681340FB60FB6800BF1437BD460B
:1016D80080BC704780B500AF0420FFF7E3FF01200E
:1016E800FFF7E0FF002202210B2003F0E2FA0B20B3
:1016F80003F0F9FA002200210C2003F0DAFA0C209A
:1017080003F0F1FA002200210D2003F0D2FA0D2097
:1017180003F0E9FA002200213D2003F0CAFA3D2037
:1017280003F0E1FA00BF80BD80B400AF064B1B692F
:1017380003F40023B3F5002F01D1012300E00023B7
:101748001846BD4680BC70470040005880B58CB034
:1017580000AFF860B9607A603B600023FB62FB6809
:1017680003F17842564B1B689902564B0B40B2FB6B
:10177800F3F101FB03F3D31ADB0ABB61FA687B6858
:10178800134403F17843013B4D4A126891024D4AD4
:101798000A40B3FBF2F101FB02F29B1ADB0A7B6100
:1017A8007B68BB62FB687B62BB683B62BB68002BE3
:1017B80009D07B6803F00703002B04D1FB6803F012
:1017C8000703002B02D06FF0040374E03E4B5B6903
:1017D800002B02DA6FF003036DE0BA697B699A4265
:1017E80005D0FB68C3F30A03C3F50063BB62BB699A
:1017F800FB615BE07B6AB96A184600F0F8F80346BB
:10180800002B37D03B68002B02D16FF0040352E065
:10181800FB6903F58033DB024FF400621946386830
:101828001CF0CCFA7B6AC3F30A033A681344396A9A
:10183800BA6A92B218461CF0C1FA00220121F8696E
:1018480000F065F80346002B03D06FF00103FB623C
:1018580030E0FB6903F58033DB024FF4006239683E
:10186800184600F08AF80346002B10D06FF00203E8
:10187800FB621FE03B6ABA6A1946786A00F07DF895
:101888000346002B03D06FF00203FB6212E07A6A72
:10189800BB6A13447B623A6ABB6A13443B627A6848
:1018A800BB6AD31ABB62FB690133FB61FA697B69C6
:1018B8009A429FD9FB6A18463037BD4680BD00BFA3
:1018C800E075FF1F00FCFF030040005880B584B09E
:1018D80000AFF860C7E900230BE000BFFFF724FF63
:1018E8000346002BFAD1D7E90023F968012003F059
:1018F80093FEFB68D3E90023D7E90001994208BFAA
:101908009042EAD1002318461037BD4680BD80B505
:101918008AB000AFF8600B467A607B810223BB6116
:10192800FB68FB617B893B627B68002B08D007F171
:101938001803184604F00EF8034687F827300AE023
:1019480007F1140207F118031146184603F0AAFF1D
:10195800034687F8273097F82730002B08D097F8E8
:101968002730022B01D1012303E06FF0010300E0CF
:10197800002318462837BD4680BD80B58AB000AF21
:10198800F860B9607A60BB687B6200233B62002321
:10199800FB6120E007F110030822796A18461CF061
:1019A8000DFAD7E90423B3F1FF3F08BFB2F1FF3FB7
:1019B80005D0D7E90423F868FFF788FF3862FB6889
:1019C8000833FB607B6A08337B623B6A002B08D1D3
:1019D800FB690133FB617B68DB08FA699A42D9D35A
:1019E80000E000BF3B6A18462837BD4680BD80B47A
:1019F80085B000AF786039600AE07B685A1C7A606D
:101A08001B78FF2B01D0012339E03B68013B3B6089
:101A18007B6803F00703002BEFD17B68FB60002392
:101A2800BB6010E0FB6803F10802FA60D3E9002309
:101A3800B3F1FF3F08BFB2F1FF3F01D001231EE021
:101A4800BB680133BB603B68DB08BA689A42E9D3DC
:101A5800BB68DB003A68D31A3B60FB687B600AE02E
:101A68007B685A1C7A601B78FF2B01D0012306E0A3
:101A78003B68013B3B603B68002BF1D100231846D3
:101A88001437BD4680BC704780B485B000AF78601D
:101A98004FF0B043DA6C4FF0B0417B681343CB642E
:101AA8004FF0B043DA6C7B681340FB60FB6800BF03
:101AB8001437BD4680BC704780B586B000AF3B1D6B
:101AC80000221A605A609A60DA601A610120FFF7F2
:101AD800DBFF0220FFF7D8FF0420FFF7D5FF002225
:101AE8004FF48361294804F027FA0122202127486E
:101AF80004F022FA002240F231214FF0904004F025
:101B08001BFA4FF487637B600123BB600023FB60F3
:101B180003233B613B1D19461C4803F0DFFF3123BB
:101B28007B600123BB600023FB6003233B613B1DFB
:101B380019464FF0904003F0D1FF4FF400537B60FB
:101B48004FF40413BB600123FB603B1D19460F488B
:101B580003F0C4FF4FF400737B601123BB600023C4
:101B6800FB6003233B613B1D19464FF0904003F097
:101B7800B5FF00220021292003F09BF8292003F05B
:101B8800B2F800BF1837BD4680BD00BF000400484A
:101B980080B485B000AF78604FF0B043DA6C4FF096
:101BA800B0417B681343CB644FF0B043DA6C7B6879
:101BB8001340FB60FB6800BF1437BD4680BC70470C
:101BC80080B485B000AF78604FF0B0439A6D4FF0A5
:101BD800B0417B6813438B654FF0B0439A6D7B68C7
:101BE8001340FB60FB6800BF1437BD4680BC7047DC
:101BF80080B500AF1B4B1C4A1A601A4B1B4A5A602F
:101C0800184B00229A60174B0122DA60154B00220C
:101C18001A61144B00225A61124B00229A61114B2F
:101C28000022DA610F4B00221A620E4804F0B4F960
:101C38000346002B01D000F071FA0021094804F096
:101C48009BFE0346002B01D000F068FA00210548EE
:101C580004F0DCFE0346002B01D000F05FFA00BF61
:101C680080BD00BF1C06002000580040BB7C7000EF
:101C780080B596B000AF786007F1440300221A607F
:101C88005A609A60DA601A6107F10C033822002161
:101C980018461DF07FFB7B681B68214A93423BD1A5
:101CA8008023FB604FF440237B6207F10C03184646
:101CB80006F082F90346002B01D000F02FFA01202C
:101CC800FFF766FF0220FFF763FF4FF400437B64D2
:101CD8001223BB640123FB6401233B6504237B655A
:101CE80007F1440319464FF0904003F0F7FE4FF414
:101CF80000437B641223BB640123FB6401233B651F
:101D080004237B6507F144031946064803F0E6FE01
:101D18004FF48000FFF754FF00BF5837BD4680BD21
:101D2800005800400004004880B483B000AF7860D9
:101D38004FF0B043D3F8903023F018024FF0B04181
:101D48007B681343C1F8903000BF0C37BD4680BC98
:101D5800704700000000000080B586B002AF01F0B7
:101D6800E5FD00F0C3F8FFF7A7FE0AF04FF801F011
:101D780001FAFFF73DFF00F057FE00F089FE504BD7
:101D880000221A70FD23FB7200F0D4F920224D497D
:101D98004D4809F070FF4D4B1B681A684B4B1B6888
:101DA80022F004021A6000224FF400714FF09040B4
:101DB80004F0C2F8464807F0A9FA07F10B026423B9
:101DC800009301238821434804F076F900F034F9A0
:101DD8000AF024F800F0F2F9034698473A1D642304
:101DE8000093062388213B4804F05AFA3B799BB2BA
:101DF8001B029AB27B799BB21344FB81FB799BB29D
:101E08001B029AB23B7A9BB21344BB81FB891846EA
:101E1800FEF73AFF03461846FEF716FB24A3D3E95C
:101E28000023FEF769FB02460B461046194622A31B
:101E3800D3E90023FEF78AFC02460B4610461946F2
:101E48004FF00002244BFEF79FF902460B4610465E
:101E58001946FEF713FE0346204A1360BB8918464D
:101E6800FEF712FF03461846FEF7EEFA4FF000029F
:101E78001B4BFEF741FB02460B46104619460EA3C4
:101E8800D3E90023FEF762FC02460B4610461946CA
:101E98004FF00002134BFEF777F902460B46104647
:101EA8001946FEF7EBFD03460F4A136085E700BFAE
:101EB8000000000000E0654000000000E0FFEF4087
:101EC800080000206806002060080020B0090020F3
:101ED800300700201C060020008046408C060020A9
:101EE80000405F40000018409006002080B59AB07E
:101EF80000AF07F120034822002118461DF04AFAD6
:101F080007F1080300221A605A609A60DA601A61C1
:101F18005A6104F0C7FD0020FFF706FF1E4B1B683F
:101F280023F4C0631C4A43F4007313601A4B1B6804
:101F380003F4C0637B607B6805233B624FF40413A2
:101F48007B628123FB620023BB620023FB6407F1F1
:101F58002003184605F0F2F80346002B01D000F0E4
:101F6800DDF84F23BB600223FB6000233B610023A5
:101F78007B610023BB610023FB6107F1080301219A
:101F8800184605F077FC0346002B01D000F0C6F890
:101F980000BF6837BD4680BD0004005880B483B0D8
:101FA80000AF78600B467B807B681B68134A9342BE
:101FB8001ED1134B1B78422B17D1114B5B784D2B3D
:101FC80013D10F4B9B7F1B020D4AD27F1344002B6A
:101FD8000BD00B4B9B799BB21B029AB2084BDB7957
:101FE8009BB213449AB2074B1A80074B01221A700E
:101FF80000BF0C37BD4680BC704700BF004400409E
:1020080068060020880600200800002080B500AF80
:1020180000224FF400714FF0904003F08DFF00BF95
:1020280080BD80B500AF01224FF400714FF09040A1
:1020380003F082FF00BF80BD80B500AF0A4B1B785C
:10204800002B0FD0094B00221A702022084909489A
:1020580009F011FE084B1B681A68074B1B6822F031
:1020680004021A6000BF80BD0000002008000020A4
:102078006806002060080020B009002080B582B002
:1020880000AF78607B681E4A934234D11D4B1B68B1
:1020980001331C4A13601B4B1B68B3F5577F14D0E0
:1020A800B3F5577F17DCB3F54D7F03D0B3F5527FF7
:1020B80004D010E0144800F04DF80CE0134B012256
:1020C8001A70134800F046F805E0124800F042F88C
:1020D8000E4B00221A700B4B1B680F4A82FB03122F
:1020E8001A445112DA178A1A4FF4617101FB02F28D
:1020F8009A1A044B1A6000BF0837BD4680BD00BF5E
:102108003007002094060020152000080000002059
:10211800412000082B200008C5B3A29180B400AF6D
:1021280072B600BFFEE780B400AF00BFBD4680BCFA
:102138007047000080B400AF044B00221A60044BC3
:1021480000221A6000BFBD4680BC70479806002078
:102158009C06002080B483B000AF7860144B1B68E5
:1021680001335A4203F00F0302F00F0258BF5342E3
:10217800104A1268934201D1012314E00C4B1B68EA
:102188005A1C0B490A600C497A6841F82320084B0D
:102198001B685A4203F00F0302F00F0258BF534264
:1021A800034A1360002318460C37BD4680BC7047AD
:1021B800980600209C060020A006002080B483B06A
:1021C80000AF114B1A68114B1B689A4201D1104B92
:1021D80014E00E4B1B685A1C0C490A600D4A52F851
:1021E80023307B60094B1B685A4203F00F0302F04F
:1021F8000F0258BF5342054A13607B6818460C37D4
:10220800BD4680BC704700BF980600209C06002091
:102218002F210008A006002080B400AF4FF0B04383
:10222800D3F890304FF0B04243F40043C2F89030F6
:1022380000BFBD4680BC704780B485B000AF7860F1
:102248004FF0B0439A6D4FF0B0417B6813438B65F4
:102258004FF0B0439A6D7B681340FB60FB6800BF8A
:102268001437BD4680BC704780B58CB000AF3B1DAD
:102278002C22002118461DF08DF8224B224A1A60A4
:10228800204B1F229A601F4B00221A611D4B00220F
:102298005A611C4B00229A611A4B4FF08042DA6156
:1022A800184B00221A62174B4FF480725A62154875
:1022B80005F09CFF0346002B01D0FFF72FFF1148C4
:1022C80006F08AFA0346002B01D0FFF727FF002308
:1022D8003B620023BB600023BB614FF00053FB61EE
:1022E8004FF48073FB623B1D00221946054805F038
:1022F800F7FF0346002B01D0FFF710FF00BF303770
:10230800BD4680BDE00600200028004080B590B0A2
:1023180000AF786007F108033822002118461DF045
:1023280039F87B681B68164A934225D14FF48033ED
:10233800BB604FF48073FB6307F10803184605F090
:102348003BFE0346002B01D0FFF7E8FEFFF764FFD2
:102358004FF48060FFF770FF00220021022002F096
:10236800A8FC022002F0BFFC002200212A2002F073
:10237800A0FC2A2002F0B7FC00BF4037BD4680BD54
:102388000028004080B400AF034B0122C3F8882026
:1023980000BFBD4680BC70470004005880B400AF41
:1023A80000BFBD4680BC704780B400AF00BFBD46CB
:1023B80080BC704780B500AF01F0D8FAFFF7E2FFA4
:1023C800012004F001FC00BF80BD80B500AF01F022
:1023D800DBFA01F049F900BF80BD80B500AF01F01C
:1023E800C5FA0121002004F06BFB00BF80BD80B559
:1023F80000AF01F0C9FA00BF80BD80B400AF00BFD4
:10240800BD4680BC704780B400AFFEE780B400AF23
:10241800FEE780B400AFFEE780B400AFFEE780B40B
:1024280000AFFEE780B400AF00BFBD4680BC704778
:1024380080B400AF00BFBD4680BC704780B400AF19
:1024480000BFBD4680BC704780B400AF00BFBD462A
:1024580080BC704780B500AF024806F0F9F900BFAC
:1024680080BD00BFE006002080B500AF024802F042
:10247800D1FE00BF80BD00BFF008002080B500AFCE
:10248800024802F0C7FE00BF80BD00BF500900200F
:1024980080B500AF024802F0BDFE00BF80BD00BF9E
:1024A800B009002080B500AF044806F07BFF044B5C
:1024B8001B680133024A136000BF80BD300700204B
:1024C8001807002080B500AF044806F06BFF044BE6
:1024D8001B680133024A136000BF80BD7C070020DF
:1024E8001C07002080B500AF024807F075FA00BF4E
:1024F80080BD00BFD007002080B500AF024807F0BC
:102508006BFA00BF80BD00BF6008002080B500AF37
:102518004FF4005003F028FD00BF80BD80B500AF28
:10252800024806F045F800BF80BD00BFE006002065
:1025380080B500AF024806F0F3FC00BF80BD00BFC5
:102548002007002080B500AF024803F013F800BF51
:1025580080BD00BF5009002080B485B000AF78600E
:102568004FF0B0435A6E4FF0B0417B6813434B664F
:102578004FF0B0435A6E7B681340FB60FB6800BFA6
:102588001437BD4680BC704780B500AF064B0822A3
:102598001A60054806F048FA0346002B01D0FFF7F9
:1025A800BDFD00BF80BD00BF2007002080B582B000
:1025B80000AF78600120FFF7CFFF00220021322012
:1025C80002F077FB322002F08EFB00BF0837BD46D1
:1025D80080BD80B483B000AF78604FF0B0439B6893
:1025E80023F400424FF0B0417B6813438B6000BF77
:1025F8000C37BD4680BC704780B400AF024B1B68E7
:102608001846BD4680BC70478075FF1F80B400AF78
:10261800034B1B68DBB21846BD4680BC704700BF41
:102628008475FF1F80B400AF034B1B681B0A184654
:10263800BD4680BC704700BF8475FF1F80B500AFE2
:102648000020FFF7C6FF1CF04BF9104B01221A704F
:1026580000F088F91CF0D4FB0D481CF07FFC0D4BF2
:102668004FF400421A6102201CF086FCFEF792FF2C
:1026780000F0B0F91BF0FCFA012101201BF038FB37
:10268800012101201BF004FB00BF80BD2C070020A6
:10269800652800080040005880B500AF1BF058FBC3
:1026A80000BF80BD80B582B000AF0023FB71FEF78C
:1026B8007FFF0346BB80BB8840F6B832934202D9FD
:1026C800FE23FB7114E0BB88B3F5E16F02D200234F
:1026D800FB710DE0BB88A3F5E1631A461346DB01E5
:1026E8009B1A5B001A46054BA3FB0223DB09FB710F
:1026F800FB7918460837BD4680BD00BFB5814E1B23
:1027080080B588B000AF0023FB833B1D184600F05E
:1027180037F9BB681846FEF7D5FC0346FB83B7F9C3
:102728001E3018462037BD4680BD90B587B000AF33
:10273800786000237B61FFF75FFF78617B69B3F105
:10274800FF3F38D101F02EF9044601F03FF9034666
:1027580023443B6101F030F9F8603B691A0E7B684D
:102768000733D2B21A703B691A0C7B680633D2B2AF
:102778001A703B691A0A7B680533D2B21A707B68F3
:1027880004333A69D2B21A70FB681A0E7B680333B5
:10279800D2B21A70FB681A0C7B680233D2B21A7074
:1027A800FB681A0A7B680133D2B21A70FB68DAB286
:1027B8007B681A7031E07B6807337A69D2B21A7085
:1027C8007B691A0A7B680633D2B21A707B691A0CC5
:1027D8007B680533D2B21A707B691A0E7B680433A2
:1027E800D2B21A70FFF712FF78617B6803337A69F7
:1027F800D2B21A70FFF716FF78617B6802337A69E4
:10280800D2B21A707B691A0A7B680133D2B21A7085
:102818007B691B0CDAB27B681A7000BF1C37BD4697
:1028280090BD90B583B000AF00237B60FFF7E4FE56
:1028380078607B68B3F1FF3F0BD101F0B3F8044631
:1028480001F0BAF803465C4001F0C0F80346634063
:102858007B607B6818460C37BD4690BD80B586B056
:1028680002AF7860396007F1080318461BF080FB57
:10287800BB68B7F90C200092074A1021786800F06D
:102888001DF87868FDF774FC03469AB23B681A8015
:1028980000BF1037BD4680BD98F5010880B500AF70
:1028A800012102201BF0F4F900BF80BD80B500AF04
:1028B800002102201BF0ECF900BF80BD0CB480B5EC
:1028C80084B000AF7860396007F11C03FB60396899
:1028D800FB68BA6978681BF01DFD00BF1037BD465C
:1028E800BDE8804002B0704780B483B000AF786024
:1028F800002318460C37BD4680BC704780B582B0AF
:1029080000AF00237B60064B1B78002B02D000F041
:10291800DDF978607B6818460837BD4680BD00BF82
:102928002C07002080B582B000AF78607B6818461D
:1029380000F053FA00BF0837BD4680BD80B483B0AD
:1029480000AF7860064BD3F8902005497B681343A5
:10295800C1F8903000BF0C37BD4680BC704700BF3F
:102968000008005880B500AF4FF48040FFF7E6FF3D
:1029780001F036F801F03AF801F03EF800BF80BDEA
:1029880080B487B000AF78600D4B7B610D4B3B6125
:102998000D4BFB607B687A699A607B683A695A607C
:1029A8007B68FA681A607B68084ADA607B68084ABC
:1029B8001A61002318461C37BD4680BC704700BF0B
:1029C800000048420000904100007A440D093E0092
:1029D800AB03050080B483B000AF00237B60002305
:1029E80018460C37BD4680BC704780B400AF00BFA6
:1029F800BD4680BC704780B485B000AF78604FF0AA
:102A0800B0431A6E4FF0B0417B6813430B664FF02A
:102A1800B0431A6E7B681340FB60FB6800BF143735
:102A2800BD4680BC7047000080B500AF164B174A02
:102A38001A60154B40F2E7325A60134B00229A6035
:102A4800114B4FF4FA42DA600F4B00221A610E4B19
:102A580000225A610C4B80229A610B4806F0FEFB5B
:102A68000346002B01D0FFF759FB4FF40030FFF766
:102A7800C2FF002200211C2002F01BF91C2002F0DA
:102A880032F900BF80BD00BF30070020004401407C
:102A980080B500AF154B164A1A60144B00225A60D5
:102AA800124B00229A60114B4FF6FF72DA600F4BFF
:102AB80000221A610D4B00225A610C4B00229A61C8
:102AC8000A4806F0CBFB0346002B01D0FFF726FB94
:102AD8004FF48020FFF78FFF002200211D2002F015
:102AE800E8F81D2002F0FFF800BF80BD7C07002039
:102AF8000048014080B582B000AF78607B681B68F1
:102B0800124A93420CD14FF40030FFF774FF0022B1
:102B180000211C2002F0CDF81C2002F0E4F810E09F
:102B28007B681B680A4A93420BD14FF48020FFF759
:102B380062FF002200211D2002F0BBF81D2002F0D8
:102B4800D2F800BF0837BD4680BD00BF0044014031
:102B58000048014080B483B000AF78607B689B6810
:102B680018460C37BD4680BC7047000080B582B05F
:102B780000AF0023FB71144B1B7883F00103DBB219
:102B8800002B1BD0114B4FF0FF321A63FFF76CFB81
:102B980000F056F84FF480710C4805F0ADFC0B4B73
:102BA8004FF0FF321A63094805F0E4FD002000F0F9
:102BB800D3F900F05FF8044B01221A70FB7918462C
:102BC8000837BD4680BD00BFC8070020E0060020CA
:102BD80080B58EB000AF7860002387F8373007F1F2
:102BE80008032C22002118461CF0D4FB00F028F81A
:102BF800114B1B687A6813447B6000237B627B68F7
:102C0800DB43FB600023FB614FF000533B624FF452
:102C180080733B6307F1080301221946074805F052
:102C28005FFB0346002B01D0FFF778FA97F837309F
:102C380018463837BD4680BDCC070020E006002086
:102C480080B582B000AF0023FB71084B0122DA6522
:102C58004FF48071064805F04FFC054B4FF0FF32EA
:102C68001A63FB7918460837BD4680BD0028004026
:102C7800E006002080B500AF00F08EF90346034A55
:102C88001360024B1B68184680BD00BFCC070020AC
:102C980080B400AF024B1B681846BD4680BC704725
:102CA800CC07002080B582B000AF00237B6000F025
:102CB80073F90246044B1B68D31A7B607B6818467D
:102CC8000837BD4680BD00BFCC07002080B582B064
:102CD80000AF00237B60064B1B78002B02D000F06E
:102CE8005BF978607B6818460837BD4680BD00BF31
:102CF800C807002080B483B000AF00237B600323A3
:102D08007B607B6818460C37BD4680BC7047B0B501
:102D180084B000AF78600021F960796800200A4625
:102D28000346950D94024FF47A724FF00003204643
:102D38002946FEF70DFA02460B461346FB60FB6870
:102D480018461037BD46B0BD2DE9B00F85B000AFAD
:102D580078600021F960796800200C460546204615
:102D680029464FF0000A4FF0000B4FEA411B4BEA8F
:102D7800D06B4FEA401A50465946021B61EB0503D7
:102D88004FF000004FF00001990041EA9271900065
:102D980002460B4612EB040843EB05094FF000020C
:102DA8004FF000034FEAC90343EA58734FEAC802D9
:102DB80090469946404649464FF000024FF00003BE
:102DC800820A42EA81528B0A1346FB60FB68184666
:102DD8001437BD46BDE8B00F704780B584B000AF6A
:102DE80078607868FFF793FFF86000F0D5F8B8606E
:102DF80000E000BF00F0D0F80246BB68D31AFA68BA
:102E08009A42F6D800BF00BF1037BD4680BD80B5D6
:102E180082B000AF78601BF0B1FE00BF0837BD4636
:102E280080BD80B584B000AF786000F0A5F8F86088
:102E3800FB680133184600F08FF800BF1037BD4615
:102E480080BD2DE9B04F8CB000AF78610023FB62E4
:102E580000F0A2F8B86200F08FF878627B6A00226E
:102E6800BB60FA604FF000024FF00003B9680B0036
:102E78000022B96A00200C46054612EB040843EB11
:102E88000509C7E90689D7E906014FF000024FF0A6
:102E98000003820A42EA81528B0A1346FB62BB692D
:102EA80000223B607A603B68C3F3090A4FF0000BCD
:102EB800C7E906ABBB691846FFF746FF03469AB257
:102EC8007B691A80FB6A18463037BD46BDE8B08F6B
:102ED80080B582B000AF78607A680021034805F0B9
:102EE800DBFC00BF0837BD4680BD00BFE006002000
:102EF80080B582B000AF78607A680121034805F098
:102F0800CBFC00BF0837BD4680BD00BFE0060020EF
:102F180080B582B000AF00237B600021044805F033
:102F2800D3FC78607B6818460837BD4680BD00BF73
:102F3800E006002080B582B000AF00237B6001214D
:102F4800044805F0C1FC78607B6818460837BD4620
:102F580080BD00BFE006002080B582B000AF786079
:102F68007A680221034805F097FC00BF0837BD4680
:102F780080BD00BFE006002080B582B000AF02210E
:102F8800044805F0A1FC78607B6818460837BD4600
:102F980080BD00BFE006002080B582B000AF0B48BE
:102FA800FFF7D8FD786003E00848FFF7D3FD7860A5
:102FB8000648FFF7CFFD02467B689342F4D17B6851
:102FC800DB4318460837BD4680BD00BF00280040D7
:102FD80080B485B000AF78604FF0B043DA6C4FF042
:102FE800B0417B681343CB644FF0B043DA6C7B6825
:102FF8001340FB60FB6800BF1437BD4680BC7047B8
:1030080080B485B000AF78604FF0B0439A6D4FF050
:10301800B0417B6813438B654FF0B0439A6D7B6872
:103028001340FB60FB6800BF1437BD4680BC704787
:1030380080B483B000AF78604FF0B0439A6D7B687E
:10304800DB434FF0B04113408B6500BF0C37BD46E2
:1030580080BC704780B485B000AF78604FF0B04353
:103068001A6E4FF0B0417B6813430B664FF0B043C4
:103078001A6E7B681340FB60FB6800BF1437BD46BF
:1030880080BC704780B483B000AF78604FF0B04325
:103098001A6E7B68DB434FF0B04113400B6600BFEC
:1030A8000C37BD4680BC704780B483B000AF7860F1
:1030B800054B5A6804497B6813434B6000BF0C37C3
:1030C800BD4680BC704700BF0000014080B500AF1E
:1030D800264B274A1A60254B4FF4E1325A60234B9E
:1030E80000229A60214B0022DA60204B00221A61EC
:1030F8001E4B0C225A611D4B00229A611B4B002269
:10310800DA611A4B00221A62184B00225A62174BD6
:1031180040229A62154B4FF480125A64134B0022D6
:103128009A64124806F020FB0346002B01D0FEF7F4
:10313800F5FF00210D4808F022FD0346002B01D0C1
:10314800FEF7ECFF0021094808F057FD0346002B65
:1031580001D0FEF7E3FF054808F09EFC0346002B6C
:1031680001D0FEF7DBFF00BF80BD00BFD007002005
:103178000038014080B500AF234B244A1A60224B27
:103188004FF416525A60204B00229A601E4B0022C0
:10319800DA601D4B00221A611B4B0C225A611A4B34
:1031A80000229A61184B4FF40042DA61164B002254
:1031B8001A62154B00225A62134B00229A62124877
:1031C80006F0D2FA0346002B01D0FEF7A7FF002134
:1031D8000D4808F0D4FC0346002B01D0FEF79EFFF3
:1031E8000021094808F009FD0346002B01D0FEF72D
:1031F80095FF054808F08BFC0346002B01D0FEF72D
:103208008DFF00BF80BD00BF600800200044004063
:1032180080B59AB000AF786007F1540300221A60B5
:103228005A609A60DA601A6107F1440300221A6052
:103238005A609A60DA6007F10C03382200211846B8
:103248001CF0A8F87B681B68834A934240F0A3806F
:103258000123FB604FF440333B6107F10C03184630
:1032680004F0AAFE0346002B01D0FEF757FF4FF4E7
:103278008040FFF7EFFE0220FFF7AAFEC0237B6520
:103288000223BB650123FB6501233B6607237B669D
:1032980007F154031946714802F020FC4FF400303E
:1032A800FFF702FF4FF48030FFF7FEFE6C4B6D4ACC
:1032B8001A606B4B12225A60694B10229A60684B55
:1032C8000022DA60664B80221A61654B00225A613F
:1032D800634B00229A61624B0022DA61604B002244
:1032E8001A625F4801F01CFD0346002B01D0FEF76F
:1032F80015FF7B685A4A9A67594A7B6893625A4B0A
:103308005A4A1A60584B11225A60574B00229A6049
:10331800554B0022DA60544B80221A61524B00222E
:103328005A61514B00229A614F4B0022DA614E4B91
:1033380000221A624C4801F0F3FC0346002B01D02E
:10334800FEF7ECFE00237B640023BB64002387F8B0
:103358004C30012387F84D3001233B6507F14403C6
:103368001946414802F0C6F80346002B01D0FEF783
:10337800D5FE7B683C4ADA673B4A7B689362002249
:103388000221242001F095FC242001F0ACFC0C2043
:1033980001F0A9FC5CE07B681B68354A934257D171
:1033A8000223FB604FF440237B6107F10C031846AE
:1033B80004F002FE0346002B01D0FEF7AFFE4FF4E7
:1033C8000030FFF71DFE0120FFF702FE0C237B658E
:1033D8000223BB650123FB6501233B6607237B664C
:1033E80007F1540319464FF0904002F077FB214B48
:1033F800214A1A601F4B13225A601E4B00229A6002
:103408001C4B0022DA601B4B80221A61194B0022E8
:103418005A61184B00229A61164B0022DA61154B4B
:1034280000221A62134801F07BFC0346002B01D0EE
:10343800FEF774FE7B680F4ADA670E4A7B68936270
:1034480000220021252001F034FC252001F04BFC4E
:1034580000BF6837BD4680BD003801400004004801
:10346800F008002008000240500900201C0002401B
:1034780000440040B00900203000024080B582B00E
:1034880000AF78607B681B68194A934215D14FF4E6
:103498008040FFF7F7FDC021164802F07FFC7B68EB
:1034A8009B6F184601F0E4FC7B68DB6F184601F05F
:1034B800DFFC242001F025FC15E07B681B680E4A20
:1034C800934210D14FF40030FFF7B2FD0C214FF0BA
:1034D800904002F063FC7B68DB6F184601F0C8FC83
:1034E800252001F00EFC00BF0837BD4680BD00BF97
:1034F80000380140000400480044004080B483B014
:1035080000AF78604FF0B0431A6C4FF0B0417B6861
:1035180013430B6400BF0C37BD4680BC704780B4B2
:1035280083B000AF78604FF0B0431A6C7B68DB4320
:103538004FF0B04113400B6400BF0C37BD4680BC50
:103548007047000080B483B000AF7860064BD3F8B2
:10355800802005497B681343C1F8803000BF0C37D1
:10356800BD4680BC704700BF0008005880B582B0D7
:1035780000AF7860074A7B681360FEF7ABF8FFF787
:10358800A5FD4FF08060FFF7DDFF002318460837E0
:10359800BD4680BD140A002080B500AF4FF48040BE
:1035A800FFF7ACFF4FF48040FFF7B9FF0448FFF77F
:1035B80065FF0F2001F0A5FB0023184680BD00BF62
:1035C800D007002080B582B000AF78600B467B80C2
:1035D8007B881A467968044806F06CF90023184677
:1035E8000837BD4680BD00BFD007002080B584B035
:1035F80000AF7860194A7B6813604FF40013BB6012
:1036080007F1080393E80600154808F0B8F900BF69
:10361800134B1B68DB6903F48033B3F5803FF7D0A5
:1036280000BF0F4B1B68DB6903F48003B3F5800F01
:10363800F7D10B4B1B689A68094B1B6842F4800250
:103648009A60074808F0F6F901220649044806F08E
:10365800DBF8002318461037BD4680BD180A002045
:10366800D0070020100A002080B500AF084806F0F7
:103678007BF80346002B01D0FEF750FD054801F00A
:103688004FFB0346002B01D0FEF748FD00BF80BD6D
:10369800D0070020F008002080B582B000AF786025
:1036A8007B681B68054A934203D1054B1B680020C1
:1036B800984700BF0837BD4680BD00BF00380140AD
:1036C800140A002080B582B000AF78607B681B6860
:1036D800134A934213D1134B1B68002B0AD07B6803
:1036E800D3F88C30002B05D10E4B1B68002201212A
:1036F8000D48984701220C49786806F085F87B68E0
:103708001B680A4A934206D1094B1B6810221A62A9
:10371800084B01221A7000BF0837BD4680BD00BFA4
:1037280000380140180A0020100A00200044004018
:1037380060080020080000200D488546FFF755F96D
:103748000C480D490D4A002302E0D458C4500433F4
:10375800C4188C42F9D30A4A0A4C002301E01360CA
:103768000432A242FBD31BF0F1FDFEF7F5FAFEE7A7
:1037780000000120000000209C05002038050208F8
:103788009C050020C42A0020FEE780B586B000AF63
:103798003B1D00221A605A609A60DA601A61102391
:1037A8007B600123BB600023FB6003233B613B1D5F
:1037B80019464FF0904002F091F920237B603B1DA1
:1037C80019464FF0904002F089F9002220214FF06D
:1037D800904002F0B1FB002210214FF0904002F01F
:1037E800ABFB002318461837BD4680BD80B582B0B4
:1037F80000AF0346FB71FB79032B3FD801A252F8B7
:1038080023F000BF1D380008373800085138000879
:103818006B380008002210214FF0904002F08CFB1A
:10382800002220214FF0904002F086FB27E0012281
:1038380010214FF0904002F07FFB002220214FF032
:10384800904002F079FB1AE0012210214FF09040DD
:1038580002F072FB012220214FF0904002F06CFB35
:103868000DE0002210214FF0904002F065FB01228C
:1038780020214FF0904002F05FFB00E000BF0023E2
:1038880018460837BD4680BD80B400AF02231846ED
:10389800BD4680BC704780B400AF01231846BD46C2
:1038A80080BC704780B400AF01231846BD4680BC79
:1038B800704780B485B000AF0346FB71FB79002BDD
:1038C80002D10F23FB6001E01623FB60FB6818465A
:1038D8001437BD4680BC704780B400AF044B5B68AA
:1038E800034A43F00103536000BFBD4680BC7047E4
:1038F800002004E080B400AF044B5B68034A43F047
:103908000203536000BFBD4680BC7047002004E03E
:1039180080B400AF044B5B68034A43F00403536070
:1039280000BFBD4680BC7047002004E080B582B06F
:1039380000AF0023FB71032001F0B0F904F05EF939
:103948000346094A13600F20FEF7CEFF0346002BFB
:1039580002D00123FB7101E0FEF74FFDFB79184609
:103968000837BD4680BD00BF0400002080B400AF0A
:10397800044B1B68034A23F00203136000BFBD46D3
:1039880080BC704710E000E080B400AF044B1B68B7
:10399800034A43F00203136000BFBD4680BC704772
:1039A80010E000E080B400AF024B1B681846BD462B
:1039B80080BC70479075FF1F80B400AF024B1B6836
:1039C8001846BD4680BC70479475FF1F80B400AF91
:1039D800024B1B681846BD4680BC70479875FF1F90
:1039E80080B500AFFFF778FF00BF80BD80B500AF9E
:1039F800FFF780FF00BF80BD80B500AFFFF788FFED
:103A080000BF80BD80B483B000AF786039607B6848
:103A18001B6823F0E0723B681A437B681A6000BF9A
:103A28000C37BD4680BC704780B483B000AF786067
:103A38007B681B6803F0E07318460C37BD4680BCF2
:103A4800704780B485B000AFF860B9607A60FB68F1
:103A58005A69BB6803F00403072101FA03F3DB4347
:103A68001A40BB6803F00403796801FA03F31A43A8
:103A7800FB685A6100BF1437BD4680BC704780B4EC
:103A880083B000AF786039607B685A693B6803F09F
:103A98000403072101FA03F31A403B6803F0040307
:103AA80022FA03F318460C37BD4680BC704780B431
:103AB80083B000AF78607B68DB6803F44063002B59
:103AC80001D1012300E0002318460C37BD4680BC15
:103AD800704780B485B000AFF860B9607A60FB6861
:103AE8009A6ABB6803F01F030F2101FA03F3DB4353
:103AF8001A407B689B0E03F00F01BB6803F01F039D
:103B080001FA03F31A43FB689A6200BF1437BD46F3
:103B180080BC704780B483B000AF786039607B6840
:103B28009A6A3B68C3F311031A437B689A6200BF21
:103B38000C37BD4680BC704780B483B000AF786056
:103B480039607B689A6A3B68C3F31103DB431A4008
:103B58007B689A6200BF0C37BD4680BC704780B452
:103B680085B000AFF860B9607A60FB685A69BB68D5
:103B78001B02DB431A40BB6819027B680B4023F029
:103B88007C4323F0FF031A43FB685A6100BF1437D4
:103B9800BD4680BC704780B483B000AF78607B6856
:103BA8009B6823F0104323F0170343F080527B688F
:103BB8009A6000BF0C37BD4680BC704780B483B0A4
:103BC80000AF78607B689B6823F0104323F01703ED
:103BD8007A68936000BF0C37BD4680BC704780B4DC
:103BE80083B000AF78607B689B6803F08053B3F1C3
:103BF800805F01D1012300E0002318460C37BD4641
:103C080080BC704780B483B000AF78607B689B68E5
:103C180023F0004323F0170343F001027B689A6006
:103C280000BF0C37BD4680BC704780B483B000AF7E
:103C380078607B689B6823F0004323F0170343F008
:103C480002027B689A6000BF0C37BD4680BC704793
:103C580080B483B000AF78607B689B6803F0010391
:103C6800012B01D1012300E0002318460C37BD4683
:103C780080BC704780B483B000AF78607B689B6875
:103C880003F00203022B01D1012300E000231846B0
:103C98000C37BD4680BC704780B483B000AF7860F5
:103CA8007B689B6823F0004323F0170343F004026A
:103CB8007B689A6000BF0C37BD4680BC704780B4F3
:103CC80083B000AF78607B689B6823F0004323F0E3
:103CD800170343F010027B689A6000BF0C37BD469B
:103CE80080BC704780B483B000AF78607B689B6805
:103CF80003F00403042B01D1012300E0002318463C
:103D08000C37BD4680BC704780B588B000AF78607E
:103D18000023FB770023BB6100237B610023BB608A
:103D28007B68002B01D101239EE17B681B69002B76
:103D38007B689B6D002B09D17868FDF703FC7B68D5
:103D48000022DA657B68002283F854207B681B68B0
:103D58001846FFF744FF0346002B15D17B681B6804
:103D68001846FFF718FF994B1B689B09984AA2FB56
:103D780003239B0901335B00BB6002E0BB68013B86
:103D8800BB60BB68002BF9D17B681B681846FFF73E
:103D980026FF0346002B0DD17B689B6D43F0100274
:103DA8007B689A657B68DB6D43F001027B68DA65A6
:103DB8000123FB777B681B681846FFF793FFF860C1
:103DC8007B689B6D03F01003002B40F04481FB6877
:103DD800002B40F040817B689B6D23F4817343F096
:103DE80002027B689A657B681B681846FFF730FFFC
:103DF8000346002B40F0A7807B689A687B681B7E8F
:103E08009B031A437B685B7EDB031A437B689B7EBC
:103E18005B0313437A68126B002A02D04FF4805276
:103E280000E000221A437B68DB681A437B681B6941
:103E3800002B04DA7B681B6923F0004301E04FF490
:103E480000131A437B6893F82C305B001343BA695C
:103E58001343BB617B6893F82030012B14D17B6836
:103E68009B7E002B04D1BB6943F48033BB610BE01C
:103E78007B689B6D43F020027B689A657B68DB6DED
:103E880043F001027B68DA657B685B6A002B09D026
:103E98007B685B6A03F4E0727B689B6A1343BA69C8
:103EA8001343BB617B681B68DB6823F4FE3323F490
:103EB800FF737A681268B9690B43D3607B685B68E3
:103EC80003F040427B68DB6C13437A6913437B61E0
:103ED8007B6893F83C30012B11D17B685B6803F059
:103EE80040427B681B6C1A437B685B6C1A437B6897
:103EF8009B6C1A437B69134343F001037B617B6826
:103F08001B681A69334B13407A68126879690B4346
:103F180013617B685B68B3F1404F14D07B685B68C2
:103F2800B3F1804F0FD07B685B68B3F1004F0AD0C4
:103F3800294B1B6823F470127B685B6803F47013C9
:103F4800254913430B607B6818687B685B6B1A46CE
:103F58000021FFF776FD7B6818687B689B6B1A4623
:103F68001E49FFF76EFD7B681B69002B08D17B6833
:103F78001B689A6A7B681B6862F00F029A6242E0CB
:103F88007B681B69B3F5001F3DD100233B610CE042
:103F98007B681A6E3B699B0022FA03F303F00F0358
:103FA8000F2B06D03B6901333B613B69072BEFD9E7
:103FB80000E000BF3B69012B12D17B681B689A6A3D
:103FC8007B681B6862F00F029A621CE00400002004
:103FD800632D3E0502FCFF1F0827014004FFFF0375
:103FE8007B681B689B6A7B68DB69013B9B0003F06D
:103FF8001C036FF00F0202FA03F17B681A6E7B68EC
:104008001B680A439A627B681B6800211846FFF701
:1040180036FD02467B685B6B9A420BD17B680022B7
:10402800DA657B689B6D23F0030343F001027B682C
:104038009A6518E07B689B6D23F0120343F0100229
:104048007B689A657B68DB6D43F001027B68DA6503
:104058000123FB7707E07B689B6D43F010027B68C8
:104068009A650123FB77FB7F18462037BD4680BD44
:1040780080B584B000AF78607B68002B01D1012344
:104088006AE07B689B6D43F002027B689A657868FA
:1040980000F0BEFA0346FB73FB7B002B0FD1786858
:1040A80000F082FB0346FB73FB7B002B02D17B688D
:1040B80001229A657B681B681846FFF77FFD7B68BD
:1040C8001B685B687A68126823F4677323F003033C
:1040D80053607B681B6840F29F321A607B681B68DC
:1040E800D9687B681A681E4B0B40D3607B681B68D5
:1040F8001A697B681B6822F040421A617B681B685A
:104108005A697B681B6822F007025A617B681B6842
:104118001A6A7B681B6802F0F0221A627B681B68C7
:104128009B6A7B681B6800229A620E4B1B680D4ACB
:1041380023F0FE7313607868FDF718FA7B68002295
:104148001A667B680022DA657B6800229A657B68BC
:10415800002283F85420FB7B18461037BD4680BDEB
:1041680000023E830827014080B584B000AF786024
:104178007B681B681846FFF7B5FD0346002B32D154
:104188007B6893F85430012B01D102232EE07B6821
:10419800012283F85420786800F080FA0346FB7304
:1041A800FB7B002B1AD17B689B6D23F4706323F093
:1041B800010343F480727B689A657B680022DA65A4
:1041C8007B681B681C221A607B68002283F85420D5
:1041D8007B681B681846FFF75FFD06E07B680022D6
:1041E80083F8542001E00223FB73FB7B1846103749
:1041F800BD4680BD80B584B000AF78607B6893F819
:104208005430012B01D1022322E07B68012283F87C
:104218005420786800F0FCF90346FB73FB7B002B05
:1042280011D1786800F0C0FA0346FB73FB7B002BC2
:1042380009D17B689B6D23F4807323F0010343F05D
:1042480001027B689A657B68002283F85420FB7B17
:1042580018461037BD4680BD80B584B000AF786081
:1042680039607B685B69082B02D10823FB6010E08A
:104278007B681B68DB6803F00103002B07D07B68B1
:104288009B6D43F020027B689A65012377E0042345
:10429800FB60FEF733FBB86021E03B68B3F1FF3FFA
:1042A8001DD0FEF72BFB0246BB68D31A3A689A4228
:1042B80002D33B68002B12D17B681B681A68FB6825
:1042C8001340002B0BD17B689B6D43F004027B6885
:1042D8009A657B68002283F8542003234FE07B68AB
:1042E8001B681A68FB681340002BD6D07B689B6D4F
:1042F80043F400727B689A657B681B681846FFF771
:10430800D6FB0346002B31D07B689B7E002B2DD13A
:104318007B681B681B6803F00803082B26D17B68A1
:104328001B681846FFF7DEFC0346002B12D17B689A
:104338001B685A687B681B6822F00C025A607B680D
:104348009B6D23F4807323F0010343F001027B6823
:104358009A650BE07B689B6D43F020027B689A6549
:104368007B68DB6D43F001027B68DA657B681B7E46
:10437800002B03D17B681B680C221A6000231846A7
:104388001037BD4680BD80B483B000AF78607B68CD
:104398001B681B6C18460C37BD4680BC7047000074
:1043A80080B588B000AF786039600023FB770023C0
:1043B800BB607B681B69B3F1004F7B6893F854308E
:1043C800012B01D1022310E17B68012283F85420DC
:1043D8007B681B681846FFF785FC0346002B40F0F6
:1043E800F7803B685B68022B00F0B1807B681B6933
:1043F800B3F1004F04D07B681B697E4A934208D111
:104408007B681A683B681B6819461046FFF782FBF1
:1044180041E07B681A6E3B685B6803F01F030F215D
:1044280001FA03F3DB431A403B681B68C3F311032B
:10443800002B05D13B681B689B0E03F01F0311E09E
:104448003B681B683B613B6993FAA3F3FB60FB681D
:104458007B617B69002B01D1202303E07B69B3FAE0
:1044680083F3DBB23968496801F01F018B401A43B6
:104478007B681A663B685B689B085A1C7B68DB692B
:104488009A4208D87B6818683B6859683B681B687B
:104498001A46FFF71EFB7B6818683B6819683B687B
:1044A8009B681A46FFF75BFB3B681B68002B80F292
:1044B80097805148FFF7B8FAB8613B681B684F4AC4
:1044C800934220D1BB6903F40003002B1BD1BB69C5
:1044D80043F4000319464848FFF794FA484B1B6811
:1044E8009B09484AA2FB03239B095A1C13465B00FD
:1044F80013449B00BB6002E0BB68013BBB60BB6828
:10450800002BF9D16CE03B681B683F4A93420CD101
:10451800BB6903F08073002B07D1BB6943F080733C
:1045280019463548FFF76EFA5AE03B681B68374A68
:10453800934255D1BB6903F48003002B50D1BB696A
:1045480043F4800319462C48FFF75CFA48E07B687F
:104558001B69B3F1004F04D07B681B69254A93425D
:1045680007D17B681A683B681B6819461046FFF735
:10457800E3FA3B681B68002B32DA1F48FFF754FA4E
:10458800B8613B681B681D4A934207D1BB6923F495
:10459800000319461848FFF735FA21E03B681B6805
:1045A800194A934207D1BB6923F080731946124810
:1045B800FFF728FA14E03B681B68144A93420FD1AE
:1045C800BB6923F4800319460B48FFF71BFA07E081
:1045D8007B689B6D43F020027B689A650123FB771B
:1045E8007B68002283F85420FB7F18462037BD469D
:1045F80080BD00BF0400008008270140001000B003
:1046080004000020632D3E05004000B8002000B4DF
:1046180080B584B000AF78607B681B681846FFF7E8
:1046280061FB0346002B33D07B681B681846FFF7F5
:1046380021FB0346002B04D17B681B681846FFF753
:104648003EFBFEF75BF9F8601BE0FEF757F9024600
:10465800FB68D31A022B14D97B681B689B6803F08C
:104668000403002B0DD07B689B6D43F010027B6820
:104678009A657B68DB6D43F001027B68DA6501238C
:1046880007E07B681B689B6803F00403002BDCD100
:10469800002318461037BD4680BD000080B584B0A1
:1046A80000AF78600023BB607B681B681846FFF783
:1046B800CFFA0346002B69D17B681B689A68364B92
:1046C8001340002B0DD07B689B6D43F010027B6874
:1046D8009A657B68DB6D43F001027B68DA6501232C
:1046E80055E07B681B681846FFF78CFA2B48FFF7E4
:1046F8009BF9034603F40003002B0FD0284B1B68DB
:104708009B09284AA2FB03239B090133BB6002E0F3
:10471800BB68013BBB60BB68002BF9D17B685B7E43
:10472800012B33D0FEF7EAF8F86028E07B681B68B5
:104738001846FFF78DFA0346002B04D17B681B68E7
:104748001846FFF75FFAFEF7D9F80246FB68D31A56
:10475800022B14D97B681B681B6803F00103012B2B
:104768000DD07B689B6D43F010027B689A657B686F
:10477800DB6D43F001027B68DA65012307E07B68A3
:104788001B681B6803F00103012BCFD100231846D7
:104798001037BD4680BD00BF1700008008270140C4
:1047A80004000020632D3E0580B584B000AF78601A
:1047B8007B681B681846FFF75DFAF8607B681B6822
:1047C8001846FFF745FA0346002B47D0FB68002B35
:1047D80044D17B681B689B6803F00503012B0CD14F
:1047E8007B681B681846FFF720FA7B681B68032262
:1047F8001A60FEF783F8B86029E07B689B6D43F088
:1048080010027B689A657B68DB6D43F001027B6868
:10481800DA65012323E0FEF771F80246BB68D31A74
:10482800022B14D97B681B689B6803F00103002BDB
:104838000DD07B689B6D43F010027B689A657B689E
:10484800DB6D43F001027B68DA65012307E07B68D2
:104858001B689B6803F00103002BDCD1002318467A
:104868001037BD4680BD80B483B000AF7860396032
:104878007B68D3F8B43023F07F023B681A437B6827
:10488800C3F8B42000BF0C37BD4680BC704780B465
:1048980083B000AF78607B68D3F8B43003F07F034F
:1048A80018460C37BD4680BC704780B483B000AF53
:1048B80078607B689B6823F0004323F0170343F07C
:1048C80001027B689A6000BF0C37BD4680BC704708
:1048D80080B483B000AF78607B689B6823F00043A6
:1048E80023F0170343F002027B689A6000BF0C377D
:1048F800BD4680BC704780B483B000AF78607B68E9
:104908009B6803F00103012B01D1012300E0002380
:1049180018460C37BD4680BC704780B483B000AFE2
:1049280078607B689B6823F0004323F0170343F00B
:1049380000427B689A6000BF0C37BD4680BC704758
:1049480080B483B000AF78607B689B6803F0004355
:10495800B3F1004F01D1012300E0002318460C37C2
:10496800BD4680BC704780B588B000AF7860002332
:10497800BB600023BB617B6893F85430012B01D1E5
:104988000223B9E07B68012283F854207868FFF796
:104998000BFF0346FB757B681B681846FFF7ABFFE8
:1049A8000346002B40F09D807B689B6D23F4817348
:1049B80043F002027B689A657B681B68DA6848F2F4
:1049C800030313403B617B681B68DB687A681268E5
:1049D80023F4004323F00303D3600023FB612EE09C
:1049E8007B681B681846FFF798FF14E0BB68013323
:1049F800BB60BB68B3F52E3F0DD37B689B6D23F07E
:104A0800120343F010027B689A657B68002283F8E2
:104A18005420012370E07B681B681846FFF790FF5D
:104A28000346002BE2D17B681B681846FFF72FFF6F
:104A38000246BB691344BB61FB690133FB61FB6937
:104A4800072BCDD9BA69FB69B2FBF3F3BB617B686D
:104A58001B681846FFF729FF7B681B68B969184669
:104A6800FFF701FF7B681B681846FFF731FFFDF76A
:104A780045FFF8601CE0FDF741FF0246FB68D31ACA
:104A8800022B15D97B681B681846FFF734FF0346CD
:104A9800002B0DD07B689B6D43F010027B689A65F4
:104AA8007B68DB6D43F001027B68DA65012323E054
:104AB8007B681B681846FFF71EFF0346002BDAD1F8
:104AC8007B681B68D9687B681B683A690A43DA60A7
:104AD8007B689B6D23F0030343F001027B689A65B2
:104AE80005E07B689B6D43F010027B689A657B68E4
:104AF800002283F85420FB7D18462037BD4680BD30
:104B080080B485B000AF78607B6803F00703FB6072
:104B18000C4BDB68BB60BA684FF6FF031340BB6001
:104B2800FB681A02BB68134343F0BF6343F40033C6
:104B3800BB60044ABB68D36000BF1437BD4680BC65
:104B4800704700BF00ED00E080B400AF044BDB68A5
:104B58001B0A03F007031846BD4680BC704700BF18
:104B680000ED00E080B483B000AF0346FB7197F915
:104B78000730002B0BDBFB7903F01F02064997F97E
:104B880007305B09012000FA02F241F8232000BF38
:104B98000C37BD4680BC704700E100E080B483B0AC
:104BA80000AF0346FB7197F90730002B12DBFB7946
:104BB80003F01F020A4997F907305B09012000FA40
:104BC80002F2203341F82320BFF34F8F00BFBFF319
:104BD8006F8F00BF00BF0C37BD4680BC704700BF59
:104BE80000E100E080B483B000AF03463960FB7198
:104BF80097F90730002B0ADB3B68DAB20C4997F9C2
:104C080007301201D2B20B4483F800230AE03B6854
:104C1800DAB20849FB7903F00F03043B1201D2B260
:104C28000B441A7600BF0C37BD4680BC704700BFE6
:104C380000E100E000ED00E080B489B000AFF8606A
:104C4800B9607A60FB6803F00703FB61FB69C3F195
:104C58000703042B28BF0423BB61FB690433062B1D
:104C680002D9FB69033B00E000237B614FF0FF3270
:104C7800BB6902FA03F3DA43BB681A407B699A40BE
:104C88004FF0FF317B6901FA03F3D9437B680B408E
:104C9800134318462437BD4680BC704780B582B0A0
:104CA80000AF78607868FFF72BFF00BF0837BD4674
:104CB80080BD80B586B000AF0346B9607A60FB73EB
:104CC800FFF742FF78617A68B9687869FFF7B4FF3F
:104CD800024697F90F3011461846FFF783FF00BFC9
:104CE8001837BD4680BD80B582B000AF0346FB7162
:104CF80097F907301846FFF735FF00BF0837BD465C
:104D080080BD80B582B000AF0346FB7197F90730CC
:104D18001846FFF743FF00BF0837BD4680BD0000B7
:104D280080B582B000AF78607B68002B01D1012389
:104D38008EE07B681B681A46474B9A420FD87B68FF
:104D48001B681A46454B1344454AA2FB03231B091B
:104D58009A007B685A647B68424A1A640EE07B6852
:104D68001B681A46404B13443D4AA2FB03231B0908
:104D78009A007B685A647B683C4A1A647B68022202
:104D880083F825207B681B681B687A68126823F4FF
:104D9800FF4323F0700313607B681B6819687B6806
:104DA8009A687B68DB681A437B681B691A437B68CF
:104DB8005B691A437B689B691A437B68DB691A4302
:104DC8007B681B6A1A437B681B680A431A60786809
:104DD80000F024FB7B689B68B3F5804F02D17B68A9
:104DE80000225A607B685A687B689B6C02F07F02DD
:104DF8001A607B68DB6C7A68126D5A607B685B6846
:104E0800002B10D07B685B68042B0CD8786800F006
:104E18004DFB7B685B6D00221A607B689B6D7A682E
:104E2800D26D5A6008E07B6800225A657B680022D0
:104E38009A657B680022DA657B680022DA637B6802
:104E4800012283F825207B68002283F82420002390
:104E580018460837BD4680BD07040240F8FFFDBF6D
:104E6800CDCCCCCC00000240F8FBFDBF00040240D2
:104E780080B582B000AF78607B68002B01D1012338
:104E88007BE07B681B681A687B681B6822F001025C
:104E98001A607B681B681A463A4B9A420FD87B689F
:104EA8001B681A46384B1344384AA2FB03231B09D4
:104EB8009A007B685A647B68354A1A640EE07B68FE
:104EC8001B681A46334B1344304AA2FB03231B09C1
:104ED8009A007B685A647B682F4A1A647B681B684F
:104EE80000221A607B685B6C03F01C027B681B6CF9
:104EF800012101FA02F25A60786800F08FFA7B68A3
:104F08009B6C00221A607B68DB6C7A68126D5A60B1
:104F18007B685B68002B0FD07B685B68042B0BD821
:104F2800786800F0C3FA7B685B6D00221A607B68C2
:104F38009B6D7A68D26D5A607B6800225A657B68DF
:104F480000229A657B680022DA657B680022DA62B3
:104F58007B6800221A637B6800225A637B68002200
:104F68009A637B680022DA637B68002283F8252035
:104F78007B68002283F82420002318460837BD46A2
:104F880080BD00BF07040240F8FFFDBFCDCCCCCCEC
:104F980000000240F8FBFDBF0004024080B586B067
:104FA80000AFF860B9607A603B600023FB75FB686E
:104FB80093F82430012B01D1022369E0FB68012218
:104FC80083F82420FB6893F82530DBB2012B55D1F8
:104FD800FB68022283F82520FB680022DA63FB685D
:104FE8001B681A68FB681B6822F001021A603B689C
:104FF8007A68B968F86800F0D3F9FB681B6B002B76
:1050080008D0FB681B681A68FB681B6842F00E0230
:105018001A600FE0FB681B681A68FB681B6822F0BF
:1050280004021A60FB681B681A68FB681B6842F078
:105038000A021A60FB689B6C1B6803F48033002B20
:1050480007D0FB689B6C1A68FB689B6C42F4807203
:105058001A60FB685B6D002B07D0FB685B6D1A68F4
:10506800FB685B6D42F480721A60FB681B681A6803
:10507800FB681B6842F001021A6008E0FB688022A6
:10508800DA63FB68002283F824200123FB75FB7D8B
:1050980018461837BD4680BD80B483B000AF78602D
:1050A8007B68002B01D101234FE07B6893F8253002
:1050B800DBB2022B08D07B680422DA637B6800220B
:1050C80083F82420012340E07B681B681A687B680A
:1050D8001B6822F00E021A607B689B6C1A687B685A
:1050E8009B6C22F480721A607B681B681A687B6864
:1050F8001B6822F001021A607B685B6C03F01C02DB
:105108007B681B6C012101FA02F25A607B68DB6C38
:105118007A68126D5A607B685B6D002B0CD07B68D7
:105128005B6D1A687B685B6D22F480721A607B681D
:105138009B6D7A68D26D5A607B68012283F82520BE
:105148007B68002283F82420002318460C37BD46CC
:1051580080BC704780B584B000AF78600023FB73D3
:105168007B6893F82530DBB2022B05D07B680422DC
:10517800DA630123FB7347E07B681B681A687B6866
:105188001B6822F00E021A607B681B681A687B682D
:105198001B6822F001021A607B689B6C1A687B68A6
:1051A8009B6C22F480721A607B685B6C03F01C02B3
:1051B8007B681B6C012101FA02F25A607B68DB6C88
:1051C8007A68126D5A607B685B6D002B0CD07B6827
:1051D8005B6D1A687B685B6D22F480721A607B686D
:1051E8009B6D7A68D26D5A607B68012283F825200E
:1051F8007B68002283F824207B689B6B002B03D0FC
:105208007B689B6B78689847FB7B18461037BD46D0
:1052180080BD000080B584B000AF78607B681B6CEF
:105228001B68FB607B681B681B68BB607B685B6CEA
:1052380003F01C0304229A40FB681340002B27D07C
:10524800BB6803F00403002B22D07B681B681B6833
:1052580003F02003002B07D17B681B681A687B6862
:105268001B6822F004021A607B685B6C03F01C0266
:105278007B681B6C042101FA02F25A607B681B6B85
:10528800002B00F081807B681B6B786898477BE077
:105298007B685B6C03F01C0302229A40FB68134096
:1052A800002B3DD0BB6803F00203002B38D07B688D
:1052B8001B681B6803F02003002B0BD17B681B685D
:1052C8001A687B681B6822F00A021A607B68012250
:1052D80083F825207B681B681A462E4B9A4209D909
:1052E8007B685B6C03F01C032B4A022101FA03F371
:1052F800536008E07B685B6C03F01C03274A0221BB
:1053080001FA03F353607B68002283F824207B684A
:10531800DB6A002B38D07B68DB6A7868984733E013
:105328007B685B6C03F01C0308229A40FB681340FF
:10533800002B2AD0BB6803F00803002B25D07B681C
:105348001B681A687B681B6822F00E021A607B686B
:105358005B6C03F01C027B681B6C012101FA02F2F2
:105368005A607B680122DA637B68012283F8252072
:105378007B68002283F824207B685B6B002B04D0B9
:105388007B685B6B7868984700BF00BF1037BD46E5
:1053980080BD00BF800002400004024000000240BF
:1053A80080B485B000AFF860B9607A603B60FB6894
:1053B800DB6CFA68126D5A60FB685B6D002B04D0D9
:1053C800FB689B6DFA68D26D5A60FB685B6C03F0F2
:1053D8001C02FB681B6C012101FA02F25A60FB688F
:1053E8001B683A685A60FB689B68102B08D1FB68F9
:1053F8001B687A689A60FB681B68BA68DA6007E01D
:10540800FB681B68BA689A60FB681B687A68DA6090
:1054180000BF1437BD4680BC7047000080B485B01B
:1054280000AF78607B681B681A461C4B9A4213D8F9
:105438007B685B6C9B089B0003F1804303F5023398
:105448007A6893647B681B68DBB2083B144AA2FB4A
:1054580003231B09FB6011E07B685B6C9B089A00C7
:10546800104B13447A6893647B681B68DBB2083B73
:105478000B4AA2FB03231B090733FB607B680A4A1C
:10548800DA64FB6803F01F0301229A407B681A65FF
:1054980000BF1437BD4680BC704700BF07040240F8
:1054A800CDCCCCCC1C0802408008024080B485B02A
:1054B80000AF78607B685B6803F07F03FB60FA6885
:1054C8000A4B13449B001A467B685A657B68084A56
:1054D8009A65FB68013B03F0030301229A407B684D
:1054E800DA6500BF1437BD4680BC70473F820010A4
:1054F8004009024080B483B000AF786039607B68AF
:1055080093F82530DBB2012B2BD17B6893F824303C
:10551800012B01D1022328E07B68012283F8242093
:105528007B689B6C1B6803F07F013B681A683B68CB
:10553800DB68013BDB041A433B685B681A433B6842
:105548001B7A1B041A433B685B7A5B021A437B682D
:105558009B6C0A431A607B68002283F8242000238E
:1055680003E07B688022DA63012318460C37BD46C6
:1055780080BC704780B582B000AF78607B68DB6C18
:105588001A687B681B6D1340002B1AD07B689B6CD4
:105598001A687B689B6C22F480721A607B68DB6CEB
:1055A8007A68126D5A607B68DB6B43F400727B6823
:1055B800DA637B685B6B002B03D07B685B6B786876
:1055C80098477B685B6D002B22D07B689B6D1A68BF
:1055D8007B68DB6D1340002B1AD07B685B6D1A6803
:1055E8007B685B6D22F480721A607B689B6D7A68B9
:1055F800D26D5A607B68DB6B43F480627B68DA6348
:105608007B685B6B002B03D07B685B6B7868984783
:1056180000BF0837BD4680BD80B586B000AFF860D2
:10562800B960C7E900231C4B1B78012B01D1022369
:105638002DE0194B01221A70174B00225A604FF4C3
:105648007A7000F069F80346FB75FB7D002B1AD1D0
:10565800FB68012B05D1D7E90023B86800F0BEF834
:1056680004E03B681946B86800F0DEF84FF47A7039
:1056780000F052F80346FB75084B5A69FB68DB4398
:10568800064913404B61044B00221A70FB7D1846F3
:105698001837BD4680BD00BF1C0A002000400058D6
:1056A80080B483B000AF0023FB710B4B5B69002B08
:1056B8000BDA094B094A9A60074B094A9A60064B6C
:1056C8005B69002B01DA0123FB71FB7918460C3763
:1056D800BD4680BC704700BF0040005823016745A5
:1056E800AB89EFCD80B483B000AF0023FB71094BC9
:1056F8005B69084A43F000435361064B5B69002B22
:1057080001DB0123FB71FB7918460C37BD4680BCD1
:10571800704700BF0040005880B584B000AF786083
:10572800FDF7ECF8F86009E0FDF7E8F80246FB68D9
:10573800D31A7A689A4201D8032347E0254B1B699C
:1057480003F48033B3F5803FEED0224B1B69BB6076
:10575800BB6803F00103002B02D01E4B01221A6123
:10576800BA684CF2FA331340BB60BB6803F040439D
:10577800002B07D0174B9A69BB6803F040431549C3
:1057880013438B61BB6823F04043002B04D0114ABC
:10579800BB6823F040431361BB68002B0ED00E4A50
:1057A800BB685360012311E0FDF7A8F80246FB68C7
:1057B800D31A7A689A4201D8032307E0054B1B697C
:1057C80003F48023B3F5802FEED00023184610375A
:1057D800BD4680BD004000581C0A002080B485B03A
:1057E80000AFF860C7E900230E4B5B690D4A43F030
:1057F80001035361FB683A681A60BFF36F8F00BFFB
:10580800D7E900014FF000024FF000030A0000231F
:10581800F968043113460B6000BF1437BD4680BCDD
:10582800704700BF0040005880B489B000AF78606E
:1058380039604023FB777B68BB613B687B61184B11
:105848005B69174A43F480235361EFF31083FB60CD
:10585800FB683B6172B600BF7B691A68BB691A6056
:10586800BB690433BB617B6904337B61FB7F013B0C
:10587800FB77FB7F002BEFD100BF094B1B6903F4BB
:105888008033B3F5803FF8D03B69BB60BB6883F3D6
:10589800108800BF00BF2437BD4680BC704700BFDA
:1058A8000040005880B584B000AF78603960284B5C
:1058B8001B78012B01D1022346E0254B01221A70E7
:1058C800234B00225A604FF47A70FFF725FF0346F6
:1058D800FB73FB7B002B33D17B681B68042B08D13F
:1058E80000F080F84FF47A70FFF716FF0346FB7359
:1058F80024E03B684FF0FF321A607B685B68BB604E
:1059080012E0B86800F07EF84FF47A70FFF704FFF1
:105918000346FB73FB7B002B03D03B68BA681A6015
:105928000AE0BB680133BB607B685A687B689B6888
:105938001344BA689A42E4D300F0C0F800F07AF849
:10594800034B00221A70FB7B18461037BD4680BDFA
:105958001C0A002080B584B000AF78601F4B1B780C
:10596800012B01D1022334E01C4B01221A701B4B7E
:1059780000225A607B681B68184A93604FF47A705B
:10598800FFF7CAFE0346FB73FB7B002B03D0134BC8
:1059980000221A701CE0124B5B69114A43F04073F5
:1059A80053617B681B68042B05D10C4B00221A61DC
:1059B80000F018F80CE07B689B68084A53617B6824
:1059C8005B68064A13617B685B68184600F01AF842
:1059D800FB7B18461037BD4680BD00BF1C0A00205F
:1059E8000040005880B400AF054B5B69044A43F49B
:1059F800803343F00403536100BFBD4680BC704749
:105A08000040005880B483B000AF7860084B5B69F1
:105A180023F47E727B68DB001343054A43F480332A
:105A280043F00203536100BF0C37BD4680BC70478A
:105A38000040005880B400AF1F4B1B6803F400738C
:105A4800012B17D11C4B1B681B4A23F400731360EE
:105A5800194B1B68184A43F400631360164B1B6804
:105A6800154A23F400631360134B1B68124A43F46E
:105A780000731360104B1B6803F48063012B17D16C
:105A88000D4B1B680C4A23F4806313600A4B1B6898
:105A9800094A43F480531360074B1B68064A23F4F2
:105AA80080531360044B1B68034A43F480631360FC
:105AB80000BFBD4680BC70470040005880B400AFAE
:105AC800054B5B69044A23F47E7323F00203536198
