:020000040800F2
:1000000000000120B52A00085318000859180008FC
:100010005F180008651800086B1800080000000051
:10002000000000000000000000000000711800083F
:100030007D180008000000008918000895180008C5
:10004000052B0008052B0008A1180008052B000847
:10005000052B0008052B0008052B0008052B0008C0
:10006000052B0008052B0008052B0008B518000813
:10007000C9180008DD180008052B0008052B00082A
:10008000052B0008052B0008052B0008052B000890
:1000900000000000052B0008052B0008052B0008B8
:1000A000052B0008052B0008052B0008052B000870
:1000B000052B0008052B0008052B0008052B000860
:1000C000052B0008052B0008052B0008052B000850
:1000D000F118000805190008052B0008052B000879
:1000E000052B00081919000829190008052B00081C
:1000F000052B00080000000000000000052B000890
:10010000052B0008052B00083D190008052B0008E9
:10011000052B0008052B0008052B0008052B0008FF
:10012000052B0008052B0008052B0008052B0008EF
:08013000052B0008511900081D
:1001380010B5054C237833B9044B13B10448AFF319
:1001480000800123237010BD500100200000000032
:1001580010B8010808B5034B1BB103490348AFF3B6
:10016800008008BD000000005401002010B80108FC
:10017800034613F8012B002AFBD1181A01387047DF
:100188004FF0FF0C1CEAD0521EBF1CEAD15392EA72
:100198000C0F93EA0C0F6FD01A4480EA010C40024E
:1001A80018BF5FEA41211ED04FF0006343EA5010A8
:1001B80043EA5111A0FB01310CF00040B1F5000FEA
:1001C8003EBF490041EAD3715B0040EA010062F199
:1001D8007F02FD2A1DD8B3F1004F40EBC25008BF83
:1001E80020F00100704790F0000F0CF0004C08BFA1
:1001F80049024CEA502040EA51207F3AC2BFD2F16E
:10020800FF0340EAC250704740F400004FF000037B
:10021800013A5DDC12F1190FDCBF00F000407047B5
:10022800C2F10002410021FA02F1C2F1200200FAF3
:1002380002FC5FEA310040F1000053EA4C0308BFBA
:1002480020EADC70704792F0000F00F0004C02BF0B
:10025800400010F4000F013AF9D040EA0C0093F086
:10026800000F01F0004C02BF490011F4000F013BE0
:10027800F9D041EA0C018FE70CEAD15392EA0C0F4E
:1002880018BF93EA0C0F0AD030F0004C18BF31F0B9
:10029800004CD8D180EA010000F00040704790F08F
:1002A800000F17BF90F0004F084691F0000F91F033
:1002B800004F14D092EA0C0F01D142020FD193EAF9
:1002C8000C0F03D14B0218BF084608D180EA010081
:1002D80000F0004040F0FE4040F40000704740F05D
:1002E800FE4040F44000704781F0004102E000BF4A
:1002F80083F0004330B54FEA41044FEA430594EADE
:10030800050F08BF90EA020F1FBF54EA000C55EA18
:10031800020C7FEA645C7FEA655C00F0E2804FEAE9
:100328005454D4EB5555B8BF6D420CDD2C4480EACB
:10033800020281EA030382EA000083EA010180EAFB
:10034800020281EA0303362D88BF30BD11F0004F49
:100358004FEA01314FF4801C4CEA113102D040427F
:1003680061EB410113F0004F4FEA03334CEA1333BA
:1003780002D0524263EB430394EA050F00F0A780D2
:10038800A4F10104D5F1200E0DDB02FA0EFC22FACD
:1003980005F2801841F1000103FA0EF2801843FAC1
:1003A80005F359410EE0A5F120050EF1200E012AB2
:1003B80003FA0EFC28BF4CF0020C43FA05F3C018F0
:1003C80051EBE37101F0004507D54FF0000EDCF169
:1003D800000C7EEB00006EEB0101B1F5801F1BD312
:1003E800B1F5001F0CD349085FEA30004FEA3C0C16
:1003F80004F101044FEA445212F5800F80F09A800C
:10040800BCF1004F08BF5FEA500C50F1000041EB0F
:10041800045141EA050130BD5FEA4C0C404141EB13
:100428000101013C28BFB1F5801FE9D291F0000F0E
:1004380004BF01460020B1FA81F308BF2033A3F1BD
:100448000B03B3F120020CDA0C3208DD02F1140CB4
:10045800C2F10C0201FA0CF021FA02F10CE002F1EF
:100468001402D8BFC2F1200C01FA02F120FA0CFCE8
:10047800DCBF41EA0C019040E41AA2BF01EB045131
:10048800294330BD6FEA04041F3C1CDA0C340EDC2F
:1004980004F11404C4F1200220FA04F001FA02F372
:1004A80040EA030021FA04F345EA030130BDC4F130
:1004B8000C04C4F1200220FA02F001FA04F340EA25
:1004C8000300294630BD21FA04F0294630BD94F0D6
:1004D800000F83F4801306BF81F480110134013DBD
:1004E8004EE77FEA645C18BF7FEA655C29D094EA2E
:1004F800050F08BF90EA020F05D054EA000C04BFAC
:100508001946104630BD91EA030F1EBF0021002096
:1005180030BD5FEA545C05D14000494128BF41F035
:10052800004130BD14F580043CBF01F5801130BD99
:1005380001F0004545F0FE4141F470014FF0000024
:1005480030BD7FEA645C1ABF194610467FEA655CD5
:100558001CBF0B46024650EA013406BF52EA033577
:1005680091EA030F41F4002130BD00BF90F0000F65
:1005780004BF0021704730B54FF4806404F13204A1
:100588004FF000054FF0000150E700BF90F0000F5A
:1005980004BF0021704730B54FF4806404F1320481
:1005A80010F0004548BF40424FF000013EE700BF51
:1005B80042004FEAE2014FEA31014FEA02701FBFE1
:1005C80012F07F4393F07F4F81F06051704732F013
:1005D8007F4208BF704793F07F4F04BF41F400216A
:1005E800704730B54FF4607401F0004521F00041C8
:1005F8001CE700BF50EA010208BF704730B54FF052
:1006080000050AE050EA010208BF704730B511F052
:10061800004502D5404261EB41014FF4806404F18A
:1006280032045FEA915C3FF4D8AE4FF003025FEA10
:10063800DC0C18BF03325FEADC0C18BF033202EB94
:10064800DC02C2F1200300FA03FC20FA02F001FAEE
:1006580003FE40EA0E0021FA02F11444BDE600BF91
:100668004FF0FF3C06E000BF4FF0010C02E000BF76
:100678004FF0010C4DF804CD4FEA410C7FEA6C5C59
:100688004FEA430C18BF7FEA6C5C1BD001B050EAFC
:10069800410C0CBF52EA430C91EA030F02BF90EAE7
:1006A800020F0020704710F1000F91EA030F58BFA6
:1006B800994208BF90422CBFD8176FEAE37040F008
:1006C800010070474FEA410C7FEA6C5C02D150EAA6
:1006D800013C07D14FEA430C7FEA6C5CD6D152EA61
:1006E800033CD3D05DF8040B704700BF8446104626
:1006F80062468C461946634600E000BF01B5FFF725
:10070800B7FF002848BF10F1000F01BD4DF808EDF4
:10071800FFF7F4FF0CBF012000205DF808FB00BFC5
:100728004DF808EDFFF7EAFF34BF012000205DF81F
:1007380008FB00BF4DF808EDFFF7E0FF94BF01206C
:1007480000205DF808FB00BF4DF808EDFFF7CEFF6D
:1007580094BF012000205DF808FB00BF4DF808EDAC
:10076800FFF7C4FF34BF012000205DF808FB00BF7D
:100778004FEA410212F5001215D211D56FF47873C1
:10078800B3EB625212D94FEAC12343F0004343EA64
:10079800505311F0004F23FA02F018BF404270473F
:1007A8004FF00000704750EA013005D111F00040C9
:1007B80008BF6FF0004070474FF00000704700BF5F
:1007C80080F0004002E000BF81F0004142001FBFFE
:1007D8005FEA410392EA030F7FEA226C7FEA236C07
:1007E8006AD04FEA1262D2EB1363C1BFD2184140FC
:1007F80048404140B8BF5B42192B88BF704710F092
:10080800004F40F4000020F07F4018BF404211F034
:10081800004F41F4000121F07F4118BF494292EA9C
:10082800030F3FD0A2F1010241FA03FC10EB0C00C8
:10083800C3F1200301FA03F100F0004302D5494255
:1008480060EB4000B0F5000F13D3B0F1807F06D302
:1008580040084FEA310102F10102FE2A51D2B1F1FA
:10086800004F40EBC25008BF20F0010040EA0300EF
:100878007047490040EB0000013A28BFB0F5000F6F
:10088800EDD2B0FA80FCACF1080CB2EB0C0200FA25
:100898000CF0AABF00EBC25052421843BCBFD04074
:1008A8001843704792F0000F81F4000106BF80F4EE
:1008B80000000132013BB5E74FEA41037FEA226CB1
:1008C80018BF7FEA236C21D092EA030F04D092F07C
:1008D800000F08BF0846704790EA010F1CBF0020B0
:1008E800704712F07F4F04D1400028BF40F000400D
:1008F800704712F100723CBF00F50000704700F02D
:10090800004343F0FE4040F4000070477FEA226253
:1009180016BF08467FEA23630146420206BF5FEA24
:10092800412390EA010F40F4800070474FF0000324
:1009380004E000BF10F0004348BF40425FEA000CEB
:1009480008BF704743F0964301464FF000001CE093
:1009580050EA010208BF70474FF000030AE000BFE9
:1009680050EA010208BF704711F0004302D5404227
:1009780061EB41015FEA010C02BF84460146002099
:1009880043F0B64308BFA3F18053A3F50003BCFAB4
:100998008CF2083AA3EBC25310DB01FA02FC634461
:1009A80000FA02FCC2F12002BCF1004F20FA02F268
:1009B80043EB020008BF20F00100704702F120025B
:1009C80001FA02FCC2F1200250EA4C0021FA02F2BC
:1009D80043EB020008BF20EADC7070474FEA400290
:1009E800B2F1FE4F0FD34FF09E03B3EB12620DD955
:1009F8004FEA002343F0004310F0004F23FA02F0BF
:100A080018BF404270474FF00000704712F1610F65
:100A180001D1420205D110F0004008BF6FF000403C
:100A280070474FF00000704742000ED2B2F1FE4FFF
:100A38000BD34FF09E03B3EB126209D44FEA0023A5
:100A480043F0004323FA02F070474FF0000070476C
:100A580012F1610F01D1420202D14FF0FF3070470D
:100A68004FF00000704700BF53B94AB9002908BFCA
:100A780000281CBF4FF0FF314FF0FF3000F074B971
:100A8800ADF1080C6DE904CE00F006F8DDF804E0DD
:100A9800DDE9022304B070472DE9F047089E0D46B2
:100AA80004468846002B4DD18A42944668D9B2FA4A
:100AB80082F252B101FA02F3C2F1200120FA01F1E7
:100AC8000CFA02FC41EA030894404FEA1C45210C49
:100AD800B8FBF5FE1FFA8CF705FB1E8341EA0343BA
:100AE8000EFB07F199420BD91CEB03030EF1FF3003
:100AF80080F01E81994240F21B81AEF1020E6344E0
:100B08005B1AA4B2B3FBF5F005FB103344EA0344C7
:100B180000FB07F7A7420AD91CEB040400F1FF33D6
:100B280080F00881A74240F2058164440238E41B42
:100B380040EA0E4000211EB1D4400023C6E900431C
:100B4800BDE8F0878B4208D9002E00F0EE80002126
:100B5800C6E900050846BDE8F087B3FA83F1002925
:100B68004AD1AB4202D3824200F2F980841A65EB83
:100B7800030301209846002EE2D0C6E90048DFE7CB
:100B880002B9FFDEB2FA82F2002A40F09180A1EBAE
:100B98000C054FEA1C471FFA8CFE0121B5FBF7F341
:100BA80007FB1350250C45EA00450EFB03F0A8424D
:100BB80008D91CEB050503F1FF3802D2A84200F260
:100BC800CB8043462D1AA4B2B5FBF7F007FB1055AE
:100BD80044EA05440EFB00FEA64508D91CEB0404B4
:100BE80000F1FF3502D2A64500F2BB802846A4EBEF
:100BF8000E0440EA03409EE7C1F120078B4022FA29
:100C080007FC4CEA030C20FA07F405FA01F31C432D
:100C1800FD404FEA1C4900FA01F3B5FBF9F8200C36
:100C28001FFA8CFE09FB185540EA054508FB0EF033
:100C3800A84202FA01F20BD91CEB050508F1FF3AAC
:100C480080F08880A84240F28580A8F102086544B7
:100C58002D1AA4B2B5FBF9F009FB105544EA054575
:100C680000FB0EFEAE4508D91CEB050500F1FF346C
:100C78006CD2AE456AD90238654440EA0840A0FB08
:100C88000294A5EB0E05A542C846A64656D353D0F6
:100C98005EB1B3EB080265EB0E0505FA07F722FA19
:100CA80001F3CD401F43C6E900750021BDE8F08778
:100CB800C2F1200320FA03F10CFA02FC25FA03F32F
:100CC80095400D434FEA1C471FFA8CFEB3FBF7F122
:100CD80007FB11302B0C43EA004301FB0EF098424E
:100CE80004FA02F408D91CEB030301F1FF382FD2F0
:100CF80098422DD9023963441B1AADB2B3FBF7F001
:100D080007FB103345EA034500FB0EF3AB4208D955
:100D18001CEB050500F1FF3816D2AB4214D9023896
:100D28006544ED1A40EA014138E73146304607E7A5
:100D38008646E5E61846FAE64B45A9D2B9EB02081D
:100D480064EB0C0E0138A3E74046EAE7204694E737
:100D58004146D1E7D0467BE7023B654432E7084687
:100D680009E76444023842E7704700BF80B485B0A1
:100D780000AF78604FF0B0431A6E4FF0B0417B6817
:100D880013430B664FF0B0431A6E7B681340FB6049
:100D9800FB6800BF1437BD4680BC704780B483B081
:100DA80000AF78604FF0B0431A6E7B68DB434FF0BA
:100DB800B04113400B6600BF0C37BD4680BC70477E
:100DC80080B500AF234B244A1A60224B4FF00042F3
:100DD8005A60204B00229A601E4B0022DA601D4B9D
:100DE80000221A611B4B04225A611A4B00221A7600
:100DF800184B00225A76174B00229A76154B01227F
:100E0800DA61144B002283F82020124B00225A6228
:100E1800104B00229A620F4B002283F82C200D4BB6
:100E28004FF480521A630B4B07225A63094B07226F
:100E38009A63084B002283F83C20064B0022DA64B0
:100E4800044802F01BF90346002B01D000F000FC17
:100E580000BF80BD6C0100200024014080B582B035
:100E680000AF78607B681B68054A934203D14FF452
:100E78000070FFF77BFF00BF0837BD4680BD00BF8D
:100E88000024014080B582B000AF78607B681B68A1
:100E9800054A934203D14FF40070FFF77FFF00BF6C
:100EA8000837BD4680BD00BF0024014080B400AFB4
:100EB800034B044A1A6000BFBD4680BC704700BFA0
:100EC8006C0100200024014080B582B000AF0023EF
:100ED800FB8000233B60134800F02AF838603B6829
:100EE800002B02D10023FB8016E00F4B1B884FF626
:100EF800FF7293420BD00C4B1B881A4640F6E44312
:100F080003FB02F23B68B2FBF3F3FB8004E0074A01
:100F18003B68B2FBF3F3FB80FB8818460837BD46F5
:100F280080BD00BF002000B4AA75FF1FD8084C0080
:100F380080B586B000AF786000237B6107F10803B5
:100F480000221A605A609A60FFF73AFF1A4802F0C6
:100F5800C4FE0346002B01D000F07AFB7B68BB601F
:100F68000023FB6000233B6107F108031946124880
:100F780002F0D0FB0346002B01D000F069FB0E48BD
:100F880002F0ACFA0346002B01D000F061FB4FF0F1
:100F9800FF31094802F01AFB074802F0E5FA064853
:100FA80002F0ABFB7861044802F01CFA7B69184632
:100FB8001837BD4680BD00BF6C01002080B485B0E5
:100FC80000AF78604FF0B0439A6C4FF0B0417B6847
:100FD80013438B644FF0B0439A6C7B681340FB60FB
:100FE800FB6800BF1437BD4680BC704780B500AFB2
:100FF8000420FFF7E3FF0120FFF7E0FF00220221B2
:101008000B2003F010F80B2003F027F80022002132
:101018000C2003F008F80C2003F01FF80022002130
:101028000D2003F000F80D2003F017F8002200212E
:101038003D2002F0F8FF3D2003F00FF800BF80BD0F
:1010480080B400AF064B1B6903F40023B3F5002FEF
:1010580001D1012300E000231846BD4680BC70473B
:101068000040005880B58CB000AFF860B9607A6075
:101078003B600023FB62FB6803F17842564B1B6818
:101088009902564B0B40B2FBF3F101FB03F3D31A61
:10109800DB0ABB61FA687B68134403F17843013BC0
:1010A8004D4A126891024D4A0A40B3FBF2F101FB26
:1010B80002F29B1ADB0A7B617B68BB62FB687B627E
:1010C800BB683B62BB68002B09D07B6803F0070351
:1010D800002B04D1FB6803F00703002B02D06FF04C
:1010E800040374E03E4B5B69002B02DA6FF00303E4
:1010F8006DE0BA697B699A4205D0FB68C3F30A03BD
:10110800C3F50063BB62BB69FB615BE07B6AB96ADC
:10111800184600F0F8F80346002B37D03B68002B40
:1011280002D16FF0040352E0FB6903F58033DB0260
:101138004FF400621946386818F0E4FF7B6AC3F37D
:101148000A033A681344396ABA6A92B2184618F020
:10115800D9FF00220121F86900F065F80346002B49
:1011680003D06FF00103FB6230E0FB6903F58033C5
:10117800DB024FF400623968184600F08AF803462B
:10118800002B10D06FF00203FB621FE03B6ABA6AC3
:101198001946786A00F07DF80346002B03D06FF0FB
:1011A8000203FB6212E07A6ABB6A13447B623A6A02
:1011B800BB6A13443B627A68BB6AD31ABB62FB6999
:1011C8000133FB61FA697B699A429FD9FB6A184629
:1011D8003037BD4680BD00BFE075FF1F00FCFF0330
:1011E8000040005880B584B000AFF860C7E900231C
:1011F8000BE000BFFFF724FF0346002BFAD1D7E925
:101208000023F968012003F0C1FBFB68D3E9002340
:10121800D7E90001994208BF9042EAD10023184655
:101228001037BD4680BD80B58AB000AFF8600B4668
:101238007A607B810223BB61FB68FB617B893B622F
:101248007B68002B08D007F11803184603F03CFD13
:10125800034687F827300AE007F1140207F118035C
:101268001146184603F0D8FC034687F8273097F84C
:101278002730002B08D097F82730022B01D1012303
:1012880003E06FF0010300E0002318462837BD464D
:1012980080BD80B58AB000AFF860B9607A60BB687D
:1012A8007B6200233B620023FB6120E007F110030F
:1012B8000822796A184618F025FFD7E90423B3F104
:1012C800FF3F08BFB2F1FF3F05D0D7E90423F86814
:1012D800FFF788FF3862FB680833FB607B6A0833D6
:1012E8007B623B6A002B08D1FB690133FB617B6899
:1012F800DB08FA699A42D9D300E000BF3B6A184676
:101308002837BD4680BD80B485B000AF78603960AD
:101318000AE07B685A1C7A601B78FF2B01D00123F6
:1013280039E03B68013B3B607B6803F00703002B17
:10133800EFD17B68FB600023BB6010E0FB6803F122
:101348000802FA60D3E90023B3F1FF3F08BFB2F106
:10135800FF3F01D001231EE0BB680133BB603B683F
:10136800DB08BA689A42E9D3BB68DB003A68D31A4B
:101378003B60FB687B600AE07B685A1C7A601B78DC
:10138800FF2B01D0012306E03B68013B3B603B6833
:10139800002BF1D1002318461437BD4680BC704796
:1013A80080B485B000AF78604FF0B043DA6C4FF08E
:1013B800B0417B681343CB644FF0B043DA6C7B6871
:1013C8001340FB60FB6800BF1437BD4680BC704704
:1013D80080B586B000AF3B1D00221A605A609A6043
:1013E800DA601A610120FFF7DBFF0420FFF7D8FF5E
:1013F8000220FFF7D5FF00224FF48361214803F054
:1014080055FF012220211F4803F050FF00223121FF
:101418004FF0904003F04AFF4FF487637B6001234D
:10142800BB600023FB6003233B613B1D1946154845
:1014380003F00EFD31237B600123BB600023FB60BA
:1014480003233B613B1D19464FF0904003F000FD1C
:101458004FF400537B604FF40413BB600123FB601F
:101468003B1D1946074803F0F3FC00220021292000
:1014780002F0D9FD292002F0F0FD00BF1837BD4663
:1014880080BD00BF0004004880B483B000AF78601E
:101498004FF0B043D3F8903023F018024FF0B0412A
:1014A8007B681343C1F8903000BF0C37BD4680BC41
:1014B8007047000080B500AF01F0F2FB00F046F87D
:1014C800FFF786FF08F0ECFF01F010F8194B002237
:1014D8001A7014221849194808F09DFD184B1B680A
:1014E8001A68174B1B6822F004021A6008F0E0FF24
:1014F800104B1B78002BF9D00E4B00221A701422C7
:101508000D490E4808F087FD0D4B1B681A680C4BF7
:101518001B6822F004021A600A4B9B799BB21B02DB
:101528009AB2084BDB799BB213449AB2064B1A80E5
:10153800DCE700BF04000020D0010020D802002012
:1015480028040020E4010020F801002080B59AB0AA
:1015580000AF07F120034822002118461AF0CCF802
:1015680007F1080300221A605A609A60DA601A616B
:101578005A6103F0CBFE0020FFF786FF1F4B1B6864
:1015880023F4C0631D4A43F4007313601B4B1B68AC
:1015980003F4C0637B607B6824233B628123FB6286
:1015A80001233B6400237B64B023BB640023FB64FA
:1015B80007F12003184604F0F5F90346002B01D083
:1015C80000F046F84F23BB600023FB6000233B611B
:1015D80000237B610023BB610023FB6107F1080343
:1015E8000221184604F07AFD0346002B01D000F0D2
:1015F8002FF800BF6837BD4680BD00BF0004005803
:1016080080B582B000AF78600B467B807B681B6832
:101618000B4A934210D10B4B1B78422B09D1094B33
:101628005B784D2B05D17B881A46064906481AF087
:1016380055F8064B01221A7000BF0837BD4680BD19
:1016480000440040D0010020E401002004000020F4
:1016580080B400AF72B600BFFEE780B400AF4FF0B1
:10166800B043D3F890304FF0B04243F40043C2F88F
:10167800903000BFBD4680BC704780B485B000AFD5
:1016880078604FF0B0439A6D4FF0B0417B681343D8
:101698008B654FF0B0439A6D7B681340FB60FB6825
:1016A80000BF1437BD4680BC7047000080B58CB0C1
:1016B80000AF3B1D2C22002118461AF01DF8224BC2
:1016C800224A1A60204B1F229A601F4B00221A617F
:1016D8001D4B00225A611C4B00229A611A4B4FF095
:1016E8008042DA61184B00221A62174B4FF480725D
:1016F8005A62154805F0AEF90346002B01D0FFF7F2
:10170800A7FF114805F09CFC0346002B01D0FFF70A
:101718009FFF00233B620023BB600023BB614FF0A7
:101728000053FB614FF48073FB623B1D0022194696
:10173800054805F009FA0346002B01D0FFF788FF9A
:1017480000BF3037BD4680BDFC01002000280040A6
:1017580080B590B000AF786007F108033822002107
:10176800184619F0C9FF7B681B68164A934225D1B1
:101778004FF48033BB604FF48073FB6307F10803B9
:10178800184605F04DF80346002B01D0FFF760FF1F
:10179800FFF763FF4FF48060FFF76FFF002200211F
:1017A800022002F040FC022002F057FC0022002137
:1017B8002A2002F038FC2A2002F04FFC00BF4037F4
:1017C800BD4680BD0028004080B400AF034B012215
:1017D800C3F8882000BFBD4680BC7047000400588D
:1017E80080B400AF00BFBD4680BC704780B400AF76
:1017F80000BFBD4680BC704780B500AF01F070FAED
:10180800FFF7E2FF012003F013FE00BF80BD80B5A3
:1018180000AF01F073FA01F0E1F800BF80BD80B5B8
:1018280000AF01F05DFA0121002003F07DFD00BF4B
:1018380080BD80B500AF01F061FA00BF80BD80B403
:1018480000AF00BFBD4680BC704780B400AFFEE764
:1018580080B400AFFEE780B400AFFEE780B400AF0D
:10186800FEE780B400AFFEE780B400AF00BFBD461E
:1018780080BC704780B400AF00BFBD4680BC7047D5
:1018880080B400AF00BFBD4680BC704780B400AFD5
:1018980000BFBD4680BC704780B500AF024805F068
:1018A8000BFC00BF80BD00BFFC01002080B500AF6D
:1018B800024802F069FE00BF80BD00BF6803002037
:1018C80080B500AF024802F05FFE00BF80BD00BFD8
:1018D800C803002080B500AF024802F055FE00BFE3
:1018E80080BD00BF2804002080B500AF024806F084
:1018F80043FA00BF80BD00BF4802002080B500AF9A
:10190800024806F039FA00BF80BD00BFD8020020A7
:1019180080B500AF4FF4005003F0E0FC00BF80BD7D
:1019280080B500AF024805F077FA00BF80BD00BF60
:10193800FC01002080B500AF024805F025FF00BF7C
:1019480080BD00BF3402002080B500AF024802F01D
:10195800CBFF00BF80BD00BFC803002080B485B0A6
:1019680000AF78604FF0B0435A6E4FF0B0417B68DB
:1019780013434B664FF0B0435A6E7B681340FB60CD
:10198800FB6800BF1437BD4680BC704780B500AF08
:10199800064B08221A60054805F07AFC0346002B1E
:1019A80001D0FFF755FE00BF80BD00BF3402002004
:1019B80080B582B000AF78600120FFF7CFFF00222A
:1019C8000021322002F02FFB322002F046FB00BF3C
:1019D8000837BD4680BD80B483B000AF78604FF053
:1019E800B0439B6823F400424FF0B0417B68134337
:1019F8008B6000BF0C37BD4680BC704780B400AF19
:101A0800024B1B681846BD4680BC70478075FF1F97
:101A180080B400AF034B1B68DBB21846BD4680BCE0
:101A2800704700BF8475FF1F80B400AF034B1B686D
:101A38001B0A1846BD4680BC704700BF8475FF1F4F
:101A480080B500AF0020FFF7C6FF19F0EDF8104B86
:101A580001221A7000F0A0F919F076FB0D4819F070
:101A680021FC0D4B4FF400421A61022019F028FCAA
:101A7800FFF71CFA00F01AFA18F09EFA012101206B
:101A880018F0DAFA0121012018F0A6FA00BF80BD8B
:101A980040020020691C00080040005880B500AFD3
:101AA80018F0FAFA00BF80BD80B582B000AF0023FD
:101AB800FB71FFF709FA0346BB80BB8840F6B832D2
:101AC800934202D9FE23FB7114E0BB88B3F5E16FA2
:101AD80002D20023FB710DE0BB88A3F5E1631A462F
:101AE8001346DB019B1A5B001A46054BA3FB022336
:101AF800DB09FB71FB7918460837BD4680BD00BF7E
:101B0800B5814E1B80B588B000AF0023FB833B1D19
:101B1800184600F0A1F9BB681846FEF75FFF0346B8
:101B2800FB83B7F91E3018462037BD4680BD90B5F7
:101B380087B000AF786000237B61FFF75FFF7861B3
:101B48007B69B3F1FF3F38D101F0E6F8044601F0B4
:101B5800F7F8034623443B6101F0E8F8F8603B6975
:101B68001A0E7B680733D2B21A703B691A0C7B686D
:101B78000633D2B21A703B691A0A7B680533D2B2AF
:101B88001A707B6804333A69D2B21A70FB681A0E6D
:101B98007B680333D2B21A70FB681A0C7B68023375
:101BA800D2B21A70FB681A0A7B680133D2B21A7073
:101BB800FB68DAB27B681A7031E07B6807337A69B0
:101BC800D2B21A707B691A0A7B680633D2B21A70CD
:101BD8007B691A0C7B680533D2B21A707B691A0EBE
:101BE8007B680433D2B21A70FFF712FF78617B6802
:101BF80003337A69D2B21A70FFF716FF78617B68EF
:101C080002337A69D2B21A707B691A0A7B68013387
:101C1800D2B21A707B691B0CDAB27B681A7000BFEB
:101C28001C37BD4690BD90B583B000AF00237B60E4
:101C3800FFF7E4FE78607B68B3F1FF3F0BD101F05A
:101C48006BF8044601F072F803465C4001F078F83E
:101C5800034663407B607B6818460C37BD4690BDE1
:101C680080B586B002AF7860396007F1080318467E
:101C780018F022FBBB68B7F90C200092074A102124
:101C8800786800F01DF87868FEF772FA03469AB291
:101C98003B681A8000BF1037BD4680BD28B80108D0
:101CA80080B500AF0121022018F096F900BF80BD71
:101CB80080B500AF0021022018F08EF900BF80BD6A
:101CC8000CB480B584B000AF7860396007F11C03AC
:101CD800FB603968FB68BA69786818F0BFFC00BF18
:101CE8001037BD46BDE8804002B0704780B483B06D
:101CF80000AF7860002318460C37BD4680BC70479B
:101D080080B582B000AF00237B60064B1B78002BA8
:101D180002D000F097F978607B6818460837BD460E
:101D280080BD00BF4002002080B582B000AF78605F
:101D38007B68184600F00DFA00BF0837BD4680BD25
:101D480080B485B000AF78604FF0B043DA6C4FF0E4
:101D5800B0417B681343CB644FF0B043DA6C7B68C7
:101D68001340FB60FB6800BF1437BD4680BC70475A
:101D780080B483B000AF7860064BD3F89020054953
:101D88007B681343C1F8903000BF0C37BD4680BC58
:101D9800704700BF0008005880B586B000AF4FF408
:101DA8008040FFF7E5FF00F0D5FF00F0D9FF00F015
:101DB800DDFF3B1D00221A605A609A60DA601A61E2
:101DC8000123BB600023FB6003233B610120FFF775
:101DD800B7FF0220FFF7B4FF0220FFF7B1FF022090
:101DE800FFF7AEFF01237B603B1D19464FF0904083
:101DF80003F02EF84FF480637B603B1D19461548AD
:101E080003F026F808237B603B1D1946114803F0B0
:101E18001FF810237B603B1D19460E4803F018F885
:101E2800002201214FF0904003F040FA00224FF4C5
:101E38008061084803F03AFA00220821054803F0B7
:101E480035FA00221021034803F030FA00BF183792
:101E5800BD4680BD0004004880B487B000AF7860FC
:101E68000D4B7B610D4B3B610D4BFB607B687A69C9
:101E78009A607B683A695A607B68FA681A607B687E
:101E8800084ADA607B68084A1A61002318461C373A
:101E9800BD4680BC704700BF00004842000090412A
:101EA80000007A440D093E00AB03050080B483B0FE
:101EB80000AF00237B60002318460C37BD4680BC6A
:101EC800704780B400AF00BFBD4680BC704780B487
:101ED80083B000AF78607B689B6818460C37BD46B6
:101EE80080BC704780B582B000AF0023FB71144BF3
:101EF8001B7883F00103DBB2002B1BD0114B4FF092
:101F0800FF321A63FFF7D2FB00F056F84FF48071E6
:101F18000C4804F025FF0B4B4FF0FF321A630948B9
:101F280005F05CF8002000F0D3F900F05FF8044BEE
:101F380001221A70FB7918460837BD4680BD00BFDC
:101F480041020020FC01002080B58EB000AF78600F
:101F5800002387F8373007F108032C2200211846A0
:101F680019F0CAFB00F028F8114B1B687A68134473
:101F78007B6000237B627B68DB43FB600023FB61A3
:101F88004FF000533B624FF480733B6307F1080343
:101F980001221946074804F0D7FD0346002B01D05B
:101FA800FFF756FB97F8373018463837BD4680BDDF
:101FB80044020020FC01002080B582B000AF00235D
:101FC800FB71084B0122DA654FF48071064804F072
:101FD800C7FE054B4FF0FF321A63FB7918460837E6
:101FE800BD4680BD00280040FC01002080B500AF40
:101FF80000F08EF90346034A1360024B1B6818462B
:1020080080BD00BF4402002080B400AF024B1B68B3
:102018001846BD4680BC70474402002080B582B097
:1020280000AF00237B6000F073F90246044B1B6885
:10203800D31A7B607B6818460837BD4680BD00BF51
:102048004402002080B582B000AF00237B60064BBD
:102058001B78002B02D000F05BF978607B6818468B
:102068000837BD4680BD00BF4102002080B483B060
:1020780000AF00237B6003237B607B6818460C3726
:10208800BD4680BC7047B0B584B000AF7860002111
:10209800F960796800200A460346950D94024FF4CA
:1020A8007A724FF0000320462946FEF7DDFC02460F
:1020B8000B461346FB60FB6818461037BD46B0BD9B
:1020C8002DE9B00F85B000AF78600021F96079681C
:1020D80000200C460546204629464FF0000A4FF0DE
:1020E800000B4FEA411B4BEAD06B4FEA401A5046AF
:1020F8005946021B61EB05034FF000004FF0000149
:10210800990041EA9271900002460B4612EB0408CE
:1021180043EB05094FF000024FF000034FEAC903F3
:1021280043EA58734FEAC8029046994640464946E2
:102138004FF000024FF00003820A42EA81528B0AF4
:102148001346FB60FB6818461437BD46BDE8B00F60
:10215800704780B584B000AF78607868FFF793FF68
:10216800F86000F0D5F8B86000E000BF00F0D0F8E3
:102178000246BB68D31AFA689A42F6D800BF00BF75
:102188001037BD4680BD80B582B000AF786018F0CA
:1021980099FE00BF0837BD4680BD80B584B000AF4A
:1021A800786000F0A5F8F860FB680133184600F085
:1021B8008FF800BF1037BD4680BD2DE9B04F8CB0F9
:1021C80000AF78610023FB6200F0A2F8B86200F06B
:1021D8008FF878627B6A0022BB60FA604FF00002D9
:1021E8004FF00003B9680B000022B96A00200C46C2
:1021F800054612EB040843EB0509C7E90689D7E948
:1022080006014FF000024FF00003820A42EA8152B1
:102218008B0A1346FB62BB6900223B607A603B680D
:10222800C3F3090A4FF0000BC7E906ABBB691846B0
:10223800FFF746FF03469AB27B691A80FB6A184685
:102248003037BD46BDE8B08F80B582B000AF78604A
:102258007A680021034804F053FF00BF0837BD46E1
:1022680080BD00BFFC01002080B582B000AF78605F
:102278007A680121034804F043FF00BF0837BD46D0
:1022880080BD00BFFC01002080B582B000AF0023F4
:102298007B600021044804F04BFF78607B68184697
:1022A8000837BD4680BD00BFFC01002080B582B064
:1022B80000AF00237B600121044804F039FF7860F7
:1022C8007B6818460837BD4680BD00BFFC0100206A
:1022D80080B582B000AF78607A680221034804F0C4
:1022E8000FFF00BF0837BD4680BD00BFFC010020BE
:1022F80080B582B000AF0221044804F019FF78606D
:102308007B6818460837BD4680BD00BFFC01002029
:1023180080B582B000AF0B48FFF7D9FD786003E0C5
:102328000848FFF7D4FD78600648FFF7D0FD02465D
:102338007B689342F4D17B68DB4318460837BD4677
:1023480080BD00BF0028004080B485B000AF786031
:102358004FF0B043DA6C4FF0B0417B681343CB6465
:102368004FF0B043DA6C7B681340FB60FB6800BF3A
:102378001437BD4680BC704780B485B000AF786024
:102388004FF0B0439A6D4FF0B0417B6813438B65B3
:102398004FF0B0439A6D7B681340FB60FB6800BF49
:1023A8001437BD4680BC704780B483B000AF7860F6
:1023B8004FF0B0439A6D7B68DB434FF0B041134058
:1023C8008B6500BF0C37BD4680BC704780B485B0B4
:1023D80000AF78604FF0B0431A6E4FF0B0417B68A1
:1023E80013430B664FF0B0431A6E7B681340FB60D3
:1023F800FB6800BF1437BD4680BC704780B483B00B
:1024080000AF78604FF0B0431A6E7B68DB434FF043
:10241800B04113400B6600BF0C37BD4680BC704707
:1024280080B483B000AF7860054B5A6804497B6874
:1024380013434B6000BF0C37BD4680BC704700BFDC
:102448000000014080B500AF264B274A1A60254B93
:102458004FF4E1325A60234B00229A60214B00224C
:10246800DA60204B00221A611E4B0C225A611D4B68
:1024780000229A611B4B0022DA611A4B00221A6271
:10248800184B00225A62174B40229A62154B4FF4A0
:1024980080125A64134B00229A64124805F033FBE9
:1024A8000346002B01D0FFF7D3F800210D4807F0B1
:1024B80036FD0346002B01D0FFF7CAF80021094872
:1024C80007F06BFD0346002B01D0FFF7C1F8054864
:1024D80007F0B2FC0346002B01D0FFF7B9F800BFA4
:1024E80080BD00BF480200200038014080B500AF21
:1024F800224B234A1A60214B4FF416525A601F4B45
:1025080000229A601D4B0022DA601C4B00221A61DF
:102518001A4B0C225A61194B00229A61174B002260
:10252800DA61164B00221A62144B00225A62134BCE
:1025380000229A62114805F0E6FA0346002B01D002
:10254800FFF786F800210D4807F0E9FC0346002B49
:1025580001D0FFF77DF80021084807F01EFD03466B
:10256800002B01D0FFF774F8044807F0A0FC0346DD
:10257800002B01D0FFF76CF800BF80BDD802002007
:102588000044004080B59AB000AF786007F154036A
:1025980000221A605A609A60DA601A6107F14403EF
:1025A80000221A605A609A60DA6007F10C03382238
:1025B8000021184619F0A0F87B681B68834A9342EB
:1025C80040F0A3800123FB604FF440333B6107F1E7
:1025D8000C03184604F024F90346002B01D0FFF73A
:1025E80037F84FF48040FFF7F1FE0220FFF7ACFE0A
:1025F800C0237B650223BB650123FB6503233B6680
:1026080007237B6607F154031946714802F020FC42
:102618004FF40030FFF704FF4FF48030FFF700FF5E
:102628006C4B6D4A1A606B4B12225A60694B102230
:102638009A60684B0022DA60664B80221A61654B0B
:1026480000225A61634B00229A61624B0022DA61D0
:10265800604B00221A625F4801F01CFD0346002B04
:1026680001D0FEF7F5FF7B685A4A9A67594A7B689A
:1026780093625A4B5A4A1A60584B11225A60574B68
:1026880000229A60554B0022DA60544B80221A616E
:10269800524B00225A61514B00229A614F4B002243
:1026A800DA614E4B00221A624C4801F0F3FC0346F3
:1026B800002B01D0FEF7CCFF00237B640023BB6412
:1026C800002387F84C30012387F84D3001233B6500
:1026D80007F144031946414802F0C6F80346002BA7
:1026E80001D0FEF7B5FF7B683C4ADA673B4A7B6856
:1026F800936200220221242001F095FC242001F09D
:10270800ACFC0C2001F0A9FC5CE07B681B68354A36
:10271800934257D10223FB604FF440237B6107F1BA
:102728000C03184604F07CF80346002B01D0FEF792
:102738008FFF4FF40030FFF71FFE0120FFF704FE64
:102748000C237B650223BB650023FB6500233B66E6
:1027580007237B6607F1540319464FF0904002F0B7
:1027680077FB214B214A1A601F4B13225A601E4BDC
:1027780000229A601C4B0022DA601B4B80221A61EF
:10278800194B00225A61184B00229A61164B0022FD
:10279800DA61154B00221A62134801F07BFC0346EC
:1027A800002B01D0FEF754FF7B680F4ADA670E4A08
:1027B8007B68936200220021252001F034FC25204B
:1027C80001F04BFC00BF6837BD4680BD00380140B2
:1027D800000400486803002008000240C8030020E5
:1027E8001C00024000440040280400203000024041
:1027F80080B582B000AF78607B681B68194A934245
:1028080015D14FF48040FFF7F9FDC021164802F0BA
:102818007FFC7B689B6F184601F0E4FC7B68DB6FEC
:10282800184601F0DFFC242001F025FC15E07B6848
:102838001B680E4A934210D14FF40030FFF7B4FDE5
:102848000C214FF0904002F063FC7B68DB6F184668
:1028580001F0C8FC252001F00EFC00BF0837BD467A
:1028680080BD00BF0038014000040048004400401B
:1028780080B483B000AF78604FF0B0431A6C4FF06B
:10288800B0417B6813430B6400BF0C37BD4680BC66
:10289800704780B483B000AF78604FF0B0431A6CD3
:1028A8007B68DB434FF0B04113400B6400BF0C372B
:1028B800BD4680BC7047000080B483B000AF78602C
:1028C800064BD3F8802005497B681343C1F8803054
:1028D80000BF0C37BD4680BC704700BF00080058D9
:1028E80080B582B000AF7860074A7B681360FEF756
:1028F8007DFBFFF7A7FD4FF08060FFF7DDFF0023AA
:1029080018460837BD4680BD8C04002080B500AF4E
:102918004FF48040FFF7ACFF4FF48040FFF7B9FF5A
:102928000448FFF765FF0F2001F0A5FB00231846B8
:1029380080BD00BF4802002080B582B000AF78603B
:102948000B467B807B881A467968044805F082F933
:10295800002318460837BD4680BD00BF4802002046
:1029680080B584B000AF7860194A7B6813604FF473
:102978000013BB6007F1080393E80600154807F049
:10298800CEF900BF134B1B68DB6903F48033B3F542
:10299800803FF7D000BF0F4B1B68DB6903F480034F
:1029A800B3F5800FF7D10B4B1B689A68094B1B686E
:1029B80042F480029A60074807F00CFA012206499F
:1029C800044805F0F1F8002318461037BD4680BDCD
:1029D80090040020480200208804002080B500AF41
:1029E800084805F090F80346002B01D0FEF730FEAA
:1029F800054801F04FFB0346002B01D0FEF728FEE7
:102A080000BF80BD480200206803002080B582B066
:102A180000AF78607B681B68054A934203D1054B79
:102A28001B680020984700BF0837BD4680BD00BF1F
:102A3800003801408C04002080B582B000AF786077
:102A48007B681B68134A934213D1134B1B68002BF6
:102A58000AD07B68D3F88C30002B05D10E4B1B684D
:102A6800002201210D48984701220C49786805F099
:102A78009BF87B681B680A4A934206D1094B1B687E
:102A880010221A62084B01221A7000BF0837BD468F
:102A980080BD00BF00380140900400208804002059
:102AA80000440040D8020020040000200D4885465C
:102AB800FFF707FA0C480D490D4A002302E0D458E5
:102AC800C4500433C4188C42F9D30A4A0A4C002370
:102AD80001E013600432A242FBD318F0DBFDFEF7DD
:102AE800E9FCFEE700000120000000205001002062
:102AF80080C301085001002024250020FEE780B58E
:102B080086B000AF3B1D00221A605A609A60DA60F6
:102B18001A6110237B600123BB600023FB60032341
:102B28003B613B1D19464FF0904002F091F920237C
:102B38007B603B1D19464FF0904002F089F9002256
:102B480020214FF0904002F0B1FB002210214FF0FD
:102B5800904002F0ABFB002318461837BD4680BDF5
:102B680080B582B000AF0346FB71FB79032B3FD8D9
:102B780001A252F823F000BF912B0008AB2B0008EC
:102B8800C52B0008DF2B0008002210214FF09040D1
:102B980002F08CFB002220214FF0904002F086FBCF
:102BA80027E0012210214FF0904002F07FFB002225
:102BB80020214FF0904002F079FB1AE00122102109
:102BC8004FF0904002F072FB012220214FF090401C
:102BD80002F06CFB0DE0002210214FF0904002F053
:102BE80065FB012220214FF0904002F05FFB00E0DE
:102BF80000BF002318460837BD4680BD80B400AF2B
:102C080002231846BD4680BC704780B400AF01233C
:102C18001846BD4680BC704780B400AF01231846F3
:102C2800BD4680BC704780B485B000AF0346FB71D9
:102C3800FB79002B02D10F23FB6001E01623FB6018
:102C4800FB6818461437BD4680BC704780B400AF97
:102C5800044B5B68034A43F00103536000BFBD4661
:102C680080BC7047002004E080B400AF044B5B6870
:102C7800034A43F00203536000BFBD4680BC70475F
:102C8800002004E080B400AF044B5B68034A43F0C3
:102C98000403536000BFBD4680BC7047002004E0B9
:102CA80080B582B000AF0023FB71032001F0B0F9BA
:102CB80003F0D8FB0346094A13600F20FFF716F804
:102CC8000346002B02D00123FB7101E0FEF7B7FD9C
:102CD800FB7918460837BD4680BD00BF00000020BC
:102CE80080B400AF044B1B68034A23F0020313604F
:102CF80000BFBD4680BC704710E000E080B400AF64
:102D0800044B1B68034A43F00203136000BFBD462F
:102D180080BC704710E000E080B400AF024B1B6835
:102D28001846BD4680BC70479075FF1F80B400AF41
:102D3800024B1B681846BD4680BC70479475FF1F40
:102D480080B400AF024B1B681846BD4680BC704774
:102D58009875FF1F80B500AFFFF778FF00BF80BDF3
:102D680080B500AFFFF780FF00BF80BD80B500AF22
:102D7800FFF788FF00BF80BD80B483B000AF7860E4
:102D880039607B681B6823F0E0723B681A437B68F4
:102D98001A6000BF0C37BD4680BC704780B483B052
:102DA80000AF78607B681B6803F0E07318460C3747
:102DB800BD4680BC704780B485B000AFF860B9608C
:102DC8007A60FB685A69BB6803F00403072101FABB
:102DD80003F3DB431A40BB6803F00403796801FA84
:102DE80003F31A43FB685A6100BF1437BD4680BC21
:102DF800704780B483B000AF786039607B685A69E7
:102E08003B6803F00403072101FA03F31A403B6807
:102E180003F0040322FA03F318460C37BD4680BCBE
:102E2800704780B483B000AF78607B68DB6803F4D8
:102E38004063002B01D1012300E0002318460C3722
:102E4800BD4680BC704780B485B000AFF860B960FB
:102E58007A60FB689A6ABB6803F01F030F2101FAC6
:102E680003F3DB431A407B689B0E03F00F01BB683A
:102E780003F01F0301FA03F31A43FB689A6200BFC9
:102E88001437BD4680BC704780B483B000AF78600B
:102E980039607B689A6A3B68C3F311031A437B68FD
:102EA8009A6200BF0C37BD4680BC704780B483B0BF
:102EB80000AF786039607B689A6A3B68C3F3110396
:102EC800DB431A407B689A6200BF0C37BD4680BC62
:102ED800704780B485B000AFF860B9607A60FB686D
:102EE8005A69BB681B02DB431A40BB6819027B683E
:102EF8000B4023F07C4323F0FF031A43FB685A611D
:102F080000BF1437BD4680BC704780B483B000AFA3
:102F180078607B689B6823F0104323F0170343F025
:102F280080527B689A6000BF0C37BD4680BC7047F2
:102F380080B483B000AF78607B689B6823F010434F
:102F480023F017037A68936000BF0C37BD4680BC36
:102F5800704780B483B000AF78607B689B6803F0EB
:102F68008053B3F1805F01D1012300E000231846AC
:102F78000C37BD4680BC704780B483B000AF786022
:102F88007B689B6823F0004323F0170343F001029A
:102F98007B689A6000BF0C37BD4680BC704780B420
:102FA80083B000AF78607B689B6823F0004323F010
:102FB800170343F002027B689A6000BF0C37BD46D6
:102FC80080BC704780B483B000AF78607B689B6832
:102FD80003F00103012B01D1012300E0002318466F
:102FE8000C37BD4680BC704780B483B000AF7860B2
:102FF8007B689B6803F00203022B01D1012300E0E8
:10300800002318460C37BD4680BC704780B483B097
:1030180000AF78607B689B6823F0004323F01703B8
:1030280043F004027B689A6000BF0C37BD4680BC41
:10303800704780B483B000AF78607B689B6823F0EA
:10304800004323F0170343F010027B689A6000BF27
:103058000C37BD4680BC704780B483B000AF786041
:103068007B689B6803F00403042B01D1012300E073
:10307800002318460C37BD4680BC704780B588B021
:1030880000AF78600023FB770023BB6100237B61DE
:103098000023BB607B68002B01D101239EE17B6884
:1030A8001B69002B7B689B6D002B09D17868FDF7A5
:1030B800D5FE7B680022DA657B68002283F85420FD
:1030C8007B681B681846FFF744FF0346002B15D1A1
:1030D8007B681B681846FFF718FF994B1B689B090C
:1030E800984AA2FB03239B0901335B00BB6002E003
:1030F800BB68013BBB60BB68002BF9D17B681B68D0
:103108001846FFF726FF0346002B0DD17B689B6D01
:1031180043F010027B689A657B68DB6D43F001021F
:103128007B68DA650123FB777B681B681846FFF725
:1031380093FFF8607B689B6D03F01003002B40F051
:103148004481FB68002B40F040817B689B6D23F431
:10315800817343F002027B689A657B681B68184696
:10316800FFF730FF0346002B40F0A7807B689A6882
:103178007B681B7E9B031A437B685B7EDB031A43D9
:103188007B689B7E5B0313437A68126B002A02D02C
:103198004FF4805200E000221A437B68DB681A4330
:1031A8007B681B69002B04DA7B681B6923F00043EA
:1031B80001E04FF400131A437B6893F82C305B004E
:1031C8001343BA691343BB617B6893F82030012B22
:1031D80014D17B689B7E002B04D1BB6943F48033F8
:1031E800BB610BE07B689B6D43F020027B689A65AE
:1031F8007B68DB6D43F001027B68DA657B685B6A9C
:10320800002B09D07B685B6A03F4E0727B689B6AD9
:103218001343BA691343BB617B681B68DB6823F4FB
:10322800FE3323F4FF737A681268B9690B43D360DD
:103238007B685B6803F040427B68DB6C13437A6908
:1032480013437B617B6893F83C30012B11D17B6879
:103258005B6803F040427B681B6C1A437B685B6CBD
:103268001A437B689B6C1A437B69134343F0010341
:103278007B617B681B681A69334B13407A68126854
:1032880079690B4313617B685B68B3F1404F14D0D5
:103298007B685B68B3F1804F0FD07B685B68B3F1E4
:1032A800004F0AD0294B1B6823F470127B685B68B7
:1032B80003F47013254913430B607B6818687B6817
:1032C8005B6B1A460021FFF776FD7B6818687B6800
:1032D8009B6B1A461E49FFF76EFD7B681B69002B26
:1032E80008D17B681B689A6A7B681B6862F00F02CA
:1032F8009A6242E07B681B69B3F5001F3DD1002349
:103308003B610CE07B681A6E3B699B0022FA03F371
:1033180003F00F030F2B06D03B6901333B613B6978
:10332800072BEFD900E000BF3B69012B12D17B6866
:103338001B689A6A7B681B6862F00F029A621CE03D
:1033480000000020632D3E0502FCFF1F08270140F6
:1033580004FFFF037B681B689B6A7B68DB69013B92
:103368009B0003F01C036FF00F0202FA03F17B6865
:103378001A6E7B681B680A439A627B681B68002187
:103388001846FFF736FD02467B685B6B9A420BD105
:103398007B680022DA657B689B6D23F0030343F0AA
:1033A80001027B689A6518E07B689B6D23F0120325
:1033B80043F010027B689A657B68DB6D43F001027D
:1033C8007B68DA650123FB7707E07B689B6D43F038
:1033D80010027B689A650123FB77FB7F184620372C
:1033E800BD4680BD80B584B000AF78607B68002B97
:1033F80001D101236AE07B689B6D43F002027B6880
:103408009A65786800F0BEFA0346FB73FB7B002BD5
:103418000FD1786800F082FB0346FB73FB7B002B1F
:1034280002D17B6801229A657B681B681846FFF702
:103438007FFD7B681B685B687A68126823F4677392
:1034480023F0030353607B681B6840F29F321A60C5
:103458007B681B68D9687B681A681E4B0B40D36071
:103468007B681B681A697B681B6822F040421A61F6
:103478007B681B685A697B681B6822F007025A61DF
:103488007B681B681A6A7B681B6802F0F0221A6264
:103498007B681B689B6A7B681B6800229A620E4BDC
:1034A8001B680D4A23F0FE7313607868FDF7EAFC89
:1034B8007B6800221A667B680022DA657B68002236
:1034C8009A657B68002283F85420FB7B18461037E6
:1034D800BD4680BD00023E830827014080B584B008
:1034E80000AF78607B681B681846FFF7B5FD034698
:1034F800002B32D17B6893F85430012B01D1022381
:103508002EE07B68012283F85420786800F080FA66
:103518000346FB73FB7B002B1AD17B689B6D23F45E
:10352800706323F0010343F480727B689A657B68BB
:103538000022DA657B681B681C221A607B680022FF
:1035480083F854207B681B681846FFF75FFD06E088
:103558007B68002283F8542001E00223FB73FB7B85
:1035680018461037BD4680BD80B584B000AF78607E
:103578007B6893F85430012B01D1022322E07B6849
:10358800012283F85420786800F0FCF90346FB73A5
:10359800FB7B002B11D1786800F0C0FA0346FB735F
:1035A800FB7B002B09D17B689B6D23F4807323F090
:1035B800010343F001027B689A657B68002283F867
:1035C8005420FB7B18461037BD4680BD80B584B0BB
:1035D80000AF786039607B685B69082B02D10823EB
:1035E800FB6010E07B681B68DB6803F00103002BBD
:1035F80007D07B689B6D43F020027B689A650123A6
:1036080077E00423FB60FEF77BFBB86021E03B68B2
:10361800B3F1FF3F1DD0FEF773FB0246BB68D31A18
:103628003A689A4202D33B68002B12D17B681B6828
:103638001A68FB681340002B0BD17B689B6D43F025
:1036480004027B689A657B68002283F85420032370
:103658004FE07B681B681A68FB681340002BD6D0C4
:103668007B689B6D43F400727B689A657B681B6876
:103678001846FFF7D6FB0346002B31D07B689B7EAC
:10368800002B2DD17B681B681B6803F00803082BEF
:1036980026D17B681B681846FFF7DEFC0346002B23
:1036A80012D17B681B685A687B681B6822F00C0281
:1036B8005A607B689B6D23F4807323F0010343F009
:1036C80001027B689A650BE07B689B6D43F02002E2
:1036D8007B689A657B68DB6D43F001027B68DA657D
:1036E8007B681B7E002B03D17B681B680C221A6049
:1036F800002318461037BD4680BD80B483B000AFA4
:1037080078607B681B681B6C18460C37BD4680BC0C
:103718007047000080B588B000AF7860396000233A
:10372800FB770023BB607B681B69B3F1004F7B68A4
:1037380093F85430012B01D1022310E17B68012258
:1037480083F854207B681B681846FFF785FC0346FE
:10375800002B40F0F7803B685B68022B00F0B180DB
:103768007B681B69B3F1004F04D07B681B697E4AF4
:10377800934208D17B681A683B681B681946104653
:10378800FFF782FB41E07B681A6E3B685B6803F0D9
:103798001F030F2101FA03F3DB431A403B681B6840
:1037A800C3F31103002B05D13B681B689B0E03F084
:1037B8001F0311E03B681B683B613B6993FAA3F365
:1037C800FB60FB687B617B69002B01D1202303E050
:1037D8007B69B3FA83F3DBB23968496801F01F01EA
:1037E8008B401A437B681A663B685B689B085A1CC7
:1037F8007B68DB699A4208D87B6818683B68596817
:103808003B681B681A46FFF71EFB7B6818683B6815
:1038180019683B689B681A46FFF75BFB3B681B68A7
:10382800002B80F297805148FFF7B8FAB8613B68DF
:103838001B684F4A934220D1BB6903F40003002B55
:103848001BD1BB6943F4000319464848FFF794FAB3
:10385800484B1B689B09484AA2FB03239B095A1C37
:1038680013465B0013449B00BB6002E0BB68013B4E
:10387800BB60BB68002BF9D16CE03B681B683F4A12
:1038880093420CD1BB6903F08073002B07D1BB694D
:1038980043F0807319463548FFF76EFA5AE03B68E3
:1038A8001B68374A934255D1BB6903F48003002B48
:1038B80050D1BB6943F4800319462C48FFF75CFAE2
:1038C80048E07B681B69B3F1004F04D07B681B6933
:1038D800254A934207D17B681A683B681B681946DA
:1038E8001046FFF7E3FA3B681B68002B32DA1F48E3
:1038F800FFF754FAB8613B681B681D4A934207D129
:10390800BB6923F4000319461848FFF735FA21E08C
:103918003B681B68194A934207D1BB6923F080733F
:1039280019461248FFF728FA14E03B681B68144A46
:1039380093420FD1BB6923F4800319460B48FFF764
:103948001BFA07E07B689B6D43F020027B689A6551
:103958000123FB777B68002283F85420FB7F1846FD
:103968002037BD4680BD00BF040000800827014005
:10397800001000B000000020632D3E05004000B894
:10398800002000B480B584B000AF78607B681B6805
:103998001846FFF761FB0346002B33D07B681B6892
:1039A8001846FFF721FB0346002B04D17B681B68F0
:1039B8001846FFF73EFBFEF7A3F9F8601BE0FEF799
:1039C8009FF90246FB68D31A022B14D97B681B683F
:1039D8009B6803F00403002B0DD07B689B6D43F0BC
:1039E80010027B689A657B68DB6D43F001027B6897
:1039F800DA65012307E07B681B689B6803F0040312
:103A0800002BDCD1002318461037BD4680BD0000CE
:103A180080B584B000AF78600023BB607B681B680A
:103A28001846FFF7CFFA0346002B69D17B681B685D
:103A38009A68364B1340002B0DD07B689B6D43F082
:103A480010027B689A657B68DB6D43F001027B6836
:103A5800DA65012355E07B681B681846FFF78CFA86
:103A68002B48FFF79BF9034603F40003002B0FD004
:103A7800284B1B689B09284AA2FB03239B09013397
:103A8800BB6002E0BB68013BBB60BB68002BF9D19F
:103A98007B685B7E012B33D0FEF732F9F86028E0B3
:103AA8007B681B681846FFF78DFA0346002B04D184
:103AB8007B681B681846FFF75FFAFEF721F9024694
:103AC800FB68D31A022B14D97B681B681B6803F0A8
:103AD8000103012B0DD07B689B6D43F010027B68BE
:103AE8009A657B68DB6D43F001027B68DA65012328
:103AF80007E07B681B681B6803F00103012BCFD12B
:103B0800002318461037BD4680BD00BF170000804F
:103B18000827014000000020632D3E0580B584B0D1
:103B280000AF78607B681B681846FFF75DFAF8609D
:103B38007B681B681846FFF745FA0346002B47D0F9
:103B4800FB68002B44D17B681B689B6803F0050366
:103B5800012B0CD17B681B681846FFF720FA7B689D
:103B68001B6803221A60FEF7CBF8B86029E07B686F
:103B78009B6D43F010027B689A657B68DB6D43F0B0
:103B880001027B68DA65012323E0FEF7B9F80246F3
:103B9800BB68D31A022B14D97B681B689B6803F097
:103BA8000103002B0DD07B689B6D43F010027B68EE
:103BB8009A657B68DB6D43F001027B68DA65012357
:103BC80007E07B681B689B6803F00103002BDCD1CE
:103BD800002318461037BD4680BD80B483B000AFBF
:103BE800786039607B68D3F8B43023F07F023B6893
:103BF8001A437B68C3F8B42000BF0C37BD4680BCAD
:103C0800704780B483B000AF78607B68D3F8B43075
:103C180003F07F0318460C37BD4680BC704780B45C
:103C280083B000AF78607B689B6823F0004323F083
:103C3800170343F001027B689A6000BF0C37BD464A
:103C480080BC704780B483B000AF78607B689B68A5
:103C580023F0004323F0170343F002027B689A60C5
:103C680000BF0C37BD4680BC704780B483B000AF3E
:103C780078607B689B6803F00103012B01D1012365
:103C880000E0002318460C37BD4680BC704780B45E
:103C980083B000AF78607B689B6823F0004323F013
:103CA800170343F000427B689A6000BF0C37BD469B
:103CB80080BC704780B483B000AF78607B689B6835
:103CC80003F00043B3F1004F01D1012300E00023CA
:103CD80018460C37BD4680BC704780B588B000AF29
:103CE80078600023BB600023BB617B6893F8543085
:103CF800012B01D10223B9E07B68012283F854200B
:103D08007868FFF70BFF0346FB757B681B6818464E
:103D1800FFF7ABFF0346002B40F09D807B689B6D4F
:103D280023F4817343F002027B689A657B681B6801
:103D3800DA6848F2030313403B617B681B68DB6861
:103D48007A68126823F4004323F00303D360002346
:103D5800FB612EE07B681B681846FFF798FF14E0AC
:103D6800BB680133BB60BB68B3F52E3F0DD37B68DE
:103D78009B6D23F0120343F010027B689A657B6801
:103D8800002283F85420012370E07B681B681846E2
:103D9800FFF790FF0346002BE2D17B681B681846AB
:103DA800FFF72FFF0246BB691344BB61FB69013370
:103DB800FB61FB69072BCDD9BA69FB69B2FBF3F349
:103DC800BB617B681B681846FFF729FF7B681B6887
:103DD800B9691846FFF701FF7B681B681846FFF7AB
:103DE80031FFFDF78DFFF8601CE0FDF789FF024603
:103DF800FB68D31A022B15D97B681B681846FFF796
:103E080034FF0346002B0DD07B689B6D43F01002F6
:103E18007B689A657B68DB6D43F001027B68DA6535
:103E2800012323E07B681B681846FFF71EFF034643
:103E3800002BDAD17B681B68D9687B681B683A69F4
:103E48000A43DA607B689B6D23F0030343F00102A9
:103E58007B689A6505E07B689B6D43F010027B6880
:103E68009A657B68002283F85420FB7D184620372A
:103E7800BD4680BD80B485B000AF78607B6803F034
:103E88000703FB600C4BDB68BB60BA684FF6FF03A7
:103E98001340BB60FB681A02BB68134343F0BF635F
:103EA80043F40033BB60044ABB68D36000BF1437D7
:103EB800BD4680BC704700BF00ED00E080B400AF95
:103EC800044BDB681B0A03F007031846BD4680BC99
:103ED800704700BF00ED00E080B483B000AF034638
:103EE800FB7197F90730002B0BDBFB7903F01F02FE
:103EF800064997F907305B09012000FA02F241F8F8
:103F0800232000BF0C37BD4680BC704700E100E0AD
:103F180080B483B000AF0346FB7197F90730002BDC
:103F280012DBFB7903F01F020A4997F907305B0996
:103F3800012000FA02F2203341F82320BFF34F8F0B
:103F480000BFBFF36F8F00BF00BF0C37BD4680BCFA
:103F5800704700BF00E100E080B483B000AF0346C3
:103F68003960FB7197F90730002B0ADB3B68DAB23E
:103F78000C4997F907301201D2B20B4483F8002399
:103F88000AE03B68DAB20849FB7903F00F03043B07
:103F98001201D2B20B441A7600BF0C37BD4680BC62
:103FA800704700BF00E100E000ED00E080B489B098
:103FB80000AFF860B9607A60FB6803F00703FB6143
:103FC800FB69C3F10703042B28BF0423BB61FB690A
:103FD8000433062B02D9FB69033B00E000237B6115
:103FE8004FF0FF32BB6902FA03F3DA43BB681A40A9
:103FF8007B699A404FF0FF317B6901FA03F3D9439B
:104008007B680B40134318462437BD4680BC704775
:1040180080B582B000AF78607868FFF72BFF00BFEB
:104028000837BD4680BD80B586B000AF0346B9608D
:104038007A60FB73FFF742FF78617A68B96878693C
:10404800FFF7B4FF024697F90F3011461846FFF7FD
:1040580083FF00BF1837BD4680BD80B582B000AF72
:104068000346FB7197F907301846FFF735FF00BF85
:104078000837BD4680BD80B582B000AF0346FB71EE
:1040880097F907301846FFF743FF00BF0837BD46CA
:1040980080BD000080B582B000AF78607B68002BDF
:1040A80001D101238EE07B681B681A46474B9A4270
:1040B8000FD87B681B681A46454B1344454AA2FB38
:1040C80003231B099A007B685A647B68424A1A6476
:1040D8000EE07B681B681A46404B13443D4AA2FB1E
:1040E80003231B099A007B685A647B683C4A1A645C
:1040F8007B68022283F825207B681B681B687A6826
:10410800126823F4FF4323F0700313607B681B6875
:1041180019687B689A687B68DB681A437B681B6947
:104128001A437B685B691A437B689B691A437B68FF
:10413800DB691A437B681B6A1A437B681B680A435E
:104148001A60786800F024FB7B689B68B3F5804FA1
:1041580002D17B6800225A607B685A687B689B6C36
:1041680002F07F021A607B68DB6C7A68126D5A6015
:104178007B685B68002B10D07B685B68042B0CD8CD
:10418800786800F04DFB7B685B6D00221A607B68E5
:104198009B6D7A68D26D5A6008E07B6800225A6588
:1041A8007B6800229A657B680022DA657B680022BA
:1041B800DA637B68012283F825207B68002283F874
:1041C8002420002318460837BD4680BD0704024056
:1041D800F8FFFDBFCDCCCCCC00000240F8FBFDBF02
:1041E8000004024080B582B000AF78607B68002B85
:1041F80001D101237BE07B681B681A687B681B6818
:1042080022F001021A607B681B681A463A4B9A42F0
:104218000FD87B681B681A46384B1344384AA2FBF0
:1042280003231B099A007B685A647B68354A1A6421
:104238000EE07B681B681A46334B1344304AA2FBD6
:1042480003231B099A007B685A647B682F4A1A6407
:104258007B681B6800221A607B685B6C03F01C0299
:104268007B681B6C012101FA02F25A60786800F041
:104278008FFA7B689B6C00221A607B68DB6C7A681B
:10428800126D5A607B685B68002B0FD07B685B6897
:10429800042B0BD8786800F0C3FA7B685B6D0022AA
:1042A8001A607B689B6D7A68D26D5A607B680022C1
:1042B8005A657B6800229A657B680022DA657B680C
:1042C8000022DA627B6800221A637B6800225A6344
:1042D8007B6800229A637B680022DA637B6800228D
:1042E80083F825207B68002283F8242000231846C1
:1042F8000837BD4680BD00BF07040240F8FFFDBF78
:10430800CDCCCCCC00000240F8FBFDBF000402403D
:1043180080B586B000AFF860B9607A603B60002372
:10432800FB75FB6893F82430012B01D1022369E067
:10433800FB68012283F82420FB6893F82530DBB260
:10434800012B55D1FB68022283F82520FB68002247
:10435800DA63FB681B681A68FB681B6822F00102B5
:104368001A603B687A68B968F86800F0D3F9FB68A6
:104378001B6B002B08D0FB681B681A68FB681B685E
:1043880042F00E021A600FE0FB681B681A68FB68AF
:104398001B6822F004021A60FB681B681A68FB6835
:1043A8001B6842F00A021A60FB689B6C1B6803F4E6
:1043B8008033002B07D0FB689B6C1A68FB689B6CEA
:1043C80042F480721A60FB685B6D002B07D0FB68B3
:1043D8005B6D1A68FB685B6D42F480721A60FB685B
:1043E8001B681A68FB681B6842F001021A6008E043
:1043F800FB688022DA63FB68002283F8242001230B
:10440800FB75FB7D18461837BD4680BD80B483B068
:1044180000AF78607B68002B01D101234FE07B68F7
:1044280093F82530DBB2022B08D07B680422DA63CC
:104438007B68002283F82420012340E07B681B6806
:104448001A687B681B6822F00E021A607B689B6CF6
:104458001A687B689B6C22F480721A607B681B6800
:104468001A687B681B6822F001021A607B685B6C23
:1044780003F01C027B681B6C012101FA02F25A60EE
:104488007B68DB6C7A68126D5A607B685B6D002B09
:104498000CD07B685B6D1A687B685B6D22F4807258
:1044A8001A607B689B6D7A68D26D5A607B680122BE
:1044B80083F825207B68002283F8242000231846EF
:1044C8000C37BD4680BC704780B584B000AF7860BB
:1044D8000023FB737B6893F82530DBB2022B05D0F1
:1044E8007B680422DA630123FB7347E07B681B685F
:1044F8001A687B681B6822F00E021A607B681B68CA
:104508001A687B681B6822F001021A607B689B6C42
:104518001A687B689B6C22F480721A607B685B6CFB
:1045280003F01C027B681B6C012101FA02F25A603D
:104538007B68DB6C7A68126D5A607B685B6D002B58
:104548000CD07B685B6D1A687B685B6D22F48072A7
:104558001A607B689B6D7A68D26D5A607B6801220D
:1045680083F825207B68002283F824207B689B6BD6
:10457800002B03D07B689B6B78689847FB7B1846B9
:104588001037BD4680BD000080B584B000AF7860AC
:104598007B681B6C1B68FB607B681B681B68BB60C7
:1045A8007B685B6C03F01C0304229A40FB68134091
:1045B800002B27D0BB6803F00403002B22D07B68B4
:1045C8001B681B6803F02003002B07D17B681B685E
:1045D8001A687B681B6822F004021A607B685B6CAF
:1045E80003F01C027B681B6C042101FA02F25A607A
:1045F8007B681B6B002B00F081807B681B6B7868E5
:1046080098477BE07B685B6C03F01C0302229A40AE
:10461800FB681340002B3DD0BB6803F00203002B5E
:1046280038D07B681B681B6803F02003002B0BD174
:104638007B681B681A687B681B6822F00A021A608C
:104648007B68012283F825207B681B681A462E4B5D
:104658009A4209D97B685B6C03F01C032B4A022140
:1046680001FA03F3536008E07B685B6C03F01C03FA
:10467800274A022101FA03F353607B68002283F87A
:1046880024207B68DB6A002B38D07B68DB6A78687B
:10469800984733E07B685B6C03F01C0308229A4060
:1046A800FB681340002B2AD0BB6803F00803002BDB
:1046B80025D07B681B681A687B681B6822F00E028D
:1046C8001A607B685B6C03F01C027B681B6C012121
:1046D80001FA02F25A607B680122DA637B680122E0
:1046E80083F825207B68002283F824207B685B6B95
:1046F800002B04D07B685B6B7868984700BF00BFCD
:104708001037BD4680BD00BF800002400004024053
:104718000000024080B485B000AFF860B9607A60EC
:104728003B60FB68DB6CFA68126D5A60FB685B6D76
:10473800002B04D0FB689B6DFA68D26D5A60FB6849
:104748005B6C03F01C02FB681B6C012101FA02F28E
:104758005A60FB681B683A685A60FB689B68102BB4
:1047680008D1FB681B687A689A60FB681B68BA689E
:10477800DA6007E0FB681B68BA689A60FB681B6828
:104788007A68DA6000BF1437BD4680BC7047000005
:1047980080B485B000AF78607B681B681A461C4BF4
:1047A8009A4213D87B685B6C9B089B0003F180439B
:1047B80003F502337A6893647B681B68DBB2083BB5
:1047C800144AA2FB03231B09FB6011E07B685B6CA6
:1047D8009B089A00104B13447A6893647B681B68A3
:1047E800DBB2083B0B4AA2FB03231B090733FB6020
:1047F8007B680A4ADA64FB6803F01F0301229A40C7
:104808007B681A6500BF1437BD4680BC704700BF7F
:1048180007040240CDCCCCCC1C08024080080240E2
:1048280080B485B000AF78607B685B6803F07F0375
:10483800FB60FA680A4B13449B001A467B685A656A
:104848007B68084A9A65FB68013B03F00303012271
:104858009A407B68DA6500BF1437BD4680BC704754
:104868003F8200104009024080B483B000AF7860F6
:1048780039607B6893F82530DBB2012B2BD17B683C
:1048880093F82430012B01D1022328E07B68012210
:1048980083F824207B689B6C1B6803F07F013B68CE
:1048A8001A683B68DB68013BDB041A433B685B68BA
:1048B8001A433B681B7A1B041A433B685B7A5B020A
:1048C8001A437B689B6C0A431A607B68002283F852
:1048D8002420002303E07B688022DA630123184642
:1048E8000C37BD4680BC704780B582B000AF786099
:1048F8007B68DB6C1A687B681B6D1340002B1AD031
:104908007B689B6C1A687B689B6C22F480721A60C7
:104918007B68DB6C7A68126D5A607B68DB6B43F4EA
:1049280000727B68DA637B685B6B002B03D07B6863
:104938005B6B786898477B685B6D002B22D07B683F
:104948009B6D1A687B68DB6D1340002B1AD07B685F
:104958005B6D1A687B685B6D22F480721A607B68F5
:104968009B6D7A68D26D5A607B68DB6B43F480621A
:104978007B68DA637B685B6B002B03D07B685B6BBF
:104988007868984700BF0837BD4680BD80B586B0B7
:1049980000AFF860B960C7E900231C4B1B78012BF6
:1049A80001D102232DE0194B01221A70174B002266
:1049B8005A604FF47A7000F069F80346FB75FB7D86
:1049C800002B1AD1FB68012B05D1D7E90023B86861
:1049D80000F0BEF804E03B681946B86800F0DEF85D
:1049E8004FF47A7000F052F80346FB75084B5A6989
:1049F800FB68DB43064913404B61044B00221A70E5
:104A0800FB7D18461837BD4680BD00BF94040020C2
:104A18000040005880B483B000AF0023FB710B4BFB
:104A28005B69002B0BDA094B094A9A60074B094A64
:104A38009A60064B5B69002B01DA0123FB71FB7955
:104A480018460C37BD4680BC704700BF0040005870
:104A580023016745AB89EFCD80B483B000AF002355
:104A6800FB71094B5B69084A43F000435361064BED
:104A78005B69002B01DB0123FB71FB7918460C37BE
:104A8800BD4680BC704700BF0040005880B584B068
:104A980000AF7860FDF734F9F86009E0FDF730F908
:104AA8000246FB68D31A7A689A4201D8032347E082
:104AB800254B1B6903F48033B3F5803FEED0224BBE
:104AC8001B69BB60BB6803F00103002B02D01E4BBF
:104AD80001221A61BA684CF2FA331340BB60BB6812
:104AE80003F04043002B07D0174B9A69BB6803F0CB
:104AF8004043154913438B61BB6823F04043002BA7
:104B080004D0114ABB6823F040431361BB68002BF3
:104B18000ED00E4ABB685360012311E0FDF7F0F890
:104B28000246FB68D31A7A689A4201D8032307E041
:104B3800054B1B6903F48023B3F5802FEED00023C7
:104B480018461037BD4680BD004000589404002028
:104B580080B485B000AFF860C7E900230E4B5B69ED
:104B68000D4A43F001035361FB683A681A60BFF3CA
:104B78006F8F00BFD7E900014FF000024FF000032C
:104B88000A000023F968043113460B6000BF14378C
:104B9800BD4680BC704700BF0040005880B489B053
:104BA80000AF786039604023FB777B68BB613B6866
:104BB8007B61184B5B69174A43F480235361EFF319
:104BC8001083FB60FB683B6172B600BF7B691A68A3
:104BD800BB691A60BB690433BB617B6904337B61C1
:104BE800FB7F013BFB77FB7F002BEFD100BF094B1D
:104BF8001B6903F48033B3F5803FF8D03B69BB6091
:104C0800BB6883F3108800BF00BF2437BD4680BC53
:104C1800704700BF0040005880B584B000AF78608E
:104C28003960284B1B78012B01D1022346E0254B24
:104C380001221A70234B00225A604FF47A70FFF752
:104C480025FF0346FB73FB7B002B33D17B681B6876
:104C5800042B08D100F080F84FF47A70FFF716FFA4
:104C68000346FB7324E03B684FF0FF321A607B6811
:104C78005B68BB6012E0B86800F07EF84FF47A70A9
:104C8800FFF704FF0346FB73FB7B002B03D03B6855
:104C9800BA681A600AE0BB680133BB607B685A686F
:104CA8007B689B681344BA689A42E4D300F0C0F862
:104CB80000F07AF8034B00221A70FB7B1846103775
:104CC800BD4680BD9404002080B584B000AF7860F4
:104CD8001F4B1B78012B01D1022334E01C4B01220E
:104CE8001A701B4B00225A607B681B68184A936035
:104CF8004FF47A70FFF7CAFE0346FB73FB7B002B69
:104D080003D0134B00221A701CE0124B5B69114A46
:104D180043F0407353617B681B68042B05D10C4B2F
:104D280000221A6100F018F80CE07B689B68084ABA
:104D380053617B685B68064A13617B685B68184649
:104D480000F01AF8FB7B18461037BD4680BD00BF3F
:104D5800940400200040005880B400AF054B5B6904
:104D6800044A43F4803343F00403536100BFBD4653
:104D780080BC70470040005880B483B000AF7860B2
:104D8800084B5B6923F47E727B68DB001343054A9A
:104D980043F4803343F00203536100BF0C37BD4630
:104DA80080BC70470040005880B400AF1F4B1B68A0
:104DB80003F40073012B17D11C4B1B681B4A23F407
:104DC80000731360194B1B68184A43F4006313609F
:104DD800164B1B68154A23F400631360134B1B68BA
:104DE800124A43F400731360104B1B6803F480638A
:104DF800012B17D10D4B1B680C4A23F480631360F9
:104E08000A4B1B68094A43F480531360074B1B681D
:104E1800064A23F480531360044B1B68034A43F487
:104E28008063136000BFBD4680BC704700400058D7
:104E380080B400AF054B5B69044A23F47E7323F00A
:104E48000203536100BFBD4680BC70470040005854
:104E580080B487B000AF7860396000237B6140E19F
:104E68003B681A6801217B6901FA03F31340FB6070
:104E7800FB68002B00F032813B685B6803F003039A
:104E8800012B05D03B685B6803F00303022B30D18C
:104E98007B689B683B617B695B00032202FA03F332
:104EA800DB433A6913403B613B68DA687B695B0026
:104EB80002FA03F33A6913433B617B683A699A60E3
:104EC8007B685B683B6101227B6902FA03F3DB4381
:104ED8003A6913403B613B685B681B0903F00102B8
:104EE8007B6902FA03F33A6913433B617B683A69C9
:104EF8005A603B685B6803F00303032B17D07B6899
:104F0800DB683B617B695B00032202FA03F3DB4346
:104F18003A6913403B613B689A687B695B0002FA17
:104F280003F33A6913433B617B683A69DA603B688B
:104F38005B6803F00303022B23D17B69DA087B68E3
:104F4800083253F822303B617B6903F007039B006A
:104F58000F2202FA03F3DB433A6913403B613B68D3
:104F68001A697B6903F007039B0002FA03F33A69A5
:104F780013433B617B69DA087B680832396943F877
:104F880022107B681B683B617B695B00032202FA85
:104F980003F3DB433A6913403B613B685B6803F00A
:104FA80003027B695B0002FA03F33A6913433B612E
:104FB8007B683A691A603B685B6803F44033002BEE
:104FC80000F08C804E4A7B699B08023352F82330EC
:104FD8003B617B6903F003039B00072202FA03F39A
:104FE800DB433A6913403B617B68B3F1904F0DD0C6
:104FF8007B68444A934207D07B68434A934201D175
:10500800022304E0072302E0012300E000237A6979
:1050180002F00302920093403A6913433B61384916
:105028007B699B0802333A6941F82320374B1B6898
:105038003B61FB68DB433A6913403B613B685B6853
:1050480003F48013002B03D03A69FB6813433B61D8
:105058002E4A3B6913602D4B5B683B61FB68DB4361
:105068003A6913403B613B685B6803F40013002B0B
:1050780003D03A69FB6813433B61244A3B69536098
:10508800224BD3F880303B61FB68DB433A6913401D
:105098003B613B685B6803F48033002B03D03A69BB
:1050A800FB6813433B61194A3B69C2F88030174BD0
:1050B800D3F884303B61FB68DB433A6913403B61BA
:1050C8003B685B6803F40033002B03D03A69FB6844
:1050D80013433B610D4A3B69C2F884307B69013355
:1050E8007B613B681A687B6922FA03F3002B7FF423
:1050F800B7AE00BF00BF1C37BD4680BC704700BFBD
:10510800000001400004004800080048000800585A
:1051180080B487B000AF7860396000237B61AFE06E
:1051280001227B6902FA03F33A6813403B613B6949
:10513800002B00F0A280594A7B699B08023352F881
:105148002330FB607B6903F003039B00072202FA0C
:1051580003F3FA681340FB607B68B3F1904F0DD0FE
:105168007B684F4A934207D07B684E4A934201D1ED
:10517800022304E0072302E0012300E000237A6908
:1051880002F0030292009340FA689A4236D1464BE5
:10519800D3F880203B69DB4343491340C1F8803092
:1051A800414BD3F884203B69DB433F491340C1F8A6
:1051B80084303D4B1A683B69DB433B4913400B6025
:1051C800394B5A683B69DB43374913404B607B696D
:1051D80003F003039B00072202FA03F3FB602F4A44
:1051E8007B699B08023352F82310FB68DA432B488B
:1051F8007B699B080A40023340F823207B681A68C1
:105208007B695B00032101FA03F31A437B681A6088
:105218007B69DA087B68083253F822107B6903F04F
:1052280007039B000F2202FA03F3DB437A69D208D3
:1052380019407B68083243F822107B689A687B69BA
:105248005B00032101FA03F3DB431A407B689A6091
:105258007B685A6801217B6901FA03F3DB431A4032
:105268007B685A607B68DA687B695B00032101FA16
:1052780003F3DB431A407B68DA607B6901337B61A7
:105288003A687B6922FA03F3002B7FF449AF00BF29
:1052980000BF1C37BD4680BC704700BF00000140FE
:1052A80000040048000800480008005880B483B093
:1052B80000AF78600B467B8013467B707B78002BB1
:1052C80003D07A887B689A6102E07A887B689A6260
:1052D80000BF0C37BD4680BC7047000080B582B067
:1052E80000AF0346FB80084BDA68FB881340002BAD
:1052F80006D0054AFB88D360FB88184605F08EF96E
:1053080000BF0837BD4680BD0008005880B400AF14
:10531800044B1B68034A43F48073136000BFBD4607
:1053280080BC70470004005880B582B000AF786038
:105338000B46FB707B68002B0CD1134B5B6903F4A5
:105348000073B3F5007F0DD100F03CF80346002B45
:1053580008D015E00C4B5B6903F40073002B01D1F6
:1053680000F022F8094B1B69084A23F00403136173
:10537800FB78012B01D130BF02E040BF20BF20BF26
:105388000837BD4680BD00BF0004005800ED00E0AE
:1053980080B400AF034B1B6803F4C0631846BD46D6
:1053A80080BC70470004005880B400AF044B1B68F1
:1053B800034A43F48043136000BFBD4680BC704776
:1053C8000004005880B483B000AF164B1B68154A20
:1053D80023F480431360144B1B68322202FB03F34F
:1053E800124AA2FB03239B0C7B6002E07B68013B13
:1053F8007B600C4B5B6903F40073B3F5007F02D14B
:105408007B68002BF2D1074B5B6903F40073B3F59B
:10541800007F01D1032300E0002318460C37BD4666
:1054280080BC7047000400580000002083DE1B4346
:1054380080B483B000AF0346FB71104B1B6823F0A8
:1054480007030E4A43F0020313600D4B1B690C4A15
:1054580043F004031361FB79012B01D130BF02E053
:1054680040BF20BF20BF064B1B69054A23F0040339
:10547800136100BF0C37BD4680BC7047000400585C
:1054880000ED00E080B400AF064B1B6803F48073A6
:10549800B3F5807F01D1012300E000231846BD4603
:1054A80080BC70470004005880B400AF4FF0B04390
:1054B8001B684FF0B04243F40013136000BFBD46B1
:1054C80080BC704780B400AF4FF0B0431B684FF00A
:1054D800B04223F40013136000BFBD4680BC704780
:1054E80080B400AF4FF0B0431B6803F48013B3F5EA
:1054F800801F01D1012300E000231846BD4680BC6F
:10550800704780B400AF4FF0B0431B684FF0B04213
:1055180043F48033136000BFBD4680BC704780B43D
:1055280000AF4FF0B0431B684FF0B04223F4803314
:10553800136000BFBD4680BC704780B400AF4FF019
:10554800B0431B6803F40033B3F5003F01D10123D6
:1055580000E000231846BD4680BC704780B400AF09
:105568004FF0B0431B684FF0B04243F480731360B0
:1055780000BFBD4680BC704780B400AF4FF0B04359
:105588001B684FF0B04223F48073136000BFBD4620
:1055980080BC704780B400AF4FF0B0431B6803F481
:1055A8008063B3F5806F01D1012300E00023184622
:1055B800BD4680BC704780B483B000AF78604FF0C0
:1055C800B0435B6823F0FE427B681B064FF0B04196
:1055D80013434B6000BF0C37BD4680BC704780B496
:1055E80000AF4FF0B043D3F8903003F00203022B22
:1055F80001D1012300E000231846BD4680BC704756
:1056080080B400AF4FF0B043D3F894304FF0B042BD
:1056180043F00103C2F8943000BFBD4680BC704718
:1056280080B400AF4FF0B043D3F894304FF0B0429D
:1056380023F00103C2F8943000BFBD4680BC704718
:1056480080B400AF4FF0B043D3F8943003F00203B6
:10565800022B01D1012300E000231846BD4680BC7F
:10566800704780B400AF4FF0B0431B684FF0B042B2
:1056780043F00103136000BFBD4680BC704780B48F
:1056880000AF4FF0B0431B684FF0B04223F0010366
:10569800136000BFBD4680BC704780B400AF4FF0B8
:1056A800B0431B6803F00203022B01D1012300E081
:1056B80000231846BD4680BC704780B400AF4FF049
:1056C800B0431B6803F00803082B01D1012300E055
:1056D80000231846BD4680BC704780B400AF4FF029
:1056E800B0431B6803F0F0031846BD4680BC704702
:1056F80080B400AF4FF0B043D3F8943003F4706334
:105708001846BD4680BC704780B483B000AF78604F
:105718004FF0B0435B6823F47F427B681B024FF075
:10572800B04113434B6000BF0C37BD4680BC704787
:1057380080B483B000AF78604FF0B0439B6823F02B
:1057480003024FF0B0417B6813438B6000BF0C37F6
:10575800BD4680BC704780B400AF4FF0B0439B6833
:1057680003F00C031846BD4680BC704780B483B074
:1057780000AF78604FF0B0439B6823F0F0024FF021
:10578800B0417B6813438B6000BF0C37BD4680BCBB
:10579800704780B483B000AF78604FF0B043D3F85F
:1057A800083123F00F027B681B094FF0B041134307
:1057B800C1F8083100BF0C37BD4680BC704780B4C3
:1057C80083B000AF78604FF0B0439B6823F4E06289
:1057D8004FF0B0417B6813438B6000BF0C37BD4668
:1057E80080BC704780B483B000AF78604FF0B0439E
:1057F8009B6823F460524FF0B0417B6813438B6081
:1058080000BF0C37BD4680BC704780B400AF4FF076
:10581800B0439B6803F0F0031846BD4680BC704750
:1058280080B400AF4FF0B043D3F808311B0103F048
:10583800F0031846BD4680BC704780B400AF4FF0F7
:10584800B0439B6803F4E0631846BD4680BC7047CC
:1058580080B400AF4FF0B0439B6803F46053184620
:10586800BD4680BC704780B400AF4FF0B0431B68A2
:105878004FF0B04243F08073136000BFBD4680BC58
:10588800704780B400AF4FF0B0431B684FF0B04290
:1058980023F08073136000BFBD4680BC704780B49E
:1058A80000AF4FF0B0431B6803F00073B3F1007F03
:1058B80001D1012300E000231846BD4680BC704793
:1058C80080B400AF4FF0B043DB681B0A03F07F03DE
:1058D8001846BD4680BC704780B400AF4FF0B04357
:1058E800DB6803F060431846BD4680BC704780B44F
:1058F80000AF4FF0B043DB6803F070031846BD46B5
:1059080080BC704780B400AF4FF0B043DB6803F051
:1059180003031846BD4680BC704780B400AF4FF003
:10592800B0439B6803F48033B3F5803F01D1012372
:1059380000E000231846BD4680BC704780B400AF25
:105948004FF0B043D3F8083103F48033B3F5803F08
:1059580001D1012300E000231846BD4680BC7047F2
:1059680080B400AF4FF0B0439B6803F40033B3F545
:10597800003F01D1012300E000231846BD4680BC4A
:10598800704780B400AF4FF0B0439B6803F48023A6
:10599800B3F5802F01D1012300E000231846BD464E
:1059A80080BC704780B588B000AF78607B68002BFA
:1059B80001D101238BE3FFF7CEFEF861FFF7A2FFC9
:1059C800B8617B681B6803F02003002B00F0C980D6
:1059D800FB69002B05D0FB690C2B7BD1BB69012B24
:1059E80078D1FFF75AFE0346002B05D07B681B6A67
:1059F800002B01D101236AE37B689A6A4FF0B04318
:105A08001B6803F00803002B05D04FF0B0431B6858
:105A180003F0F00306E04FF0B043D3F894301B09CD
:105A280003F0F003934222D27B689B6A184600F089
:105A380051FD0346002B01D0012348E34FF0B0434A
:105A48001B684FF0B04243F0080313604FF0B043B7
:105A58001B6823F0F0027B689B6A4FF0B041134348
:105A68000B607B685B6A1846FFF74EFE21E04FF03B
:105A7800B0431B684FF0B04243F0080313604FF087
:105A8800B0431B6823F0F0027B689B6A4FF0B0417B
:105A980013430B607B685B6A1846FFF735FE7B682B
:105AA8009B6A184600F016FD0346002B01D001231F
:105AB8000DE300F0D7FC0346A14A1360A14B1B6815
:105AC8001846FCF713F90346FB74FB7C002B47D000
