:020000040800F2
:1000000000000120112A0008CB1F0008CD1F0008A6
:10001000CF1F0008D11F0008D31F000800000000F8
:10002000000000000000000000000000D51F0008D4
:10003000D71F000800000000D91F0008DB1F0008C0
:10004000612A0008612A0008DD1F0008612A0008F3
:10005000612A0008612A0008612A0008612A000854
:10006000612A0008612A0008612A0008ED1F0008C3
:10007000FD1F0008612A0008612A0008612A0008A3
:10008000612A0008612A0008612A0008612A000824
:1000900000000000612A0008612A0008612A0008A7
:1000A000612A0008612A0008612A0008612A000804
:1000B000612A0008612A0008612A0008612A0008F4
:1000C0000D2000081D200008612A0008612A000890
:1000D0002D2000083D200008612A00084D2000085E
:1000E000612A0008612A00085D200008612A0008D2
:1000F000612A00080000000000000000612A0008DA
:10010000612A0008612A00086D200008612A0008A1
:10011000612A0008612A0008612A0008612A000893
:10012000612A0008612A0008612A0008612A000883
:08013000612A00087D2000088F
:1001380010B5054C237833B9044B13B10448AFF319
:1001480000800123237010BD24010020000000005E
:100158001031010808B5034B1BB103490348AFF33D
:10016800008008BD000000002801002010310108AF
:10017800034613F8012B002AFBD1181A01387047DF
:1001880081F0004102E000BF83F0004330B54FEA40
:1001980041044FEA430594EA050F08BF90EA020FAD
:1001A8001FBF54EA000C55EA020C7FEA645C7FEA40
:1001B800655C00F0E2804FEA5454D4EB5555B8BF63
:1001C8006D420CDD2C4480EA020281EA030382EAD4
:1001D800000083EA010180EA020281EA0303362D66
:1001E80088BF30BD11F0004F4FEA01314FF4801C39
:1001F8004CEA113102D0404261EB410113F0004F4B
:100208004FEA03334CEA133302D0524263EB430301
:1002180094EA050F00F0A780A4F10104D5F1200E9F
:100228000DDB02FA0EFC22FA05F2801841F10001FA
:1002380003FA0EF2801843FA05F359410EE0A5F1CE
:1002480020050EF1200E012A03FA0EFC28BF4CF0FF
:10025800020C43FA05F3C01851EBE37101F00045B5
:1002680007D54FF0000EDCF1000C7EEB00006EEBC2
:100278000101B1F5801F1BD3B1F5001F0CD349084C
:100288005FEA30004FEA3C0C04F101044FEA4452A3
:1002980012F5800F80F09A80BCF1004F08BF5FEA2A
:1002A800500C50F1000041EB045141EA050130BD0A
:1002B8005FEA4C0C404141EB0101013C28BFB1F51C
:1002C800801FE9D291F0000F04BF01460020B1FA67
:1002D80081F308BF2033A3F10B03B3F120020CDA3A
:1002E8000C3208DD02F1140CC2F10C0201FA0CF018
:1002F80021FA02F10CE002F11402D8BFC2F1200C7D
:1003080001FA02F120FA0CFCDCBF41EA0C01904032
:10031800E41AA2BF01EB0451294330BD6FEA04047B
:100328001F3C1CDA0C340EDC04F11404C4F1200266
:1003380020FA04F001FA02F340EA030021FA04F378
:1003480045EA030130BDC4F10C04C4F1200220FACF
:1003580002F001FA04F340EA0300294630BD21FA0D
:1003680004F0294630BD94F0000F83F4801306BFD3
:1003780081F480110134013D4EE77FEA645C18BFC7
:100388007FEA655C29D094EA050F08BF90EA020F5E
:1003980005D054EA000C04BF1946104630BD91EA56
:1003A800030F1EBF0021002030BD5FEA545C05D159
:1003B8004000494128BF41F0004130BD14F5800498
:1003C8003CBF01F5801130BD01F0004545F0FE410C
:1003D80041F470014FF0000030BD7FEA645C1ABF41
:1003E800194610467FEA655C1CBF0B46024650EA78
:1003F800013406BF52EA033591EA030F41F40021A4
:1004080030BD00BF90F0000F04BF0021704730B529
:100418004FF4806404F132044FF000054FF00001FE
:1004280050E700BF90F0000F04BF0021704730B5BF
:100438004FF4806404F1320410F0004548BF404294
:100448004FF000013EE700BF42004FEAE2014FEAE9
:1004580031014FEA02701FBF12F07F4393F07F4FC4
:1004680081F06051704732F07F4208BF704793F0C7
:100478007F4F04BF41F40021704730B54FF46074DA
:1004880001F0004521F000411CE700BF50EA0102DD
:1004980008BF704730B54FF000050AE050EA010286
:1004A80008BF704730B511F0004502D5404261EBF6
:1004B80041014FF4806404F132045FEA915C3FF437
:1004C800D8AE4FF003025FEADC0C18BF03325FEAD4
:1004D800DC0C18BF033202EBDC02C2F1200300FA85
:1004E80003FC20FA02F001FA03FE40EA0E0021FAAA
:1004F80002F11444BDE600BF70B54FF0FF0C4CF498
:10050800E06C1CEA11541DBF1CEA135594EA0C0F49
:1005180095EA0C0F00F0DEF82C4481EA030621EA84
:100528004C5123EA4C5350EA013518BF52EA0335BF
:1005380041F4801143F4801338D0A0FB02CE4FF071
:100548000005E1FB02E506F00042E0FB03E54FF0A1
:100558000006E1FB03569CF0000F18BF4EF0010E99
:10056800A4F1FF04B6F5007F64F5407404D25FEA95
:100578004E0E6D4146EB060642EAC62141EA555148
:100588004FEAC52040EA5E504FEACE2EB4F1FD0C8A
:1005980088BFBCF5E06F1ED8BEF1004F08BF5FEA08
:1005A800500E50F1000041EB045170BD06F00046BA
:1005B80046EA010140EA020081EA0301B4EB5C0467
:1005C800C2BFD4EB0C0541EA045170BD41F480115F
:1005D8004FF0000E013C00F3AB8014F1360FDEBF84
:1005E800002001F0004170BDC4F10004203C35DA60
:1005F8000C341BDC04F11404C4F1200500FA05F3E3
:1006080020FA04F001FA05F240EA020001F0004283
:1006180021F0004110EBD37021FA04F642EB0601F9
:100628005EEA430E08BF20EAD37070BDC4F10C0423
:10063800C4F1200500FA04F320FA05F001FA04F2E7
:1006480040EA020001F0004110EBD37041F10001D3
:100658005EEA430E08BF20EAD37070BDC4F12005DE
:1006680000FA05F24EEA020E20FA04F301FA05F246
:1006780043EA020321FA04F001F0004121FA04F2EE
:1006880020EA020000EBD3705EEA430E08BF20EABE
:10069800D37070BD94F0000F0FD101F000464000F8
:1006A80041EB010111F4801F08BF013CF7D041EA7A
:1006B800060195F0000F18BF704703F0004652007E
:1006C80043EB030313F4801F08BF013DF7D043EA4F
:1006D8000603704794EA0C0F0CEA135518BF95EA05
:1006E8000C0F0CD050EA410618BF52EA4306D1D18C
:1006F80081EA030101F000414FF0000070BD50EAAB
:10070800410606BF1046194652EA430619D094EA34
:100718000C0F02D150EA013613D195EA0C0F05D11E
:1007280052EA03361CBF104619460AD181EA030172
:1007380001F0004141F0FE4141F470014FF000002A
:1007480070BD41F0FE4141F4780170BD70B54FF0C5
:10075800FF0C4CF4E06C1CEA11541DBF1CEA135545
:1007680094EA0C0F95EA0C0F00F0A7F8A4EB050427
:1007780081EA030E52EA03354FEA013100F088801E
:100788004FEA03334FF0805545EA131343EA1263E7
:100798004FEA022245EA111545EA10654FEA00269C
:1007A8000EF000419D4208BF964244F1FD0404F555
:1007B800407402D25B084FEA3202B61A65EB0305B1
:1007C8005B084FEA32024FF480104FF4002CB6EB6E
:1007D800020E75EB030E22BFB61A754640EA0C00EE
:1007E8005B084FEA3202B6EB020E75EB030E22BF2E
:1007F800B61A754640EA5C005B084FEA3202B6EB6F
:10080800020E75EB030E22BFB61A754640EA9C002D
:100818005B084FEA3202B6EB020E75EB030E22BFFD
:10082800B61A754640EADC0055EA060E18D04FEABB
:10083800051545EA16754FEA06164FEAC30343EA5B
:1008480052734FEAC2025FEA1C1CC0D111F4801F28
:100858000BD141EA00014FF000004FF0004CB6E721
:1008680011F4801F04BF01430020B4F1FD0C88BFC0
:10087800BCF5E06F3FF6AFAEB5EB030C04BFB6EBCB
:10088800020C5FEA500C50F1000041EB045170BDBE
:100898000EF0004E4EEA113114EB5C04C2BFD4EBEB
:1008A8000C0541EA045170BD41F480114FF0000E6F
:1008B800013C90E645EA060E8DE60CEA135594EAEB
:1008C8000C0F08BF95EA0C0F3FF43BAF94EA0C0FEE
:1008D8000AD150EA01347FF434AF95EA0C0F7FF463
:1008E80025AF104619462CE795EA0C0F06D152EAB7
:1008F80003353FF4FDAE1046194622E750EA41069B
:1009080018BF52EA43067FF4C5AE50EA41047FF4AB
:100918000DAF52EA43057FF4EBAE12E74FF0FF3C10
:1009280006E000BF4FF0010C02E000BF4FF0010CE1
:100938004DF804CD4FEA410C7FEA6C5C4FEA430C5A
:1009480018BF7FEA6C5C1BD001B050EA410C0CBFA9
:1009580052EA430C91EA030F02BF90EA020F00200B
:10096800704710F1000F91EA030F58BF994208BF72
:1009780090422CBFD8176FEAE37040F0010070472F
:100988004FEA410C7FEA6C5C02D150EA013C07D186
:100998004FEA430C7FEA6C5CD6D152EA033CD3D0D1
:1009A8005DF8040B704700BF8446104662468C46CB
:1009B8001946634600E000BF01B5FFF7B7FF0028FE
:1009C80048BF10F1000F01BD4DF808EDFFF7F4FF27
:1009D8000CBF012000205DF808FB00BF4DF808EDB2
:1009E800FFF7EAFF34BF012000205DF808FB00BFD5
:1009F8004DF808EDFFF7E0FF94BF012000205DF8F7
:100A080008FB00BF4DF808EDFFF7CEFF94BF0120AB
:100A180000205DF808FB00BF4DF808EDFFF7C4FFA4
:100A280034BF012000205DF808FB00BF4FEA4102F7
:100A380012F5001215D211D56FF47873B3EB625228
:100A480012D94FEAC12343F0004343EA505311F04F
:100A5800004F23FA02F018BF404270474FF00000E1
:100A6800704750EA013005D111F0004008BF6FF01F
:100A7800004070474FF00000704700BF4FEA410246
:100A8800B2F1E04324BFB3F5001CDCF1FE5C0DD9E4
:100A980001F0004C4FEAC0024CEA5070B2F1004F2E
:100AA80040EB830008BF20F00100704711F0804F31
:100AB80021D113F13872BCBF01F00040704741F4F6
:100AC80080114FEA5252C2F11802C2F1200C10FAFA
:100AD8000CF320FA02F018BF40F001004FEAC123DE
:100AE8004FEAD32303FA0CFC40EA0C0023FA02F382
:100AF8004FEA4303CCE77FEA625307D150EA013358
:100B08001EBF4FF0FE4040F44000704701F0004027
:100B180040F0FE4040F40000704700BF80F0004005
:100B280002E000BF81F0004142001FBF5FEA4103BD
:100B380092EA030F7FEA226C7FEA236C6AD04FEABD
:100B48001262D2EB1363C1BFD21841404840414002
:100B5800B8BF5B42192B88BF704710F0004F40F4B4
:100B6800000020F07F4018BF404211F0004F41F4D0
:100B7800000121F07F4118BF494292EA030F3FD09C
:100B8800A2F1010241FA03FC10EB0C00C3F12003AF
:100B980001FA03F100F0004302D5494260EB40003E
:100BA800B0F5000F13D3B0F1807F06D340084FEAA9
:100BB800310102F10102FE2A51D2B1F1004F40EB9E
:100BC800C25008BF20F0010040EA03007047490006
:100BD80040EB0000013A28BFB0F5000FEDD2B0FAA3
:100BE80080FCACF1080CB2EB0C0200FA0CF0AABFC6
:100BF80000EBC25052421843BCBFD0401843704764
:100C080092F0000F81F4000106BF80F40000013269
:100C1800013BB5E74FEA41037FEA226C18BF7FEA40
:100C2800236C21D092EA030F04D092F0000F08BF82
:100C38000846704790EA010F1CBF0020704712F069
:100C48007F4F04D1400028BF40F00040704712F1A8
:100C580000723CBF00F50000704700F0004343F00D
:100C6800FE4040F4000070477FEA226216BF084643
:100C78007FEA23630146420206BF5FEA412390EA06
:100C8800010F40F4800070474FF0000304E000BFFC
:100C980010F0004348BF40425FEA000C08BF7047AD
:100CA80043F0964301464FF000001CE050EA010271
:100CB80008BF70474FF000030AE000BF50EA010286
:100CC80008BF704711F0004302D5404261EB410173
:100CD8005FEA010C02BF84460146002043F0B64398
:100CE80008BFA3F18053A3F50003BCFA8CF2083ABD
:100CF800A3EBC25310DB01FA02FC634400FA02FCC6
:100D0800C2F12002BCF1004F20FA02F243EB0200CC
:100D180008BF20F00100704702F1200201FA02FC2E
:100D2800C2F1200250EA4C0021FA02F243EB020021
:100D380008BF20EADC7070474FEA4002B2F1FE4F6C
:100D48000FD34FF09E03B3EB12620DD94FEA002385
:100D580043F0004310F0004F23FA02F018BF40425E
:100D680070474FF00000704712F1610F01D1420245
:100D780005D110F0004008BF6FF0004070474FF0F9
:100D88000000704753B94AB9002908BF00281CBFA2
:100D98004FF0FF314FF0FF3000F070B9ADF1080CA3
:100DA8006DE904CE00F006F8DDF804E0DDE9022381
:100DB80004B070472DE9F047089E0D4604460F46DB
:100DC800002B4AD18A42944665D9B2FA82F343B1DC
:100DD80002FA03FCC3F120029F4020FA02F21743F3
:100DE8009C404FEA1C4E1FFA8CF5B7FBFEF1220C13
:100DF8000EFB117742EA074201FB05F090420AD93F
:100E08001CEB020201F1FF3780F01B81904240F297
:100E1800188102396244121AA4B2B2FBFEF00EFB2A
:100E2800102244EA024400FB05F5A5420AD91CEB4E
:100E3800040400F1FF3280F00681A54240F20381EC
:100E48006444023840EA0140641B00211EB1DC40C2
:100E58000023C6E90043BDE8F0878B4208D9002E7D
:100E680000F0EC800021C6E900050846BDE8F087DF
:100E7800B3FA83F1002949D1AB4202D3824200F28E
:100E8800F780841A65EB030201201746002EE2D092
:100E9800C6E90047DFE702B9FFDEB2FA82F3002BAA
:100EA80040F08F808A1A4FEA1C471FFA8CFE0121F6
:100EB800B2FBF7F507FB1520220C42EA00420EFBB5
:100EC80005F0904208D91CEB020205F1FF3802D266
:100ED800904200F2CA804546121AA4B2B2FBF7F05B
:100EE80007FB102244EA02440EFB00FEA64508D97F
:100EF8001CEB040400F1FF3202D2A64500F2BA80CE
:100F08001046A4EB0E0440EA05409FE7C1F1200714
:100F18008B4022FA07FC4CEA030C05FA01F420FA8C
:100F280007F3FD40234300FA01F94FEA1C401FFA7A
:100F38008CFEB5FBF0F81C0C00FB185544EA054480
:100F480008FB0EF5A54202FA01F20BD91CEB0404CA
:100F580008F1FF3A80F08780A54240F28480A8F12A
:100F680002086444641B9DB2B4FBF0F300FB134415
:100F780045EA044403FB0EFEA64508D91CEB04040D
:100F880003F1FF306BD2A64569D9023B644443EABA
:100F98000840A0FB0283A4EB0E049C42C6461D46F3
:100FA80055D352D056B1B9EB0E0364EB050404FADD
:100FB80007F7CB40CC401F43C6E900740021BDE8C9
:100FC800F087C3F1200102FA03FC20FA01F225FAA6
:100FD80001F19D402A434FEA1C471FFA8CFEB1FBE2
:100FE800F7F007FB1015110C41EA054100FB0EF55F
:100FF8008D4204FA03F408D91CEB010100F1FF3813
:101008002FD28D422DD902386144491B92B2B1FBCF
:10101800F7F507FB151142EA014205FB0EF1914273
:1010280008D91CEB020205F1FF3816D2914214D9F7
:10103800023D6244521A45EA004139E731463046DA
:1010480009E73946E7E61046FCE6C145AAD2B8EBFF
:10105800020E63EB0C050138A4E74546EAE70346B0
:1010680095E74046D1E7D0467CE7023D624433E746
:1010780008460BE76444023843E700BF704700BFE7
:1010880000B585B000230193029303931A481B4AC5
:1010980002604FF0004242608360C3600361042233
:1010A80042610376437601228276C26180F820305D
:1010B8004362836280F82C304FF480520263072227
:1010C8004263826380F83C30C36401F081FD60B9FB
:1010D8000B4B019300230293039301A9064801F0E7
:1010E800F1FE28B905B05DF804FB00F0A5FDEFE7B7
:1010F80000F0A2FDF6E700BF4001002000240140F7
:101108000800000C00B589B00023039304930593ED
:10111800069307930268114B9A4202D009B05DF812
:1011280004FB4FF0B0431A6E42F400721A661A6E4E
:1011380002F400720292029ADA6C42F00202DA6455
:10114800DB6C03F002030193019B10230393032339
:10115800049303A9024802F05FFEDFE70024014080
:101168000004004808B50268074B9A4200D008BD41
:101178004FF0B042136E23F4007313661021034836
:1011880002F012FFF3E700BF00240140000400480A
:1011980030B585B004460023019302930393FFF70B
:1011A8006FFF164802F05EF9F8B901940023029324
:1011B800039301A9114801F085FEC8B90F4802F050
:1011C8004FF8C0B90D4C4FF0FF31204601F018FE22
:1011D800204602F027F9204601F071FE0546204618
:1011E80002F0C0F8284605B030BD00F025FDDCE768
:1011F80000F022FDE2E700F01FFDE3E740010020D8
:10120800014B024A1A607047400100200024014047
:1012180008B50248FFF7BCFF80B208BD0800000C03
:1012280000B583B04FF0B0439A6C42F004029A6460
:101238009A6C02F004020192019A9A6C42F001023F
:101248009A649B6C03F001030093009B0022022127
:101258000B2002F0BBF90B2002F0EEF90022114638
:101268000C2002F0B3F90C2002F0E6F90022114636
:101278003D2002F0ABF93D2002F0DEF903B05DF845
:1012880004FB000008B502F0DBFC78B9094B9A6949
:1012980042F040429A614CF2FA321A6102F0E4FCE0
:1012A800002814BF6FF00400002008BD6FF0040090
:1012B800FBE700BF0040005870B584B000230393DB
:1012C800002838D00C460646FFF7DCFF054610B16B
:1012D800284604B070BD02F0B3FC78BB022300932B
:1012E80006F178431748D0F8E015174A02EA812139
:1012F800B3FBF1FC01FB1C33DB0A019304F17844D6
:10130800013C3444D0F8E01502EA8122B4FBF2F142
:1013180002FB1144C3EBD4230133029303A96846AB
:1013280002F028FD20B102280CBF01256FF001054D
:1013380002F09AFCCCE76FF00505C9E76FF00405E9
:10134800C6E700BF0070FF1F00FCFF032DE9F04F48
:1013580089B00492B0F1006F62D381460C46114601
:101368006E4BD3F8E0256E4B03EA822303F100634A
:10137800013B984258D800285AD0002C5CD040EA4B
:10138800010313F0070306935AD1FFF77BFF05907B
:1013980018B1059809B0BDE8F08F02F051FC00289B
:1013A80052D15E4BD3F8E0355D4901EA832109F15A
:1013B8007842B2FBF1F301FB1322D30A0393049B97
:1013C80003F17843013B4B44B3FBF1F001FB1033CD
:1013D800DB0A07930133A3EBD222012A86BFC9F3A4
:1013E8000A08C8F50068DDF81080039A9A420CD202
:1013F8000294CDF804904FF0010B77E06FF00103F1
:10140800059302E06FF00303059302F02DFCC0E79B
:101418006FF003030593F8E76FF005030593F4E70E
:101428004FF0FF330593B4E74FF0FF330593B0E770
:101438006FF005030593ACE76FF005030593A8E784
:101448006FF005030593A4E76FF004030593A0E785
:10145800344B18680028DFD0039BDC0204F10064D9
:10146800254624B14FF40062214610F0ABFE019BE3
:10147800C3F30A002B4E33681FFA88F20299184406
:1014880010F0A0FE4FF400612846FFF715FF002872
:10149800B4D137684FF4006A069D7E19D6E9002357
:1014A8002146584602F022FC0028ABD12068626829
:1014B800795973689A4208BF8842A9D10834083517
:1014C8005545EAD3019B43440193029B434402934D
:1014D800049BA3EB0808B8F5006F28BF4FF4006819
:1014E800039A531C079991428FD00393B8F1000FC8
:1014F800E8D0A9F10802134652F8080F5168B1F173
:10150800FF3F08BFB0F1FF3FA2D11033A3EB09039F
:101518004345F0D3C246029F019CBDE70070FF1F00
:1015280000FCFF03A4010020B1F1006F12D310B535
:101538000E4BD3F8E0450E4B03EA842303F1006316
:10154800013B994209D858B169B192B210F03AFEFC
:10155800002010BD4FF0FF3070474FF0FF30F8E724
:101568006FF00500F5E76FF00500F2E70070FF1F68
:1015780000FCFF03B0F1006F0ED308B5094BD3F898
:10158800E025094B03EA822303F10063013B9842FB
:1015980005D8FFF791FE08BD4FF0FF3070474FF0B8
:1015A800FF30F8E70070FF1F00FCFF03F0B589B0BB
:1015B8000024039404940594069407944FF0B043D0
:1015C800DA6C42F00102DA64DA6C02F0010202928B
:1015D800029ADA6C42F00202DA64DA6C02F0020271
:1015E8000192019ADA6C42F00402DA64DB6C03F0CF
:1015F80004030093009B1F4E22464FF4C1613046FE
:1016080002F050FD01222021304602F04BFD224617
:1016180040F231214FF0904002F044FD282303931B
:101628000125049505940327069703A9304602F07F
:10163800F3FB4FF4C063039304950594069403A940
:10164800304602F0E9FB312303930495059406978D
:1016580003A94FF0904002F0DFFB4FF400730393AF
:1016680004950594069403A94FF0904002F0D4FB2A
:1016780009B0F0BD0004004808B51248124B0360D9
:10168800124B4360002383600122C26003614361FF
:101698008361C361036202F0CFFE50B9002109489B
:1016A80003F0BEFC40B90021064803F0E7FC30B95E
:1016B80008BD00F0C1FAF1E700F0BEFAF3E700F068
:1016C800BBFAF5E7A801002000580040370F3000AA
:1016D8002DE9F04196B00446002111911291139121
:1016E80014911591382203A811F0FAFB22682D4BAA
:1016F8009A4202D016B0BDE8F081802303934FF4DC
:101708004023099303A804F0B5FD002847D14FF002
:10171800B044E36C43F00103E364E36C03F00103BA
:101728000293029BE36C43F00203E364E36C03F06F
:1017380002030193019B4FF40048CDF8448012271F
:1017480012970125139514950426159611A94FF0A3
:10175800904002F061FBCDF84480129713951495E0
:10176800159611A9104802F057FBA36D43F48003A6
:10177800A365A36D03F480030093009B0022114628
:10178800202001F023FF202001F056FF00221146FF
:10179800212001F01BFF212001F04EFFAAE700F0F5
:1017A8004BFAB4E7005800400004004808B50B485D
:1017B8000B4B0360002343604FF4606282604FF676
:1017C800FF724261036243628362C362036303F090
:1017D80079FE00B908BD00F02FFAFBE7FC010020F4
:1017E800007C004010B590B004463822002102A8C1
:1017F80011F076FB2268134B9A4201D010B010BD4D
:101808004FF4007302934FF00C130A9302A804F0EC
:1018180031FD98B94FF0B0439A6D42F000429A6595
:101828009B6D03F000430193019B00221146272082
:1018380001F0CCFE272001F0FFFEDFE700F0FCF905
:10184800E8E700BF007C004008B501224FF40071B2
:101858004FF0904002F026FC08BD08B500224FF476
:1018680000714FF0904002F01DFC08BD30B585B006
:10187800204D4FF47A7402940C2301931E4B00936D
:10188800012300226621284602F0BCFF02940123AE
:1018980001931A4C009426226621284602F0B2FFD2
:1018A800237823BB144B1A785C789878D97802EBA4
:1018B800042202EB004202EB016211490A601A7924
:1018C8005C799879D97902EB042202EB004202EBA9
:1018D80001620C490A601A7A5C7A987AD97A02EB22
:1018E800042303EB004303EB0163074A136005B0CD
:1018F80030BD00BFA8010020380200206802002087
:1019080048020020500200204C0200200000000085
:1019180070B582B02A4C2B4D6426009606232246C9
:101928008821284602F0A8FE2378607800EB03207F
:1019380080B2254B1880E378247904EB0324A4B201
:10194800224B1C80FFF7A0F9FEF77EFD18A3D3E910
:101958000023FEF7D1FD18A3D3E90023FEF7F6FE16
:1019680000221B4BFEF710FCFFF788F8194B186094
:101978002046FFF789F9FEF767FD0022164BFEF7B0
:10198800BBFD0DA3D3E90023FEF7E0FE0022134BB5
:10199800FEF7FAFBFFF772F8114B18600096012367
:1019A800104A8821284602F0A1FD02B070BD00BF90
:1019B8000000000000E0654000000000E0FFEF408C
:1019C80054020020A80100207002002072020020AA
:1019D800008046406C02002000405F400000184034
:1019E800640200207931010810B59AB0482200211C
:1019F80008A811F075FA002402940394049405943D
:101A08000694079403F036FE4FF0B042D2F89030B7
:101A180023F01803C2F8903002F58062136823F4AB
:101A2800C06343F400731360136803F4C063019345
:101A3800019B072308934FF40413099381230B9305
:101A48004FF480730C9340230D930A94139408A8C1
:101A580003F0B0FF78B94F230293022303930023C6
:101A68000493059306930793012102A804F0CEFA84
:101A780018B91AB010BD72B6FEE772B6FEE70000DC
:101A880008B501F057F8FFF7AFFFFFF78FFD06F035
:101A98008FFD00F0B9FDFFF7EFFD00F0EFF9FFF75C
:101AA80085FE00F0CDF800F01BF900224FF400711C
:101AB8004FF0904002F0F6FA00224FF48071064889
:101AC80003F078FD06F07AFD00F0ECF8804700F0AE
:101AD80039F98047F6E700BFFC0100204B4B8342F1
:101AE80000D0704710B54A4B1B6840F25B329342F6
:101AF80070D0B3F5577F1CDA232B5FD0282B0FD17A
:101B0800444B1B7803B3444800F0F4F8434800F012
:101B1800A1F8434800F09EF83E4B00221A7013E0EB
:101B28000A2B11D13B4B1B7873B13E4800F092F859
:101B38000AE040F28132934254D040F28332934219
:101B480030D1374800F086F8314B1A6801321A60F4
:101B58001A68354981FB0231D317C3EBE10303EB64
:101B68008303A2EB8302082A44D0294B1A682E4922
:101B780081FB0231D317C3EBE10303EB8303A2EB31
:101B88008302092A3CD022480168284A82FB013294
:101B98000A44CB17C3EB62234FF4617202FB1313A1
:101BA800036010BD40F27F329342CDD1204B1B78A9
:101BB800572BC9D9184800F09DF8C5E7154B1B7875
:101BC800002BC1D0144C204600F044F8204600F009
:101BD80091F8B9E7164B1B78572BB5D9114800F087
:101BE80039F8B1E7124B1B78572BADD90B4800F0E9
:101BF80081F8A9E7002220210E4802F053FAB4E741
:101C0800012220210B4802F04DFABCE7FC0100201C
:101C18005C0200200000002019190008751800084F
:101C2800631800085118000867666666C5B3A29174
:101C3800600200200004004872B6FEE77047704753
:101C48000023024A1360024A13607047B80200205A
:101C5800B4020020104B1B6801335A4203F00F03F3
:101C680002F00F0258BF53420C4A1268934211D037
:101C7800094A1368591C1160094941F8230013687F
:101C8800594203F00F0301F00F0158BF4B42136094
:101C98000020704701207047B8020020B4020020DD
:101CA800740200200A4B1A680A4B1B689A420DD02E
:101CB800094A52F8230001335A4203F00F0302F095
:101CC8000F0258BF5342034A1360704703487047D6
:101CD800B8020020B402002074020020451C00084D
:101CE8000023024A1360024A136070470003002071
:101CF800FC020020104B1B6801335A4203F00F030B
:101D080002F00F0258BF53420C4A1268934211D096
:101D1800094A1368591C1160094941F823001368DE
:101D2800594203F00F0301F00F0158BF4B421360F3
:101D3800002070470120704700030020FC020020AB
:101D4800BC0200200A4B1A680A4B1B689A420DD045
:101D5800094A52F8230001335A4203F00F0302F0F4
:101D68000F0258BF5342034A136070470348704735
:101D780000030020FC020020BC020020471C0008D1
:101D880000B58DB02C22002101A811F0A9F819483E
:101D9800194B03601F238360002303614361836140
:101DA8004FF08042C26103624FF48073436204F0D3
:101DB80069FCA8B90F4804F0B9FDA0B9002208923F
:101DC800029206924FF0005307934FF480730B93DF
:101DD80001A9084804F0BEFC40B90DB05DF804FB49
:101DE800FFF72AFFE6E7FFF727FFE7E7FFF724FFFC
:101DF800F3E700BF040300200028004010B590B0AE
:101E080004463822002102A811F06AF822681A4B09
:101E18009A4201D010B010BD4FF4803302934FF4B2
:101E280080730F9302A804F025FA08BB4FF0B04363
:101E3800D3F8902042F40042C3F890209A6D42F4FF
:101E480080629A659B6D03F480630193019B002275
:101E58001146022001F0BAFB022001F0EDFB00223E
:101E680011462A2001F0B2FB2A2001F0E5FBD1E758
:101E7800FFF7E2FEDAE700BF0028004008B5104887
:101E8800104B03604FF482734360002383604FF468
:101E9800E062C260036143614FF4007282611822FC
:101EA800C2610362436283620722C262036308233A
:101EB800436304F08AFD00B908BDFFF7BDFEFBE7E8
:101EC8003C0300200038004070B596B0044600215D
:101ED80011911291139114911591382203A810F0C1
:101EE800FFFF2268244B9A4201D016B070BD102320
:101EF80003934FF40073069303A804F0BBF900287A
:101F080037D14FF0B0439A6D42F480429A659A6D8A
:101F180002F480420292029ADA6C42F00202DA6417
:101F2800DA6C02F002020192019ADA6C42F00102C4
:101F3800DA64DB6C03F001030093009B4FF4C043A9
:101F480011930226129600241394149405251595CE
:101F580011A90A4801F060FF4FF4806311931296AB
:101F680013941494159511A94FF0904001F054FF63
:101F7800BBE7FFF761FEC4E70038004000040048F3
:101F88007047704708B500F0EBFD0120024BC3F81D
:101F9800880003F0DBFB08BD0004005808B500F01A
:101FA800E6FD08BD08B500F0E2FD00F0E1FC08BD63
:101FB80008B500F0D5FD0121002003F063FB08BD42
:101FC8007047FEE7FEE7FEE7FEE7FEE7704770476B
:101FD8007047704708B5024804F0D4FC08BD00BF3C
:101FE8000403002008B5024801F040FD08BD00BF09
:101FF8003804002008B5024801F038FD08BD00BFCC
:10200800D803002008B5024802F0FEFC08BD00BF56
:10201800A801002008B5024802F0B2FF08BD00BFC1
:10202800A801002008B5024805F0C6F908BD00BFA0
:102038009804002008B5024805F0BEF908BD00BFA5
:102048002C05002008B5024803F068F808BD00BF59
:10205800FC01002008B5024804F088FA08BD00BF5A
:102068000403002008B5024804F0C0FF08BD00BF03
:10207800A003002008B5024801F099FD08BD00BF83
:10208800D803002008B505480823036004F040FD84
:1020980000B908BDFFF7D0FDFBE700BFA003002093
:1020A80000B583B04FF0B0435A6E42F001025A6651
:1020B8005B6E03F001030193019B0022114632205D
:1020C80001F084FA322001F0B7FA03B05DF804FB9E
:1020D8000CB400B583B004AB53F8042B019310F093
:1020E80071F903B05DF804EB02B0704730B585B004
:1020F80004460D4602A810F0DBF8BDF90C30009339
:10210800029B054A10212046FFF7E2FF2046FEF712
:102118002FF8288005B030BD9431010810B54FF074
:10212800B042936823F40043936010F0DDFB012470
:102138000D4B1C7000F0C2F810F0AAFD0B4810F00F
:10214800C1FD0B4B4FF400421A61022010F0C0FD94
:10215800FFF756F800F0DAF80FF0DAFF21462046CC
:102168000FF0F6FF10BD00BFAC030020F5200008FB
:102178000040005808B510F001F808BD38B5FFF761
:1021880047F80C4C25886B1C2380FFF741F80A4957
:1021980021F81500238803F00F0323808B1E1E31BE
:1021A800002033F8022F104480B28B42F9D1000A84
:1021B80038BD00BFD0030020B003002000B587B0B1
:1021C800684600F08DF80198FEF7B6FD00B207B03A
:1021D8005DF804FB38B50446194BD3F88035B3F1E4
:1021E800FF3F15D0C3711A0A82711A0C42711B0E77
:1021F8000371134BD3F88425C270D3F88405C0F358
:102208000722C0F30743000EA2706370207038BD28
:1022180000F0B4FC054600F0BDFC054400F0B4FC39
:102228002B0EE3712B0CA3712B0A63712571030E1E
:10223800E370C0F30742C0F30723C0B2E4E700BF6E
:102248000070FF1F38B50A4BD3F880350360B3F12F
:10225800FF3F00D038BD044600F090FC054600F072
:1022680093FC454000F096FC45402560F2E700BF2E
:102278000070FF1F08B5012102200FF053FF08BDB1
:1022880008B5002102200FF04DFF08BD002070475F
:1022980008B5044B1B780BB9002008BD00F064F8A2
:1022A800FBE700BFAC03002000B583B001900198A4
:1022B80000F036F903B05DF804FB000008B5074AE2
:1022C800D2F8903043F48043C2F8903000F068FCB4
:1022D80000F06EFC00F074FC08BD00BF0008005858
:1022E800054B8360054B4360054B0360054BC3609A
:1022F800054B0361002070470000484200009041F0
:1023080000007A440D093E00AB0305000020704729
:1023180070470000064B9A689868824203D09A6812
:1023280098688242FBD1C043024B1860704700BFD7
:1023380000280040D4030020014B1868704700BFF4
:10234800D4030020064B9A689868824203D09A68A2
:1023580098688242FBD1C043024B1B68C01A704781
:1023680000280040D4030020074B1B7853B1074BCB
:102378009A689868824203D09A6898688242FBD12A
:10238800C043704700207047D20300200028004057
:102398000320704708B501464FF47A720023800283
:1023A800890DFEF7EFFC08BDC20E43011B1A62F14E
:1023B8000002920042EA93729B001B1842F100004F
:1023C800C00040EA5370C3F3D51343EA8050704706
:1023D80010B5074B0122DA65064C4FF48071204690
:1023E80004F084F84FF0FF332363002010BD00BFD2
:1023F800002800400403002038B5104B1B780BB1AF
:10240800002038BD0E4C4FF0FF352563FFF7B8FCB0
:10241800FFF7DEFF4FF48071204604F067F825636C
:10242800204604F063FA00220221204604F0BFFA95
:10243800FFF770FF014B01221A70E1E7D203002079
:102448000403002008B502460021024804F0AFFA50
:1024580008BD00BF0403002008B502460121024858
:1024680004F0A5FA08BD00BF0403002010B58CB025
:1024780004462C22002101A810F032FDFFF7A8FF26
:102488000C4B1B681C4400230893E44302940693F6
:102498004FF0005307934FF480730B93012201A967
:1024A800054804F057F910B900200CB010BDFFF72B
:1024B800C3FBF9E7D40300200403002008B500217A
:1024C800014804F07BFA08BD0403002008B5012187
:1024D800014804F073FA08BD0403002038B5054626
:1024E8000D4B9A689C68A24203D09A689C68A242E5
:1024F800FBD10221094804F061FAE443C4F309025C
:1025080053019B1A9B009B18C3F3D5132B80A40A75
:1025180044EA805038BD00BF002800400403002072
:1025280008B501464FF47A7200238002890DFEF740
:1025380029FC0E4B9A689B689A4204D00B4A916812
:1025480093689942FBD16FEA030C084A00E000BF88
:1025580093689168994203D0916893689942FBD136
:10256800DB43A3EB0C038342F1D308BD00280040F2
:1025780008B510F0E7FA08BD10B5054C0221204651
:1025880004F01CFA421C0221204604F010FA10BD87
:102598000403002008B51A481A4B03604FF4E133CE
:1025A800436000238360C36003610C22426183613E
:1025B800C36103624362402282624FF48012426424
:1025C800836405F0ECFD70B900210D4805F0A6FF05
:1025D80060B900210A4805F0C6FF50B9084805F05F
:1025E8005AFF48B908BDFFF727FBEDE7FFF724FBC3
:1025F800EFE7FFF721FBF1E7FFF71EFBF2E700BF6C
:10260800980400200038014008B51848184B0360AA
:102618004FF41653436000238360C36003610C22A8
:10262800426183614FF40042C26103624362836284
:1026380005F0B5FD70B900210C4805F06FFF60B9D1
:1026480000210A4805F08FFF50B9084805F047FFF8
:1026580048B908BDFFF7F0FAEDE7FFF7EDFAEFE745
:10266800FFF7EAFAF1E7FFF7E7FAF2E72C050020AF
:102678000044004010B59CB0044600211791189101
:1026880019911A911B911391149115911691382251
:1026980005A810F025FC2368634A934205D0634AD5
:1026A800934200F089801CB010BD012305934FF4BC
:1026B8004033069305A803F0DDFD002870D14FF0E4
:1026C800B0431A6E42F480421A661A6E02F48042CF
:1026D8000292029ADA6C42F00202DA64DB6C03F0CE
:1026E80002030193019BC02317930223189301232C
:1026F80019931A9307231B9317A94D4801F08CFBD4
:102708004C4B5A6842F400325A605A6842F480329C
:102718005A60494803F58033083303601223436045
:10272800102383600023C3608022026143618361B8
:10273800C361036200F0F8FF002834D13E4BE36721
:102748009C623E483E4B0360112343600023836034
:10275800C3608022026143618361C361036200F048
:10276800E3FF18BB0023139314938DF8543001230F
:102778008DF85530169313A9304801F0EAF9C0B91D
:102788002E4BC4F880309C6200220221242000F0E5
:102798001DFF242000F050FF0C2000F04DFF82E7C1
:1027A800FFF74AFA8BE7FFF747FAC7E7FFF744FA5C
:1027B800D8E7FFF741FAE3E7022305934FF44023F4
:1027C800079305A803F056FD50BB4FF0B0439A6D30
:1027D80042F400329A659A6D02F400320492049A27
:1027E800DA6C42F00102DA64DB6C03F00103039354
:1027F800039B0C23179302231893012319931A930D
:1028080007231B9317A94FF0904001F005FB002206
:102818001146252000F0DAFE252000F00DFF42E7E2
:10282800FFF70AFAD1E700BF003801400044004032
:10283800000400480000014038040020D8030020AC
:102848001C00024010B50368154A934203D0154A8C
:10285800934216D010BD04464FF0B042136E23F4D5
:1028680080431366C021104801F09EFBE06F00F022
:10287800D7FFD4F8800000F0D3FF242000F0EAFE50
:10288800E8E74FF0B042936D23F4003393650C21D1
:102898004FF0904001F088FB252000F0DBFED9E7DF
:1028A80000380140004400400004004808B5074BC8
:1028B8001860FEF7B5FCFFF76DFE054AD2F88030C8
:1028C80043F08063C2F88030002008BDC4050020B2
:1028D8000008005808B54FF0B0431A6C42F4804223
:1028E8001A641A6C22F480421A640448FFF7AAFF9B
:1028F8000F2000F0AFFE002008BD00BF98040020A4
:1029080008B50A460146024804F0A4FC002008BDA8
:102918009804002010B582B0124B18604FF40013D1
:102928000093114C02AB13E90600204605F04FFD59
:102938002368DA6912F4803FFBD1DA6912F4800F58
:10294800FBD09A6842F480029A60074C204605F052
:102958008BFD01220549204605F0EAFC002002B063
:1029680010BD00BFC005002098040020C805002045
:1029780008B5074805F013FC20B9064800F0D4FE56
:1029880018B908BDFFF758F9F7E7FFF755F9F8E761
:10299800980400203804002008B50268044B9A42C5
:1029A80000D008BD034B1B6800209847F9E700BF1B
:1029B80000380140C405002010B5044602680D4BDC
:1029C8009A4204D022680C4B9A420FD010BD0B4B90
:1029D8001B682BB1D0F8902012B9012108489847FC
:1029E80001220749204605F0A3FCEBE7054B01222D
:1029F8001A70EBE70038014000440040C005002091
:102A0800C8050020080000200D488546FFF780FC17
:102A18000C480D490D4A002302E0D458C450043331
:102A2800C4188C42F9D30A4A0A4C002301E0136007
:102A38000432A242FBD310F05BFAFFF721F8FEE75D
:102A4800000001200000002024010020604001084F
:102A58002401002030200020FEE770B586B0002455
:102A680003940594102501950123029303230493ED
:102A780001A94FF0904001F0CFF92026019601A955
:102A88004FF0904001F0C8F9224631464FF090408F
:102A980001F008FB224629464FF0904001F002FB66
:102AA800204606B070BD08B503280FD8DFE800F04F
:102AB80002101D2A002210214FF0904001F0F2FA76
:102AC800002220214FF0904001F0ECFA002008BDD0
:102AD800012210214FF0904001F0E4FA0022202159
:102AE8004FF0904001F0DEFAF0E7012210214FF09C
:102AF800904001F0D7FA012220214FF0904001F0D8
:102B0800D1FAE3E7002210214FF0904001F0CAFA11
:102B1800012220214FF0904001F0C4FAD6E70220AC
:102B28007047012070470120704700280CBF0F2014
:102B38001620704710B5032000F036FD02F02AFF7A
:102B4800064B18600F20FFF7A1FB10B101242046A7
:102B580010BD0446FFF734FAF9E700BF040000206F
:102B68004FF0E022136923F00203136170474FF01E
:102B7800E022136943F0020313617047014BD3F855
:102B8800900570470070FF1F014BD3F894057047FC
:102B98000070FF1F014BD3F8980570470070FF1FA6
:102BA800024A536843F0010353607047002004E071
:102BB800024A536843F0020353607047002004E060
:102BC800024A536843F0040353607047002004E04E
:102BD80070B582B000230193002800F006810446F6
:102BE800836D002B00F0BF802268936813F0805F2C
:102BF80019D1936823F0104323F0170343F080534F
:102C080093607B4B1B689B097A4AA2FB03239B09B1
:102C180001335B000193019B2BB1019B013B0193A5
:102C2800019B002BF9D121688B6813F0805F40F07D
:102C3800A180A36D43F01003A365E36D43F0010386
:102C4800E36501208A68A36D03F0100302F0040213
:102C5800134340F0C380A36D23F4817343F0020350
:102C6800A3658B6813F0010F53D1A67E236B003B3D
:102C780018BF01234FEA033EA368E2681343227E8C
:102C880043EA8233627E43EAC23343EA4633226927
:102C9800002AB4BF22F000424FF4001294F82C50DE
:102CA80043EA450343EA0E03134394F82020012A1C
:102CB80062D0626A22B102F4E072A56A2A43134321
:102CC800CA6822F4FE3222F4FF721A43CA606368AB
:102CD80003F04043E26C1A4394F83C10012958D0A1
:102CE80021680D69444B2B4013430B61636823F043
:102CF8000042B2F1804F0CD0B3F1004F09D03F49E8
:102D0800D1F8082722F4701203F470131343C1F8A2
:102D180008372268536923F00703616B0B4353613B
:102D280022685369A16B23F0700343EA01135361CE
:102D38002369002B37D12268936A63F00F039362EB
:102D480023685B6903F00703626B9A423DD0A36D69
:102D580023F0120343F01003A365E36D43F001036E
:102D6800E36501203FE0FEF7CDF90023E36584F831
:102D7800543039E7002065E716B943F4803398E703
:102D8800A26D42F02002A265E26D42F00102E26506
:102D98008FE7216C656C29430A43A16C0A431343EE
:102DA80043F001029CE7B3F5001FC9D121688B6A83
:102DB800E369013B9B0003F01C036FF00F0202FA6A
:102DC80003F3226E13438B62BAE70023E365A36D16
:102DD80023F0030343F00103A36504E0A36D43F06C
:102DE8001003A365012002B070BD0120FBE700BFFE
:102DF80004000020632D3E0502FCFF1F0020014057
:102E0800F8B506460C464569082D05D00368DB6809
:102E180013F0010F1ED10425FFF73AFA074632686E
:102E280013682B421CD1B4F1FF3FF9D0FFF730FAF9
:102E3800C31BA34201D8002CF1D133681B682B4275
:102E4800EDD1B36D43F00403B365002386F8543025
:102E5800032028E0836D43F020038365012022E0EE
:102E6800B36D43F40073B365D36813F4406F15D1A1
:102E7800B37E9BB9136813F0080F0FD0936813F053
:102E8800040F11D1536823F00C035360B36D23F47E
:102E9800807323F0010343F00103B365307E60B90A
:102EA80033680C221A60F8BDB36D43F02003B36594
:102EB800F36D43F00103F365F0E70020F3E70368DF
:102EC800186C704770B483B0034600220192006901
:102ED80093F85420012A00F00381012283F854203A
:102EE8001A68946814F0040F0AD09A6D42F0200210
:102EF8009A650120002283F8542003B070BC704703
:102F08004C68022C00F09B8020F00400B0F1004FC8
:102F180025D004F01F040F25A540186E20EA0505EA
:102F28000868C0F31106002E32D1C0F38460A040B7
:102F3800284318664C68A0080130DD69A84214D8F7
:102F4800956A04F01F040868C0F38360A0400F2648
:102F580006FA04F425EA04042043906205E0946A22
:102F68000868C0F31100204390621C6860690D680E
:102F78008A6802EA052222F07C4222F0FF0220EA57
:102F88000520024362610A68002A06DB0020B1E7D7
:102F980090FAA0F0B0FA80F0C9E75249D1F80817C2
:102FA80001F0E0745048824216D05048824237D02F
:102FB8004F48824240F0908011F4800F40F08E809C
:102FC8004849D1F8082722F0E072224342F48002EF
:102FD800C1F8082700208DE711F4000F76D1414988
:102FE800D1F8082722F0E072224342F40002C1F827
:102FF8000827404A126892093F49A1FB0212920928
:10300800013202EB420292000192019A002A5FD03B
:10301800019A013A0192019A002AF9D1002069E740
:1030280011F0807F56D12F49D1F8082722F0E0729D
:10303800224342F08072C1F8082700205AE720F0A6
:103048000400B0F1004F04D00A68002A09DB002010
:1030580050E7906A0C68C4F3110420EA04009062F7
:10306800F2E72049D1F808171F48824207D01F48C5
:10307800824213D01E4882421CD000203AE700F159
:10308800104000F58830D0F8082701F0A07122F030
:10309800E0721143C0F8081700202BE7114CD4F850
:1030A800080701F4400220F0E0710A43C4F8082739
:1030B80000201FE70B4CD4F8080701F0C07220F07D
:1030C800E0710A43C4F80827002013E7002011E73D
:1030D80000200FE700200DE700200BE7002009E79C
:1030E80002200AE700200140001000B0004000B8AC
:1030F800002000B404000020632D3E0538B50368A5
:103108009A6812F0040F31D004469A6812F0020F40
:1031180007D19A6822F0004222F0170242F010020A
:103128009A60FFF7B5F8054623689B6813F0040F0B
:1031380006D100201BE023689B6813F0040F13D00E
:10314800FFF7A6F8431B022BF5D923689B6813F0F9
:10315800040FF0D0A36D43F01003A365E36D43F0B3
:103168000103E365012002E0002000E0002038BDF3
:1031780030B583B00023019303689A6812F0010FF9
:1031880063D104469968324A114223D19A6822F0E1
:10319800004222F0170242F001029A602D4BD3F848
:1031A800083713F4000F10D02B4B1B689B092B4AD0
:1031B800A2FB03239B0901330193019B2BB1019BC4
:1031C800013B0193019B002BF9D1637E012B0BD1AD
:1031D80000203BE0836D43F010038365C36D43F02B
:1031E8000103C365012031E0FFF752F80546236863
:1031F8001A6812F0010F06D0002027E023681A6829
:1032080012F0010F1FD19A6812F0010F07D19A68C6
:1032180022F0004222F0170242F001029A60FFF702
:1032280037F8401B0228E9D923681B6813F0010FFF
:10323800E4D1A36D43F01003A365E36D43F00103EC
:10324800E365012002E0002000E0002003B030BD6B
:10325800170000800020014004000020632D3E0577
:1032680003689B6813F0040F28D110B5044690F842
:103278005430012B24D0012380F85430FFF778FF15
:10328800C0B9A36D23F4706323F0010343F4807382
:10329800A3650023E36522681C21116084F854307B
:1032A8002268936823F0004323F0170343F00403D4
:1032B800936010BD002384F85430FAE70220704769
:1032C8000220F6E738B5036899689A6812F0010F8A
:1032D80043D0044611F0020F41D19A6802F005026A
:1032E800012A09D0836D43F010038365C36D43F051
:1032F8000103C365012031E09A6822F0004222F000
:10330800170242F002029A60036803221A60FEF76D
:10331800BFFF054623689B6813F0010F08BF002014
:1033280005D11BE023689B6813F0010F13D0FEF74B
:10333800AFFF401B0228F5D923689B6813F0010FE3
:10334800F0D0A36D43F01003A365E36D43F00103D0
:10335800E365012002E0002000E0002038BD0020E5
:10336800FCE7000070B5002856D00446836D43F092
:1033780002038365FFF7C2FE064600283DD0226897
:10338800536823F4677323F003035360236840F200
:103398009F321A602268D168204B0B40D3602268A4
:1033A800136923F0404313612268536923F007032C
:1033B80053612268136A03F0F02313622268536A88
:1033C80003F0F02353622268D36A03F0F023D36238
:1033D80023689A6A00259D62114AD2F8083723F0BB
:1033E800FE73C2F808372046FDF7BCFE2566E56582
:1033F800A56584F85450304670BD2046FFF762FF3B
:10340800064608B90123A3652268936823F0104390
:1034180023F017039360B2E70126ECE700023E832E
:103428000020014090F85430012B19D010B5044603
:10343800012380F85430FFF761FE18B1002384F8A7
:10344800543010BD2046FFF73DFF0028F6D1A36D8C
:1034580023F4807323F0010343F00103A365EDE730
:1034680002207047F0B583B00023019390F85430E0
:10347800012B00F097800446012380F85430FFF7B1
:1034880021FF054623689A6812F0010209D0A36D4E
:1034980043F01003A365002384F85430284603B092
:1034A800F0BDA16D21F4817141F00201A165DE68D2
:1034B800D96821F4004121F00301D9601046216840
:1034C8008B6823F0004323F0170343F000438B601D
:1034D80021688B68002B39DBD1F8B43003F07F0307
:1034E80018440132082AEAD18B6823F0004323F0FC
:1034F800170343F001038B602268D2F8B43023F03D
:103508007F0343EAD003C2F8B4302268936823F0FB
:10351800004323F0170343F002039360FEF7B8FE5D
:10352800074623689A6812F0010F30D1DA6826F44A
:10353800FF4626F07C063604360C1643DE60A36D83
:1035480023F0030343F00103A365A4E7019B0133C0
:103558000193019BB3F52E3FBBD3A36D23F0120358
:1035680043F01003A365002384F85430012595E740
:1035780023689B6813F0010F0ED0A36D43F010036E
:10358800A365E36D43F00103E365012586E7FEF7D4
:103598007FFEC31B022BEBD823689A6812F0010F39
:1035A800F5D1C3E7022579E70749CA68030203F49E
:1035B800E06322F4E0621204120C134343F0BF6389
:1035C80043F40033CB60704700ED00E000B5184BC2
:1035D800DB68C3F30223C3F1070CBCF1040F28BF57
:1035E8004FF0040C03F1040EBEF1060F8CBF033B31
:1035F80000234FF0FF3E0EFA0CFC21EA0C01994023
:103608000EFA03FE22EA0E021143002809DB090123
:10361800C9B200F1604000F5614080F800135DF820
:1036280004FB00F00F000901C9B2024B1954F6E778
:1036380000ED00E014ED00E0002807DB410900F090
:103648001F0001238340024A42F82130704700BF1F
:1036580000E100E000280CDB430900F01F00012214
:1036680082402033034941F82320BFF34F8FBFF333
:103678006F8F704700E100E010B4C46CD0F850C000
:10368800C4F804C0446D24B1846DD0F85CC0C4F89B
:1036980004C0446C04F01C0C012404FA0CF4D0F8A7
:1036A80040C0CCF80440046863608368102B05D0E0
:1036B800036899600368DA6010BC704703689A6011
:1036C8000368D960F8E700000368134A934216D8E4
:1036D800426C22F0030202F1804202F50232DBB2B0
:1036E800083B0E49A1FB03131B0982640C4AC26400
:1036F80003F01F03012202FA03F303657047426CCB
:1037080022F00301074A0A44DBB2083B0349A1FB44
:1037180003131B090733E8E707040240CDCCCCCCE0
:10372800800802401C080240002866D010B50446F4
:103738000268334B9A4244D8324B13443249A1FBB6
:1037480003131B099B00314963642164022384F835
:103758002530136823F4FF4323F0700313602268B5
:103768001168A368E0680343206903436069034361
:10377800A0690343E0690343206A03430B431360D2
:103788002046FFF7A1FFA368B3F5804F04BF0023CD
:103798006360A26C636803F07F031360E36C226DBF
:1037A8005A6063685A1E032A14D900236365A36507
:1037B800E3650020E063012384F8253084F82400C1
:1037C80010BD134B13441049A1FB03131B099B00A5
:1037D8001049B9E703F07F030F4A1A449200626563
:1037E8000E49A165013B012101FA03F3E3650023BA
:1037F8001360A36DE26D5A60DBE70120704700BFDC
:1038080007040240F8FFFDBFCDCCCCCC000002403D
:10381800F8FBFDBF000402403F820010400902404F
:10382800002851D038B504460268136823F0010314
:1038380013600268254B9A422CD8254B134425491E
:10384800A1FB03131B099B00234963642164002522
:103858001560216C636C03F01C02012393404B60DC
:103868002046FFF731FFA36C1D60E36C226D5A60A0
:1038780063685A1E032A16D900206065A065E065B2
:10388800E06220636063A063E06384F8250084F845
:10389800240038BD114B13440E49A1FB03131B0927
:1038A8009B000F49D1E703F07F030E4A1A449200A8
:1038B8000D49A165013B012101FA03F3E365156098
:1038C800A36DE26D5A60D7E70120704707040240F4
:1038D800F8FFFDBFCDCCCCCC00000240F8FBFDBF0B
:1038E800000402403F8200104009024038B50446F7
:1038F80090F82400012843D0012084F8240094F88B
:103908002500C0B2012806D08023E363002384F891
:103918002430012038BD022084F825000020E0630F
:103928002568286820F0010028602046FFF7A4FEDB
:10393800236BD3B12268136843F00E031360A36CA2
:103948001A6812F4803F03D01A6842F480721A6031
:10395800636D1BB11A6842F480721A60226813689A
:1039680043F0010313600020D4E72268136823F0B2
:10397800040313602268136843F00A031360DEE748
:103988000220C7E70346002834D090F82520D2B299
:10399800022A06D00422C263002280F824200120D3
:1039A800704701680A6822F00E020A60816C0A6892
:1039B80022F480720A6001680A6822F001020A6033
:1039C800006C5A6C02F01C0101228A404260DA6CD9
:1039D800196D51605A6D32B1116821F4807111600E
:1039E8009A6DD96D5160012283F82520002083F853
:1039F800240070470120704708B590F82530DBB2E5
:103A0800022B03D00423C363012008BD0268136896
:103A180023F00E0313600268136823F00103136098
:103A2800826C136823F480731360016C436C03F099
:103A38001C02012393404B60C36C026D5A60436DB6
:103A480033B11A6822F480721A60836DC26D5A60AD
:103A5800012380F82530002380F82430836B13B1CC
:103A680098470020D1E70020CFE7000038B5036C65
:103A7800196804682568436C03F01C0304229A4003
:103A88000A4215D015F0040F12D0236813F0200F46
:103A980003D1236823F004032360016C436C03F013
:103AA8001C02042393404B60036B03B1984738BD55
:103AB80002229A400A4223D015F0020F20D0236830
:103AC80013F0200F06D1236823F00A032360012393
:103AD80080F8253002681A4B9A42436C03F01C02A6
:103AE8004FF0020303FA02F38CBF164A164A5360DA
:103AF800002380F82430C36A002BD8D09847D6E733
:103B0800082202FA03F30B42D1D015F0080FCED0E9
:103B1800236823F00E032360016C436C03F01C033D
:103B2800012202FA03F34B60C26380F825200023C8
:103B380080F82430436B002BB9D09847B7E700BF13
:103B480080000240000402400000024090F8250076
:103B5800704790F82530DBB2012B22D190F8243041
:103B6800012B22D030B4012380F82430846C2268E1
:103B7800CB6803F1FF3C0B684D682B4343EACC4309
:103B880091F808C043EA0C43497A43EA412302F01A
:103B98007F0213432360002380F82430184630BC8A
:103BA80070478023C363012070470220704710B517
:103BB8000446C36C1A68036D1A420ED0826C1368EF
:103BC80023F480731360C36C026D5A60C36B43F4B3
:103BD8000073C363436B03B19847636D9BB1A26DD8
:103BE8001168E26D11420ED01A6822F480721A60D0
:103BF800A36DE26D5A60E36B43F48063E363636B28
:103C08000BB12046984710BD10B50B460B4C6269A6
:103C180042F480226261EFF3108E72B601F5807C67
:103C2800411A1A685A5004336345FAD1034A136992
:103C380013F4803FFBD18EF3108810BD004000586C
:103C4800074B5B69002B01DB00207047044B054ADA
:103C58009A6002F188329A605869C00F704700BFB5
:103C68000040005823016745044B5A6942F000425E
:103C78005A615869C043C00F704700BF00400058E0
:103C880070B50546FEF704FB0446164E336913F477
:103C9800803F06D0FEF7FCFA001BA842F6D30320AB
:103CA80070BD104B1B6913F0010F02D00D4A0121A2
:103CB80011614CF2FA3213400BD10A4E336913F4F6
:103CC800802F0CD0FEF7E4FA001BA842F6D303209D
:103CD800E6E7044A1361044A53600120E0E7002044
:103CE800DEE700BF00400058CC050020F8B51F46AD
:103CF800174B1B78012B29D004460D461646144B4A
:103D080001221A7000225A604FF47A70FFF7B8FF48
:103D180070B9012C10D031462846FFF775FF4FF4D3
:103D28007A70FFF7ADFF0B4A536923EA0403536126
:103D3800074B00221A70F8BD064A536943F0010385
:103D480053612E60BFF36F8F6F60E8E70220F2E7E0
:103D5800CC05002000400058054A536923F47E73BF
:103D680043EAC00040F4803040F0020050617047E0
:103D780000400058F8B5264B1B78012B46D0054665
:103D88000E46234B01221A7000225A604FF47A70B3
:103D9800FFF776FF0146002833D12B68042B18D093
:103DA8004FF0FF3333606C68AB6823449C421ED2EB
:103DB8004FF47A772046FFF7CFFF3846FFF760FFCA
:103DC800014698B901346B68AA681344A342F1D834
:103DD8000DE0104A536943F4803343F00403536100
:103DE8004FF47A70FFF74CFF014607E03460094A48
:103DF800536923F47E7323F002035361054B1A6859
:103E08001B68034B00221A700846F8BD0221FBE725
:103E1800CC050020004000580B68002B00F0BF8044
:103E28002DE9F04F4FF0000C624601254FF0030ECC
:103E380007265B4C4FF00F084FE083680EFA0CFA28
:103E480023EA0A0ACB6803FA0CF343EA0A038360FD
:103E5800436823EA07074B68C3F3001393403B43C7
:103E6800436045E0002707FA0BF747EA0A079F6017
:103E780023686FEA0907D1F804A01AF4801F0CBF61
:103E88003B4049EA030323606368D1F804A01AF4AD
:103E9800001F0CBF3B4049EA03036360D4F880303D
:103EA800D1F804A01AF4803F0CBF3B4049EA030351
:103EB800C4F88030D4F88430D1F804A01AF4003F54
:103EC8000CBF1F4049EA0307C4F8847001320B682D
:103ED8000CF1020C33FA02F75FD005FA02F717EA81
:103EE8000309F3D04B6803F00303013B012BA4D96A
:103EF8004B6803F00303032B20D0C7680EFA0CF3BA
:103F080027EA03078B6803FA0CF33B43C3604B684B
:103F180003F00303022B11D1D70800EB87073B6A94
:103F280002F0070B4FEA8B0B08FA0BFA23EA0A0A8E
:103F38000B6903FA0BF343EA0A033B6207680EFABC
:103F48000CF327EA03074B6803F0030303FA0CF3A7
:103F58003B4303604B6813F4403FB7D022F00303A0
:103F680003F1804303F580339F6802F0030B4FEAA7
:103F78008B0B06FA0BFA27EA0A0AB0F1904F3FF4C6
:103F880071AF084FB84206D007F58067B8420CBF3A
:103F98000227072767E72F4665E7BDE8F08F7047D8
:103FA8000008005800040048002975D02DE9F04F9A
:103FB8008C4600234FF001084FF0070B4FF0030A1F
:103FC800364F29E04FF0000909FA04F4AC4248D012
:103FD800046859000AFA01F10C430460DD0800EB9B
:103FE80085052E6A03F00704A4004FF00F0E0EFAA1
:103FF80004F426EA04042C62846824EA0104846038
:10400800446824EA02024260C26822EA0102C260ED
:1040180001333CFA03F23DD008FA03F212EA0C0627
:10402800F6D023F0030101F1804101F580318D685C
:1040380003F00304A4000BFA04FE0EEA0505B0F130
:10404800904FBFD0DFF85890484508D009F58069EF
:1040580048450CBF4FF002094FF00709B4E7C146C5
:10406800B2E7D7F8804024EA0604C7F88040D7F8BA
:10407800844024EA0604C7F884403C6824EA06041D
:104088003C607C6824EA06047C608C6824EA0E04A0
:104098008C609DE7BDE8F08F704700BF00080058AE
:1040A800000400480AB18161704781627047036863
:1040B8009A6912F0020F1CBF00229A6203689A697B
:1040C80012F0010F03D19A6942F001029A61704718
:1040D80030B4029C05686868234343EA0243C1F38D
:1040E80009010B4323F00043640D04F4806444F099
:1040F8007F7444F4583444F47F7444F0030420EA91
:10410800040003436B6030BC704711F0010F21D0ED
:1041180090F8413003F02803282B0CBF4223F223E8
:1041280011F0020F09D090F8412002F02802282A45
:104138000CBF43F0440343F0F40311F4004F0BD1D8
:10414800102910D143F0900301680A6822EA03039A
:104158000B6070470023E3E743F0B803402908BF2A
:1041680043F04003F0E72029F8D143F02003EBE7C0
:104178002DE9F047044603689E6916F010067DD0C5
:104188000D4690461022DA61002637464FF0200A85
:104198004FF001092268936913F0200F2FD18FBBCC
:1041A800B5F1FF3FF7D0FEF773F8A0EB0800A8427F
:1041B80001D8002DEED12268506894F84230DBB265
:1041C800916911F4004F04D010F4804F01D1202BD5
:1041D8000DD123689B6913F0200FDBD1FEF758F847
:1041E800A0EB08001928F4D956464F46D2E7536881
:1041F80043F480435360FEF74BF88046E9E70FB974
:104208002023D36146F0040601202268936913F441
:10421800807F05D046F001064FF48071D1610120FE
:1042280013F4806F2CD046F0080622684FF48061A2
:10423800D16113F4007F05D046F0020623684FF4DD
:104248000072DA612046FFF732FF2268536823F0D4
:10425800FF7323F48B3323F4FF7323F001035360BC
:10426800636C33436364202384F84130002384F86B
:10427800423084F840300120BDE8F0870020C4E7D0
:1042880013F4007FD8D10028F6D0DBE770B50446D8
:104298000D46164623689B6913F0020F1DD132465E
:1042A80029462046FFF764FFC8B9B5F1FF3FF1D0B2
:1042B800FDF7EEFF801BA84201D8002DEAD1636C00
:1042C80043F020036364202384F84130002384F8FA
:1042D800423084F84030012000E0002070BD012009
:1042E800FCE72DE9F04180460F4616461D46D8F8F2
:1042F80000309C6937EA04040CBF01240024B4424E
:104308001AD1B5F1FF3FF4D0FDF7C2FF069BC01AE2
:10431800A84201D8002DEAD1D8F8443043F0200350
:10432800C8F84430202388F84130002388F8423008
:1043380088F84030012000E00020BDE8F08170B529
:1043480005460C4616462B689B6913F0200F1AD1B8
:10435800324621462846FFF70BFFB0B9FDF798FF14
:10436800801BA04201D8002CEDD16B6C43F02003D8
:104378006B64202385F84130002385F8423085F8A6
:104388004030012070BD0020FCE70120FAE770B53D
:1043980004460D46164623689B6913F0040F47D15F
:1043A800324629462046FFF7E3FE0146002841D160
:1043B80023689A6912F0200F13D1FDF769FF801B5B
:1043C800A84201D8002DE6D1636C43F02003636452
:1043D800202384F84130002384F840300121084626
:1043E80070BD9A6912F0040F02D0228D002AF6D10E
:1043F8009A6912F0100F1DBF1022DA6104230023FE
:10440800636423682022DA6121684B6823F0FF7314
:1044180023F48B3323F4FF7323F001034B6084F8F8
:104428004120002384F8423084F840300121D6E747
:104438000021D4E70121D2E7002855D010B5044661
:1044480090F84130002B45D0242384F8413022686D
:10445800136823F0010313602268636823F0706314
:1044680013612268936823F400439360E368012B87
:104478002268A3680CBF43F4004343F404439360E9
:10448800E368022B2BD02268536843F0007343F48F
:10449800004353602268D36823F40043D360226842
:1044A800236961690B43A16943EA0123D360226848
:1044B800E369216A0B4313602268136843F0010320
:1044C800136000206064202384F84130206384F85E
:1044D800420010BD80F84030FDF7FAF8B4E72368D1
:1044E8004FF400625A60CEE7012070472DE9F0478B
:1044F80082B00F460A9E90F84110C9B2202940F0B8
:10450800AB8004469046994690F84030012B00F065
:10451800A7804FF0010A80F840A0FDF7B9FE0546D4
:104528000090192352464FF400412046FFF7D9FE68
:10453800002840F09780212384F84130102384F824
:10454800423000236364C4F82480A4F82A9063638B
:10455800638D9BB2FF2B14D9FF222285454B009314
:104568004FF0807339462046FFF7B2FD638D9BB24A
:10457800002B55D04FF000084FF080094FF0007A1B
:104588001BE0628D92B222853A4B00934FF0007384
:10459800D2B239462046FFF79BFDE7E7628D92B21B
:1045A8002285CDF800805346D2B239462046FFF71F
:1045B8008FFD638D9BB2002B32D02A4631462046B0
:1045C800FFF764FE00284FD12368626A12789A6266
:1045D800636A01336362638D013B9BB26385238DFC
:1045E800013B9BB22385628D92B2002AE1D0002B59
:1045F800DFD100953346424649462046FFF771FE13
:10460800A0BB638D9BB2FF2BC8D9FF222285CDF8B2
:1046180000804FF0807339462046FFF759FDC8E700
:104628002A4631462046FFF78AFE08BB2368202227
:10463800DA6121684B6823F0FF7323F48B3323F48A
:10464800FF7323F001034B6084F84120002384F8B2
:10465800423084F8403000E0022002B0BDE8F08724
:104668000220FAE70120F8E70120F6E70120F4E745
:104678000120F2E7002000802DE9F04782B00F46C4
:104688000A9E90F84110C9B2202940F0AB80044638
:104698009046994690F84030012B00F0A7804FF0E3
:1046A800010A80F840A0FDF7F3FD054600901923A4
:1046B80052464FF400412046FFF713FE002840F011
:1046C8009780222384F84130102384F84230002355
:1046D8006364C4F82480A4F82A906363638D9BB252
:1046E800FF2B14D9FF222285454B00934FF080738E
:1046F80039462046FFF7ECFC638D9BB2002B55D062
:104708004FF000084FF080094FF0007A1BE0628DEF
:1047180092B222853A4B00934FF00073D2B23946D9
:104728002046FFF7D5FCE7E7628D92B22285CDF8E7
:1047380000805346D2B239462046FFF7C9FC638D44
:104748009BB2002B32D02A4631462046FFF71FFE87
:1047580000284FD123685A6A636A1A70636A013362
:104768006362238D013B9BB22385628D013A92B22D
:104778006285628D92B2002AE1D0002BDFD10095CC
:104788003346424649462046FFF7ABFDA0BB638D42
:104798009BB2FF2BC8D9FF222285CDF800804FF0AD
:1047A800807339462046FFF793FCC8E72A4631460E
:1047B8002046FFF7C4FD08BB23682022DA61216880
:1047C8004B6823F0FF7323F48B3323F4FF7323F038
:1047D80001034B6084F84120002384F8423084F8B8
:1047E800403000E0022002B0BDE8F0870220FAE77E
:1047F8000120F8E70120F6E70120F4E70120F2E7BD
:10480800002400802DE9F04F83B00D46BDF834A098
:104818000E9F90F84110C9B2202940F0E480044668
:10482800904699460C9BCBB1BAF1000F16D090F880
:104838004030012B00F0DB804FF0010B80F840B0D6
:10484800FDF726FD0646009019235A464FF400410D
:104858002046FFF746FD30B10120C5E04FF4007354
:1048680063640120C0E0222384F84130402384F8A7
:104878004230002363640C9A6262A4F82AA063633E
:104888005F4A00925FFA89F229462046FFF720FC2A
:10489800324639462046FFF7F9FC88BBD94520D176
:1048A80023685FFA88F29A6200963B46002240210C
:1048B8002046FFF716FD18BB638D9BB2FF2B24D94A
:1048C800FF2222854F4B00934FF0807329462046E4
:1048D800FFF7FEFB4FF000084FF004094FF0800A85
:1048E80030E023684FEA18229A6232463946204659
:1048F800FFF7CCFC20B922685FFA88F39362D3E70C
:10490800002384F8403001206EE0628D92B2228547
:104918003C4B00934FF00073D2B229462046FFF774
:10492800D7FBD7E7628D92B22285CDF800804FF091
:104938000073D2B229462046FFF7CAFB638D9BB2AB
:10494800002B34D000963B46424649462046FFF7A6
:10495800C8FC00284DD123685A6A636A1A70636AD2
:1049680001336362238D013B9BB22385628D013A3B
:1049780092B26285628D92B2002ADFD0002BDDD11F
:1049880000963B46424651462046FFF7AAFC90BB9C
:10499800638D9BB2FF2BC5D9FF222285CDF80080FD
:1049A8004FF0807329462046FFF792FBC6E7324650
:1049B80039462046FFF7C3FCF8B923682022DA619C
:1049C80021684B6823F0FF7323F48B3323F4FF73C0
:1049D80023F001034B6084F84120002384F842301F
:1049E80084F8403000E0022003B0BDE8F08F0220D8
:1049F800FAE70120F8E70120F6E70120F4E700BF15
:104A0800002000800024008008B5036899691A68AE
:104A1800436B03B1984708BD7047704710B504460B
:104A280003681A68002180F8421012F4804F0ED0F3
:104A38001A6822F480421A6094F84130DBB2292BBC
:104A48000DD094F84130DBB22A2B18D010BD12F4E7
:104A5800004FF1D01A6822F400421A60ECE72823CC
:104A680084F841302123236301212046FFF74DFBC1
:104A7800002384F840302046FFF7CEFFE6E72823DE
:104A880084F841302223236302212046FFF73DFBAF
:104A9800002384F840302046FFF7BFFFD6E7704771
:104AA800F8B5044690F8413003F02803282B06D0C7
:104AB80003680822DA61002380F84030F8BD0368F3
:104AC8009E69C6F300469A69120C02F0FE059968C1
:104AD800DF68C268022A25D1C1F3090285EAD1112B
:104AE80011F0060F10D1816C01318164816C0229AB
:104AF800E4D1002181640820D86184F8401031464F
:104B08002046FFF7CCFFD9E74FF40041FFF7FDFA45
:104B1800002384F8403007F0FE0231462046FFF7B4
:104B2800BEFFCBE74FF40041FFF7EFFA002384F80C
:104B380040302A4631462046FFF7B1FFBEE77047AE
:104B480010B50446174BC36200230363202280F884
:104B5800412080F84230436311F0040F12D00368FB
:104B68005A6A436A1A70436A01334362038D4BB130
:104B7800013B0385438D013B9BB24385436C43F066
:104B88000403436448F203012046FFF7BEFA236892
:104B98001022DA61002384F840302046FFF7CFFF67
:104BA80010BD00BF0000FFFF7047704708B590F8C0
:104BB8004130DBB2602B06D00023036380F840301D
:104BC800FFF7F2FF08BD202380F84130002303637C
:104BD80080F84030FFF7E9FFF4E7000010B504461D
:104BE80090F84130002280F842203A48E06262851D
:104BF800626C0A436264283BDBB2022B19D803219A
:104C08002046FFF782FA282384F84130324B636349
:104C1800236BA26B1AB1112B1AD0212B18D0E26B7F
:104C28001AB1122B35D0222B33D02046FFF7BEFF06
:104C380010BD48F203012046FFF767FA94F84130A7
:104C4800DBB2602B1CBF202384F841300023DEE751
:104C580023681A6812F4804F03D01A6822F480423D
:104C68001A60A06BFEF772FF01280ED0A36B1B4AD7
:104C78009A63002384F84030A06BFEF7BDFE00283D
:104C8800D6D0A06B836B9847D2E72046FFF78EFFFC
:104C9800CEE723681A6812F4004F03D01A6822F48A
:104CA80000421A60E06BFEF751FF01280ED0E36B5B
:104CB8000A4A9A63002384F84030E06BFEF79CFEB2
:104CC8000028B5D0E06B836B9847B1E72046FFF723
:104CD8006DFFADE70000FFFF454E00080F500008CC
:104CE80070B504460D460268166890F841302021D8
:104CF800D16103F0F703212B08D0222B0CD148F205
:104D08000201FFF702FA2223236305E048F20101BA
:104D1800FFF7FBF9212323632268536843F4004318
:104D280053602268536823F0FF7323F48B3323F412
:104D3800FF7323F0010353602046FFF7B8F916F418
:104D4800804F3FD02268136823F480431360A36B1D
:104D58001BB11B685B689BB2638515F0040F10D00C
:104D680025F0040523685A6A636A1A70636A013376
:104D78006362238D2BB1013B2385638D013B9BB27D
:104D88006385638D9BB21BB1636C43F0040363645A
:104D9800002384F842306363636C1BBBE36A13F53A
:104DA800803F2DD194F84130DBB2222B38D020231C
:104DB80084F841300023236384F840302046FFF70D
:104DC8002BFE2CE016F4004FC7D02268136823F49A
:104DD80000431360E36B002BBFD01B685B689BB27A
:104DE8006385BAE7616C2046FFF7F8FE94F8413016
:104DF800DBB2282B13D129462046FFF7A1FE0EE08F
:104E08002046FFF70BFE0C4BE362202384F8413069
:104E18000023236384F840302046FFF790FE70BDDE
:104E2800202384F841300023236384F8403020464F
:104E3800FFF7F3FDF3E700BF0000FFFFF8B5C76A0F
:104E480090F84030012B00F0998004460D46164634
:104E5800012380F8403011F0200F02D012F0200F0B
:104E680019D115F0100F3DD016F0100F3AD0638D00
:104E78009BB243BB94F84130DBB2282B0ED094F898
:104E88004130DBB2292B11D023681022DA610020CF
:104E980084F84000F8BDFFF723FFE2E7B7F1007F91
:104EA800EDD129462046FFF74BFEF0E717F5803F86
:104EB800EAD023681022DA612046FFF7F8F8204686
:104EC800FFF7ACFDE3E723681022DA61636C43F077
:104ED8000403636437F08073D9D1616C2046FFF70F
:104EE8007DFED4E715F0040F1ED016F0040F1BD07A
:104EF800638D9BB26BB123685A6A636A1A70636ADE
:104F080001336362238D013B2385638D013B9BB293
:104F18006385638D9BB2002BB9D117F5803FB6D05E
:104F28002046FFF77BFDB2E715F0080F02D016F018
:104F3800080F17D115F0020FA9D016F0020FA6D04E
:104F4800638D9BB29BB12368626A12789A62636A26
:104F580001336362638D013B9BB26385238D013B03
:104F6800238594E729462046FFF79AFD8FE737F017
:104F780080738CD12046FFF751FD88E7022089E72E
:104F880008B502689369116813F4807F10D011F096
:104F9800800F2ED0416C41F0010141644FF48071C3
:104FA800D16113F4806F09D113F4007F11D118E097
:104FB80013F4806F20D011F0800F12D0426C42F0B1
:104FC8000802426402684FF48061D16113F4007FE3
:104FD80007D0436C43F00203436403684FF4007244
:104FE800DA61416C11F00B0F00D108BDFFF7F6FD37
:104FF800FBE713F4806FF4D113F4007FF1D011F0C4
:10500800800FEED0E5E708B5806A836B0BB100220C
:105018009A63C36B0BB100229A63FFF7C7FD08BD03
:10502800034690F84120D2B2202A23D190F840209C
:10503800012A21D0012280F84020242280F8412032
:105048000068026822F0010202601868026822F40F
:1050580080520260186802681143016019680A6882
:1050680042F001020A60202283F84120002083F8E0
:10507800400070470220704702207047034690F8AE
:105088004120D2B2202A21D190F84020012A1FD0F5
:10509800012280F84020242280F84120006802681C
:1050A80022F0010202601868026822F4706242EA83
:1050B8000122026019680A6842F001020A6020228F
:1050C80083F84120002083F8400070470220704791
:1050D800022070470B4B1B680B4AA2FB03239B0B58
:1050E8004FF47A7202FB03F3013B06D002681268A0
:1050F80031EA0202F8D10020704703681B680320D8
:10510800704700BF040000205917B7D17047704797
:1051180070477047704770477047704710B504462E
:1051280003681A6812F0010F03D09A6812F0010F91
:1051380048D123681A6812F0020F03D09A6812F057
:10514800020F44D123681A6812F0040F03D09A683A
:1051580012F0040F41D123681A6812F0080F03D027
:105168009A6812F0080F3ED123681A6812F0100FDF
:1051780003D09A6812F0100F3BD123681A6812F016
:10518800200F03D09A6812F0200F38D123681A68CC
:1051980012F0400F03D09A6812F0400F35D12368FF
:1051A8001A6812F0800F03D09A6812F0800F32D17B
:1051B80023681A6812F4807F03D09A6812F4807FFB
:1051C8002FD110BD01225A60FCF788FCB1E70222FA
:1051D8005A602046FFF79AFFB4E704225A60204637
:1051E800FFF795FFB7E708225A602046FFF790FFC0
:1051F800BAE710225A602046FFF78BFFBDE720224E
:105208005A602046FFF786FFC0E740225A602046D2
:10521800FFF781FFC3E780225A602046FFF77CFF33
:10522800C6E74FF480725A602046FFF776FFC8E75A
:105238002DE9F84F0446EFF31086012383F3108815
:1052480003689E4A934276D002F58062934200F04A
:105258008E80A2F5E05293420FD0D3F80890D3F88D
:105268000CA05A699F69D3F820B0D3F828809449D4
:105278008B4200F21D8100251AE04FF0B041D1F8B1
:1052880088502D0C05F00C0545F44025D3F80890FE
:10529800D3F80CA05A699F69D3F820B0D3F82880B6
:1052A8008B6B43F000438B638B6B23F000438B6362
:1052B800002A40F0DC8057EA08032AD023687F4997
:1052C8008B4270D001F580618B4275D0A1F5E05119
:1052D8008B420AD14FF0B041D1F8883023F44023F3
:1052E800C1F88830002A40F0CF80002F6DD1B8F186
:1052F800000F7ED12368714A934200F09E8002F528
:105308008062934200F0A680A2F5E052934200F03A
:1053180087802268136923F0010313612368C3F8A7
:1053280008902368C3F80CA02368C3F820B086F35C
:105338001088BDE8F88F4FF0B041D1F888502D0C97
:1053480005F0300545F44015D3F80890D3F80CA0C3
:105358005A699F69D3F820B0D3F82880CB6B43F003
:105368002003CB63CB6B23F02003CB63A0E74FF084
:10537800B041D1F888502D0C05F0C00545F4400522
:10538800D3F80890D3F80CA05A699F69D3F820B0D5
:10539800D3F82880CB6B43F04003CB63CB6B23F06F
:1053A8004003CB6384E74FF0B041D1F8883023F451
:1053B8004013C1F8883095E74FF0B041D1F88830F4
:1053C80023F44003C1F888308CE72268136943F05E
:1053D8000103136123689F6110212046FFF77AFEBD
:1053E800032804BF032384F83A30236810225A6044
:1053F8007DE72268136943F0010313612368C3F84A
:1054080028804FF480712046FFF764FE032804BF0C
:10541800032384F83A3023684FF480725A6069E7AE
:105428004FF0B041D1F888302A0C120423EA020365
:1054380043EA0543C1F888306BE74FF0B041D1F833
:1054480088302A0C120423EA020343EA0543C1F810
:1054580088305EE74FF0B041D1F888302A0C12044A
:1054680023EA020343EA0543C1F8883051E7236879
:1054780012498B4297D001F580618B429CD0A1F5EF
:10548800E0518B423FF426AF21680B6943F00103DA
:105498000B6123685A6108212046FFF71BFE032889
:1054A80004BF032384F83A30236808225A601CE7B3
:1054B8000AB10025E8E71546FDE600BF0094004064
:1054C8000098004000286FD0F8B5044690F83A30AC
:1054D800002B43D0022384F83A302268136943F042
:1054E8000103136123684FF4807159602368626B6C
:1054F8009A622046FFF7EEFD03284ED02046FFF7BC
:1055080097FE94F83A00C0B2032846D02568EB68A5
:105518006168012903D0A26AB2F5000F01D123F016
:105528001E0362694FF6FF7082421CBF23F460437A
:1055380023F0C0031D481840A66AA3680B43276AD6
:105548003B43676A3B433343034361B9E1692069DD
:1055580001430B43B6F5000F0BD106E080F8393054
:10556800FCF740F9B6E70129F4D1E1682069014365
:105578000B434FF6FF718A4204D0A1690A43E169DF
:105588000A431343EB602368094A934206D0E26A50
:105598001A62012384F83A300020F8BDE36A226BCE
:1055A8001343034A1362F4E701207047FEF119FF21
:1055B800007C004038B504460B461546022280F8A8
:1055C8003A20026828498A4245D028498A4228490F
:1055D800D1F880200CBF42F0804242F00042C1F86E
:1055E80080202268D16841F40021D16022681169C5
:1055F80041F0010111612268102151602268936114
:105608002046FFF767FD032824D023680821596046
:1056180023685D612046FFF75DFD03281AD0204608
:10562800FFF706FE94F83A00C0B2032812D02268A9
:10563800936843F0010393602268136943F0010300
:1056480013612268136943F004031361012384F88A
:105658003A30002038BD0649D1F8802042F0005287
:10566800C1F88020BDE700BF007C004000940040E6
:1056780000080058024A136843F4807313607047A7
:105688000004005810B50C46A0B90F4B5B6913F421
:10569800007F0AD10D4A136923F004031361012C1A
:1056A80010D040BF20BF20BF10BD00F021F8002857
:1056B800F0D0F9E7044B5B6913F4007FEAD100F0FE
:1056C8000FF8E7E730BFEFE70004005800ED00E00F
:1056D800024B186800F4C060704700BF000400580F
:1056E800024A136843F4804313607047000400586B
:1056F80012490B6823F480430B60114B1A6832235C
:1057080003FB02F20F4BA3FB02039B0C496911F444
:10571800007F0AD00C498A4207D90849013B4A69E7
:1057280012F4007F01D0002BF8D1044B5B6913F40D
:10573800007F0CBF00200320704700BF0004005802
:105748000400002083DE1B433F420F000C4A13680D
:1057580023F0070343F0020313600A4A136943F076
:1057680004031361012808D040BF20BF20BF054AA9
:10577800136923F004031361704730BFF7E700BFD4
:105788000004005800ED00E070B584B04FF0B0435D
:10579800D3F80831C0F3031003F00F03304A52F86E
:1057A8002040304A52F82330B4FBF3F4FFF790FF5F
:1057B80005462D4B93E8070004AB03E90700B5F550
:1057C800007F27D0294B9C423DD303F5B70303F64E
:1057D8007F539C423ED903F5741303F510639C4232
:1057E80098BF022330D90025214A136823F0070304
:1057F8002B431360FCF74CFD04461D4E336803F041
:1058080007039D4228D0FCF743FD001B0228F5D969
:10581800032022E0174B9C420CD9174B9C4210D90D
:1058280003F5370303F5D8539C4298BF022302D9E6
:105838000025D9E7002304AA02EB830353F80C5C84
:10584800D2E70123F7E7002304AA02EB830353F806
:105858000C5CC9E70123F7E7002004B070BD00BF66
:1058680000320108A031010828310108C0CF6A00C0
:1058780000400058BFEA21013F9334024FF0B04284
:105888009368D26813F00C0315D00C2B0CD0042BA2
:105898004AD0082B4BD14FF0B0431A6812F480124B
:1058A80048D0002238482DE002F00302012A02D035
:1058B8000022104626E04FF0B042126812F00802AB
:1058C8000DD04FF0B042126812F0080226D14FF006
:1058D800B041D1F894102D4951F822200EE04FF034
:1058E800B041096811F0080F14D14FF0B042D2F856
:1058F8009420C2F30322254951F82220002B0CBF23
:10590800104600204FF0B0439B6803F00C030C2BAB
:1059180012D070474FF0B0410968ECE74FF0B04241
:105928001268C2F30312D6E700221748EAE70022FA
:105938001046E7E71648E5E74FF0B043DB6803F0A9
:105948000303022B1DD0032B08D14FF0B0431B6873
:1059580013F4801F0E4A0C4B18BF1A464FF0B04381
:10596800D868D968DB68C0F3062002FB00F0C1F3F1
:1059780002120132B0FBF2F05B0F0133B0FBF3F01F
:10598800C7E7014AEAE700BF0024F4000032010833
:105998000048E80108B5FFF771FF4FF0B0439B6876
:1059A800C3F30313024A52F82330B0FBF3F008BDE7
:1059B800A0310108002800F00B832DE9F0410446CE
:1059C8004FF0B0439D6805F00C05DE6806F003064D
:1059D800036813F0200F2BD0002D67D00C2D63D057
:1059E800236A002B00F0BC804FF0B042136843F0EC
:1059F80001031360FCF74CFC07464FF0B048D8F899
:105A0800003013F0020F00F0A3804FF0B0431A6883
:105A180042F008021A601A6822F0F002A16A0A43EA
:105A28001A605A68616A22F47F4242EA01225A6087
:105A3800236813F0010F00F0B280082D00F0AB804E
:105A48000C2D00F0A5804FF0B042136823F48013AA
:105A5800A1680B4313606368B3F5803F00F0C18011
:105A6800B3F5041F00F0C2804FF0B0431A6822F467
:105A780080321A601A6822F400121A606368002BD8
:105A880000F0BF80FCF704FC07464FF0B048D8F898
:105A9800003013F4003F40F08280FCF7F9FBC01B94
:105AA8006428F4D90320A0E2012E99D1236A002B9F
:105AB80000F09082A06A4FF0B0431B6813F0080F03
:105AC8004FF0B04312BF1B68D3F894301B0903F0A2
