:020000040800F2
:1000000000000120DD2B0008631F0008651F0008A9
:10001000671F0008691F00086B1F00080000000030
:100020000000000000000000000000006D1F00083C
:100030006F1F000800000000711F0008731F0008F8
:100040002D2C00082D2C0008751F00082D2C0008F1
:100050002D2C00082D2C00082D2C00082D2C00081C
:100060002D2C00082D2C00082D2C0008851F0008C1
:10007000951F00082D2C00082D2C00082D2C0008A1
:100080002D2C00082D2C00082D2C00082D2C0008EC
:10009000000000002D2C00082D2C00082D2C00083D
:1000A0002D2C00082D2C00082D2C00082D2C0008CC
:1000B000A51F0008C31F00082D2C00082D2C0008C8
:1000C000E11F0008F11F00082D2C00082D2C00084E
:1000D00001200008112000082D2C00082D2C0008FC
:1000E0002D2C00082D2C0008212000082D2C0008A4
:1000F0002D2C000800000000000000002D2C00083E
:100100002D2C00082D2C0008312000082D2C000873
:100110002D2C00082D2C00082D2C00082D2C00085B
:100120002D2C00082D2C00082D2C00082D2C00084B
:080130002D2C000841200008FD
:1001380010B5054C237833B9044B13B10448AFF319
:1001480000800123237010BD200100200000000062
:100158001046010808B5034B1BB103490348AFF328
:10016800008008BD0000000024010020104601089E
:10017800034613F8012B002AFBD1181A01387047DF
:1001880081F0004102E000BF83F0004330B54FEA40
:1001980041044FEA430594EA050F08BF90EA020FAD
:1001A8001FBF54EA000C55EA020C7FEA645C7FEA40
:1001B800655C00F0E2804FEA5454D4EB5555B8BF63
:1001C8006D420CDD2C4480EA020281EA030382EAD4
:1001D800000083EA010180EA020281EA0303362D66
:1001E80088BF30BD11F0004F4FEA01314FF4801C39
:1001F8004CEA113102D0404261EB410113F0004F4B
:100208004FEA03334CEA133302D0524263EB430301
:1002180094EA050F00F0A780A4F10104D5F1200E9F
:100228000DDB02FA0EFC22FA05F2801841F10001FA
:1002380003FA0EF2801843FA05F359410EE0A5F1CE
:1002480020050EF1200E012A03FA0EFC28BF4CF0FF
:10025800020C43FA05F3C01851EBE37101F00045B5
:1002680007D54FF0000EDCF1000C7EEB00006EEBC2
:100278000101B1F5801F1BD3B1F5001F0CD349084C
:100288005FEA30004FEA3C0C04F101044FEA4452A3
:1002980012F5800F80F09A80BCF1004F08BF5FEA2A
:1002A800500C50F1000041EB045141EA050130BD0A
:1002B8005FEA4C0C404141EB0101013C28BFB1F51C
:1002C800801FE9D291F0000F04BF01460020B1FA67
:1002D80081F308BF2033A3F10B03B3F120020CDA3A
:1002E8000C3208DD02F1140CC2F10C0201FA0CF018
:1002F80021FA02F10CE002F11402D8BFC2F1200C7D
:1003080001FA02F120FA0CFCDCBF41EA0C01904032
:10031800E41AA2BF01EB0451294330BD6FEA04047B
:100328001F3C1CDA0C340EDC04F11404C4F1200266
:1003380020FA04F001FA02F340EA030021FA04F378
:1003480045EA030130BDC4F10C04C4F1200220FACF
:1003580002F001FA04F340EA0300294630BD21FA0D
:1003680004F0294630BD94F0000F83F4801306BFD3
:1003780081F480110134013D4EE77FEA645C18BFC7
:100388007FEA655C29D094EA050F08BF90EA020F5E
:1003980005D054EA000C04BF1946104630BD91EA56
:1003A800030F1EBF0021002030BD5FEA545C05D159
:1003B8004000494128BF41F0004130BD14F5800498
:1003C8003CBF01F5801130BD01F0004545F0FE410C
:1003D80041F470014FF0000030BD7FEA645C1ABF41
:1003E800194610467FEA655C1CBF0B46024650EA78
:1003F800013406BF52EA033591EA030F41F40021A4
:1004080030BD00BF90F0000F04BF0021704730B529
:100418004FF4806404F132044FF000054FF00001FE
:1004280050E700BF90F0000F04BF0021704730B5BF
:100438004FF4806404F1320410F0004548BF404294
:100448004FF000013EE700BF42004FEAE2014FEAE9
:1004580031014FEA02701FBF12F07F4393F07F4FC4
:1004680081F06051704732F07F4208BF704793F0C7
:100478007F4F04BF41F40021704730B54FF46074DA
:1004880001F0004521F000411CE700BF50EA0102DD
:1004980008BF704730B54FF000050AE050EA010286
:1004A80008BF704730B511F0004502D5404261EBF6
:1004B80041014FF4806404F132045FEA915C3FF437
:1004C800D8AE4FF003025FEADC0C18BF03325FEAD4
:1004D800DC0C18BF033202EBDC02C2F1200300FA85
:1004E80003FC20FA02F001FA03FE40EA0E0021FAAA
:1004F80002F11444BDE600BF70B54FF0FF0C4CF498
:10050800E06C1CEA11541DBF1CEA135594EA0C0F49
:1005180095EA0C0F00F0DEF82C4481EA030621EA84
:100528004C5123EA4C5350EA013518BF52EA0335BF
:1005380041F4801143F4801338D0A0FB02CE4FF071
:100548000005E1FB02E506F00042E0FB03E54FF0A1
:100558000006E1FB03569CF0000F18BF4EF0010E99
:10056800A4F1FF04B6F5007F64F5407404D25FEA95
:100578004E0E6D4146EB060642EAC62141EA555148
:100588004FEAC52040EA5E504FEACE2EB4F1FD0C8A
:1005980088BFBCF5E06F1ED8BEF1004F08BF5FEA08
:1005A800500E50F1000041EB045170BD06F00046BA
:1005B80046EA010140EA020081EA0301B4EB5C0467
:1005C800C2BFD4EB0C0541EA045170BD41F480115F
:1005D8004FF0000E013C00F3AB8014F1360FDEBF84
:1005E800002001F0004170BDC4F10004203C35DA60
:1005F8000C341BDC04F11404C4F1200500FA05F3E3
:1006080020FA04F001FA05F240EA020001F0004283
:1006180021F0004110EBD37021FA04F642EB0601F9
:100628005EEA430E08BF20EAD37070BDC4F10C0423
:10063800C4F1200500FA04F320FA05F001FA04F2E7
:1006480040EA020001F0004110EBD37041F10001D3
:100658005EEA430E08BF20EAD37070BDC4F12005DE
:1006680000FA05F24EEA020E20FA04F301FA05F246
:1006780043EA020321FA04F001F0004121FA04F2EE
:1006880020EA020000EBD3705EEA430E08BF20EABE
:10069800D37070BD94F0000F0FD101F000464000F8
:1006A80041EB010111F4801F08BF013CF7D041EA7A
:1006B800060195F0000F18BF704703F0004652007E
:1006C80043EB030313F4801F08BF013DF7D043EA4F
:1006D8000603704794EA0C0F0CEA135518BF95EA05
:1006E8000C0F0CD050EA410618BF52EA4306D1D18C
:1006F80081EA030101F000414FF0000070BD50EAAB
:10070800410606BF1046194652EA430619D094EA34
:100718000C0F02D150EA013613D195EA0C0F05D11E
:1007280052EA03361CBF104619460AD181EA030172
:1007380001F0004141F0FE4141F470014FF000002A
:1007480070BD41F0FE4141F4780170BD70B54FF0C5
:10075800FF0C4CF4E06C1CEA11541DBF1CEA135545
:1007680094EA0C0F95EA0C0F00F0A7F8A4EB050427
:1007780081EA030E52EA03354FEA013100F088801E
:100788004FEA03334FF0805545EA131343EA1263E7
:100798004FEA022245EA111545EA10654FEA00269C
:1007A8000EF000419D4208BF964244F1FD0404F555
:1007B800407402D25B084FEA3202B61A65EB0305B1
:1007C8005B084FEA32024FF480104FF4002CB6EB6E
:1007D800020E75EB030E22BFB61A754640EA0C00EE
:1007E8005B084FEA3202B6EB020E75EB030E22BF2E
:1007F800B61A754640EA5C005B084FEA3202B6EB6F
:10080800020E75EB030E22BFB61A754640EA9C002D
:100818005B084FEA3202B6EB020E75EB030E22BFFD
:10082800B61A754640EADC0055EA060E18D04FEABB
:10083800051545EA16754FEA06164FEAC30343EA5B
:1008480052734FEAC2025FEA1C1CC0D111F4801F28
:100858000BD141EA00014FF000004FF0004CB6E721
:1008680011F4801F04BF01430020B4F1FD0C88BFC0
:10087800BCF5E06F3FF6AFAEB5EB030C04BFB6EBCB
:10088800020C5FEA500C50F1000041EB045170BDBE
:100898000EF0004E4EEA113114EB5C04C2BFD4EBEB
:1008A8000C0541EA045170BD41F480114FF0000E6F
:1008B800013C90E645EA060E8DE60CEA135594EAEB
:1008C8000C0F08BF95EA0C0F3FF43BAF94EA0C0FEE
:1008D8000AD150EA01347FF434AF95EA0C0F7FF463
:1008E80025AF104619462CE795EA0C0F06D152EAB7
:1008F80003353FF4FDAE1046194622E750EA41069B
:1009080018BF52EA43067FF4C5AE50EA41047FF4AB
:100918000DAF52EA43057FF4EBAE12E74FF0FF3C10
:1009280006E000BF4FF0010C02E000BF4FF0010CE1
:100938004DF804CD4FEA410C7FEA6C5C4FEA430C5A
:1009480018BF7FEA6C5C1BD001B050EA410C0CBFA9
:1009580052EA430C91EA030F02BF90EA020F00200B
:10096800704710F1000F91EA030F58BF994208BF72
:1009780090422CBFD8176FEAE37040F0010070472F
:100988004FEA410C7FEA6C5C02D150EA013C07D186
:100998004FEA430C7FEA6C5CD6D152EA033CD3D0D1
:1009A8005DF8040B704700BF8446104662468C46CB
:1009B8001946634600E000BF01B5FFF7B7FF0028FE
:1009C80048BF10F1000F01BD4DF808EDFFF7F4FF27
:1009D8000CBF012000205DF808FB00BF4DF808EDB2
:1009E800FFF7EAFF34BF012000205DF808FB00BFD5
:1009F8004DF808EDFFF7E0FF94BF012000205DF8F7
:100A080008FB00BF4DF808EDFFF7CEFF94BF0120AB
:100A180000205DF808FB00BF4DF808EDFFF7C4FFA4
:100A280034BF012000205DF808FB00BF4FEA4102F7
:100A380012F5001215D211D56FF47873B3EB625228
:100A480012D94FEAC12343F0004343EA505311F04F
:100A5800004F23FA02F018BF404270474FF00000E1
:100A6800704750EA013005D111F0004008BF6FF01F
:100A7800004070474FF00000704700BF4FEA410246
:100A8800B2F1E04324BFB3F5001CDCF1FE5C0DD9E4
:100A980001F0004C4FEAC0024CEA5070B2F1004F2E
:100AA80040EB830008BF20F00100704711F0804F31
:100AB80021D113F13872BCBF01F00040704741F4F6
:100AC80080114FEA5252C2F11802C2F1200C10FAFA
:100AD8000CF320FA02F018BF40F001004FEAC123DE
:100AE8004FEAD32303FA0CFC40EA0C0023FA02F382
:100AF8004FEA4303CCE77FEA625307D150EA013358
:100B08001EBF4FF0FE4040F44000704701F0004027
:100B180040F0FE4040F40000704700BF80F0004005
:100B280002E000BF81F0004142001FBF5FEA4103BD
:100B380092EA030F7FEA226C7FEA236C6AD04FEABD
:100B48001262D2EB1363C1BFD21841404840414002
:100B5800B8BF5B42192B88BF704710F0004F40F4B4
:100B6800000020F07F4018BF404211F0004F41F4D0
:100B7800000121F07F4118BF494292EA030F3FD09C
:100B8800A2F1010241FA03FC10EB0C00C3F12003AF
:100B980001FA03F100F0004302D5494260EB40003E
:100BA800B0F5000F13D3B0F1807F06D340084FEAA9
:100BB800310102F10102FE2A51D2B1F1004F40EB9E
:100BC800C25008BF20F0010040EA03007047490006
:100BD80040EB0000013A28BFB0F5000FEDD2B0FAA3
:100BE80080FCACF1080CB2EB0C0200FA0CF0AABFC6
:100BF80000EBC25052421843BCBFD0401843704764
:100C080092F0000F81F4000106BF80F40000013269
:100C1800013BB5E74FEA41037FEA226C18BF7FEA40
:100C2800236C21D092EA030F04D092F0000F08BF82
:100C38000846704790EA010F1CBF0020704712F069
:100C48007F4F04D1400028BF40F00040704712F1A8
:100C580000723CBF00F50000704700F0004343F00D
:100C6800FE4040F4000070477FEA226216BF084643
:100C78007FEA23630146420206BF5FEA412390EA06
:100C8800010F40F4800070474FF0000304E000BFFC
:100C980010F0004348BF40425FEA000C08BF7047AD
:100CA80043F0964301464FF000001CE050EA010271
:100CB80008BF70474FF000030AE000BF50EA010286
:100CC80008BF704711F0004302D5404261EB410173
:100CD8005FEA010C02BF84460146002043F0B64398
:100CE80008BFA3F18053A3F50003BCFA8CF2083ABD
:100CF800A3EBC25310DB01FA02FC634400FA02FCC6
:100D0800C2F12002BCF1004F20FA02F243EB0200CC
:100D180008BF20F00100704702F1200201FA02FC2E
:100D2800C2F1200250EA4C0021FA02F243EB020021
:100D380008BF20EADC7070474FEA4002B2F1FE4F6C
:100D48000FD34FF09E03B3EB12620DD94FEA002385
:100D580043F0004310F0004F23FA02F018BF40425E
:100D680070474FF00000704712F1610F01D1420245
:100D780005D110F0004008BF6FF0004070474FF0F9
:100D88000000704753B94AB9002908BF00281CBFA2
:100D98004FF0FF314FF0FF3000F070B9ADF1080CA3
:100DA8006DE904CE00F006F8DDF804E0DDE9022381
:100DB80004B070472DE9F047089E0D4604460F46DB
:100DC800002B4AD18A42944665D9B2FA82F343B1DC
:100DD80002FA03FCC3F120029F4020FA02F21743F3
:100DE8009C404FEA1C4E1FFA8CF5B7FBFEF1220C13
:100DF8000EFB117742EA074201FB05F090420AD93F
:100E08001CEB020201F1FF3780F01B81904240F297
:100E1800188102396244121AA4B2B2FBFEF00EFB2A
:100E2800102244EA024400FB05F5A5420AD91CEB4E
:100E3800040400F1FF3280F00681A54240F20381EC
:100E48006444023840EA0140641B00211EB1DC40C2
:100E58000023C6E90043BDE8F0878B4208D9002E7D
:100E680000F0EC800021C6E900050846BDE8F087DF
:100E7800B3FA83F1002949D1AB4202D3824200F28E
:100E8800F780841A65EB030201201746002EE2D092
:100E9800C6E90047DFE702B9FFDEB2FA82F3002BAA
:100EA80040F08F808A1A4FEA1C471FFA8CFE0121F6
:100EB800B2FBF7F507FB1520220C42EA00420EFBB5
:100EC80005F0904208D91CEB020205F1FF3802D266
:100ED800904200F2CA804546121AA4B2B2FBF7F05B
:100EE80007FB102244EA02440EFB00FEA64508D97F
:100EF8001CEB040400F1FF3202D2A64500F2BA80CE
:100F08001046A4EB0E0440EA05409FE7C1F1200714
:100F18008B4022FA07FC4CEA030C05FA01F420FA8C
:100F280007F3FD40234300FA01F94FEA1C401FFA7A
:100F38008CFEB5FBF0F81C0C00FB185544EA054480
:100F480008FB0EF5A54202FA01F20BD91CEB0404CA
:100F580008F1FF3A80F08780A54240F28480A8F12A
:100F680002086444641B9DB2B4FBF0F300FB134415
:100F780045EA044403FB0EFEA64508D91CEB04040D
:100F880003F1FF306BD2A64569D9023B644443EABA
:100F98000840A0FB0283A4EB0E049C42C6461D46F3
:100FA80055D352D056B1B9EB0E0364EB050404FADD
:100FB80007F7CB40CC401F43C6E900740021BDE8C9
:100FC800F087C3F1200102FA03FC20FA01F225FAA6
:100FD80001F19D402A434FEA1C471FFA8CFEB1FBE2
:100FE800F7F007FB1015110C41EA054100FB0EF55F
:100FF8008D4204FA03F408D91CEB010100F1FF3813
:101008002FD28D422DD902386144491B92B2B1FBCF
:10101800F7F507FB151142EA014205FB0EF1914273
:1010280008D91CEB020205F1FF3816D2914214D9F7
:10103800023D6244521A45EA004139E731463046DA
:1010480009E73946E7E61046FCE6C145AAD2B8EBFF
:10105800020E63EB0C050138A4E74546EAE70346B0
:1010680095E74046D1E7D0467CE7023D624433E746
:1010780008460BE76444023843E700BF704700BFE7
:10108800013901290CDD0123002210F803C0624454
:10109800D2B20133DBB28B42F7DB5042C0B27047A9
:1010A8000022FAE710B504460921FFF7E9FF237A81
:1010B800834201D0002010BD2379607900EB032022
:1010C80080B2F8E708B540F23C10C2F200004FF4D5
:1010D8001053C4F2010303604FF000434360002340
:1010E8008360C3600361042242610376437683769A
:1010F8000122C26180F820304362836280F82C307C
:101108004FF48052026307224263826380F83C30C6
:10111800C36401F049FE00B908BD00F02FFDFBE7EC
:101128004FF41053C4F2010302689A4200D070478A
:1011380082B04FF0B0431A6E42F400721A661B6E0A
:1011480003F400730193019B02B070474FF41053EE
:10115800C4F2010302689A4200D070474FF0B042CF
:10116800136E23F400731366F7E730B585B00446B1
:101178000023019302930393FFF7A4FF40F23C106E
:10118800C2F2000002F083FA40BB019400230293EC
:10119800039301A940F23C10C2F2000001F081FF64
:1011A800F8B940F23C10C2F2000002F06DF9D8B96B
:1011B80040F23C14C2F200044FF0FF31204601F027
:1011C8000EFF204602F043FA204601F067FF05466D
:1011D800204602F0DAF9284605B030BD00F0CEFC12
:1011E800D3E700F0CBFCDCE700F0C8FCE0E740F216
:1011F8003C13C2F200034FF41052C4F201021A6009
:10120800704708B54FF40050CBF20040FFF7ADFF30
:10121800A8B103464FF4EA42C1F6FF72B2F8AA0039
:101228004FF6FF72904219BF40F6E442504340F631
:10123800D800C0F24C00B0FBF3F080B208BD00202B
:10124800FCE700B583B04FF0B0439A6C42F004025B
:101258009A649A6C02F004020192019A9A6C42F024
:1012680001029A649B6C03F001030093009B002227
:1012780002210B2002F0C3FA0B2002F0F9FA002237
:1012880011460C2002F0BBFA0C2002F0F1FA002201
:1012980011463D2002F0B3FA3D2002F0E9FA03B00E
:1012A8005DF804FB08B502F003FE90B94FF48043E3
:1012B800C5F600039A6942F040429A614CF2FA324C
:1012C8001A6102F00FFE002814BF6FF0040000201E
:1012D80008BD6FF00400FBE770B584B000230393EA
:1012E80000283ED00C460646FFF7DCFF054610B145
:1012F800284604B070BD02F0DBFDA8BB02230093B2
:1013080006F178434FF4E040C1F6FF70D0F8E015DD
:101318004FF47C42C0F2FF3202EA8121B3FBF1FCB8
:1013280001FB1C33DB0A019304F17844013C34448B
:10133800D0F8E01502EA8122B4FBF2F102FB114475
:10134800C3EBD4230133029303A9684602F06CFE71
:1013580020B102280CBF01256FF0010502F0C2FD83
:10136800C6E76FF00505C3E76FF00405C0E72DE990
:10137800F04F89B00392B0F1006F73D381460C46E9
:1013880011464FF4E043C1F6FF73D3F8E0254FF45C
:101398007C43C0F2FF3303EA822303F10063013B7D
:1013A800984263D8002865D0002C67D040EA010332
:1013B80013F00703059365D1FFF774FF049018B184
:1013C800049809B0BDE8F08F02F072FD00285DD1E5
:1013D8004FF4E043C1F6FF73D3F8E0354FF47C4196
:1013E800C0F2FF3101EA832109F17842B2FBF1F33F
:1013F80001FB1322D30A0293039B03F17843013BB9
:101408004B44B3FBF1F001FB1033DB0A07930133C4
:10141800A3EBD222012A86BFC9F30A08C8F50068DF
:10142800DDF80C80029A9A4211D20194CDF800900E
:1014380040F2A013C2F2000306934FF0010B77E0CD
:101448006FF00103049302E06FF00303049302F0CA
:1014580049FDB5E76FF003030493F8E76FF0050360
:101468000493F4E74FF0FF330493A9E74FF0FF33F9
:101478000493A5E76FF005030493A1E76FF0050354
:1014880004939DE76FF00503049399E76FF0040355
:10149800049395E7069B18680028DFD0029BDC02BE
:1014A80004F10064254624B14FF40062214612F08D
:1014B80058F8009BC3F30A00069E33681FFA88F2A7
:1014C8000199184412F04DF84FF400612846FFF7CF
:1014D80003FF0028B4D137684FF4006A059D7E19D0
:1014E800D6E900232146584602F04BFD0028ABD12F
:1014F80020686268795973689A4208BF8842A9D1FE
:10150800083408355545EAD3009B43440093019BB2
:1015180043440193039BA3EB0808B8F5006F28BF69
:101528004FF40068029A531C079991428FD0029396
:10153800B8F1000FE8D0A9F10802134652F8080FD5
:101548005168B1F1FF3F08BFB0F1FF3FA2D110339E
:10155800A3EB09034345F0D3C246019F009CBDE7B6
:10156800B1F1006F18D310B54FF4E043C1F6FF7323
:10157800D3F8E0454FF47C43C0F2FF3303EA8423F9
:1015880003F10063013B994209D858B169B192B29D
:1015980011F0E7FF002010BD4FF0FF3070474FF00B
:1015A800FF30F8E76FF00500F5E76FF00500F2E7A8
:1015B800B0F1006F14D308B54FF4E043C1F6FF73E0
:1015C800D3F8E0254FF47C43C0F2FF3303EA8223CB
:1015D80003F10063013B984205D8FFF77DFE08BD83
:1015E8004FF0FF3070474FF0FF30F8E7F0B589B0A3
:1015F8000024039404940594069407944FF0B04390
:10160800DA6C42F00102DA64DA6C02F0010202924A
:10161800029ADA6C42F00202DA64DA6C02F0020230
:101628000192019ADA6C42F00402DA64DB6C03F08E
:1016380004030093009B4FF48065C4F6000522461E
:101648004FF4C361284602F0ACFE0122202128464F
:1016580002F0A7FE224640F231214FF0904002F0FE
:10166800A0FE3823039301260496059403270697C2
:1016780003A9284602F038FD4FF4C063039304968B
:101688000594069403A9284602F02EFD31230393FE
:1016980004960594069703A94FF0904002F024FDA4
:1016A8004FF40073039304960594069403A94FF02E
:1016B800904002F019FD09B0F0BD08B540F2A41041
:1016C800C2F200004FF4B043C4F20003036047F6CF
:1016D800BB43C0F270034360002383600122C260F1
:1016E800036143618361C361036203F024F880B935
:1016F800002140F2A410C2F2000003F012FE58B913
:10170800002140F2A410C2F2000003F038FE30B904
:1017180008BD00F033FAEBE700F030FAF0E700F02C
:101728002DFAF5E72DE9F04196B004460021119114
:101738001291139114911591382203A812F050FEBA
:101748004FF4B043C4F2000322689A4202D016B0A4
:10175800BDE8F081802303934FF44023099303A845
:1017680004F080FC00284AD14FF0B044E36C43F009
:101778000103E364E36C03F001030293029BE36C4F
:1017880043F00203E364E36C03F002030193019B5B
:101798004FF40048CDF8448012271297012513957D
:1017A80014950426159611A94FF0904002F09CFC60
:1017B800CDF84480129713951495159611A94FF4F6
:1017C8008060C4F6000002F08FFCA36D43F4800330
:1017D800A365A36D03F480030093009B00221146C8
:1017E800202002F00CF8202002F042F800221146D6
:1017F800212002F004F8212002F03AF8A7E700F0CF
:10180800BDF9B1E708B501224FF400714FF09040DF
:1018180002F0C7FD08BD08B500224FF400714FF073
:10182800904002F0BEFD08BD10B584B04FF47A7345
:1018380002930C23019340F2F814C2F200040094BE
:1018480001230022662140F2A410C2F2000003F036
:101858005AF9237894F801C0A078E17840F2082278
:10186800C2F2000203EB0C2303EB004303EB01631A
:101878001360237994F805C0A079E17940F2102229
:10188800C2F2000203EB0C2303EB004303EB0163FA
:101898001360237A94F809C0A07AE17A40F20C2206
:1018A800C2F2000203EB0C2303EB004303EB0163DA
:1018B800136004B010BD30B585B040F21C24C2F2EC
:1018C800000440F27055C2F200050922214628465C
:1018D80006F075FE4FF47A7300930DF10E0309229A
:1018E8002146284606F0B0FF2046FFF7DBFB40F212
:1018F8000423C2F20003188005B030BDF0B583B0F0
:1019080040F21424C2F2000440F2A415C2F2000509
:1019180064260096062322468821284603F02CF8E0
:101928002378607800EB032080B240F23423C2F2BF
:1019380000031880E378247904EB0324A4B240F26E
:101948003623C2F200031C8040F23027C2F200079F
:10195800FFF79AF9FEF778FD00224FF46043C4F2CE
:101968006503FEF7C9FD00224FF6E073C4F2EF03EA
:10197800FEF7ECFE00224FF40043C4F24603FEF7E4
:1019880003FCFFF77BF8386040F22C27C2F200070F
:101998002046FFF779F9FEF757FD00224FF4804300
:1019A800C4F25F03FEF7A8FD00224FF6E073C4F20D
:1019B800EF03FEF7CBFE00220023C4F21803FEF764
:1019C800E3FBFFF75BF838600096012344F2796285
:1019D800C0F601028821284602F007FF03B0F0BDD7
:1019E80010B59AB04822002108A812F0F9FC00248A
:1019F80002940394049405940694079403F0EBFC72
:101A08004FF0B042D2F8903023F01803C2F890306B
:101A18004FF48062C5F60002136823F4C06343F4F0
:101A280000731360136803F4C0630193019B0723D9
:101A380008934FF40413099381230B934FF4807395
:101A48000C9340230D930A94139408A803F092FE74
:101A580078B94F2302930223039300230493059339
:101A680006930793012102A804F0B7F918B91AB030
:101A780010BD72B6FEE772B6FEE708B501F040F990
:101A8800FFF7AEFFFFF7B2FD06F089FF00F073FE27
:101A9800FFF713FE00F026FC00F057FC00F0B5F944
:101AA80000F070F800F0CDF800224FF400714FF00C
:101AB800904002F076FC40F27C30C2F2000005F063
:101AC80004FB4FF48064C4F60004202506F06DFF83
:101AD80000F092F8804700F0EEF88047294620464B
:101AE80002F064FCF2E708B540F27C33C2F200036E
:101AF800834200D008BD40F22823C2F200031B68CD
:101B0800B3F5077F1AD040F24E2293421DD040F21F
:101B18002823C2F200031A6801321A60186848F2D2
:101B2800B512C1F64E3282FB0021C217C2EBA112D8
:101B38004FF4167101FB12021A60DBE741F60D0043
:101B4800C0F6000000F089F8E1E741F60510C0F69C
:101B5800000000F082F841F63100C0F6000000F005
:101B68001DF841F6BF00C0F6000000F017F841F676
:101B78001F00C0F6000000F070F8C8E772B6FEE774
:101B88007047704740F27C23C2F2000300221A60BB
:101B980040F27823C2F200031A60704740F27C23B7
:101BA800C2F200031B6801335A4203F00F0302F02C
:101BB8000F0258BF534240F27822C2F20002126864
:101BC800934217D040F27C22C2F2000211684B1CEB
:101BD800136040F23823C2F2000343F8210013686F
:101BE800594203F00F0301F00F0158BF4B42136035
:101BF800002070470120704740F27C23C2F20003A6
:101C08001A6840F27823C2F200031B689A4213D084
:101C180040F23822C2F2000252F8230040F2782241
:101C2800C2F200020133594203F00F0301F00F0121
:101C380058BF4B421360704741F68930C0F6000028
:101C4800704740F2C423C2F2000300221A6040F237
:101C5800C023C2F200031A60704740F2C423C2F2E4
:101C680000031B6801335A4203F00F0302F00F020E
:101C780058BF534240F2C022C2F200021268934297
:101C880017D040F2C422C2F2000211684B1C136044
:101C980040F28023C2F2000343F82100136859423E
:101CA80003F00F0301F00F0158BF4B4213600020EF
:101CB80070470120704740F2C423C2F200031A683B
:101CC80040F2C023C2F200031B689A4213D040F2CC
:101CD8008022C2F2000252F8230040F2C022C2F26F
:101CE80000020133594203F00F0301F00F0158BFFE
:101CF8004B421360704741F68B30C0F600007047C6
:101D080000B58DB02C22002101A812F069FB40F229
:101D1800C820C2F200004FF42053C4F2000303604D
:101D28001F23836000230361436183614FF0804276
:101D3800C26103624FF48073436204F0BBFBD8B9FD
:101D480040F2C820C2F2000004F037FDB8B9002202
:101D58000892029206924FF0005307934FF4807353
:101D68000B9301A940F2C820C2F2000004F016FC4F
:101D780040B90DB05DF804FBFFF700FFE0E7FFF79F
:101D8800FDFEE4E7FFF7FAFEF3E710B590B004466E
:101D98003822002102A812F023FB4FF42053C4F28A
:101DA800000322689A4201D010B010BD4FF480336E
:101DB80002934FF480730F9302A804F053F908BB01
:101DC8004FF0B043D3F8902042F40042C3F890207B
:101DD8009A6D42F480629A659B6D03F48063019367
:101DE800019B00221146022001F009FD022001F0AA
:101DF8003FFD002211462A2001F001FD2A2001F0B2
:101E080037FDD1E7FFF7BAFEDAE708B540F2003050
:101E1800C2F200004FF46053C4F2000303604FF4B1
:101E280082734360002383604FF4E062C260036101
:101E380043614FF4007282611822C26103624362F7
:101E480083620722C26203630823436304F007FD29
:101E580000B908BDFFF792FEFBE770B596B00446DF
:101E6800002111911291139114911591382203A810
:101E780012F0B6FA4FF46053C4F2000322689A4293
:101E880001D016B070BD102303934FF4007306936E
:101E980003A804F0E7F800283AD14FF0B0439A6D50
:101EA80042F480429A659A6D02F480420292029A44
:101EB800DA6C42F00202DA64DA6C02F00202019291
:101EC800019ADA6C42F00102DA64DB6C03F0010378
:101ED8000093009B4FF4C0431193022612960024EE
:101EE800139414940525159511A94FF48060C4F630
:101EF800000002F0F9F84FF48063119312961394DE
:101F08001494159511A94FF0904002F0EDF8B8E738
:101F1800FFF734FEC1E77047704708B500F006FFC9
:101F28004FF48063C5F600030120C3F8880003F06E
:101F3800CEFA08BD08B500F000FF08BD08B500F0EE
:101F4800FCFE00F0F0FD08BD08B500F0EFFE012131
:101F5800002003F049FA08BD7047FEE7FEE7FEE7F8
:101F6800FEE7FEE7704770477047704708B540F2D4
:101F7800C820C2F2000004F04CFC08BD08B540F2CD
:101F88007C40C2F2000001F0A7FE08BD08B540F28F
:101F98001C40C2F2000001F09FFE08BD08B540F2E7
:101FA8007C30C2F2000005F0C7F840F26833C2F294
:101FB80000031A6801321A6008BD08B540F2C8303B
:101FC800C2F2000005F0B8F840F26433C2F2000330
:101FD8001A6801321A6008BD08B540F2A410C2F2AE
:101FE800000002F093FE08BD08B540F2A410C2F24A
:101FF800000003F046F908BD08B540F2DC40C2F223
:10200800000005F0F5FA08BD08B540F27050C2F2BC
:10201800000005F0EDFA08BD08B540F2C820C2F28C
:10202800000004F0A5F908BD08B540F26C30C2F212
:10203800000004F055FF08BD08B540F21C40C2F28C
:10204800000001F0E8FE08BD08B540F26C30C2F2AD
:1020580000000823036004F0A5FC00B908BDFFF7E1
:102068008DFDFBE700B583B04FF0B0435A6E42F0E8
:1020780001025A665B6E03F001030193019B002283
:102088001146322001F0BBFB322001F0F1FB03B016
:102098005DF804FB0CB400B583B004AB53F8042B13
:1020A800019311F062FB03B05DF804EB02B07047D6
:1020B80030B585B004460D4602A811F0CBFABDF93B
:1020C8000C300093029B44F29462C0F60102102186
:1020D8002046FFF7DFFF2046FEF74AF8288005B0C4
:1020E80030BD10B54FF0B042936823F400439360BD
:1020F80011F002FE40F27833C2F2000301241C7092
:1021080000F0C3F812F001F842F2B900C0F600007E
:1021180012F018F84FF48043C5F600034FF400425C
:102128001A61022012F014F8FFF761F800F0D7F8EE
:1021380011F0ACF92146204611F0CDF92146204690
:1021480011F0B0F910BD08B511F0DEF908BD08B5F9
:10215800FFF757F840F6B833984210D8B0F5E16F5A
:102168000FD3A0F5E160C0EBC010400048F2B513F2
:10217800C1F64E33A3FB0030C0F3C71000E0FE20C9
:1021880008BD0020FCE700B587B0684600F08FF86E
:102198000198FEF7D1FD00B207B05DF804FB38B531
:1021A80004464FF4E043C1F6FF73D3F88035B3F12A
:1021B800FF3F18D0C3711A0A82711A0C42711B0EA4
:1021C80003714FF4E043C1F6FF73D3F88425C2705E
:1021D800D3F88405C0F30722C0F30743000EA270AA
:1021E8006370207038BD00F0AFFD054600F0BAFD01
:1021F800054400F0B0FD2B0EE3712B0CA3712B0AE4
:1022080063712571030EE370C0F30742C0F307231F
:10221800C0B2E4E738B54FF4E043C1F6FF73D3F832
:1022280080350360B3F1FF3F00D038BD044600F0AD
:102238008BFD054600F08FFD454000F093FD4540BD
:102248002560F2E708B50121022011F02BF908BD3D
:1022580008B50021022011F025F908BD00207047BB
:1022680008B540F27833C2F200031B780BB900209E
:1022780008BD00F009F9FBE700B583B001900198AB
:1022880000F0F3F903B05DF804FB08B54FF4006300
:10229800C5F60003D3F8902042F48042C3F890209A
:1022A80000F067FD00F06EFD00F075FD08BD00232D
:1022B800C4F2482383600023C4F2901343600023D0
:1022C800C4F27A43036040F60D13C0F23E03C360C4
:1022D80040F2AB33C0F205030361002070470020D1
:1022E8007047704700B583B040F27C30C2F20000FE
:1022F8004FF48843C4F20103036040F2E7334360BC
:10230800002383604FF4FA42C26003614361802373
:10231800836105F042F8A8B94FF0B0431A6E42F451
:1023280000321A661B6E03F400330193019B0022EE
:1023380011461C2001F063FA1C2001F099FA03B041
:102348005DF804FBFFF71AFCE6E700B583B040F23E
:10235800C830C2F200004FF49043C4F20103036096
:102368000023436083604FF6FF72C26003614361DC
:10237800836105F012F8A8B94FF0B0431A6E42F421
:1023880080221A661B6E03F480230193019B0022AE
:1023980011461D2001F033FA1D2001F069FA03B03F
:1023A8005DF804FBFFF7EAFBE6E700B583B00268D7
:1023B8004FF48843C4F201039A4208D04FF4904383
:1023C800C4F201039A4216D003B05DF804FB4FF043
:1023D800B0431A6E42F400321A661B6E03F40033DF
:1023E8000093009B002211461C2001F008FA1C20D3
:1023F80001F03EFAE8E74FF0B0431A6E42F480224B
:102408001A661B6E03F480230193019B0022114678
:102418001D2001F0F4F91D2001F02AFAD4E74FF449
:102428002053C4F200039A689868824207D04FF498
:102438002053C4F200039A6898688242FBD1C043D3
:1024480040F21843C2F200031860704740F2184384
:10245800C2F20003186870474FF42053C4F2000317
:102468009A689868824207D04FF42053C4F2000358
:102478009A6898688242FBD1C04340F21843C2F27E
:1024880000031B68C01A704740F21443C2F20003ED
:102498001B788BB14FF42053C4F200039A689868F4
:1024A800824207D04FF42053C4F200039A68986818
:1024B8008242FBD1C0437047002070470320704719
:1024C80008B501464FF47A7200238002890DFEF7A1
:1024D80059FC08BDC20E43011B1A62F100029200AA
:1024E80042EA93729B001B1842F10000C00040EAC8
:1024F8005370C3F3D51343EA8050704710B54FF4B7
:102508002053C4F200030122DA6540F2C824C2F263
:1025180000044FF48071204603F0E0FE4FF0FF33D3
:102528002363002010BD38B540F21443C2F2000303
:102538001B780BB1002038BD40F2C824C2F2000459
:102548004FF0FF352563FFF7DBFBFFF7D7FF4FF4AD
:102558008071204603F0C2FE2563204604F00CF982
:1025680000220221204604F06CF9FFF758FF40F2E0
:102578001443C2F2000301221A70DBE708B50246D1
:10258800002140F2C820C2F2000004F05AF908BD48
:1025980008B50246012140F2C820C2F2000004F04A
:1025A80050F908BD10B58CB004462C22002101A8B2
:1025B80011F016FFFFF7A2FF40F21843C2F2000322
:1025C8001B681C4400230893E443029406934FF0CD
:1025D800005307934FF480730B93012201A940F233
:1025E800C820C2F2000003F0D9FF10B900200CB0D7
:1025F80010BDFFF7C3FAF9E708B5002140F2C8207B
:10260800C2F2000004F024F908BD08B5012140F227
:10261800C820C2F2000004F01BF908BD38B5054611
:102628004FF42053C4F200039A689C68A24207D072
:102638004FF42053C4F200039A689C68A242FBD16D
:10264800022140F2C820C2F2000004F001F9E4437C
:10265800C4F3090253019B1A9B009B18C3F3D513BB
:102668002B80A40A44EA805038BD08B501464FF4CF
:102678007A7200238002890DFEF784FB4FF4205301
:10268800C4F200039A689B689A4207D04FF420521C
:10269800C4F20002916893689942FBD16FEA030C77
:1026A8004FF42052C4F2000200E000BF9368916822
:1026B800994203D0916893689942FBD1DB43A3EB1D
:1026C8000C038342F1D308BD08B511F060FC08BDC6
:1026D80010B540F2C824C2F200040221204604F0DA
:1026E800B7F8421C0221204604F0ABF810BD08B52B
:1026F80040F2DC40C2F200004FF46053C4F2010320
:1027080003604FF4E133436000238360C3600361D7
:102718000C2242618361C361036243624022826288
:102728004FF480124264836405F077FEB8B9002143
:1027380040F2DC40C2F2000006F03CF890B90021FB
:1027480040F2DC40C2F2000006F059F868B940F2E5
:10275800DC40C2F2000005F0EAFF48B908BDFFF707
:102768000DFAE4E7FFF70AFAE9E7FFF707FAEEE7F9
:10277800FFF704FAF2E708B540F27050C2F2000021
:102788004FF48843C4F2000303604FF416534360C8
:1027980000238360C36003610C22426183614FF4AC
:1027A8000042C26103624362836205F036FEB8B933
:1027B800002140F27050C2F2000005F0FBFF90B912
:1027C800002140F27050C2F2000006F018F868B913
:1027D80040F27050C2F2000005F0CDFF48B908BDC4
:1027E800FFF7CCF9E4E7FFF7C9F9E9E7FFF7C6F91E
:1027F800EEE7FFF7C3F9F2E710B59CB004460021F5
:102808001791189119911A911B911391149115917F
:102818001691382205A811F0E3FD22684FF46053A1
:10282800C4F201039A4208D04FF48843C4F200036B
:102838009A4200F0A0801CB010BD012305934FF40C
:102848004033069305A803F00DFC002840F087806C
:102858004FF0B0431A6E42F480421A661A6E02F4C0
:1028680080420292029ADA6C42F00202DA64DB6C6D
:1028780003F002030193019BC023179302231893CB
:10288800012319931A9307231B9317A94FF4806008
:10289800C4F6000001F028FC0023C4F201035A68C2
:1028A80042F400325A605A6842F480325A6040F268
:1028B8007C40C2F200000823C4F202030360122322
:1028C8004360102383600023C36080220261436158
:1028D8008361C361036201F04AF8002842D140F2E3
:1028E8007C43C2F20003E3679C6240F21C40C2F2E0
:1028F80000001C23C4F20203036011234360002379
:102908008360C3608022026143618361C3610362A3
:1029180001F02DF848BB0023139314938DF854301D
:1029280001238DF85530169313A940F21C40C2F2CA
:10293800000001F042FAD8B940F21C43C2F2000389
:10294800C4F880309C6200220221242000F057FF46
:10295800242000F08DFF0C2000F08AFF6BE7FFF7C2
:102968000DF975E7FFF70AF9B9E7FFF707F9D2E7B5
:10297800FFF704F9E0E7022305934FF44023079398
:1029880005A803F06FFB50BB4FF0B0439A6D42F4BB
:1029980000329A659A6D02F400320492049ADA6C55
:1029A80042F00102DA64DB6C03F001030393039B3A
:1029B8000C23179302231893012319931A930723BF
:1029C8001B9317A94FF0904001F08EFB002211468F
:1029D800252000F014FF252000F04AFF2BE7FFF721
:1029E800CDF8D1E710B502684FF46053C4F2010383
:1029F8009A4206D04FF48843C4F200039A4219D091
:102A080010BD04464FF0B042136E23F480431366A2
:102A1800C0214FF48060C4F6000001F042FCE06F72
:102A280001F02BF8D4F8800001F027F8242000F0FA
:102A38002DFFE5E74FF0B042936D23F40033936523
:102A48000C214FF0904001F02CFC252000F01EFFD7
:102A5800D6E708B540F20863C2F200031860FEF733
:102A6800F0FBFFF744FE4FF40063C5F60003D3F80C
:102A7800802042F08062C3F88020002008BD08B59D
:102A88004FF0B0431A6C42F480421A641A6C22F474
:102A980080421A6440F2DC40C2F20000FFF7A2FF55
:102AA8000F2000F0F3FE002008BD08B50A460146D5
:102AB80040F2DC40C2F2000004F0E6FC002008BD51
:102AC80010B582B040F20463C2F2000318604FF4FC
:102AD8000013009340F2DC44C2F2000402AB13E995
:102AE8000600204605F0BFFD2368DA6912F4803F2E
:102AF800FBD1DA6912F4800FFBD09A6842F48002A5
:102B08009A6040F2DC44C2F20004204605F0F8FD69
:102B1800012240F20C61C2F20001204605F04FFD8F
:102B2800002002B010BD08B540F2DC40C2F200003F
:102B380005F073FC38B940F27C40C2F2000000F0A6
:102B480016FF18B908BDFFF719F8F4E7FFF716F8EC
:102B5800F8E708B54FF46053C4F2010302689A42DB
:102B680000D008BD40F20863C2F200031B680020D1
:102B78009847F6E710B504464FF46053C4F20103D2
:102B880002689A4207D04FF48843C4F200032268CF
:102B98009A4218D010BD40F20463C2F200031B68C9
:102BA80043B1D0F890202AB9012140F20C60C2F25A
:102BB80000009847012240F20C61C2F20001204651
:102BC80005F0FDFCDFE740F20403C2F20003012236
:102BD8001A70DFE70D488546FFF783FB0C480D495F
:102BE8000D4A002302E0D458C4500433C4188C4260
:102BF800F9D30A4A0A4C002301E013600432A242C6
:102C0800FBD311F0F5FBFEF738FFFEE700000120CB
:102C1800000000202001002060550108200100204C
:102C280074200020FEE770B586B000240394059454
:102C380010250195012302930323049301A94FF062
:102C4800904001F051FA2026019601A94FF09040DA
:102C580001F04AFA224631464FF0904001F0A1FBBC
:102C6800224629464FF0904001F09BFB204606B0D3
:102C780070BD08B503280FD8DFE800F002101D2A40
:102C8800002210214FF0904001F08BFB0022202100
:102C98004FF0904001F085FB002008BD0122102173
:102CA8004FF0904001F07DFB002220214FF0904032
:102CB80001F077FBF0E7012210214FF0904001F07E
:102CC80070FB012220214FF0904001F06AFBE3E7FE
:102CD800002210214FF0904001F063FB01222021D7
:102CE8004FF0904001F05DFBD6E7022070470120CD
:102CF80070470120704700280CBF0F20162070472E
:102D080010B5032000F068FD02F023FD40F2000337
:102D1800C2F2000318600F20FFF7A0FA10B10124D7
:102D2800204610BD0446FFF717F9F9E74FF0E022F7
:102D3800136923F00203136170474FF0E02213690F
:102D480043F00203136170474FF4E043C1F6FF7389
:102D5800D3F8900570474FF4E043C1F6FF73D3F8FA
:102D6800940570474FF4E043C1F6FF73D3F8980514
:102D780070474FF40053CEF204035A6842F0010240
:102D88005A6070474FF40053CEF204035A6842F079
:102D980002025A6070474FF40053CEF204035A6897
:102DA80042F004025A60704770B582B00023019364
:102DB800002800F012810446836D002B00F0CB80C0
:102DC8002268936813F0805F1FD1936823F0104343
:102DD80023F0170343F08053936040F20003C2F2DC
:102DE80000031B689B0942F66352C0F23E52A2FBE5
:102DF80003239B0901335B000193019B2BB1019BCA
:102E0800013B0193019B002BF9D121688B6813F0DA
:102E1800805F40F0A780A36D43F01003A365E36DC6
:102E280043F00103E36501208A68A36D03F01003F2
:102E380002F00402134340F0C980A36D23F48173A8
:102E480043F00203A3658B6813F0010F59D1A67EE6
:102E5800236B003B18BF01234FEA033EA368E268D7
:102E68001343227E43EA8233627E43EAC23343EA53
:102E780046332269002AB4BF22F000424FF4001200
:102E880094F82C5043EA450343EA0E03134394F89D
:102E98002020012A68D0626A22B102F4E072A56A91
:102EA8002A431343CA6822F4FE3222F4FF721A43FB
:102EB800CA60636803F04043E26C1A4394F83C101C
:102EC80001295ED021680D694FF60243C1F6FF73F0
:102ED8002B4013430B61636823F00042B2F1804F2B
:102EE8000FD0B3F1004F0CD04FF40051C4F20101E0
:102EF800D1F8082722F4701203F470131343C1F8B1
:102F080008372268536923F00703616B0B43536149
:102F180022685369A16B23F0700343EA01135361DC
:102F28002369002B37D12268936A63F00F039362F9
:102F380023685B6903F00703626B9A423DD0A36D77
:102F480023F0120343F01003A365E36D43F001037C
:102F5800E36501203FE0FEF7E3F80023E36584F82A
:102F680054302DE700205FE716B943F4803392E729
:102F7800A26D42F02002A265E26D42F00102E26514
:102F880089E7216C656C29430A43A16C0A43134302
:102F980043F0010296E7B3F5001FC9D121688B6A97
:102FA800E369013B9B0003F01C036FF00F0202FA78
:102FB80003F3226E13438B62BAE70023E365A36D24
:102FC80023F0030343F00103A36504E0A36D43F07A
:102FD8001003A365012002B070BD0120FBE7F8B51E
:102FE80006460C464569082D05D00368DB6813F0D2
:102FF800010F1ED10425FFF733F90746326813681D
:103008002B421CD1B4F1FF3FF9D0FFF729F9C31BBC
:10301800A34201D8002CF1D133681B682B42EDD1B3
:10302800B36D43F00403B365002386F854300320DE
:1030380028E0836D43F020038365012022E0B36D0F
:1030480043F40073B365D36813F4406F15D1B37EAE
:103058009BB9136813F0080F0FD0936813F0040F8F
:1030680011D1536823F00C035360B36D23F48073BC
:1030780023F0010343F00103B365307E60B9336880
:103088000C221A60F8BDB36D43F02003B365F36DED
:1030980043F00103F365F0E70020F3E70368186CD9
:1030A800704770B483B0034600220192006993F818
:1030B8005420012A00F03181012283F854201A6833
:1030C800946814F0040F0AD09A6D42F020029A65B1
:1030D8000120002283F8542003B070BC70474C686C
:1030E800022C00F0B78020F00400B0F1004F25D08A
:1030F80004F01F040F25A540186E20EA050508688E
:10310800C0F31106002E32D1C0F38460A0402843DA
:1031180018664C68A0080130DD69A84214D8956A81
:1031280004F01F040868C0F38360A0400F2606FA65
:1031380004F425EA04042043906205E0946A0868D0
:10314800C0F31100204390621C6860690D688A68AA
:1031580002EA052222F07C4222F0FF0220EA052042
:10316800024362610A68002A06DB0020B1E790FA90
:10317800A0F0B0FA80F0C9E74FF40051C4F20101A1
:10318800D1F8080700F0E0744FF48051CBF2000149
:103198008A421FD04FF48041CBF600018A4247D0C3
:1031A8004FF40051CBF200418A4240F0B28010F453
:1031B800800F40F0B0804FF40051C4F20101D1F803
:1031C800082722F0E072224342F48002C1F808275F
:1031D80000207EE710F4000F40F095804FF4005176
:1031E800C4F20101D1F8082722F0E072224342F428
:1031F8000002C1F8082740F20002C2F20002126879
:10320800920942F66351C0F23E51A1FB02129209A3
:10321800013202EB420292000192019A002A74D014
:10322800019A013A0192019A002AF9D1002050E747
:1032380010F0807F6BD14FF40051C4F20101D1F836
:10324800082722F0E072224342F08072C1F8082772
:1032580000203EE720F00400B0F1004F04D00A68D7
:10326800002A09DB002034E7906A0C68C4F31104D3
:1032780020EA04009062F2E74FF40051C4F2010121
:10328800D1F808174FF48050CBF2000082420DD0DD
:103298004FF48040CBF60000824216D04FF4005025
:1032A800CBF2004082421FD0002012E74FF40052B8
:1032B800C4F20102D2F8080701F0A07120F0E07012
:1032C8000143C2F80817002003E74FF40050C4F286
:1032D8000100D0F8084701F4400224F0E0710A43E5
:1032E800C0F808270020F4E64FF40050C4F20100AB
:1032F800D0F8084701F0C07224F0E0710A43C0F822
:1033080008270020E5E60020E3E60020E1E60020AB
:10331800DFE60020DDE60020DBE60220DCE638B54B
:1033280003689A6812F0040F31D004469A6812F0C4
:10333800020F07D19A6822F0004222F0170242F0E9
:1033480010029A60FEF78CFF054623689B6813F00D
:10335800040F06D100201BE023689B6813F0040FBC
:1033680013D0FEF77DFF431B022BF5D923689B681A
:1033780013F0040FF0D0A36D43F01003A365E36DC1
:1033880043F00103E365012002E0002000E0002093
:1033980038BD30B583B00023019303689A6812F0F2
:1033A800010F6ED1044699681722C8F20002114233
:1033B8002CD19A6822F0004222F0170242F0010252
:1033C8009A604FF40053C4F20103D3F8083713F49A
:1033D800000F16D040F20003C2F200031B689B09DD
:1033E80042F66352C0F23E52A2FB03239B0901330B
:1033F8000193019B2BB1019B013B0193019B002B86
:10340800F9D1637E012B0BD100203BE0836D43F0A3
:1034180010038365C36D43F00103C365012031E0E8
:10342800FEF71EFF054623681A6812F0010F06D042
:10343800002027E023681A6812F0010F1FD19A684C
:1034480012F0010F07D19A6822F0004222F0170209
:1034580042F001029A60FEF703FF401B0228E9D9F7
:1034680023681B6813F0010FE4D1A36D43F0100328
:10347800A365E36D43F00103E365012002E000204A
:1034880000E0002003B030BD03689B6813F0040F10
:1034980028D110B5044690F85430012B24D00123CC
:1034A80080F85430FFF775FFC0B9A36D23F470633B
:1034B80023F0010343F48073A3650023E3652268C6
:1034C8001C21116084F854302268936823F000436B
:1034D80023F0170343F00403936010BD002384F81E
:1034E8005430FAE7022070470220F6E738B503683F
:1034F80099689A6812F0010F43D0044611F0020F40
:1035080041D19A6802F00502012A09D0836D43F07F
:1035180010038365C36D43F00103C365012031E0E7
:103528009A6822F0004222F0170242F002029A60E2
:10353800036803221A60FEF793FE054623689B681A
:1035480013F0010F08BF002005D11BE023689B681A
:1035580013F0010F13D0FEF783FE401B0228F5D9A4
:1035680023689B6813F0010FF0D0A36D43F010039C
:10357800A365E36D43F00103E365012002E0002049
:1035880000E0002038BD0020FCE770B500285CD0C2
:103598000446836D43F002038365FFF7C0FE0646C9
:1035A800002843D02268536823F4677323F0030389
:1035B8005360236840F29F321A602268D1684FF442
:1035C8000073C8F23E330B40D3602268136923F0BE
:1035D800404313612268536923F00703536122684B
:1035E800136A03F0F02313622268536A03F0F0238E
:1035F80053622268D36A03F0F023D36223689A6A7D
:1036080000259D624FF40053C4F20103D3F8082744
:1036180022F0FE72C3F808272046FDF797FD2566BD
:10362800E565A56584F85450304670BD2046FFF71F
:103638005DFF064608B90123A3652268936823F055
:10364800104323F017039360ACE70126ECE790F8EA
:103658005430012B19D010B50446012380F854309A
:10366800FFF75DFE18B1002384F8543010BD2046E2
:10367800FFF73CFF0028F6D1A36D23F4807323F0F5
:10368800010343F00103A365EDE702207047F0B59D
:1036980083B00023019390F85430012B00F09A80F6
:1036A8000446012380F85430FFF720FF05462368BD
:1036B8009A6812F0010209D0A36D43F01003A365C4
:1036C800002384F85430284603B0F0BDA16D21F4DE
:1036D800817141F00201A165DE68D96821F40041D9
:1036E80021F00301D96010464BF2FF7CC0F2020CB6
:1036F80021688B6823F0004323F0170343F000434D
:103708008B6021688B68002B39DBD1F8B43003F06B
:103718007F0318440132082AEAD18B6823F000435A
:1037280023F0170343F001038B602268D2F8B4300A
:1037380023F07F0343EAD003C2F8B43022689368C9
:1037480023F0004323F0170343F002039360FEF7CE
:1037580087FD074623689A6812F0010F2FD1DA68AF
:1037680026F4FF4626F07C063604360C1643DE6047
:10377800A36D23F0030343F00103A365A0E7019BB6
:1037880001330193019B6345BCD9A36D23F0120358
:1037980043F01003A365002384F85430012592E711
:1037A80023689B6813F0010F0ED0A36D43F010033C
:1037B800A365E36D43F00103E365012583E7FEF7A5
:1037C8004FFDC31B022BEBD823689A6812F0010F38
:1037D800F5D1C4E7022576E74FF46D42CEF2000238
:1037E800D168030203F4E06321F4E0610904090CE1
:1037F8000B4343F0BF6343F40033D360704700B515
:103808004FF46D43CEF20003DB68C3F30223C3F128
:10381800070CBCF1040F28BF4FF0040C03F1040E91
:10382800BEF1060F8CBF033B00234FF0FF3E0EFA9C
:103838000CFC21EA0C0199400EFA03FE22EA0E0262
:103848001143002809DB0901C9B200F1604000F505
:10385800614080F800135DF804FB00F00F000901D7
:10386800C9B24EF6FC43CEF2000303441976F2E7E0
:1038780000280ADB410900F01F00012383404FF4B0
:103888006142CEF2000242F82130704700280FDB77
:10389800430900F01F00012282404FF46141CEF23B
:1038A8000001203341F82320BFF34F8FBFF36F8F00
:1038B800704710B4C46CD0F850C0C4F804C0446D4C
:1038C80024B1846DD0F85CC0C4F804C0446C04F022
:1038D8001C0C012404FA0CF4D0F840C0CCF80440C5
:1038E800046863608368102B05D0036899600368D7
:1038F800DA6010BC704703689A600368D960F8E71B
:10390800036840F20742C4F2020293421CD8426C98
:1039180022F0030202F1804202F50232DBB2083BD8
:103928004CF6CD41CCF6CC41A1FB03131B098264B4
:103938004FF40862C4F20202C26403F01F030122BA
:1039480002FA03F303657047426C22F0030140F664
:103958001C02C4F202020A44DBB2083B4CF6CD4119
:10396800CCF6CC41A1FB03131B090733DFE7002882
:1039780000F0818010B50446026840F20743C4F2A3
:1039880002039A424CD84FF6F873CBF6FD731344F2
:103998004CF6CD41CCF6CC41A1FB03131B099B008F
:1039A8000021C4F2020163642164022384F82530F3
:1039B800136823F4FF4323F070031360226811682F
:1039C800A368E06803432069034360690343A0696F
:1039D8000343E0690343206A03430B431360204613
:1039E800FFF78EFFA368B3F5804F04BF0023636021
:1039F800A26C636803F07F031360E36C226D5A6066
:103A080063685A1E032A1DD900236365A365E3650D
:103A18000020E063012384F8253084F8240010BDD9
:103A28004FF6F833CBF6FD7313444CF6CD41CCF684
:103A3800CC41A1FB03131B099B004FF48061C4F226
:103A48000201B0E703F07F0348F23F22C1F200020F
:103A58001A44920062654FF41461C4F20201A16530
:103A6800013B012101FA03F3E36500231360A36D11
:103A7800E26D5A60CCE70120704700286BD038B55A
:103A880004460268136823F001031360026840F2D9
:103A98000743C4F202039A4234D84FF6F873CBF6C0
:103AA800FD7313444CF6CD41CCF6CC41A1FB031376
:103AB8001B099B000021C4F20201636421640025F4
:103AC8001560216C636C03F01C02012393404B606A
:103AD8002046FFF715FFA36C1D60E36C226D5A604A
:103AE80063685A1E032A1FD900206065A065E06537
:103AF800E06220636063A063E06384F8250084F8D3
:103B0800240038BD4FF6F833CBF6FD7313444CF65A
:103B1800CD41CCF6CC41A1FB03131B099B004FF40C
:103B28008061C4F20201C8E703F07F0348F23F2234
:103B3800C1F200021A4492004FF41461C4F2020167
:103B4800A165013B012101FA03F3E3651560A36D4B
:103B5800E26D5A60C8E70120704738B5044690F80E
:103B68002400012843D0012084F8240094F825007B
:103B7800C0B2012806D08023E363002384F82430F0
:103B8800012038BD022084F825000020E063256864
:103B9800286820F0010028602046FFF78AFE236B82
:103BA800D3B12268136843F00E031360A36C1A683C
:103BB80012F4803F03D01A6842F480721A60636D71
:103BC8001BB11A6842F480721A602268136843F0C5
:103BD800010313600020D4E72268136823F004036C
:103BE80013602268136843F00A031360DEE70220BB
:103BF800C7E70346002834D090F82520D2B2022A1D
:103C080006D00422C263002280F8242001207047D5
:103C180001680A6822F00E020A60816C0A6822F4C0
:103C280080720A6001680A6822F001020A60006C6A
:103C38005A6C02F01C0101228A404260DA6C196D4C
:103C480051605A6D32B1116821F4807111609A6D1A
:103C5800D96D5160012283F82520002083F82400C3
:103C680070470120704708B590F82530DBB2022B69
:103C780003D00423C363012008BD0268136823F03E
:103C88000E0313600268136823F001031360826C4B
:103C9800136823F480731360016C436C03F01C02F7
:103CA800012393404B60C36C026D5A60436D33B17E
:103CB8001A6822F480721A60836DC26D5A600123FB
:103CC80080F82530002380F82430836B13B198479F
:103CD8000020D1E70020CFE738B5036C19680468E5
:103CE8002568436C03F01C0304229A400A4215D04D
:103CF80015F0040F12D0236813F0200F03D12368A6
:103D080023F004032360016C436C03F01C020423BA
:103D180093404B60036B03B1984738BD02229A4029
:103D28000A4228D015F0020F25D0236813F0200F7F
:103D380006D1236823F00A032360012380F8253085
:103D48008023C4F2020302689A42436C03F01C0207
:103D58004FF0020303FA02F38CBF4FF48062002293
:103D6800C4F202025360002380F82430C36A002B97
:103D7800D3D09847D1E7082202FA03F30B42CCD0FC
:103D880015F0080FC9D0236823F00E032360016CD7
:103D9800436C03F01C03012202FA03F34B60C26375
:103DA80080F82520002380F82430436B002BB4D002
:103DB8009847B2E790F82500704790F82530DBB2B5
:103DC800012B22D190F82430012B22D030B40123CA
:103DD80080F82430846C2268CB6803F1FF3C0B68C0
:103DE8004D682B4343EACC4391F808C043EA0C439F
:103DF800497A43EA412302F07F02134323600023F8
:103E080080F82430184630BC70478023C3630120F3
:103E180070470220704710B50446C36C1A68036DDA
:103E28001A420ED0826C136823F480731360C36C3B
:103E3800026D5A60C36B43F40073C363436B03B1F1
:103E48009847636D9BB1A26D1168E26D11420ED067
:103E58001A6822F480721A60A36DE26D5A60E36BEF
:103E680043F48063E363636B0BB12046984710BD4E
:103E780010B50B464FF48042C5F60002546944F46D
:103E880080245461EFF3108E72B601F5807C411ADC
:103E98001A685A5004336345FAD14FF48042C5F684
:103EA8000002136913F4803FFBD18EF3108810BD14
:103EB8004FF48043C5F600035B69002B01DB00204B
:103EC80070474FF48043C5F6000340F22312C4F252
:103ED80067529A6048F6AB12CCF6EF529A6058696E
:103EE800C00F70474FF48043C5F600035A6942F08B
:103EF80000425A615869C043C00F704770B5054603
:103F0800FEF7AEF904464FF48046C5F6000633695D
:103F180013F4803F06D0FEF7A3F9001BA842F6D39E
:103F2800032070BD4FF48043C5F600031B6913F0EE
:103F3800010F05D04FF48042C5F60002012111613E
:103F48004CF2FA3213400ED14FF48046C5F6000603
:103F5800336913F4802F12D0FEF782F9001BA842B0
:103F6800F6D30320DDE74FF48042C5F60002136163
:103F780040F21062C2F2000253600120D1E7002033
:103F8800CFE7F8B51F4640F2106CC2F2000C9CF85F
:103F98000030012B37D004460D46164640F2106C0F
:103FA800C2F2000C01238CF800300023CCF8043056
:103FB8004FF47A70FFF7A2FF88B9012C16D031466A
:103FC8002846FFF755FF4FF47A70FFF797FF4FF435
:103FD8008043C5F600035A6922EA04025A6140F296
:103FE8001063C2F2000300221A70F8BD4FF4804338
:103FF800C5F600035A6942F001025A612E60BFF308
:104008006F8F6F60DFE70220EFE74FF48042C5F65D
:104018000002536923F47E7343EAC00040F4803001
:1040280040F0020050617047F8B540F21063C2F2E8
:1040380000031B78012B55D005460E4640F210634D
:10404800C2F2000301221A7000225A604FF47A70FB
:10405800FFF754FF014600283CD12B68042B18D0E9
:104068004FF0FF3333606C68AB6823449C4221D225
:104078004FF47A772046FFF7C8FF3846FFF73EFF30
:104088000146B0B901346B68AA681344A342F1D859
:1040980010E04FF48042C5F60002536943F48033C0
:1040A80043F0040353614FF47A70FFF727FF01468A
:1040B8000AE034604FF48042C5F60002536923F4E5
:1040C8007E7323F0020353614FF48043C5F6000367
:1040D8001A681B6840F21063C2F2000300221A70CB
:1040E8000846F8BD0221FBE70B68002B00F0D880DA
:1040F8002DE9F04F4FF0000C6246012503244FF4E0
:10410800006EC5F6000E4FF48066C4F600064FF444
:104118000068C4F600083746C14656E0866804FAC7
:104128000CFA26EA0A0ACE6806FA0CF646EA0A06E5
:104138008660466826EA08084E68C6F30016964068
:1041480046EA080646604BE04FF0000808FA0BF80C
:1041580048EA0A08C6F80880DEF800606FEA030833
:10416800D1F804A01AF4801F0CBF08EA06061E4303
:10417800CEF80060DEF80460D1F804A01AF4001F3D
:104188000CBF08EA06061E43CEF80460DEF880601D
:10419800D1F804A01AF4803F0CBF08EA06061E43B3
:1041A800CEF88060DEF88460D1F804A01AF4003FED
:1041B8000CBF08EA06033343CEF8843001320B689B
:1041C8000CF1020C33FA02F668D005FA02F818EA84
:1041D8000303F3D04E6806F00306013E012E9DD975
:1041E8004E6806F00306032E26D0C66804FA0CF8BB
:1041F80026EA08088E6806FA0CF646EA0806C6603B
:104208004E6806F00306022E16D14FEAD20800EBDC
:104218008808D8F8206002F0070B4FEA8B0B4FF0A4
:104228000F0A0AFA0BFA26EA0A0A0E6906FA0BF6C8
:1042380046EA0A06C8F82060066804FA0CF826EA76
:1042480008084E6806F0030606FA0CF646EA080661
:1042580006604E6816F4403FB0D022F0030606F11F
:10426800804606F58036D6F808A002F0030B4FEA20
:104278008B0B4FF0070808FA0BF82AEA080AB0F186
:10428800904F3FF461AFB84206D048450CBF4FF09D
:1042980002084FF0070859E7A84657E7BDE8F08F2E
:1042A800704700297CD02DE9F04F8C4600234FF051
:1042B80001084FF40067C5F600074FF4806AC4F69A
:1042C800000A4FF4006BC4F6000B2BE04FF0000916
:1042D80009FA04F4AC4248D004685900032505FAE9
:1042E80001F10C43046023FA05F500EB85052E6AFD
:1042F80003F00704A4004FF00F0E0EFA04F426EAA8
:1043080004042C62846824EA01048460446824EA72
:1043180002024260C26822EA0102C26001333CFA2A
:1043280003F23BD008FA03F212EA0C06F6D023F0A7
:10433800030101F1804101F580318D6803F0030428
:10434800A4004FF0070E0EFA04FE0EEA0505B0F1C0
:10435800904FBBD0504506D058450CBF4FF00209CE
:104368004FF00709B4E7C146B2E7D7F8804024EA1E
:104378000604C7F88040D7F8844024EA0604C7F842
:1043880084403C6824EA06043C607C6824EA06040D
:104398007C608C6824EA0E048C609DE7BDE8F08F91
:1043A80070470AB18161704781627047436901EAC9
:1043B800030221EA030141EA02418161704703686F
:1043C8009A6912F0020F1CBF00229A6203689A6968
:1043D80012F0010F03D19A6942F001029A61704705
:1043E80030B4029C05686868234343EA0243C1F37A
:1043F80009010B4323F00043640D04F4806446F282
:10440800FF32C0F2FF32144320EA040003436B601A
:1044180030BC704711F0010F21D090F8413003F003
:104428002803282B0CBF4223F22311F0020F09D0D6
:1044380090F8412002F02802282A0CBF43F04403D8
:1044480043F0F40311F4004F0BD1102910D143F0BD
:10445800900301680A6822EA03030B60704700238F
:10446800E3E743F0B803402908BF43F04003F0E70F
:104478002029F8D143F02003EBE72DE9F047044663
:1044880003689E6916F010067AD00D4690461022F1
:10449800DA61002637464FF0200A4FF001092268FA
:1044A800936913F0200F2FD18FBBB5F1FF3FF7D0E1
:1044B800FDF7D6FEA0EB0800A84201D8002DEED1EA
:1044C8002268506894F84230DBB2916911F4004FC9
:1044D80004D010F4804F01D1202B0DD123689B69A3
:1044E80013F0200FDBD1FDF7BBFEA0EB0800192865
:1044F800F4D956464F46D2E7536843F48043536095
:10450800FDF7AEFE8046E9E70FB92023D36146F0F8
:10451800040601202268936913F4807F05D046F0D1
:1045280001064FF48071D161012013F4806F29D006
:1045380046F0080622684FF48061D16113F4007FC9
:1045480005D046F0020623684FF40072DA6120466F
:10455800FFF735FF226853684FF46841CFF60061D2
:104568000B405360636C33436364202384F8413009
:10457800002384F8423084F840300120BDE8F087F9
:104588000020C7E713F4007FDBD10028F6D0DEE770
:1045980070B504460D46164623689B6913F0020F52
:1045A8001DD1324629462046FFF767FFC8B9B5F145
:1045B800FF3FF1D0FDF754FE801BA84201D8002D23
:1045C800EAD1636C43F020036364202384F841300C
:1045D800002384F8423084F84030012000E00020B5
:1045E80070BD0120FCE72DE9F04180460F461646D4
:1045F8001D46D8F800309C6937EA04040CBF012432
:104608000024B4421AD1B5F1FF3FF4D0FDF728FEDB
:10461800069BC01AA84201D8002DEAD1D8F8443028
:1046280043F02003C8F84430202388F841300023A1
:1046380088F8423088F84030012000E00020BDE8CA
:10464800F08170B505460C4616462B689B6913F039
:10465800200F1AD1324621462846FFF70EFFB0B97F
:10466800FDF7FEFD801BA04201D8002CEDD16B6C3C
:1046780043F020036B64202385F84130002385F83C
:10468800423085F84030012070BD0020FCE7012051
:10469800FAE770B504460D46164623689B6913F081
:1046A800040F44D1324629462046FFF7E6FE01466C
:1046B80000283ED123689A6912F0200F13D1FDF724
:1046C800CFFD801BA84201D8002DE6D1636C43F0D2
:1046D80020036364202384F84130002384F84030A9
:1046E8000121084670BD9A6912F0040F02D0228D8C
:1046F800002AF6D19A6912F0100F1DBF1022DA6154
:1047080004230023636423682022DA6121684B684C
:104718004FF46840CFF6006003404B6084F84120B6
:10472800002384F8423084F840300121D9E7002181
:10473800D7E70121D5E7002855D010B5044690F8F1
:104748004130002B45D0242384F841302268136877
:1047580023F0010313602268636823F07063136118
:104768002268936823F400439360E368012B22686E
:10477800A3680CBF43F4004343F404439360E36825
:10478800022B2BD02268536843F0007343F4004394
:1047980053602268D36823F40043D36022682369F6
:1047A80061690B43A16943EA0123D3602268E36985
:1047B800216A0B4313602268136843F001031360F6
:1047C80000206064202384F84130206384F842008C
:1047D80010BD80F84030FCF7A5FFB4E723684FF41C
:1047E80000625A60CEE7012070472DE9F04782B099
:1047F8000F460A9E90F84110C9B2202940F0AE80B9
:1048080004469046994690F84030012B00F0AA8063
:104818004FF0010A80F840A0FDF722FD0546009000
:10482800192352464FF400412046FFF7DCFE0028CA
:1048380040F09A80212384F84130102384F84230D4
:1048480000236364C4F82480A4F82A906363638D0A
:104858009BB2FF2B17D9FF2222854FF40053C8F2D1
:10486800000300934FF0807339462046FFF7B8FDE8
:10487800638D9BB2002B58D04FF000084FF0800991
:104888004FF0007A1EE0628D92B222854FF40053F9
:10489800C8F2000300934FF00073D2B239462046A5
:1048A800FFF79EFDE4E7628D92B22285CDF8008085
:1048B8005346D2B239462046FFF792FD638D9BB22C
:1048C800002B32D02A4631462046FFF761FE0028E9
:1048D8004CD12368626A12789A62636A0133636210
:1048E800638D013B9BB26385238D013B9BB223857E
:1048F800628D92B2002AE1D0002BDFD100953346B9
:10490800424649462046FFF76EFE88BB638D9BB240
:10491800FF2BC8D9FF222285CDF800804FF0807385
:1049280039462046FFF75CFDC8E72A46314620464F
:10493800FFF787FEF0B923682022DA6121684B6807
:104948004FF46845CFF600652B404B6084F8412052
:10495800002384F8423084F8403000E0022002B09E
:10496800BDE8F0870220FAE70120F8E70120F6E722
:104978000120F4E70120F2E72DE9F04782B00F4665
:104988000A9E90F84110C9B2202940F0AE80044632
:104998009046994690F84030012B00F0AA804FF0DD
:1049A800010A80F840A0FDF75BFC0546009019233A
:1049B80052464FF400412046FFF715FE002840F00C
:1049C8009A80222384F84130102384F8423000234F
:1049D8006364C4F82480A4F82A906363638D9BB24F
:1049E800FF2B17D9FF2222854FF41053C8F200037A
:1049F80000934FF0807339462046FFF7F1FC638D32
:104A08009BB2002B58D04FF000084FF080094FF0B0
:104A1800007A1EE0628D92B222854FF41053C8F2DC
:104A2800000300934FF00073D2B239462046FFF7D7
:104A3800D7FCE4E7628D92B22285CDF80080534618
:104A4800D2B239462046FFF7CBFC638D9BB2002BD0
:104A580032D02A4631462046FFF71BFE00284CD1AB
:104A680023685A6A636A1A70636A01336362238D22
:104A7800013B9BB22385628D013A92B26285628DB9
:104A880092B2002AE1D0002BDFD10095334642468E
:104A980049462046FFF7A7FD88BB638D9BB2FF2BD5
:104AA800C8D9FF222285CDF800804FF0807339469F
:104AB8002046FFF795FCC8E72A4631462046FFF70F
:104AC800C0FDF0B923682022DA6121684B684FF4F1
:104AD8006845CFF600652B404B6084F841200023E1
:104AE80084F8423084F8403000E0022002B0BDE88B
:104AF800F0870220FAE70120F8E70120F6E7012015
:104B0800F4E70120F2E72DE9F04F83B00D46BDF838
:104B180034A00E9F90F84110C9B2202940F0EA80D5
:104B28000446904699460C9BCBB1BAF1000F16D0BB
:104B380090F84030012B00F0E1804FF0010B80F835
:104B480040B0FDF78DFB0646009019235A464FF4F6
:104B580000412046FFF747FD30B10120CBE04FF47C
:104B6800007363640120C6E0222384F841304023A7
:104B780084F84230002363640C9A6262A4F82AA085
:104B880063634FF40052C8F2000200925FFA89F2A0
:104B980029462046FFF724FC324639462046FFF7CF
:104BA800F7FCA0BBD94523D123685FFA88F29A6243
:104BB80000963B46002240212046FFF714FD30BBFB
:104BC800638D9BB2FF2B27D9FF2222854FF4105308
:104BD800C8F2000300934FF0807329462046FFF780
:104BE800FFFB4FF000084FF004094FF0800A33E054
:104BF80023684FEA18229A62324639462046FFF760
:104C0800C7FC20B922685FFA88F39362D0E70023D3
:104C180084F8403001206EE0628D92B222854FF414
:104C28001053C8F2000300934FF00073D2B2294624
:104C38002046FFF7D5FBD4E7628D92B22285CDF8E6
:104C480000804FF00073D2B229462046FFF7C8FB18
:104C5800638D9BB2002B34D000963B4642464946B2
:104C68002046FFF7C0FC00284AD123685A6A636AC5
:104C78001A70636A01336362238D013B9BB22385FB
:104C8800628D013A92B26285628D92B2002ADFD0BB
:104C9800002BDDD100963B46424651462046FFF7A1
:104CA800A2FC78BB638D9BB2FF2BC5D9FF2222855E
:104CB800CDF800804FF0807329462046FFF790FB1F
:104CC800C6E7324639462046FFF7BBFCE0B9236801
:104CD8002022DA6121684B684FF46845CFF60065F9
:104CE8002B404B6084F84120002384F8423084F83C
:104CF800403000E0022003B0BDE8F08F0220FAE760
:104D08000120F8E70120F6E70120F4E708B5036879
:104D180099691A68436B03B1984708BD7047704793
:104D280010B5044603681A68002180F8421012F48E
:104D3800804F0ED01A6822F480421A6094F84130ED
:104D4800DBB2292B0DD094F84130DBB22A2B18D0D6
:104D580010BD12F4004FF1D01A6822F400421A6014
:104D6800ECE7282384F841302123236301212046DE
:104D7800FFF750FB002384F840302046FFF7CEFFB2
:104D8800E6E7282384F841302223236302212046C2
:104D9800FFF740FB002384F840302046FFF7BFFFB1
:104DA800D6E77047F8B5044690F8413003F0280379
:104DB800282B06D003680822DA61002380F84030E7
:104DC800F8BD03689E69C6F300469A69120C02F0A2
:104DD800FE059968DF68C268022A25D1C1F3090275
:104DE80085EAD11111F0060F10D1816C013181646F
:104DF800816C0229E4D1002181640820D86184F8FB
:104E0800401031462046FFF7CCFFD9E74FF4004168
:104E1800FFF700FB002384F8403007F0FE0231461C
:104E28002046FFF7BEFFCBE74FF40041FFF7F2FA49
:104E3800002384F840302A4631462046FFF7B1FF68
:104E4800BEE7704710B504460023CFF6FF73C36270
:104E580000230363202280F8412080F84230436316
:104E680011F0040F12D003685A6A436A1A70436A31
:104E780001334362038D4BB1013B0385438D013BF5
:104E88009BB24385436C43F00403436448F2030137
:104E98002046FFF7BFFA23681022DA61002384F85E
:104EA80040302046FFF7CDFF10BD7047704708B56A
:104EB80090F84130DBB2602B06D00023036380F802
:104EC8004030FFF7F2FF08BD202380F8413000236F
:104ED800036380F84030FFF7E9FFF4E710B50446B4
:104EE80090F84130002280F842201046CFF6FF703B
:104EF800E0626285626C0A436264283BDBB2022B83
:104F08001CD803212046FFF785FA282384F841306E
:104F180045F24713C0F600036363236BA26B1AB113
:104F2800112B1AD0212B18D0E26B1AB1122B38D0C2
:104F3800222B36D02046FFF7BAFF10BD48F20301F6
:104F48002046FFF767FA94F84130DBB2602B1CBFAC
:104F5800202384F841300023DEE723681A6812F41E
:104F6800804F03D01A6822F480421A60A06BFEF7C3
:104F780021FF012811D0A26B45F21133C0F60003BE
:104F88009363002384F84030A06BFEF76CFE002882
:104F9800D3D0A06B836B9847CFE72046FFF787FFF6
:104FA800CBE723681A6812F4004F03D01A6822F47A
:104FB80000421A60E06BFEF7FDFE012811D0E26B9B
:104FC80045F21133C0F600039363002384F84030A0
:104FD800E06BFEF748FE0028AFD0E06B836B984784
:104FE800ABE72046FFF763FFA7E770B504460D4619
:104FF8000268166890F841302021D16103F0F70368
:10500800212B08D0222B0CD148F20201FFF702FA1B
:105018002223236305E048F20101FFF7FBF921236E
:1050280023632268536843F400435360226853683B
:105038004FF46841CFF600610B4053602046FFF7FC
:10504800BEF916F4804F3FD02268136823F48043DA
:105058001360A36B1BB11B685B689BB2638515F07B
:10506800040F10D025F0040523685A6A636A1A7081
:10507800636A01336362238D2BB1013B2385638D02
:10508800013B9BB26385638D9BB21BB1636C43F09C
:1050980004036364002384F842306363636C1BBBBE
:1050A800E36A13F5803F2DD194F84130DBB2222B0F
:1050B8003AD0202384F841300023236384F8403019
:1050C8002046FFF72BFE2EE016F4004FC7D02268CB
:1050D800136823F400431360E36B002BBFD01B68F5
:1050E8005B689BB26385BAE7616C2046FFF7F6FE02
:1050F80094F84130DBB2282B15D129462046FFF71A
:10510800A1FE10E02046FFF70BFE0023CFF6FF7349
:10511800E362202384F841300023236384F840307D
:105128002046FFF78EFE70BD202384F8413000230F
:10513800236384F840302046FFF7F1FDF3E7F8B524
:10514800C76A90F84030012B00F0998004460D465C
:105158001646012380F8403011F0200F02D012F0DB
:10516800200F19D115F0100F3DD016F0100F3AD0BE
:10517800638D9BB243BB94F84130DBB2282B0ED031
:1051880094F84130DBB2292B11D023681022DA6160
:10519800002084F84000F8BDFFF727FFE2E7B7F1E9
:1051A800007FEDD129462046FFF74CFEF0E717F5C2
:1051B800803FEAD023681022DA612046FFF7FFF823
:1051C8002046FFF7ADFDE3E723681022DA61636C40
:1051D80043F00403636437F08073D9D1616C2046CF
:1051E800FFF77CFED4E715F0040F1ED016F0040F6D
:1051F8001BD0638D9BB26BB123685A6A636A1A70BD
:10520800636A01336362238D013B2385638D013B10
:105218009BB26385638D9BB2002BB9D117F5803F94
:10522800B6D02046FFF77CFDB2E715F0080F02D094
:1052380016F0080F17D115F0020FA9D016F0020FBB
:10524800A6D0638D9BB29BB12368626A12789A627A
:10525800636A01336362638D013B9BB26385238D6F
:10526800013B238594E729462046FFF79BFD8FE7FE
:1052780037F080738CD12046FFF752FD88E7022073
:1052880089E708B502689369116813F4807F10D024
:1052980011F0800F2ED0416C41F0010141644FF4B0
:1052A8008071D16113F4806F09D113F4007F11D19B
:1052B80018E013F4806F20D011F0800F12D0426CE8
:1052C80042F00802426402684FF48061D16113F42D
:1052D800007F07D0436C43F00203436403684FF434
:1052E8000072DA61416C11F00B0F00D108BDFFF7B5
:1052F800F5FDFBE713F4806FF4D113F4007FF1D0D0
:1053080011F0800FEED0E5E708B5806A836B0BB12A
:1053180000229A63C36B0BB100229A63FFF7C7FDA3
:1053280008BD034690F84120D2B2202A23D190F834
:105338004020012A21D0012280F84020242280F830
:1053480041200068026822F00102026018680268C1
:1053580022F48052026018680268114301601968DB
:105368000A6842F001020A60202283F841200020E6
:1053780083F84000704702207047022070470346B8
:1053880090F84120D2B2202A21D190F84020012A59
:105398001FD0012280F84020242280F84120006894
:1053A800026822F0010202601868026822F4706242
:1053B80042EA0122026019680A6842F001020A60A2
:1053C800202283F84120002083F840007047022003
:1053D8007047022070474FF48063C5F600031A68CF
:1053E80042F480721A60704710B50C46D0B94FF479
:1053F8008063C5F600035B6913F4007F0DD14FF499
:105408006D43CEF200031A6922F004021A61012CDE
:1054180013D040BF20BF20BF10BD00F021F80028E6
:10542800EDD0F9E74FF48063C5F600035B6913F428
:10543800007FE4D100F00BF8E1E730BFECE74FF470
:105448008063C5F60003186800F4C06070474FF425
:105458008063C5F600031A6842F480421A607047F8
:105468004FF48062C5F60002136823F4804313608A
:1054780040F20003C2F200031968322303FB01F172
:105488004DF68363C4F21B33A3FB01039B0C5269E3
:1054980012F4007F10D044F23F22C0F20F02914272
:1054A8000AD94FF48061C5F60001013B4A6912F43C
:1054B800007F01D0002BF8D14FF48063C5F60003BC
:1054C8005B6913F4007F0CBF0020032070474FF482
:1054D8008062C5F60002136823F0070343F0020355
:1054E80013604FF46D43CEF200031A6942F00402D0
:1054F8001A6101280BD040BF20BF20BF4FF46D4375
:10550800CEF200031A6922F004021A61704730BF14
:10551800F4E770B584B04FF0B043D3F8082144F2F3
:105528000071C0F60101C0F3031044F2A063C0F695
:10553800010302F00F0251F8204053F82230B4FB67
:10554800F3F4FFF77CFF054644F22863C0F6010335
:1055580093E8070004AB03E90700B5F5007F30D0F6
:105568004CF6BF73C0F26A039C4249D945F63F53D3
:10557800C0F2C6039C424AD946F23F63C0F2031305
:105588009C4298BF02233CD900264FF48042C5F6BE
:105598000002136823F0070333431360FCF760FE2F
:1055A80004464FF48045C5F600052B6803F0070351
:1055B8009E422ED0FCF754FE001B0228F5D903208A
:1055C80028E04EF6BF23C0F221139C420FD949F2BE
:1055D8003F33C0F234239C4210D94AF63F63C0F2ED
:1055E800EB239C4298BF022302D90026CDE7002373
:1055F80004AA02EB830353F80C6CC6E70123F7E710
:10560800002304AA02EB830353F80C6CBDE70123C3
:10561800F7E7002004B070BD4FF0B0429368D2683D
:1056280013F00C0318D00C2B0FD0042B53D0082BDD
:1056380057D14FF0B0431A6812F4801254D00022A8
:105648004FF41050C0F2F40033E002F00302012AD4
:1056580002D0002210462CE04FF0B042126812F03F
:10566800080210D04FF0B042126812F008022CD194
:105678004FF0B041D1F8941044F20071C0F6010126
:1056880051F8222011E04FF0B041096811F0080FDD
:1056980017D14FF0B042D2F89420C2F3032244F25B
:1056A8000071C0F6010151F82220002B0CBF1046F2
:1056B80000204FF0B0439B6803F00C030C2B18D06C
:1056C80070474FF0B0410968E9E74FF0B0421268FF
:1056D800C2F30312D0E700224FF41050C0F2F400D6
:1056E800E7E700221046E4E74FF49040C0F2E810E4
:1056F800DFE74FF0B043DB6803F00303022B23D04E
:10570800032B0ED14FF0B04319684FF49042C0F20A
:10571800E8124FF41053C0F2F40311F4801F18BFBD
:105728001A464FF0B043D868D968DB68C0F3062042
:1057380002FB00F0C1F302120132B0FBF2F05B0F82
:105748000133B0FBF3F0BBE74FF41052C0F2F402A0
:10575800E7E708B5FFF760FF4FF0B0439A6844F2F7
:10576800A063C0F60103C2F3031253F82230B0FB62
:10577800F3F008BD002800F017832DE9F041044636
:105788004FF0B0439D6805F00C05DE6806F003068F
:10579800036813F0200F2BD0002D67D00C2D63D099
:1057A800236A002B00F0C2804FF0B042136843F028
:1057B80001031360FCF754FD07464FF0B048D8F8D2
:1057C800003013F0020F00F0A9804FF0B0431A68C0
:1057D80042F008021A601A6822F0F002A16A0A432D
:1057E8001A605A68616A22F47F4242EA01225A60CA
:1057F800236813F0010F00F0B880082D00F0B18085
:105808000C2D00F0AB804FF0B042136823F48013E6
:10581800A1680B4313606368B3F5803F00F0C7804D
:10582800B3F5041F00F0C8804FF0B0431A6822F4A3
:1058380080321A601A6822F400121A606368002B1A
:1058480000F0C580FCF70CFD07464FF0B048D8F8CB
:10585800003013F4003F40F08880FCF701FDC01BC6
:105868006428F4D90320ACE2012E99D1236A002BD5
:1058780000F09C82A06A4FF0B0431B6813F0080F39
:105888004FF0B04312BF1B68D3F894301B0903F0E4
:10589800F003984228D9FFF73CFE002840F08882A0
:1058A8004FF0B0431A6842F008021A601A6822F0F2
:1058B800F002A16A0A431A605A68616A22F47F42B8
:1058C80042EA01225A60FFF744FF40F20003C2F2A5
:1058D8000003186040F20803C2F200031868FCF7DE
:1058E800BDFC002884D06CE24FF0B0431A6842F047
:1058F80008021A601A6822F0F002A16A0A431A60C4
:105908005A68616A22F47F4242EA01225A60A06A18
:10591800FFF7FFFD0028D6D0012052E2FCF7A0FCDB
:10592800C01B02287FF64BAF03204AE24FF0B0427B
:10593800136823F001031360FCF792FC07464FF04D
:10594800B048D8F8003013F0020F3FF451AFFCF71D
:1059580087FCC01B0228F4D9032032E2032E7FF40F
:1059680052AF6368002B00F02582236813F0020F02
:1059780057D0042D3ED00C2D3AD02369002B00F0CF
:105988008B804FF0B042136843F480731360FCF7C8
:1059980067FC06464FF0B0473B6813F4806F37D179
:1059A800FCF75EFC801B0228F6D9032009E2136885
:1059B80043F48033136041E74FF0B0431A6842F470
:1059C80000121A601A6842F480321A6036E7FCF74F
:1059D80047FC07464FF0B048D8F8003013F4003FB2
:1059E800C3D0FCF73DFCC01B6428F5D90320E8E1CF
:1059F800022EC2D12369002B00F0DE814FF0B042A5
:105A08005368616923F0FE4343EA0163536008E089
:105A18004FF0B0425368616923F0FE4343EA0163E3
:105A28005360236813F0080F7ED0A369002B62D05F
:105A38004FF0B043D3F8943003F01002E16991427B
:105A480011D003F00302022A00F0B88113F0010F0D
:105A580038D14FF0B042D2F8943023F01003E16906
:105A68000B43C2F894304FF0B042D2F8943043F070
:105A78000103C2F89430FCF7F3FB06464FF0B04739
:105A8800D7F8943013F0020F4ED1FCF7E9FB801BD6
:105A98001128F5D9032094E14FF0B042136823F49C
:105AA80080731360FCF7DCFB06464FF0B0473B6899
:105AB80013F4806FB5D0FCF7D3FB801B0228F6D90E
:105AC80003207EE14FF0B042D2F8943023F0010376
