:020000040800F2
:100000000000012085380008472700084D27000818
:1000100053270008592700085F2700080000000048
:10002000000000000000000000000000652700083C
:1000300071270008000000007D27000889270008BC
:10004000D5380008D538000895270008D5380008AD
:10005000D5380008D5380008D5380008D53800084C
:10006000D5380008D5380008D5380008A927000879
:10007000BD270008D5380008D5380008D538000855
:10008000D5380008D5380008D5380008D53800081C
:1000900000000000D5380008D5380008D538000821
:1000A000D5380008D5380008D5380008D5380008FC
:1000B000D5380008D5380008D5380008D5380008EC
:1000C000D1270008E5270008D5380008D5380008F2
:1000D000F92700080D280008D53800082128000855
:1000E000D5380008D538000835280008D53800086C
:1000F000D53800080000000000000000D5380008D6
:10010000D5380008D538000849280008D538000837
:10011000D5380008D5380008D5380008D53800088B
:10012000D5380008D5380008D5380008D53800087B
:08013000D53800085D28000825
:1001380010B5054C237833B9044B13B10448AFF319
:1001480000800123237010BD64010020000000001E
:10015800A0EC010808B5034B1BB103490348AFF3F2
:10016800008008BD0000000068010020A0EC010824
:10017800034613F8012B002AFBD1181A01387047DF
:1001880081F0004102E000BF83F0004330B54FEA40
:1001980041044FEA430594EA050F08BF90EA020FAD
:1001A8001FBF54EA000C55EA020C7FEA645C7FEA40
:1001B800655C00F0E2804FEA5454D4EB5555B8BF63
:1001C8006D420CDD2C4480EA020281EA030382EAD4
:1001D800000083EA010180EA020281EA0303362D66
:1001E80088BF30BD11F0004F4FEA01314FF4801C39
:1001F8004CEA113102D0404261EB410113F0004F4B
:100208004FEA03334CEA133302D0524263EB430301
:1002180094EA050F00F0A780A4F10104D5F1200E9F
:100228000DDB02FA0EFC22FA05F2801841F10001FA
:1002380003FA0EF2801843FA05F359410EE0A5F1CE
:1002480020050EF1200E012A03FA0EFC28BF4CF0FF
:10025800020C43FA05F3C01851EBE37101F00045B5
:1002680007D54FF0000EDCF1000C7EEB00006EEBC2
:100278000101B1F5801F1BD3B1F5001F0CD349084C
:100288005FEA30004FEA3C0C04F101044FEA4452A3
:1002980012F5800F80F09A80BCF1004F08BF5FEA2A
:1002A800500C50F1000041EB045141EA050130BD0A
:1002B8005FEA4C0C404141EB0101013C28BFB1F51C
:1002C800801FE9D291F0000F04BF01460020B1FA67
:1002D80081F308BF2033A3F10B03B3F120020CDA3A
:1002E8000C3208DD02F1140CC2F10C0201FA0CF018
:1002F80021FA02F10CE002F11402D8BFC2F1200C7D
:1003080001FA02F120FA0CFCDCBF41EA0C01904032
:10031800E41AA2BF01EB0451294330BD6FEA04047B
:100328001F3C1CDA0C340EDC04F11404C4F1200266
:1003380020FA04F001FA02F340EA030021FA04F378
:1003480045EA030130BDC4F10C04C4F1200220FACF
:1003580002F001FA04F340EA0300294630BD21FA0D
:1003680004F0294630BD94F0000F83F4801306BFD3
:1003780081F480110134013D4EE77FEA645C18BFC7
:100388007FEA655C29D094EA050F08BF90EA020F5E
:1003980005D054EA000C04BF1946104630BD91EA56
:1003A800030F1EBF0021002030BD5FEA545C05D159
:1003B8004000494128BF41F0004130BD14F5800498
:1003C8003CBF01F5801130BD01F0004545F0FE410C
:1003D80041F470014FF0000030BD7FEA645C1ABF41
:1003E800194610467FEA655C1CBF0B46024650EA78
:1003F800013406BF52EA033591EA030F41F40021A4
:1004080030BD00BF90F0000F04BF0021704730B529
:100418004FF4806404F132044FF000054FF00001FE
:1004280050E700BF90F0000F04BF0021704730B5BF
:100438004FF4806404F1320410F0004548BF404294
:100448004FF000013EE700BF42004FEAE2014FEAE9
:1004580031014FEA02701FBF12F07F4393F07F4FC4
:1004680081F06051704732F07F4208BF704793F0C7
:100478007F4F04BF41F40021704730B54FF46074DA
:1004880001F0004521F000411CE700BF50EA0102DD
:1004980008BF704730B54FF000050AE050EA010286
:1004A80008BF704730B511F0004502D5404261EBF6
:1004B80041014FF4806404F132045FEA915C3FF437
:1004C800D8AE4FF003025FEADC0C18BF03325FEAD4
:1004D800DC0C18BF033202EBDC02C2F1200300FA85
:1004E80003FC20FA02F001FA03FE40EA0E0021FAAA
:1004F80002F11444BDE600BF70B54FF0FF0C4CF498
:10050800E06C1CEA11541DBF1CEA135594EA0C0F49
:1005180095EA0C0F00F0DEF82C4481EA030621EA84
:100528004C5123EA4C5350EA013518BF52EA0335BF
:1005380041F4801143F4801338D0A0FB02CE4FF071
:100548000005E1FB02E506F00042E0FB03E54FF0A1
:100558000006E1FB03569CF0000F18BF4EF0010E99
:10056800A4F1FF04B6F5007F64F5407404D25FEA95
:100578004E0E6D4146EB060642EAC62141EA555148
:100588004FEAC52040EA5E504FEACE2EB4F1FD0C8A
:1005980088BFBCF5E06F1ED8BEF1004F08BF5FEA08
:1005A800500E50F1000041EB045170BD06F00046BA
:1005B80046EA010140EA020081EA0301B4EB5C0467
:1005C800C2BFD4EB0C0541EA045170BD41F480115F
:1005D8004FF0000E013C00F3AB8014F1360FDEBF84
:1005E800002001F0004170BDC4F10004203C35DA60
:1005F8000C341BDC04F11404C4F1200500FA05F3E3
:1006080020FA04F001FA05F240EA020001F0004283
:1006180021F0004110EBD37021FA04F642EB0601F9
:100628005EEA430E08BF20EAD37070BDC4F10C0423
:10063800C4F1200500FA04F320FA05F001FA04F2E7
:1006480040EA020001F0004110EBD37041F10001D3
:100658005EEA430E08BF20EAD37070BDC4F12005DE
:1006680000FA05F24EEA020E20FA04F301FA05F246
:1006780043EA020321FA04F001F0004121FA04F2EE
:1006880020EA020000EBD3705EEA430E08BF20EABE
:10069800D37070BD94F0000F0FD101F000464000F8
:1006A80041EB010111F4801F08BF013CF7D041EA7A
:1006B800060195F0000F18BF704703F0004652007E
:1006C80043EB030313F4801F08BF013DF7D043EA4F
:1006D8000603704794EA0C0F0CEA135518BF95EA05
:1006E8000C0F0CD050EA410618BF52EA4306D1D18C
:1006F80081EA030101F000414FF0000070BD50EAAB
:10070800410606BF1046194652EA430619D094EA34
:100718000C0F02D150EA013613D195EA0C0F05D11E
:1007280052EA03361CBF104619460AD181EA030172
:1007380001F0004141F0FE4141F470014FF000002A
:1007480070BD41F0FE4141F4780170BD70B54FF0C5
:10075800FF0C4CF4E06C1CEA11541DBF1CEA135545
:1007680094EA0C0F95EA0C0F00F0A7F8A4EB050427
:1007780081EA030E52EA03354FEA013100F088801E
:100788004FEA03334FF0805545EA131343EA1263E7
:100798004FEA022245EA111545EA10654FEA00269C
:1007A8000EF000419D4208BF964244F1FD0404F555
:1007B800407402D25B084FEA3202B61A65EB0305B1
:1007C8005B084FEA32024FF480104FF4002CB6EB6E
:1007D800020E75EB030E22BFB61A754640EA0C00EE
:1007E8005B084FEA3202B6EB020E75EB030E22BF2E
:1007F800B61A754640EA5C005B084FEA3202B6EB6F
:10080800020E75EB030E22BFB61A754640EA9C002D
:100818005B084FEA3202B6EB020E75EB030E22BFFD
:10082800B61A754640EADC0055EA060E18D04FEABB
:10083800051545EA16754FEA06164FEAC30343EA5B
:1008480052734FEAC2025FEA1C1CC0D111F4801F28
:100858000BD141EA00014FF000004FF0004CB6E721
:1008680011F4801F04BF01430020B4F1FD0C88BFC0
:10087800BCF5E06F3FF6AFAEB5EB030C04BFB6EBCB
:10088800020C5FEA500C50F1000041EB045170BDBE
:100898000EF0004E4EEA113114EB5C04C2BFD4EBEB
:1008A8000C0541EA045170BD41F480114FF0000E6F
:1008B800013C90E645EA060E8DE60CEA135594EAEB
:1008C8000C0F08BF95EA0C0F3FF43BAF94EA0C0FEE
:1008D8000AD150EA01347FF434AF95EA0C0F7FF463
:1008E80025AF104619462CE795EA0C0F06D152EAB7
:1008F80003353FF4FDAE1046194622E750EA41069B
:1009080018BF52EA43067FF4C5AE50EA41047FF4AB
:100918000DAF52EA43057FF4EBAE12E74FF0FF3C10
:1009280006E000BF4FF0010C02E000BF4FF0010CE1
:100938004DF804CD4FEA410C7FEA6C5C4FEA430C5A
:1009480018BF7FEA6C5C1BD001B050EA410C0CBFA9
:1009580052EA430C91EA030F02BF90EA020F00200B
:10096800704710F1000F91EA030F58BF994208BF72
:1009780090422CBFD8176FEAE37040F0010070472F
:100988004FEA410C7FEA6C5C02D150EA013C07D186
:100998004FEA430C7FEA6C5CD6D152EA033CD3D0D1
:1009A8005DF8040B704700BF8446104662468C46CB
:1009B8001946634600E000BF01B5FFF7B7FF0028FE
:1009C80048BF10F1000F01BD4DF808EDFFF7F4FF27
:1009D8000CBF012000205DF808FB00BF4DF808EDB2
:1009E800FFF7EAFF34BF012000205DF808FB00BFD5
:1009F8004DF808EDFFF7E0FF94BF012000205DF8F7
:100A080008FB00BF4DF808EDFFF7CEFF94BF0120AB
:100A180000205DF808FB00BF4DF808EDFFF7C4FFA4
:100A280034BF012000205DF808FB00BF4FEA4102F7
:100A380012F5001215D211D56FF47873B3EB625228
:100A480012D94FEAC12343F0004343EA505311F04F
:100A5800004F23FA02F018BF404270474FF00000E1
:100A6800704750EA013005D111F0004008BF6FF01F
:100A7800004070474FF00000704700BF4FEA410246
:100A8800B2F1E04324BFB3F5001CDCF1FE5C0DD9E4
:100A980001F0004C4FEAC0024CEA5070B2F1004F2E
:100AA80040EB830008BF20F00100704711F0804F31
:100AB80021D113F13872BCBF01F00040704741F4F6
:100AC80080114FEA5252C2F11802C2F1200C10FAFA
:100AD8000CF320FA02F018BF40F001004FEAC123DE
:100AE8004FEAD32303FA0CFC40EA0C0023FA02F382
:100AF8004FEA4303CCE77FEA625307D150EA013358
:100B08001EBF4FF0FE4040F44000704701F0004027
:100B180040F0FE4040F40000704700BF80F0004005
:100B280002E000BF81F0004142001FBF5FEA4103BD
:100B380092EA030F7FEA226C7FEA236C6AD04FEABD
:100B48001262D2EB1363C1BFD21841404840414002
:100B5800B8BF5B42192B88BF704710F0004F40F4B4
:100B6800000020F07F4018BF404211F0004F41F4D0
:100B7800000121F07F4118BF494292EA030F3FD09C
:100B8800A2F1010241FA03FC10EB0C00C3F12003AF
:100B980001FA03F100F0004302D5494260EB40003E
:100BA800B0F5000F13D3B0F1807F06D340084FEAA9
:100BB800310102F10102FE2A51D2B1F1004F40EB9E
:100BC800C25008BF20F0010040EA03007047490006
:100BD80040EB0000013A28BFB0F5000FEDD2B0FAA3
:100BE80080FCACF1080CB2EB0C0200FA0CF0AABFC6
:100BF80000EBC25052421843BCBFD0401843704764
:100C080092F0000F81F4000106BF80F40000013269
:100C1800013BB5E74FEA41037FEA226C18BF7FEA40
:100C2800236C21D092EA030F04D092F0000F08BF82
:100C38000846704790EA010F1CBF0020704712F069
:100C48007F4F04D1400028BF40F00040704712F1A8
:100C580000723CBF00F50000704700F0004343F00D
:100C6800FE4040F4000070477FEA226216BF084643
:100C78007FEA23630146420206BF5FEA412390EA06
:100C8800010F40F4800070474FF0000304E000BFFC
:100C980010F0004348BF40425FEA000C08BF7047AD
:100CA80043F0964301464FF000001CE050EA010271
:100CB80008BF70474FF000030AE000BF50EA010286
:100CC80008BF704711F0004302D5404261EB410173
:100CD8005FEA010C02BF84460146002043F0B64398
:100CE80008BFA3F18053A3F50003BCFA8CF2083ABD
:100CF800A3EBC25310DB01FA02FC634400FA02FCC6
:100D0800C2F12002BCF1004F20FA02F243EB0200CC
:100D180008BF20F00100704702F1200201FA02FC2E
:100D2800C2F1200250EA4C0021FA02F243EB020021
:100D380008BF20EADC7070474FEA4002B2F1FE4F6C
:100D48000FD34FF09E03B3EB12620DD94FEA002385
:100D580043F0004310F0004F23FA02F018BF40425E
:100D680070474FF00000704712F1610F01D1420245
:100D780005D110F0004008BF6FF0004070474FF0F9
:100D88000000704753B94AB9002908BF00281CBFA2
:100D98004FF0FF314FF0FF3000F070B9ADF1080CA3
:100DA8006DE904CE00F006F8DDF804E0DDE9022381
:100DB80004B070472DE9F047089E0D4604460F46DB
:100DC800002B4AD18A42944665D9B2FA82F343B1DC
:100DD80002FA03FCC3F120029F4020FA02F21743F3
:100DE8009C404FEA1C4E1FFA8CF5B7FBFEF1220C13
:100DF8000EFB117742EA074201FB05F090420AD93F
:100E08001CEB020201F1FF3780F01B81904240F297
:100E1800188102396244121AA4B2B2FBFEF00EFB2A
:100E2800102244EA024400FB05F5A5420AD91CEB4E
:100E3800040400F1FF3280F00681A54240F20381EC
:100E48006444023840EA0140641B00211EB1DC40C2
:100E58000023C6E90043BDE8F0878B4208D9002E7D
:100E680000F0EC800021C6E900050846BDE8F087DF
:100E7800B3FA83F1002949D1AB4202D3824200F28E
:100E8800F780841A65EB030201201746002EE2D092
:100E9800C6E90047DFE702B9FFDEB2FA82F3002BAA
:100EA80040F08F808A1A4FEA1C471FFA8CFE0121F6
:100EB800B2FBF7F507FB1520220C42EA00420EFBB5
:100EC80005F0904208D91CEB020205F1FF3802D266
:100ED800904200F2CA804546121AA4B2B2FBF7F05B
:100EE80007FB102244EA02440EFB00FEA64508D97F
:100EF8001CEB040400F1FF3202D2A64500F2BA80CE
:100F08001046A4EB0E0440EA05409FE7C1F1200714
:100F18008B4022FA07FC4CEA030C05FA01F420FA8C
:100F280007F3FD40234300FA01F94FEA1C401FFA7A
:100F38008CFEB5FBF0F81C0C00FB185544EA054480
:100F480008FB0EF5A54202FA01F20BD91CEB0404CA
:100F580008F1FF3A80F08780A54240F28480A8F12A
:100F680002086444641B9DB2B4FBF0F300FB134415
:100F780045EA044403FB0EFEA64508D91CEB04040D
:100F880003F1FF306BD2A64569D9023B644443EABA
:100F98000840A0FB0283A4EB0E049C42C6461D46F3
:100FA80055D352D056B1B9EB0E0364EB050404FADD
:100FB80007F7CB40CC401F43C6E900740021BDE8C9
:100FC800F087C3F1200102FA03FC20FA01F225FAA6
:100FD80001F19D402A434FEA1C471FFA8CFEB1FBE2
:100FE800F7F007FB1015110C41EA054100FB0EF55F
:100FF8008D4204FA03F408D91CEB010100F1FF3813
:101008002FD28D422DD902386144491B92B2B1FBCF
:10101800F7F507FB151142EA014205FB0EF1914273
:1010280008D91CEB020205F1FF3816D2914214D9F7
:10103800023D6244521A45EA004139E731463046DA
:1010480009E73946E7E61046FCE6C145AAD2B8EBFF
:10105800020E63EB0C050138A4E74546EAE70346B0
:1010680095E74046D1E7D0467CE7023D624433E746
:1010780008460BE76444023843E700BF704700BFE7
:1010880080B485B000AF78600B46FB700023FB731B
:101098000123BB7309E0BB7B7A6813441A78FB7B96
:1010A8001344FB73BB7B0133BB73FB785A1EBB7BBA
:1010B8009A42F0DCFB7B5B427B737B7B18461437E0
:1010C800BD4680BC704790B583B000AF78607B6840
:1010D80008331C7809217868FFF7D2FF03469C4241
:1010E8000CD17B6804331B789BB21B029AB27B68D5
:1010F80005331B789BB213449BB200E000231846CB
:101108000C37BD4690BD80B485B000AF78604FF015
:10111800B043DA6C4FF0B0417B681343CB644FF0B7
:10112800B043DA6C7B681340FB60FB6800BF143780
:10113800BD4680BC704780B485B000AF78604FF082
:10114800B0431A6E4FF0B0417B6813430B664FF003
:10115800B0431A6E7B681340FB60FB6800BF14370E
:10116800BD4680BC704780B483B000AF78604FF054
:10117800B0431A6E7B68DB434FF0B04113400B66F7
:1011880000BF0C37BD4680BC7047000080B584B0F6
:1011980000AF3B1D00221A605A609A602C4B2D4A02
:1011A8001A602B4B4FF000425A60294B00229A607C
:1011B800274B0022DA60264B00221A61244B0422B6
:1011C8005A61234B00221A76214B00225A76204B73
:1011D80001229A761E4B0122DA611D4B002283F808
:1011E80020201B4B00225A62194B00229A62184B8E
:1011F800002283F82C20164B4FF480521A63144BAC
:1012080007225A63124B07229A63114B002283F874
:101218003C200F4B0022DA640D4802F017FE03460B
:10122800002B01D000F0D4FF0B4B7B600023BB6088
:101238000023FB603B1D1946054803F043F90346AC
:10124800002B01D000F0C4FF00BF1037BD4680BDA1
:1012580080010020002401400800000C80B588B0FF
:1012680000AF786007F10C0300221A605A609A6098
:10127800DA601A617B681B680C4A934212D14FF4FA
:101288000070FFF758FF0220FFF73DFF1023FB60B7
:1012980003233B6100237B6107F10C0319460448D3
:1012A80004F072FC00BF2037BD4680BD0024014019
:1012B8000004004880B582B000AF78607B681B6886
:1012C800074A934207D14FF40070FFF74CFF1021F3
:1012D800044804F0B9FD00BF0837BD4680BD00BF13
:1012E800002401400004004880B400AF034B044AC6
:1012F8001A6000BFBD4680BC704700BF8001002057
:101308000024014080B500AF034800F007F8034609
:101318009BB2184680BD00BF0800000C80B586B09F
:1013280000AF786000237B6107F1080300221A6090
:101338005A609A60FFF72AFF1A4803F0A6FB034693
:10134800002B01D000F044FF7B68BB600023FB60EA
:1013580000233B6107F108031946124803F0B2F86D
:101368000346002B01D000F033FF0E4802F08EFF39
:101378000346002B01D000F02BFF4FF0FF31094846
:1013880002F0FCFF074802F0C7FF064803F08DF89B
:101398007861044802F0EEFE7B6918461837BD46AE
:1013A80080BD00BF8001002080B485B000AF7860A8
:1013B8004FF0B0439A6C4FF0B0417B6813438B6495
:1013C8004FF0B0439A6C7B681340FB60FB6800BF2A
:1013D8001437BD4680BC704780B500AF0420FFF7C6
:1013E800E3FF0120FFF7E0FF002202210B2003F0BA
:1013F800F2FC0B2003F009FD002200210C2003F071
:10140800EAFC0C2003F001FD002200213D2003F03E
:10141800E2FC3D2003F0F9FC00BF80BD80B586B03A
:1014280000AFF860B9607A60FF23FB75FB68B3F121
:10143800006F11D30B4B1B689A020B4B134003F13F
:101448000063013BFA68934206D37A68B968F86882
:1014580000F05AF80346FB7597F917301846183705
:10146800BD4680BDE075FF1F00FCFF0380B586B058
:1014780000AFF860B9607A60FF23FB75BB68B3F111
:10148800006F11D30B4B1B689A020B4B134003F1EF
:101498000063013BBA68934206D37A68B968F86872
:1014A80000F03AF90346FB7597F9173018461837D4
:1014B800BD4680BDE075FF1F00FCFF0380B584B00A
:1014C80000AF78603960FF23FB737B68B3F1006F6E
:1014D80010D30B4B1B689A020A4B134003F10063AD
:1014E800013B7A68934205D33968786800F032F98D
:1014F8000346FB7397F90F3018461037BD4680BD79
:10150800E075FF1F00FCFF0380B590B000AFF860E6
:10151800B9607A60002387F83F30FB68BB63BB681B
:101528007B637B683B63FB68002B0CD0BB68002B9C
:1015380009D07B6803F00703002B04D1FB6803F094
:101548000703002B02D06FF00503DAE000F092F9F0
:10155800034687F83F3097F93F30002B40F0CF80A3
:1015680004F03CF90346002B40F0C680BB6B03F146
:101578007842664B1B689902654B0B40B2FBF3F14E
:1015880001FB03F3D31ADB0ABB61BA6B7B68134414
:1015980003F17843013B5D4A126891025C4A0A40B4
:1015A800B3FBF2F101FB02F29B1ADA0ABB69D31A08
:1015B80001337B617B69012B05D9BB6BC3F30A033C
:1015C800C3F500633B63BB69FB6289E0FB6A03F513
:1015D8008033DB023B61396BF86800F025F903467C
:1015E800002B31D04B4B1B68002B03D1FA2387F813
:1015F8003F307EE0474B1B6839694FF4006218465C
:1016080000F08AF8434B1A68BB6BC3F30A03134410
:10161800796B3A6B92B218461BF068FF3B694FF43E
:101628000061184600F096F80346002B03D0FE230D
:1016380087F83F305DE03B697B62364B1B683B6255
:101648004FF40063FB6105E0BB6B7B627B6B3B6225
:101658003B6BFB610023BB6226E03A6ABB6A13441A
:10166800D3E90023796A012004F074F80346002BBB
:1016780013D17B6AD3E900013A6ABB6A1344D3E900
:101688000023994208BF904203D0FC2387F83F30DB
:101698000EE07B6A08337B6203E0FC2387F83F3067
:1016A80006E0BB6A0833BB62BA6AFB699A42D4D3C4
:1016B80097F93F30002B1BD1BA6B3B6B1344BB63CC
:1016C8007A6B3B6B13447B637A683B6BD31AB3F535
:1016D800006F28BF4FF400633B63FB6A0133FB6272
:1016E800BA697B691344FA6A9A42FFF46FAF00E063
:1016F80000BF04F095F802E0FB2387F83F3097F924
:101708003F3018464037BD4680BD00BFE075FF1F1B
:1017180000FCFF03E401002080B586B000AFF8604C
:10172800B9607A600023FB75FB68002B02D0BB68A8
:10173800002B02D16FF0050308E07B689BB21A46C4
:10174800B968F8681BF0D2FE97F9173018461837B1
:10175800BD4680BD80B588B000AF78603960002391
:10176800FB770123BB7700237B617B68BB617B68C8
:10177800002B02D16FF005034EE000F07BF8034622
:10178800FB7797F91F30002B44D104F027F8034664
:10179800002B3DD10223BB60BB6903F17842204B8B
:1017A8001B6899021F4B0B40B2FBF3F101FB03F3DB
:1017B800D31ADB0AFB60BA693B68134403F1784328
:1017C800013B174A12689102164A0A40B3FBF2F12C
:1017D80001FB02F29B1ADA0AFB68D31A01333B6158
:1017E80007F1140207F108031146184604F0F8F847
:1017F8000346BB77BB7F002B07D0BB7F022B01D1F1
:10180800012301E06FF00103FB7704F009F801E020
:10181800FB23FB7797F91F3018462037BD4680BD5C
:10182800E075FF1F00FCFF0380B485B000AF78604F
:1018380039600023FB600023BB6011E07B68D3E9BB
:101848000023B3F1FF3F08BFB2F1FF3F02D00123ED
:10185800FB6009E07B6808337B60BB680833BB60CA
:10186800BA683B689A42E9D3FB6818461437BD4604
:1018780080BC704780B582B000AFFB23FB7103F0DA
:10188800ADFF0346002B10D10B4B9B690A4A43F06E
:1018980040439361084B4CF2FA321A6103F0C0FFDF
:1018A8000346002B01D10023FB7197F90730184636
:1018B8000837BD4680BD00BF0040005880B485B0E1
:1018C80000AF78604FF0B043DA6C4FF0B0417B68FE
:1018D8001343CB644FF0B043DA6C7B681340FB6072
:1018E800FB6800BF1437BD4680BC704780B586B022
:1018F80000AF3B1D00221A605A609A60DA601A61D4
:101908000120FFF7DBFF0220FFF7D8FF0420FFF7D5
:10191800D5FF00224FF4C161254804F063FB012282
:101928002021234804F05EFB002240F231214FF0D1
:10193800904004F057FB28237B600123BB60002301
:10194800FB6003233B613B1D1946194804F01CF951
:101958004FF4C0637B600123BB600023FB6000235E
:101968003B613B1D1946124804F00EF931237B6098
:101978000123BB600023FB6003233B613B1D194629
:101988004FF0904004F000F94FF400737B6001239E
:10199800BB600023FB6000233B613B1D19464FF0F1
:1019A800904004F0F1F800BF1837BD4680BD00BF75
:1019B8000004004880B485B000AF78604FF0B043B1
:1019C800DA6C4FF0B0417B681343CB644FF0B043FF
:1019D800DA6C7B681340FB60FB6800BF1437BD46B8
:1019E80080BC704780B485B000AF78604FF0B043DA
:1019F8009A6D4FF0B0417B6813438B654FF0B0434D
:101A08009A6D7B681340FB60FB6800BF1437BD46C6
:101A180080BC704780B500AF1B4B1C4A1A601A4B3C
:101A28001B4A5A60184B00229A60174B0122DA6051
:101A3800154B00221A61144B00225A61124B0022E6
:101A48009A61114B0022DA610F4B00221A620E488C
:101A580004F0DFFA0346002B01D000F0B9FB0021A7
:101A6800094805F07AFE0346002B01D000F0B0FBD0
:101A78000021054805F0BBFE0346002B01D000F00D
:101A8800A7FB00BF80BD00BFE80100200058004050
:101A9800BB7C700080B596B000AF786007F1440356
:101AA80000221A605A609A60DA601A6107F10C0322
:101AB8003822002118461CF0DDFF7B681B68294A84
:101AC80093424BD18023FB604FF440237B6207F1A4
:101AD8000C03184607F098FD0346002B01D000F0D0
:101AE80077FB0120FFF766FF0220FFF763FF4FF443
:101AF80000437B641223BB640123FB6401233B6521
:101B080004237B6507F1440319464FF0904004F025
:101B18003BF84FF400437B641223BB640123FB644E
:101B280001233B6504237B6507F1440319460E48EE
:101B380004F02AF84FF48000FFF754FF0022002138
:101B4800202003F048F9202003F05FF9002200214B
:101B5800212003F040F9212003F057F900BF58373E
:101B6800BD4680BD005800400004004880B485B0E0
:101B780000AF78604FF0B0439A6D4FF0B0417B688A
:101B880013438B654FF0B0439A6D7B681340FB603D
:101B9800FB6800BF1437BD4680BC704780B500AFF6
:101BA800134B144A1A60124B00225A60104B4FF420
:101BB80060629A600E4B4FF6FF725A610C4B00221E
:101BC8001A620B4B00225A62094B00229A62084B98
:101BD8000022DA62064B00221A63054805F0C4FEAB
:101BE8000346002B01D000F0F3FA00BF80BD00BF10
:101BF8003C020020007C004080B590B000AF7860C7
:101C080007F108033822002118461CF033FF7B68CF
:101C18001B68114A93421BD14FF40073BB604FF00D
:101C28000C13BB6207F10803184607F0EDFC0346E6
:101C3800002B01D000F0CCFA4FF00040FFF796FFE0
:101C480000220021272003F0C6F8272003F0DDF842
:101C580000BF4037BD4680BD007C004080B483B0E3
:101C680000AF78604FF0B043D3F8903023F01802FB
:101C78004FF0B0417B681343C1F8903000BF0C3778
:101C8800BD4680BC7047000080B500AF01F0F0FE93
:101C980000F02AF8FFF72AFE0BF05CFA01F042FB8D
:101CA800FFF7B8FE00F070FCFFF778FF00F09CFA31
:101CB80000F012FB00224FF400714FF0904004F046
:101CC80091F900224FF48071064805F015FF0BF0DA
:101CD80049FA00F0CDFA0346984700F041FB034665
:101CE8009847F4E73C02002080B59AB000AF07F1AE
:101CF80020034822002118461CF0BCFE07F1080307
:101D080000221A605A609A60DA601A615A6106F015
:101D18000BFA0020FFF7A2FF214B1B6823F4C063D6
:101D28001F4A43F4007313601D4B1B6803F4C06320
:101D38007B607B6807233B624FF404137B6281233B
:101D4800FB624FF480733B6340237B630023BB62D9
:101D58000023FB6407F12003184606F031FD034613
:101D6800002B01D000F034FA4F23BB600223FB6044
:101D780000233B6100237B610023BB610023FB61DF
:101D880007F108030121184607F09CF80346002BC9
:101D980001D000F01DFA00BF6837BD4680BD00BF06
:101DA8000004005880B500AF01224FF400714FF0D5
:101DB800904004F017F900BF80BD80B500AF002245
:101DC8004FF400714FF0904004F00CF900BF80BD53
:101DD80080B584B004AF33239BB25B0099B24FF453
:101DE8007A7302930C2301932F4B00930123002253
:101DF8002E4804F087FB33239BB25B0099B24FF463
:101E08007A73029301230193294B0093012326221D
:101E1800264804F077FB264B1B78002B41D1224B38
:101E28001B78DBB21A46204B5B78DBB21B021A44E4
:101E38001D4B9B78DBB21B041A441B4BDB78DBB2CF
:101E48001B0613441A461B4B1A60174B1B79DBB24F
:101E58001A46154B5B79DBB21B021A44124B9B796D
:101E6800DBB21B041A44104BDB79DBB21B061344AC
:101E78001A46114B1A600C4B1B7ADBB21A460A4BF6
:101E88005B7ADBB21B021A44074B9B7ADBB21B045A
:101E98001A44054BDB7ADBB21B0613441A46074B80
:101EA8001A6000BFBD4680BDB0020020E8010020D6
:101EB800A002002088020020840200208C0200205A
:101EC80080B584B002AF09220B490C4808F042FEE5
:101ED800BB1D4FF47A7200920922074907480AF09D
:101EE800C8FF0548FFF7EFF803461A46044B1A8067
:101EF80000BF0837BD4680BD78020020900400204E
:101F0800900200200000000080B582B002AF442398
:101F18009BB25B0099B2642300930623444A454868
:101F280004F0FAF9424B1B78DBB29BB21B029AB25F
:101F38003F4B5B78DBB29BB213449AB23E4B1A809C
:101F48003B4BDB78DBB29BB21B029AB2384B1B7956
:101F5800DBB29BB213449AB2384B1A80364B1B88BB
:101F68001846FEF791FE03461846FEF76DFA2CA3B5
:101F7800D3E90023FEF7C0FA02460B46104619467D
:101F880029A3D3E90023FEF7E1FB02460B461046DE
:101F980019464FF000022A4BFEF7F6F802460B46A8
:101FA80010461946FEF76AFD0346264A1360234B7E
:101FB8001B881846FEF768FE03461846FEF744FAE3
:101FC8004FF00002204BFEF797FA02460B461046E8
:101FD800194615A3D3E90023FEF7B8FB02460B46C2
:101FE800104619464FF00002184BFEF7CDF802468E
:101FF8000B4610461946FEF741FD0346144A136086
:1020080044239BB25B0099B2642300930123114AD5
:10201800084804F08DF800BFBD4680BDAFF30080CE
:102028000000000000E0654000000000E0FFEF4015
:10203800A4020020E8010020AA020020AC0200202F
:10204800008046409402002000405F400000184095
:10205800980200201BF5010880B582B000AF7860B7
:102068007B68504A934240F099804F4B1B68B3F508
:10207800167F57DA40F2532293420BDA40F22F22AE
:10208800934235D0B3F50C7F4CDA0A2B14D0282BA9
:102098001AD047E0A3F25323042B43D801A252F8E5
:1020A80023F000BF012100080921000817210008BA
:1020B8002D2100081F2100083C4B1B78002B2ED037
:1020C8003B4800F019F92AE0384B1B78002B28D040
:1020D800384800F011F9384800F096F8374800F011
:1020E80093F8374800F008F9304B00221A7018E0CE
:1020F8002F4800F001F915E02E4800F0FDF811E036
:102108002C4800F0F9F82D4800F07EF80AE02A483B
:1021180000F07AF806E02A4800F0EEF802E000BF86
:1021280000E000BF204B1B6801331F4A13601E4BA1
:102138001968244B83FB01239A10CB17D21A134634
:102148009B0013445B00CA1A082A04D100222021EC
:102158001D4803F047FF144B19681A4B83FB0123F2
:102168009A10CB17D21A13469B0013445B00CA1A65
:10217800092A04D101222021134803F033FF0A4B16
:102188001A68124B83FB02139911D317CB1A4FF419
:10219800167101FB03F3D31A034A136000BF083713
:1021A800BD4680BD3C0200209C02002000000020AB
:1021B800AD1D0008111F0008D91D0008C91E000820
:1021C800C31D00086766666600040048B5814E1B9B
:1021D80080B400AF72B600BFFEE780B400AF00BFA6
:1021E800BD4680BC7047000080B400AF044B00229D
:1021F8001A60044B00221A6000BFBD4680BC7047BD
:10220800BC020020C002002080B483B000AF786018
:10221800144B1B6801335A4203F00F0302F00F02FC
:1022280058BF5342104A1268934201D1012314E067
:102238000C4B1B685A1C0B490A600C497A6841F818
:102248002320084B1B685A4203F00F0302F00F02C9
:1022580058BF5342034A1360002318460C37BD4643
:1022680080BC7047BC020020C0020020C4020020CD
:1022780080B483B000AF114B1A68114B1B689A42A7
:1022880001D1104B14E00E4B1B685A1C0C490A6014
:102298000D4A52F823307B60094B1B685A4203F001
:1022A8000F0302F00F0258BF5342054A13607B68C0
:1022B80018460C37BD4680BC704700BFBC020020E2
:1022C800C0020020E3210008C402002080B400AF4F
:1022D80000BFBD4680BC704780B400AF044B0022ED
:1022E8001A60044B00221A6000BFBD4680BC7047CC
:1022F800040300200803002080B483B000AF786096
:10230800144B1B6801335A4203F00F0302F00F020B
:1023180058BF5342104A1268934201D1012314E076
:102328000C4B1B685A1C0B490A600C497A6841F827
:102338002320084B1B685A4203F00F0302F00F02D8
:1023480058BF5342034A1360002318460C37BD4652
:1023580080BC704704030020080300200C03002001
:1023680080B483B000AF114B1A68114B1B689A42B6
:1023780001D1104B14E00E4B1B685A1C0C490A6023
:102388000D4A52F823307B60094B1B685A4203F010
:102398000F0302F00F0258BF5342054A13607B68CF
:1023A80018460C37BD4680BC704700BF04030020A8
:1023B80008030020D52200080C03002080B400AFD9
:1023C8004FF0B043D3F890304FF0B04243F400439D
:1023D800C2F8903000BFBD4680BC704780B485B05D
:1023E80000AF78604FF0B0439A6D4FF0B0417B6812
:1023F80013438B654FF0B0439A6D7B681340FB60C5
:10240800FB6800BF1437BD4680BC704780B58CB0F0
:1024180000AF3B1D2C22002118461CF02BFB224B41
:10242800224A1A60204B1F229A601F4B00221A6111
:102438001D4B00225A611C4B00229A611A4B4FF027
:102448008042DA61184B00221A62174B4FF48072EF
:102458005A62154807F0F2F90346002B01D0FFF73E
:10246800B7FE114807F0E8FC0346002B01D0FFF740
:10247800AFFE00233B620023BB600023BB614FF02B
:102488000053FB614FF48073FB623B1D0022194629
:10249800054807F055FA0346002B01D0FFF798FED0
:1024A80000BF3037BD4680BD4C03002000280040E7
:1024B80080B590B000AF786007F10803382200219A
:1024C80018461CF0D7FA7B681B68164A934225D138
:1024D8004FF48033BB604FF48073FB6307F108034C
:1024E800184607F091F80346002B01D0FFF770FE5D
:1024F800FFF764FF4FF48060FFF770FF00220021B0
:10250800022002F068FC022002F07FFC0022002179
:102518002A2002F060FC2A2002F077FC00BF403736
:10252800BD4680BD0028004080B485B000AF78600B
:102538004FF0B043DA6C4FF0B0417B681343CB6483
:102548004FF0B043DA6C7B681340FB60FB6800BF58
:102558001437BD4680BC704780B485B000AF786042
:102568004FF0B0439A6D4FF0B0417B6813438B65D1
:102578004FF0B0439A6D7B681340FB60FB6800BF67
:102588001437BD4680BC704780B500AF1B4B1C4A52
:102598001A601A4B4FF482725A60184B00229A60E4
:1025A800164B4FF4E062DA60144B00221A61134BA9
:1025B80000225A61114B4FF400729A610F4B182296
:1025C800DA610E4B00221A620C4B00225A620B4B46
:1025D80000229A62094B0722DA62084B00221A632A
:1025E800064B08225A63054807F0B4FC0346002B43
:1025F80001D0FFF7EDFD00BF80BD00BF84030020C0
:102608000038004080B596B000AF786007F1440309
:1026180000221A605A609A60DA601A6107F10C03A6
:102628003822002118461CF025FA7B681B68214ACD
:1026380093423BD11023FB604FF40073BB6107F159
:102648000C03184606F0E0FF0346002B01D0FFF705
:10265800BFFD4FF48040FFF77FFF0220FFF764FFC4
:102668000120FFF761FF4FF4C0437B640223BB6482
:102678000023FB6400233B6505237B6507F14403C6
:1026880019460D4803F080FA4FF480637B640223F7
:10269800BB640023FB6400233B6505237B6507F1CE
:1026A800440319464FF0904003F06EFA00BF5837C4
:1026B800BD4680BD003800400004004880B400AF2B
:1026C800034B0122C3F8882000BFBD4680BC704779
:1026D8000004005880B400AF00BFBD4680BC7047FE
:1026E80080B400AF00BFBD4680BC704780B500AF66
:1026F80001F0DEF9FFF7E2FF012005F0A7FD00BFBA
:1027080080BD80B500AF01F0E1F901F055F800BFD8
:1027180080BD80B500AF01F0CBF90121002005F0A4
:1027280011FD00BF80BD80B500AF01F0CFF900BF3B
:1027380080BD80B400AF00BFBD4680BC704780B488
:1027480000AFFEE780B400AFFEE780B400AFFEE75D
:1027580080B400AFFEE780B400AFFEE780B400AFFE
:1027680000BFBD4680BC704780B400AF00BFBD4607
:1027780080BC704780B400AF00BFBD4680BC7047C6
:1027880080B400AF00BFBD4680BC704780B500AFC5
:10279800024807F08DFB00BF80BD00BF4C0300203E
:1027A80080B500AF024802F0C7FD00BF80BD00BF82
:1027B8002405002080B500AF024802F0BDFD00BF2F
:1027C80080BD00BF8405002080B500AF024803F03B
:1027D800B3FF00BF80BD00BFE801002080B500AF97
:1027E800024803F0C3FF00BF80BD00BFE80100201E
:1027F80080B500AF024808F079FA00BF80BD00BF7D
:10280800FC03002080B500AF024808F06FFA00BF53
:1028180080BD00BF9004002080B500AF024805F0DD
:10282800FDF900BF80BD00BF3C02002080B500AFAD
:10283800024807F0EDF900BF80BD00BF4C0300203F
:1028480080B500AF024807F075FF00BF80BD00BF2C
:10285800E803002080B500AF024802F029FF00BF5E
:1028680080BD00BF8405002080B485B000AF7860CB
:102878004FF0B0435A6E4FF0B0417B6813434B663C
:102888004FF0B0435A6E7B681340FB60FB6800BF93
:102898001437BD4680BC704780B500AF064B082290
:1028A8001A60054807F0C4FC0346002B01D0FFF767
:1028B8008FFC00BF80BD00BFE803002080B582B058
:1028C80000AF78600120FFF7CFFF002200213220FF
:1028D80002F081FA322002F098FA00BF0837BD46AC
:1028E80080BD80B483B000AF78604FF0B0439B6880
:1028F80023F400424FF0B0417B6813438B6000BF64
:102908000C37BD4680BC704780B400AF024B1B68D3
:102918001846BD4680BC70478075FF1F80B400AF65
:10292800034B1B68DBB21846BD4680BC704700BF2E
:102938008475FF1F80B400AF034B1B681B0A184641
:10294800BD4680BC704700BF8475FF1F80B500AFCF
:102958000020FFF7C6FF1BF057FB0E4B01221A7031
:1029680000F088F91BF0E0FD0B481BF08BFE0B4BC9
:102978004FF400421A6102201BF092FEFEF7B4FCED
:1029880000F0B0F91AF00CFD012101201AF048FD01
:1029980000BF80BDF4030020752B000800400058DC
:1029A80080B500AF1AF06CFD00BF80BD80B582B065
:1029B80000AF0023FB71FEF7A5FC0346BB80BB8874
:1029C80040F6B832934202D9FE23FB7114E0BB886B
:1029D800B3F5E16F02D20023FB710DE0BB88A3F5CC
:1029E800E1631A461346DB019B1A5B001A46054B46
:1029F800A3FB0223DB09FB71FB7918460837BD46A8
:102A080080BD00BFB5814E1B80B588B000AF0023E4
:102A1800FB833B1D184600F03BF9BB681846FEF7E0
:102A28008BF90346FB83B7F91E3018462037BD469D
:102A380080BD90B587B000AF786000237B61FFF759
:102A480063FF78617B69B3F1FF3F38D101F04CF83F
:102A5800044601F05DF8034623443B6101F04EF85B
:102A6800F8603B691A0E7B680733D2B21A703B696B
:102A78001A0C7B680633D2B21A703B691A0A7B6853
:102A88000533D2B21A707B6804333A69D2B21A702D
:102A9800FB681A0E7B680333D2B21A70FB681A0CF3
:102AA8007B680233D2B21A70FB681A0A7B6801335A
:102AB800D2B21A70FB68DAB27B681A7031E07B68B0
:102AC80007337A69D2B21A707B691A0A7B680633AF
:102AD800D2B21A707B691A0C7B680533D2B21A70AD
:102AE8007B691A0E7B680433D2B21A70FFF716FF9F
:102AF80078617B6803337A69D2B21A70FFF71AFFDC
:102B080078617B6802337A69D2B21A707B691A0AD3
:102B18007B680133D2B21A707B691B0CDAB27B680E
:102B28001A7000BF1C37BD4690BD90B583B000AF8A
:102B38007860FFF7E9FE02467B681A607B681B68CD
:102B4800B3F1FF3F0DD100F0CFFF044600F0D6FFF0
:102B580003465C4000F0DCFF034684EA03027B681E
:102B68001A6000BF0C37BD4690BD000080B586B026
:102B780002AF7860396007F1080318461AF090FD33
:102B8800BB68B7F90C200092074A1021786800F05A
:102B98001DF87868FDF7ECFA03469AB23B681A808C
:102BA80000BF1037BD4680BDB8EC010880B500AF46
:102BB800012102201AF004FC00BF80BD80B500AFDF
:102BC800002102201AF0FCFB00BF80BD0CB480B5C8
:102BD80084B000AF7860396007F11C03FB60396886
:102BE800FB68BA6978681AF02DFF00BF1037BD4638
:102BF800BDE8804002B0704780B483B000AF786011
:102C0800002318460C37BD4680BC704780B582B09B
:102C180000AF00237B60064B1B78002B02D000F02E
:102C28002DF978607B6818460837BD4680BD00BF1F
:102C3800F403002080B582B000AF78607B68184646
:102C480000F0A3F900BF0837BD4680BD80B483B04B
:102C580000AF7860064BD3F8902005497B68134392
:102C6800C1F8903000BF0C37BD4680BC704700BF2C
:102C78000008005880B500AF4FF48040FFF7E6FF2A
:102C880000F050FF00F054FF00F058FF00BF80BD77
:102C980080B487B000AF78600D4B7B610D4B3B6112
:102CA8000D4BFB607B687A699A607B683A695A6069
:102CB8007B68FA681A607B68084ADA607B68084AA9
:102CC8001A61002318461C37BD4680BC704700BFF8
:102CD800000048420000904100007A440D093E007F
:102CE800AB03050080B483B000AF00237B600023F2
:102CF80018460C37BD4680BC704780B400AF00BF93
:102D0800BD4680BC704780B483B000AF78607B68F4
:102D18009B6818460C37BD4680BC704780B582B0AA
:102D280000AF0023FB71144B1B7883F00103DBB267
:102D3800002B1BD0114B4FF0FF321A63FFF766FBD5
:102D480000F056F84FF480710C4806F005FF0B4B65
:102D58004FF0FF321A63094807F03CF8002000F0F2
:102D6800D3F900F05FF8044B01221A70FB7918467A
:102D78000837BD4680BD00BFF50300204C03002086
:102D880080B58EB000AF7860002387F8373007F140
:102D980008032C22002118461BF06CFE00F028F8CE
:102DA800114B1B687A6813447B6000237B627B6845
:102DB800DB43FB600023FB614FF000533B624FF4A1
:102DC80080733B6307F1080301221946074806F0A0
:102DD800B7FD0346002B01D0FFF7FAF997F8373013
:102DE80018463837BD4680BDF80300204C03002044
:102DF80080B582B000AF0023FB71084B0122DA6571
:102E08004FF48071064806F0A7FE054B4FF0FF32DD
:102E18001A63FB7918460837BD4680BD0028004074
:102E28004C03002080B500AF00F08EF90346034A3A
:102E38001360024B1B68184680BD00BFF8030020D2
:102E480080B400AF024B1B681846BD4680BC704773
:102E5800F803002080B582B000AF00237B6000F04B
:102E680073F90246044B1B68D31A7B607B681846CB
:102E78000837BD4680BD00BFF803002080B582B08A
:102E880000AF00237B60064B1B78002B02D000F0BC
:102E98005BF978607B6818460837BD4680BD00BF7F
:102EA800F503002080B483B000AF00237B600323C8
:102EB8007B607B6818460C37BD4680BC7047B0B550
:102EC80084B000AF78600021F960796800200A4674
:102ED8000346950D94024FF47A724FF00003204692
:102EE8002946FDF74FFF02460B461346FB60FB6879
:102EF80018461037BD46B0BD2DE9B00F85B000AFFC
:102F080078600021F960796800200C460546204663
:102F180029464FF0000A4FF0000B4FEA411B4BEADD
:102F2800D06B4FEA401A50465946021B61EB050325
:102F38004FF000004FF00001990041EA92719000B3
:102F480002460B4612EB040843EB05094FF000025A
:102F58004FF000034FEAC90343EA58734FEAC80227
:102F680090469946404649464FF000024FF000030C
:102F7800820A42EA81528B0A1346FB60FB681846B4
:102F88001437BD46BDE8B00F704780B584B000AFB8
:102F980078607868FFF793FFF86000F0D5F8B860BC
:102FA80000E000BF00F0D0F80246BB68D31AFA6808
:102FB8009A42F6D800BF00BF1037BD4680BD80B525
:102FC80082B000AF78601BF06DF900BF0837BD46CE
:102FD80080BD80B584B000AF786000F0A5F8F860D7
:102FE800FB680133184600F08FF800BF1037BD4664
:102FF80080BD2DE9B04F8CB000AF78610023FB6233
:1030080000F0A2F8B86200F08FF878627B6A0022BC
:10301800BB60FA604FF000024FF00003B9680B0084
:103028000022B96A00200C46054612EB040843EB5F
:103038000509C7E90689D7E906014FF000024FF0F4
:103048000003820A42EA81528B0A1346FB62BB697B
:1030580000223B607A603B68C3F3090A4FF0000B1B
:10306800C7E906ABBB691846FFF746FF03469AB2A5
:103078007B691A80FB6A18463037BD46BDE8B08FB9
:1030880080B582B000AF78607A680021034806F006
:1030980033FF00BF0837BD4680BD00BF4C0300208A
:1030A80080B582B000AF78607A680121034806F0E5
:1030B80023FF00BF0837BD4680BD00BF4C0300207A
:1030C80080B582B000AF00237B600021044806F081
:1030D8002BFF78607B6818460837BD4680BD00BF67
:1030E8004C03002080B582B000AF00237B60012133
:1030F800044806F019FF78607B6818460837BD4613
:1031080080BD00BF4C03002080B582B000AF78605E
:103118007A680221034806F0EFFE00BF0837BD4673
:1031280080BD00BF4C03002080B582B000AF0221F3
:10313800044806F0F9FE78607B6818460837BD46F3
:1031480080BD00BF4C03002080B582B000AF0B48A3
:10315800FFF7D9FD786003E00848FFF7D4FD7860F1
:103168000648FFF7D0FD02467B689342F4D17B689E
:10317800DB4318460837BD4680BD00BF0028004025
:1031880080B485B000AF78604FF0B043DA6C4FF090
:10319800B0417B681343CB644FF0B043DA6C7B6873
:1031A8001340FB60FB6800BF1437BD4680BC704706
:1031B80080B485B000AF78604FF0B0439A6D4FF09F
:1031C800B0417B6813438B654FF0B0439A6D7B68C1
:1031D8001340FB60FB6800BF1437BD4680BC7047D6
:1031E80080B483B000AF78604FF0B0439A6D7B68CD
:1031F800DB434FF0B04113408B6500BF0C37BD4631
:1032080080BC704780B485B000AF78604FF0B043A1
:103218001A6E4FF0B0417B6813430B664FF0B04312
:103228001A6E7B681340FB60FB6800BF1437BD460D
:1032380080BC704780B483B000AF78604FF0B04373
:103248001A6E7B68DB434FF0B04113400B6600BF3A
:103258000C37BD4680BC704780B483B000AF78603F
:10326800054B5A6804497B6813434B6000BF0C3711
:10327800BD4680BC704700BF0000014080B500AF6C
:10328800264B274A1A60254B4FF4E1325A60234BEC
:1032980000229A60214B0022DA60204B00221A613A
:1032A8001E4B0C225A611D4B00229A611B4B0022B7
:1032B800DA611A4B00221A62184B00225A62174B25
:1032C80040229A62154B4FF480125A64134B002225
:1032D8009A64124807F0EDFB0346002B01D0FEF775
:1032E80077FF00210D4809F048FD0346002B01D067
:1032F800FEF76EFF0021094809F07DFD0346002B0B
:1033080001D0FEF765FF054809F0C4FC0346002B11
:1033180001D0FEF75DFF00BF80BD00BFFC030020A9
:103328000038014080B500AF234B244A1A60224B75
:103338004FF416525A60204B00229A601E4B00220E
:10334800DA601D4B00221A611B4B0C225A611A4B82
:1033580000229A61184B4FF40042DA61164B0022A2
:103368001A62154B00225A62134B00229A621248C5
:1033780007F09FFB0346002B01D0FEF729FF002131
:103388000D4809F0FAFC0346002B01D0FEF720FF98
:103398000021094809F02FFD0346002B01D0FEF754
:1033A80017FF054809F0B1FC0346002B01D0FEF7D2
:1033B8000FFF00BF80BD00BF900400200044004004
:1033C80080B59AB000AF786007F1540300221A6004
:1033D8005A609A60DA601A6107F1440300221A60A1
:1033E8005A609A60DA6007F10C0338220021184607
:1033F8001BF040FB7B681B686F4A934240F0A48037
:103408000123FB604FF440333B6107F10C0318467E
:1034180006F0FAF80346002B01D0FEF7D9FE4FF468
:103428008040FFF7EFFE0220FFF7AAFEC0237B656E
:103438000223BB650123FB6501233B6607237B66EB
:1034480007F1540319465D4802F09EFB4FF4003023
:10345800FFF702FF4FF48030FFF7FEFE584B594A42
:103468001A60574B12225A60554B10229A60544BDF
:103478000022DA60524B80221A61514B00225A61B5
:103488004F4B00229A614E4B0022DA614C4B0022CE
:103498001A624B4801F0D6FC0346002B01D0FEF718
:1034A80097FE7B68464ADA67454A7B689362464BD3
:1034B800464A1A60444B11225A60434B00229A60D4
:1034C800414B0022DA60404B80221A613E4B0022B9
:1034D8005A613D4B00229A613B4B0022DA613A4B1C
:1034E80000221A62384801F0ADFC0346002B01D0D7
:1034F800FEF76EFE00237B640023BB64002387F87D
:103508004C30012387F84D3001233B6507F1440314
:1035180019462D4802F08CF80346002B01D0FEF71F
:1035280057FE7B68284AC3F88020274A7B68936245
:1035380000220221242001F04EFC242001F065FC29
:103548000C2001F062FC33E07B681B68204A934240
:103558002ED10223FB604FF440237B6107F10C035B
:10356800184606F051F80346002B01D0FEF730FE4E
:103578004FF40030FFF71CFE0120FFF701FE0C237B
:103588007B650223BB650123FB6501233B6607239B
:103598007B6607F1540319464FF0904002F0F4FAA5
:1035A80000220021252001F016FC252001F02DFC29
:1035B80000BF6837BD4680BD0038014000040048A0
:1035C8002405002008000240840500201C00024059
:1035D8000044004080B582B000AF78607B681B680B
:1035E800174A934216D14FF48040FFF723FEC021BB
:1035F800144802F029FC7B68DB6F184601F0CAFC0E
:103608007B68D3F88030184601F0C4FC242001F010
:103618000AFC10E07B681B680B4A93420BD14FF4FD
:103628000030FFF7DDFD0C214FF0904002F00CFC5C
:10363800252001F0F8FB00BF0837BD4680BD00BF5C
:1036480000380140000400480044004080B483B0C2
:1036580000AF78604FF0B0431A6C4FF0B0417B6810
:1036680013430B6400BF0C37BD4680BC704780B461
:1036780083B000AF78604FF0B0431A6C7B68DB43CF
:103688004FF0B04113400B6400BF0C37BD4680BCFF
:103698007047000080B483B000AF7860064BD3F861
:1036A800802005497B681343C1F8803000BF0C3780
:1036B800BD4680BC704700BF0008005880B582B086
:1036C80000AF7860074A7B681360FDF785FEFFF757
:1036D800D5FD4FF08060FFF7DDFF0023184608375F
:1036E800BD4680BDE805002080B500AF4FF480409E
:1036F800FFF7ACFF4FF48040FFF7B9FF0448FFF72E
:1037080069FF0F2001F08FFB0023184680BD00BF22
:10371800FC03002080B582B000AF78600B467B8048
:103728007B881A467968044807F060FA002318462F
:103738000837BD4680BD00BFFC03002080B584B0BB
:1037480000AF7860194A7B6813604FF40013BB60C0
:1037580007F1080393E80600154809F00EFA00BFC0
:10376800134B1B68DB6903F48033B3F5803FF7D054
:1037780000BF0F4B1B68DB6903F48003B3F5800FB0
:10378800F7D10B4B1B689A68094B1B6842F48002FF
:103798009A60074809F04CFA01220649044807F0E4
:1037A800D9F9002318461037BD4680BDEC05002026
:1037B800FC030020E405002080B500AF084807F0AE
:1037C80078F90346002B01D0FEF702FD054801F009
:1037D80039FB0346002B01D0FEF7FAFC00BF80BD81
:1037E800FC0300202405002080B582B000AF78607B
:1037F8007B681B68054A934203D1054B1B68002070
:10380800984700BF0837BD4680BD00BF003801405B
:10381800E805002080B582B000AF78607B681B683F
:10382800114A934213D1114B1B68002B0AD07B68B5
:10383800D3F89030002B05D10C4B1B6800220121D6
:103848000B48984701220A49786807F083F97B6892
:103858001B68084A934202D1074B01221A7000BF25
:103868000837BD4680BD00BF00380140EC05002088
:10387800E405002000440040080000200D4885466B
:10388800FFF73BFA0C480D490D4A002302E0D458D3
:10389800C4500433C4188C42F9D30A4A0A4C002392
:1038A80001E013600432A242FBD31BF0EBF8FEF7F1
:1038B800EBF9FEE700000120000000206401002071
:1038C80054FC0108640100205C200020FEE780B55C
:1038D80086B000AF3B1D00221A605A609A60DA6019
:1038E8001A6110237B600123BB600023FB60032364
:1038F8003B613B1D19464FF0904002F045F92023EB
:103908007B603B1D19464FF0904002F03DF90022C4
:1039180020214FF0904002F065FB002210214FF06B
:10392800904002F05FFB002318461837BD4680BD63
:1039380080B582B000AF0346FB71FB79032B3FD8FB
:1039480001A252F823F000BF613900087B39000852
:1039580095390008AF390008002210214FF0904037
:1039680002F040FB002220214FF0904002F03AFB89
:1039780027E0012210214FF0904002F033FB002293
:1039880020214FF0904002F02DFB1AE00122102177
:103998004FF0904002F026FB012220214FF090408A
:1039A80002F020FB0DE0002210214FF0904002F0C1
:1039B80019FB012220214FF0904002F013FB00E098
:1039C80000BF002318460837BD4680BD80B400AF4D
:1039D80002231846BD4680BC704780B400AF01235F
:1039E8001846BD4680BC704780B400AF0123184616
:1039F800BD4680BC704780B485B000AF0346FB71FC
:103A0800FB79002B02D10F23FB6001E01623FB603A
:103A1800FB6818461437BD4680BC704780B400AFB9
:103A2800044B5B68034A43F00103536000BFBD4683
:103A380080BC7047002004E080B400AF044B5B6892
:103A4800034A43F00203536000BFBD4680BC704781
:103A5800002004E080B400AF044B5B68034A43F0E5
:103A68000403536000BFBD4680BC7047002004E0DB
:103A780080B582B000AF0023FB71032001F0A0F9EC
:103A880005F0E4FB0346094A13600F20FFF7B4F87A
:103A98000346002B02D00123FB7101E0FEF749FE2B
:103AA800FB7918460837BD4680BD00BF04000020DA
:103AB80080B400AF044B1B68034A23F00203136071
:103AC80000BFBD4680BC704710E000E080B400AF86
:103AD800044B1B68034A43F00203136000BFBD4652
:103AE80080BC704710E000E080B400AF024B1B6858
:103AF8001846BD4680BC70479075FF1F80B400AF64
:103B0800024B1B681846BD4680BC70479475FF1F62
:103B180080B400AF024B1B681846BD4680BC704796
:103B28009875FF1F80B500AFFFF778FF00BF80BD15
:103B380080B500AFFFF780FF00BF80BD80B500AF44
:103B4800FFF788FF00BF80BD80B483B000AF786006
:103B580039607B681B6823F0E0723B681A437B6816
:103B68001A6000BF0C37BD4680BC704780B483B074
:103B780000AF78607B681B6803F0E07318460C3769
:103B8800BD4680BC704780B485B000AFF860B960AE
:103B98007A60FB685A69BB6803F00403072101FADD
:103BA80003F3DB431A40BB6803F00403796801FAA6
:103BB80003F31A43FB685A6100BF1437BD4680BC43
:103BC800704780B483B000AF786039607B685A6909
:103BD8003B6803F00403072101FA03F31A403B682A
:103BE80003F0040322FA03F318460C37BD4680BCE1
:103BF800704780B483B000AF78607B68DB6803F4FB
:103C08004063002B01D1012300E0002318460C3744
:103C1800BD4680BC704780B485B000AFF860B9601D
:103C28007A60FB689A6ABB6803F01F030F2101FAE8
:103C380003F3DB431A407B689B0E03F00F01BB685C
:103C480003F01F0301FA03F31A43FB689A6200BFEB
:103C58001437BD4680BC704780B483B000AF78602D
:103C680039607B689A6A3B68C3F311031A437B681F
:103C78009A6200BF0C37BD4680BC704780B483B0E1
:103C880000AF786039607B689A6A3B68C3F31103B8
:103C9800DB431A407B689A6200BF0C37BD4680BC84
:103CA800704780B485B000AFF860B9607A60FB688F
:103CB8005A69BB681B02DB431A40BB6819027B6860
:103CC8000B4023F07C4323F0FF031A43FB685A613F
:103CD80000BF1437BD4680BC704780B483B000AFC6
:103CE80078607B689B6823F0104323F0170343F048
:103CF80080527B689A6000BF0C37BD4680BC704715
:103D080080B483B000AF78607B689B6823F0104371
:103D180023F017037A68936000BF0C37BD4680BC58
:103D2800704780B483B000AF78607B689B6803F00D
:103D38008053B3F1805F01D1012300E000231846CE
:103D48000C37BD4680BC704780B483B000AF786044
:103D58007B689B6823F0004323F0170343F00102BC
:103D68007B689A6000BF0C37BD4680BC704780B442
:103D780083B000AF78607B689B6823F0004323F032
:103D8800170343F002027B689A6000BF0C37BD46F8
:103D980080BC704780B483B000AF78607B689B6854
:103DA80003F00103012B01D1012300E00023184691
:103DB8000C37BD4680BC704780B483B000AF7860D4
:103DC8007B689B6803F00203022B01D1012300E00A
:103DD800002318460C37BD4680BC704780B483B0BA
:103DE80000AF78607B689B6823F0004323F01703DB
:103DF80043F004027B689A6000BF0C37BD4680BC64
:103E0800704780B483B000AF78607B689B6823F00C
:103E1800004323F0170343F010027B689A6000BF49
:103E28000C37BD4680BC704780B483B000AF786063
:103E38007B689B6803F00403042B01D1012300E095
:103E4800002318460C37BD4680BC704780B588B043
:103E580000AF78600023FB770023BB6100237B6100
:103E68000023FB607B68002B01D101237EE17B6886
:103E78001B69002B7B689B6D002B09D17868FDF7C7
:103E8800EDF97B680022DA657B68002283F854200C
:103E98007B681B681846FFF744FF0346002B15D1C3
:103EA8007B681B681846FFF718FF9E4B1B689B0929
:103EB8009D4AA2FB03239B0901335B00FB6002E0E0
:103EC800FB68013BFB60FB68002BF9D17B681B6832
:103ED8001846FFF726FF0346002B0DD17B689B6D24
:103EE80043F010027B689A657B68DB6D43F0010242
:103EF8007B68DA650123FB777B681B681846FFF748
:103F080093FF38617B689B6D03F01003002B40F032
:103F180024813B69002B40F020817B689B6D23F452
:103F2800817343F002027B689A657B681B681846B8
:103F3800FFF730FF0346002B40F0A7807B689A68A4
:103F48007B681B7E9B031A437B685B7EDB031A43FB
:103F58007B689B7E5B0313437A68126B002A02D04E
:103F68004FF4805200E000221A437B68DB681A4352
:103F78007B681B69002B04DA7B681B6923F000430C
:103F880001E04FF400131A437B6893F82C305B0070
:103F98001343BA691343BB617B6893F82030012B44
:103FA80014D17B689B7E002B04D1BB6943F480331A
:103FB800BB610BE07B689B6D43F020027B689A65D0
:103FC8007B68DB6D43F001027B68DA657B685B6ABE
:103FD800002B09D07B685B6A03F4E0727B689B6AFC
:103FE8001343BA691343BB617B681B68DB6823F41E
:103FF800FE3323F4FF737A681268B9690B43D36000
:104008007B685B6803F040427B68DB6C13437A692A
:1040180013437B617B6893F83C30012B11D17B689B
:104028005B6803F040427B681B6C1A437B685B6CDF
:104038001A437B689B6C1A437B69134343F0010363
:104048007B617B681B681A69384B13407A68126871
:1040580079690B4313617B685B68B3F1404F14D0F7
:104068007B685B68B3F1804F0FD07B685B68B3F106
:10407800004F0AD02E4B1B6823F470127B685B68D4
:1040880003F470132A4913430B607B6818687B6834
:104098005B6B1A460021FFF776FD7B6818687B6822
:1040A8009B6B1A462349FFF76EFD7B681B69002B43
:1040B80008D17B681B689A6A7B681B6862F00F02EC
:1040C8009A6217E07B681B69B3F5001F12D17B6801
:1040D8001B689B6A7B68DB69013B9B0003F01C0340
:1040E8006FF00F0202FA03F17B681A6E7B681B6897
:1040F8000A439A627B681B6800211846FFF761FD36
:1041080002467B685B6B9A4216D17B680022DA65AF
:104118007B689B6D23F0030343F001027B689A657B
:1041280023E000BF04000020632D3E0502FCFF1FB2
:104138000827014004FFFF037B689B6D23F01203EF
:1041480043F010027B689A657B68DB6D43F00102DF
:104158007B68DA650123FB7707E07B689B6D43F09A
:1041680010027B689A650123FB77FB7F184620378E
:10417800BD4680BD80B584B000AF78607B68002BF9
:1041880001D101237AE07B689B6D43F002027B68D2
:104198009A65786800F0CEFA0346FB73FB7B002B28
:1041A8000FD1786800F092FB0346FB73FB7B002B72
:1041B80002D17B6801229A657B681B681846FFF765
:1041C8009FFD7B681B685B687A68126823F46773D5
:1041D80023F0030353607B681B6840F29F321A6028
:1041E8007B681B68D9687B681A68264B0B40D360CC
:1041F8007B681B681A697B681B6822F040421A6159
:104208007B681B685A697B681B6822F007025A6141
:104218007B681B681A6A7B681B6802F0F0221A62C6
:104228007B681B685A6A7B681B6802F0F0225A6236
:104238007B681B68DA6A7B681B6802F0F022DA6226
:104248007B681B689B6A7B681B6800229A620E4B1E
:104258001B680D4A23F0FE7313607868FDF72AF88F
:104268007B6800221A667B680022DA657B68002278
:104278009A657B68002283F85420FB7B1846103728
:10428800BD4680BD00023E830827014080B584B04A
:1042980000AF78607B681B681846FFF7C5FD0346CA
:1042A800002B32D17B6893F85430012B01D10223C3
:1042B8002EE07B68012283F85420786800F080FAA9
:1042C8000346FB73FB7B002B1AD17B689B6D23F4A1
:1042D800706323F0010343F480727B689A657B68FE
:1042E8000022DA657B681B681C221A607B68002242
:1042F80083F854207B681B681846FFF76FFD06E0BB
:104308007B68002283F8542001E00223FB73FB7BC7
:1043180018461037BD4680BD80B584B000AF7860C0
:104328007B6893F85430012B01D1022322E07B688B
:10433800012283F85420786800F0FCF90346FB73E7
:10434800FB7B002B11D1786800F0C0FA0346FB73A1
:10435800FB7B002B09D17B689B6D23F4807323F0D2
:10436800010343F001027B689A657B68002283F8A9
:104378005420FB7B18461037BD4680BD80B584B0FD
:1043880000AF786039607B685B69082B02D108232D
:10439800FB6010E07B681B68DB6803F00103002BFF
:1043A80007D07B689B6D43F020027B689A650123E8
:1043B80077E00423FB60FEF729FCB86021E03B6846
:1043C800B3F1FF3F1DD0FEF721FC0246BB68D31AAC
:1043D8003A689A4202D33B68002B12D17B681B686B
:1043E8001A68FB681340002B0BD17B689B6D43F068
:1043F80004027B689A657B68002283F854200323B3
:104408004FE07B681B681A68FB681340002BD6D006
:104418007B689B6D43F400727B689A657B681B68B8
:104428001846FFF7E6FB0346002B31D07B689B7EDE
:10443800002B2DD17B681B681B6803F00803082B31
:1044480026D17B681B681846FFF7EEFC0346002B55
:1044580012D17B681B685A687B681B6822F00C02C3
:104468005A607B689B6D23F4807323F0010343F04B
:1044780001027B689A650BE07B689B6D43F0200224
:104488007B689A657B68DB6D43F001027B68DA65BF
:104498007B681B7E002B03D17B681B680C221A608B
:1044A800002318461037BD4680BD80B483B000AFE6
:1044B80078607B681B681B6C18460C37BD4680BC4F
:1044C8007047000080B588B000AF7860396000237D
:1044D800FB770023BB607B681B69B3F1004F7B68E7
:1044E80093F85430012B01D1022310E17B6801229B
:1044F80083F854207B681B681846FFF795FC034631
:10450800002B40F0F7803B685B68022B00F0B1801D
:104518007B681B69B3F1004F04D07B681B697E4A36
:10452800934208D17B681A683B681B681946104695
:10453800FFF792FB41E07B681A6E3B685B6803F00B
:104548001F030F2101FA03F3DB431A403B681B6882
:10455800C3F31103002B05D13B681B689B0E03F0C6
:104568001F0311E03B681B683B613B6993FAA3F3A7
:10457800FB60FB687B617B69002B01D1202303E092
:104588007B69B3FA83F3DBB23968496801F01F012C
:104598008B401A437B681A663B685B689B085A1C09
:1045A8007B68DB699A4208D87B6818683B68596859
:1045B8003B681B681A46FFF72EFB7B6818683B6848
:1045C80019683B689B681A46FFF76BFB3B681B68DA
:1045D800002B80F297805148FFF7C8FAB8613B6812
:1045E8001B684F4A934220D1BB6903F40003002B98
:1045F8001BD1BB6943F4000319464848FFF7A4FAE6
:10460800484B1B689B09484AA2FB03239B095A1C79
:1046180013465B0013449B00BB6002E0BB68013B90
:10462800BB60BB68002BF9D16CE03B681B683F4A54
:1046380093420CD1BB6903F08073002B07D1BB698F
:1046480043F0807319463548FFF77EFA5AE03B6815
:104658001B68374A934255D1BB6903F48003002B8A
:1046680050D1BB6943F4800319462C48FFF76CFA14
:1046780048E07B681B69B3F1004F04D07B681B6975
:10468800254A934207D17B681A683B681B6819461C
:104698001046FFF7F3FA3B681B68002B32DA1F4815
:1046A800FFF764FAB8613B681B681D4A934207D15B
:1046B800BB6923F4000319461848FFF745FA21E0BF
:1046C8003B681B68194A934207D1BB6923F0807382
:1046D80019461248FFF738FA14E03B681B68144A79
:1046E80093420FD1BB6923F4800319460B48FFF7A7
:1046F8002BFA07E07B689B6D43F020027B689A6584
:104708000123FB777B68002283F85420FB7F18463F
:104718002037BD4680BD00BF040000800827014047
:10472800001000B004000020632D3E05004000B8D2
:10473800002000B480B584B000AF78607B681B6847
:104748001846FFF771FB0346002B33D07B681B68C4
:104758001846FFF731FB0346002B04D17B681B6822
:104768001846FFF74EFBFEF751FAF8601BE0FEF71C
:104778004DFA0246FB68D31A022B14D97B681B68D2
:104788009B6803F00403002B0DD07B689B6D43F0FE
:1047980010027B689A657B68DB6D43F001027B68D9
:1047A800DA65012307E07B681B689B6803F0040354
:1047B800002BDCD1002318461037BD4680BD000011
:1047C80080B584B000AF78600023BB607B681B684D
:1047D8001846FFF7DFFA0346002B69D17B681B6890
:1047E8009A68364B1340002B0DD07B689B6D43F0C5
:1047F80010027B689A657B68DB6D43F001027B6879
:10480800DA65012355E07B681B681846FFF79CFAB8
:104818002B48FFF7ABF9034603F40003002B0FD036
:10482800284B1B689B09284AA2FB03239B090133D9
:10483800BB6002E0BB68013BBB60BB68002BF9D1E1
:104848007B685B7E012B33D0FEF7E0F9F86028E047
:104858007B681B681846FFF79DFA0346002B04D1B6
:104868007B681B681846FFF76FFAFEF7CFF9024618
:10487800FB68D31A022B14D97B681B681B6803F0EA
:104888000103012B0DD07B689B6D43F010027B6800
:104898009A657B68DB6D43F001027B68DA6501236A
:1048A80007E07B681B681B6803F00103012BCFD16D
:1048B800002318461037BD4680BD00BF1700008092
:1048C8000827014004000020632D3E0580B584B010
:1048D80000AF78607B681B681846FFF76DFAF860D0
:1048E8007B681B681846FFF755FA0346002B47D02C
:1048F800FB68002B44D17B681B689B6803F00503A9
:10490800012B0CD17B681B681846FFF730FA7B68CF
:104918001B6803221A60FEF779F9B86029E07B6802
:104928009B6D43F010027B689A657B68DB6D43F0F2
:1049380001027B68DA65012323E0FEF767F9024686
:10494800BB68D31A022B14D97B681B689B6803F0D9
:104958000103002B0DD07B689B6D43F010027B6830
:104968009A657B68DB6D43F001027B68DA65012399
:1049780007E07B681B689B6803F00103002BDCD110
:10498800002318461037BD4680BD80B483B000AF01
:10499800786039607B68D3F8B43023F07F023B68D5
:1049A8001A437B68C3F8B42000BF0C37BD4680BCEF
:1049B800704780B483B000AF78607B68D3F8B430B8
:1049C80003F07F0318460C37BD4680BC704780B49F
:1049D80083B000AF78607B689B6823F0004323F0C6
:1049E800170343F001027B689A6000BF0C37BD468D
:1049F80080BC704780B483B000AF78607B689B68E8
:104A080023F0004323F0170343F002027B689A6007
:104A180000BF0C37BD4680BC704780B483B000AF80
:104A280078607B689B6803F00103012B01D10123A7
:104A380000E0002318460C37BD4680BC704780B4A0
:104A480083B000AF78607B689B6823F0004323F055
:104A5800170343F000427B689A6000BF0C37BD46DD
:104A680080BC704780B483B000AF78607B689B6877
:104A780003F00043B3F1004F01D1012300E000230C
:104A880018460C37BD4680BC704780B588B000AF6B
:104A980078600023BB600023BB617B6893F85430C7
:104AA800012B01D10223B9E07B68012283F854204D
:104AB8007868FFF70BFF0346FB757B681B68184691
:104AC800FFF7ABFF0346002B40F09D807B689B6D92
:104AD80023F4817343F002027B689A657B681B6844
:104AE800DA6848F2030313403B617B681B68DB68A4
:104AF8007A68126823F4004323F00303D360002389
:104B0800FB612EE07B681B681846FFF798FF14E0EE
:104B1800BB680133BB60BB68B3F52E3F0DD37B6820
:104B28009B6D23F0120343F010027B689A657B6843
:104B3800002283F85420012370E07B681B68184624
:104B4800FFF790FF0346002BE2D17B681B681846ED
:104B5800FFF72FFF0246BB691344BB61FB690133B2
:104B6800FB61FB69072BCDD9BA69FB69B2FBF3F38B
:104B7800BB617B681B681846FFF729FF7B681B68C9
:104B8800B9691846FFF701FF7B681B681846FFF7ED
:104B980031FFFEF73BF8F8601CE0FEF737F80246F5
:104BA800FB68D31A022B15D97B681B681846FFF7D8
:104BB80034FF0346002B0DD07B689B6D43F0100239
:104BC8007B689A657B68DB6D43F001027B68DA6578
:104BD800012323E07B681B681846FFF71EFF034686
:104BE800002BDAD17B681B68D9687B681B683A6937
:104BF8000A43DA607B689B6D23F0030343F00102EC
:104C08007B689A6505E07B689B6D43F010027B68C2
:104C18009A657B68002283F85420FB7D184620376C
:104C2800BD4680BD80B485B000AF78607B6803F076
:104C38000703FB600C4BDB68BB60BA684FF6FF03E9
:104C48001340BB60FB681A02BB68134343F0BF63A1
:104C580043F40033BB60044ABB68D36000BF143719
:104C6800BD4680BC704700BF00ED00E080B400AFD7
:104C7800044BDB681B0A03F007031846BD4680BCDB
:104C8800704700BF00ED00E080B483B000AF03467A
:104C9800FB7197F90730002B0BDBFB7903F01F0240
:104CA800064997F907305B09012000FA02F241F83A
:104CB800232000BF0C37BD4680BC704700E100E0F0
:104CC80080B483B000AF0346FB7197F90730002B1F
:104CD80012DBFB7903F01F020A4997F907305B09D9
:104CE800012000FA02F2203341F82320BFF34F8F4E
:104CF80000BFBFF36F8F00BF00BF0C37BD4680BC3D
:104D0800704700BF00E100E080B483B000AF034605
:104D18003960FB7197F90730002B0ADB3B68DAB280
:104D28000C4997F907301201D2B20B4483F80023DB
:104D38000AE03B68DAB20849FB7903F00F03043B49
:104D48001201D2B20B441A7600BF0C37BD4680BCA4
:104D5800704700BF00E100E000ED00E080B489B0DA
:104D680000AFF860B9607A60FB6803F00703FB6185
:104D7800FB69C3F10703042B28BF0423BB61FB694C
:104D88000433062B02D9FB69033B00E000237B6157
:104D98004FF0FF32BB6902FA03F3DA43BB681A40EB
:104DA8007B699A404FF0FF317B6901FA03F3D943DD
:104DB8007B680B40134318462437BD4680BC7047B8
:104DC80080B582B000AF78607868FFF72BFF00BF2E
:104DD8000837BD4680BD80B586B000AF0346B960D0
:104DE8007A60FB73FFF742FF78617A68B96878697F
:104DF800FFF7B4FF024697F90F3011461846FFF740
:104E080083FF00BF1837BD4680BD80B582B000AFB4
:104E18000346FB7197F907301846FFF735FF00BFC7
:104E28000837BD4680BD80B582B000AF0346FB7130
:104E380097F907301846FFF743FF00BF0837BD460C
:104E480080BD000080B582B000AF78607B68002B21
:104E580001D101238EE07B681B681A46474B9A42B2
:104E68000FD87B681B681A46454B1344454AA2FB7A
:104E780003231B099A007B685A647B68424A1A64B8
:104E88000EE07B681B681A46404B13443D4AA2FB60
:104E980003231B099A007B685A647B683C4A1A649E
:104EA8007B68022283F825207B681B681B687A6868
:104EB800126823F4FF4323F0700313607B681B68B8
:104EC80019687B689A687B68DB681A437B681B698A
:104ED8001A437B685B691A437B689B691A437B6842
:104EE800DB691A437B681B6A1A437B681B680A43A1
:104EF8001A60786800F030FB7B689B68B3F5804FD8
:104F080002D17B6800225A607B685A687B689B6C78
:104F180002F07F021A607B68DB6C7A68126D5A6057
:104F28007B685B68002B10D07B685B68042B0CD80F
:104F3800786800F059FB7B685B6D00221A607B681B
:104F48009B6D7A68D26D5A6008E07B6800225A65CA
:104F58007B6800229A657B680022DA657B680022FC
:104F6800DA637B68012283F825207B68002283F8B6
:104F78002420002318460837BD4680BD0704024098
:104F8800F8FFFDBFCDCCCCCC00000240F8FBFDBF44
:104F98000004024080B582B000AF78607B68002BC7
:104FA80001D101237BE07B681B681A687B681B685A
:104FB80022F001021A607B681B681A463A4B9A4233
:104FC8000FD87B681B681A46384B1344384AA2FB33
:104FD80003231B099A007B685A647B68354A1A6464
:104FE8000EE07B681B681A46334B1344304AA2FB19
:104FF80003231B099A007B685A647B682F4A1A644A
:105008007B681B6800221A607B685B6C03F01C02DB
:105018007B681B6C012101FA02F25A60786800F083
:105028009BFA7B689B6C00221A607B68DB6C7A6851
:10503800126D5A607B685B68002B0FD07B685B68D9
:10504800042B0BD8786800F0CFFA7B685B6D0022E0
:105058001A607B689B6D7A68D26D5A607B68002203
:105068005A657B6800229A657B680022DA657B684E
:105078000022DA627B6800221A637B6800225A6386
:105088007B6800229A637B680022DA637B680022CF
:1050980083F825207B68002283F824200023184603
:1050A8000837BD4680BD00BF07040240F8FFFDBFBA
:1050B800CDCCCCCC00000240F8FBFDBF0004024080
:1050C80080B586B000AFF860B9607A603B600023B5
:1050D800FB75FB6893F82430012B01D1022369E0AA
:1050E800FB68012283F82420FB6893F82530DBB2A3
:1050F800012B55D1FB68022283F82520FB6800228A
:10510800DA63FB681B681A68FB681B6822F00102F7
:105118001A603B687A68B968F86800F0E0F9FB68DB
:105128001B6B002B08D0FB681B681A68FB681B68A0
:1051380042F00E021A600FE0FB681B681A68FB68F1
:105148001B6822F004021A60FB681B681A68FB6877
:105158001B6842F00A021A60FB689B6C1B6803F428
:105168008033002B07D0FB689B6C1A68FB689B6C2C
:1051780042F480721A60FB685B6D002B07D0FB68F5
:105188005B6D1A68FB685B6D42F480721A60FB689D
:105198001B681A68FB681B6842F001021A6008E085
:1051A800FB688022DA63FB68002283F8242001234D
:1051B800FB75FB7D18461837BD4680BD80B483B0AB
:1051C80000AF78607B68002B01D101234FE07B683A
:1051D80093F82530DBB2022B08D07B680422DA630F
:1051E8007B68002283F82420012340E07B681B6849
:1051F8001A687B681B6822F00E021A607B689B6C39
:105208001A687B689B6C22F480721A607B681B6842
:105218001A687B681B6822F001021A607B685B6C65
:1052280003F01C027B681B6C012101FA02F25A6030
:105238007B68DB6C7A68126D5A607B685B6D002B4B
:105248000CD07B685B6D1A687B685B6D22F480729A
:105258001A607B689B6D7A68D26D5A607B68012200
:1052680083F825207B68002283F824200023184631
:105278000C37BD4680BC704780B584B000AF7860FD
:105288000023FB737B6893F82530DBB2022B05D033
:105298007B680422DA630123FB7347E07B681B68A1
:1052A8001A687B681B6822F00E021A607B681B680C
:1052B8001A687B681B6822F001021A607B689B6C85
:1052C8001A687B689B6C22F480721A607B685B6C3E
:1052D80003F01C027B681B6C012101FA02F25A6080
:1052E8007B68DB6C7A68126D5A607B685B6D002B9B
:1052F8000CD07B685B6D1A687B685B6D22F48072EA
:105308001A607B689B6D7A68D26D5A607B6801224F
:1053180083F825207B68002283F824207B689B6B18
:10532800002B03D07B689B6B78689847FB7B1846FB
:105338001037BD4680BD000080B584B000AF7860EE
:105348007B681B6C1B68FB607B681B681B68BB6009
:105358007B685B6C03F01C0304229A40FB681340D3
:10536800002B27D0BB6803F00403002B22D07B68F6
:105378001B681B6803F02003002B07D17B681B68A0
:105388001A687B681B6822F004021A607B685B6CF1
:1053980003F01C027B681B6C042101FA02F25A60BC
:1053A8007B681B6B002B00F081807B681B6B786827
:1053B80098477BE07B685B6C03F01C0302229A40F1
:1053C800FB681340002B3DD0BB6803F00203002BA1
:1053D80038D07B681B681B6803F02003002B0BD1B7
:1053E8007B681B681A687B681B6822F00A021A60CF
:1053F8007B68012283F825207B681B681A462E4BA0
:105408009A4209D97B685B6C03F01C032B4A022182
:1054180001FA03F3536008E07B685B6C03F01C033C
:10542800274A022101FA03F353607B68002283F8BC
:1054380024207B68DB6A002B38D07B68DB6A7868BD
:10544800984733E07B685B6C03F01C0308229A40A2
:10545800FB681340002B2AD0BB6803F00803002B1D
:1054680025D07B681B681A687B681B6822F00E02CF
:105478001A607B685B6C03F01C027B681B6C012163
:1054880001FA02F25A607B680122DA637B68012222
:1054980083F825207B68002283F824207B685B6BD7
:1054A800002B04D07B685B6B7868984700BF00BF0F
:1054B8001037BD4680BD00BF800002400004024096
:1054C8000000024080B483B000AF78607B6893F836
:1054D8002530DBB218460C37BD4680BC704780B417
:1054E80085B000AFF860B9607A603B60FB68DB6C40
:1054F800FA68126D5A60FB685B6D002B04D0FB687C
:105508009B6DFA68D26D5A60FB685B6C03F01C02F5
:10551800FB681B6C012101FA02F25A60FB681B68E8
:105528003A685A60FB689B68102B08D1FB681B68B7
:105538007A689A60FB681B68BA68DA6007E0FB68FB
:105548001B68BA689A60FB681B687A68DA6000BFF3
:105558001437BD4680BC704780B485B000AF786012
:105568007B681B681A461C4B9A4213D87B685B6C95
:105578009B089B0003F1804303F502337A68936428
:105588007B681B68DBB2083B144AA2FB03231B0998
:10559800FB6011E07B685B6C9B089A00104B13441E
:1055A8007A6893647B681B68DBB2083B0B4AA2FBF2
:1055B80003231B090733FB607B680A4ADA64FB682C
:1055C80003F01F0301229A407B681A6500BF143755
:1055D800BD4680BC704700BF07040240CDCCCCCC90
:1055E8001C0802408008024080B485B000AF786093
:1055F8007B685B6803F07F03FB60FA680A4B13441F
:105608009B001A467B685A657B68084A9A65FB685E
:10561800013B03F0030301229A407B68DA6500BF6F
:105628001437BD4680BC70473F82001040090240D5
:1056380080B483B000AF786039607B6893F8253018
:10564800DBB2012B2BD17B6893F82430012B01D1DD
:10565800022328E07B68012283F824207B689B6C66
:105668001B6803F07F013B681A683B68DB68013BF5
:10567800DB041A433B685B681A433B681B7A1B04CC
:105688001A433B685B7A5B021A437B689B6C0A434C
:105698001A607B68002283F82420002303E07B68DB
:1056A8008022DA63012318460C37BD4680BC704758
:1056B80080B582B000AF78607B68DB6C1A687B6865
:1056C8001B6D1340002B1AD07B689B6C1A687B6893
:1056D8009B6C22F480721A607B68DB6C7A68126DAE
:1056E8005A607B68DB6B43F400727B68DA637B6823
:1056F8005B6B002B03D07B685B6B786898477B6893
:105708005B6D002B22D07B689B6D1A687B68DB6D14
:105718001340002B1AD07B685B6D1A687B685B6D41
:1057280022F480721A607B689B6D7A68D26D5A6029
:105738007B68DB6B43F480627B68DA637B685B6B56
:10574800002B03D07B685B6B7868984700BF0837ED
:10575800BD4680BD80B586B000AFF860B960C7E9C6
:1057680000231C4B1B78012B01D102232DE0194B80
:1057780001221A70174B00225A604FF47A7000F019
:1057880069F80346FB75FB7D002B1AD1FB68012BDA
:1057980005D1D7E90023B86800F0BEF804E03B68FB
:1057A8001946B86800F0DEF84FF47A7000F052F845
:1057B8000346FB75084B5A69FB68DB4306491340EF
:1057C8004B61044B00221A70FB7D18461837BD4602
:1057D80080BD00BFF00500200040005880B483B0B1
:1057E80000AF0023FB710B4B5B69002B0BDA094BF5
:1057F800094A9A60074B094A9A60064B5B69002B75
:1058080001DA0123FB71FB7918460C37BD4680BCD1
:10581800704700BF0040005823016745AB89EFCDB2
:1058280080B483B000AF0023FB71094B5B69084A61
:1058380043F000435361064B5B69002B01DB0123F6
:10584800FB71FB7918460C37BD4680BC704700BF1A
:105858000040005880B584B000AF7860FDF7D6F9F5
:10586800F86009E0FDF7D2F90246FB68D31A7A68B6
:105878009A4201D8032347E0254B1B6903F4803380
:10588800B3F5803FEED0224B1B69BB60BB6803F0C9
:105898000103002B02D01E4B01221A61BA684CF298
:1058A800FA331340BB60BB6803F04043002B07D0BA
:1058B800174B9A69BB6803F04043154913438B6142
:1058C800BB6823F04043002B04D0114ABB6823F087
:1058D80040431361BB68002B0ED00E4ABB6853606F
:1058E800012311E0FDF792F90246FB68D31A7A68A2
:1058F8009A4201D8032307E0054B1B6903F4802370
:10590800B3F5802FEED0002318461037BD4680BD72
:1059180000400058F005002080B485B000AFF86062
:10592800C7E900230E4B5B690D4A43F0010353613D
:10593800FB683A681A60BFF36F8F00BFD7E90001B0
:105948004FF000024FF000030A000023F968043109
:1059580013460B6000BF1437BD4680BC704700BFBC
:105968000040005880B489B000AF786039604023A7
:10597800FB777B68BB613B687B61184B5B69174AA7
:1059880043F480235361EFF31083FB60FB683B61B2
:1059980072B600BF7B691A68BB691A60BB690433B9
:1059A800BB617B6904337B61FB7F013BFB77FB7F3A
:1059B800002BEFD100BF094B1B6903F48033B3F50B
:1059C800803FF8D03B69BB60BB6883F3108800BF99
:1059D80000BF2437BD4680BC704700BF0040005858
:1059E80080B584B000AF78603960284B1B78012BF4
:1059F80001D1022346E0254B01221A70234B0022D5
:105A08005A604FF47A70FFF725FF0346FB73FB7B60
:105A1800002B33D17B681B68042B08D100F038F8C1
:105A28004FF47A70FFF716FF0346FB7324E03B68D8
:105A38004FF0FF321A607B685B68BB6012E0B868A1
:105A480000F036F84FF47A70FFF704FF0346FB7353
:105A5800FB7B002B03D03B68BA681A600AE0BB687E
:105A68000133BB607B685A687B689B681344BA68DB
:105A78009A42E4D300F078F800F032F8034B0022A1
:105A88001A70FB7B18461037BD4680BDF005002014
:105A980080B400AF054B5B69044A43F4803343F09C
:105AA8000403536100BFBD4680BC704700400058E6
:105AB80080B483B000AF7860084B5B6923F47E72D2
:105AC8007B68DB001343054A43F4803343F0020349
