:020000040800F2
:100000000000012059380008AF250008B525000878
:10001000BB250008C1250008C72500080000000016
:10002000000000000000000000000000CD250008D6
:10003000D925000800000000E5250008F12500088A
:10004000A9380008A9380008FD250008A9380008CB
:10005000A9380008A9380008A9380008A9380008FC
:10006000A9380008A9380008A93800081126000896
:1000700025260008A9380008A9380008A938000872
:10008000A9380008A9380008A9380008A9380008CC
:1000900000000000A9380008A9380008A9380008A5
:1000A000A9380008A9380008A9380008A9380008AC
:1000B0003926000859260008A9380008A938000880
:1000C000A9380008A9380008A9380008A93800088C
:1000D000792600088D260008A9380008A9380008EC
:1000E000A9380008A9380008A1260008A938000886
:1000F000A93800080000000000000000A93800082E
:10010000A9380008A9380008B5260008A938000851
:10011000A9380008A9380008A9380008A93800083B
:10012000A9380008A9380008A9380008A93800082B
:08013000A9380008C9260008E7
:1001380010B5054C237833B9044B13B10448AFF319
:1001480000800123237010BD78010020000000000A
:10015800E0E5010808B5034B1BB103490348AFF3B9
:10016800008008BD000000007C010020E0E50108D7
:10017800034613F8012B002AFBD1181A01387047DF
:1001880081F0004102E000BF83F0004330B54FEA40
:1001980041044FEA430594EA050F08BF90EA020FAD
:1001A8001FBF54EA000C55EA020C7FEA645C7FEA40
:1001B800655C00F0E2804FEA5454D4EB5555B8BF63
:1001C8006D420CDD2C4480EA020281EA030382EAD4
:1001D800000083EA010180EA020281EA0303362D66
:1001E80088BF30BD11F0004F4FEA01314FF4801C39
:1001F8004CEA113102D0404261EB410113F0004F4B
:100208004FEA03334CEA133302D0524263EB430301
:1002180094EA050F00F0A780A4F10104D5F1200E9F
:100228000DDB02FA0EFC22FA05F2801841F10001FA
:1002380003FA0EF2801843FA05F359410EE0A5F1CE
:1002480020050EF1200E012A03FA0EFC28BF4CF0FF
:10025800020C43FA05F3C01851EBE37101F00045B5
:1002680007D54FF0000EDCF1000C7EEB00006EEBC2
:100278000101B1F5801F1BD3B1F5001F0CD349084C
:100288005FEA30004FEA3C0C04F101044FEA4452A3
:1002980012F5800F80F09A80BCF1004F08BF5FEA2A
:1002A800500C50F1000041EB045141EA050130BD0A
:1002B8005FEA4C0C404141EB0101013C28BFB1F51C
:1002C800801FE9D291F0000F04BF01460020B1FA67
:1002D80081F308BF2033A3F10B03B3F120020CDA3A
:1002E8000C3208DD02F1140CC2F10C0201FA0CF018
:1002F80021FA02F10CE002F11402D8BFC2F1200C7D
:1003080001FA02F120FA0CFCDCBF41EA0C01904032
:10031800E41AA2BF01EB0451294330BD6FEA04047B
:100328001F3C1CDA0C340EDC04F11404C4F1200266
:1003380020FA04F001FA02F340EA030021FA04F378
:1003480045EA030130BDC4F10C04C4F1200220FACF
:1003580002F001FA04F340EA0300294630BD21FA0D
:1003680004F0294630BD94F0000F83F4801306BFD3
:1003780081F480110134013D4EE77FEA645C18BFC7
:100388007FEA655C29D094EA050F08BF90EA020F5E
:1003980005D054EA000C04BF1946104630BD91EA56
:1003A800030F1EBF0021002030BD5FEA545C05D159
:1003B8004000494128BF41F0004130BD14F5800498
:1003C8003CBF01F5801130BD01F0004545F0FE410C
:1003D80041F470014FF0000030BD7FEA645C1ABF41
:1003E800194610467FEA655C1CBF0B46024650EA78
:1003F800013406BF52EA033591EA030F41F40021A4
:1004080030BD00BF90F0000F04BF0021704730B529
:100418004FF4806404F132044FF000054FF00001FE
:1004280050E700BF90F0000F04BF0021704730B5BF
:100438004FF4806404F1320410F0004548BF404294
:100448004FF000013EE700BF42004FEAE2014FEAE9
:1004580031014FEA02701FBF12F07F4393F07F4FC4
:1004680081F06051704732F07F4208BF704793F0C7
:100478007F4F04BF41F40021704730B54FF46074DA
:1004880001F0004521F000411CE700BF50EA0102DD
:1004980008BF704730B54FF000050AE050EA010286
:1004A80008BF704730B511F0004502D5404261EBF6
:1004B80041014FF4806404F132045FEA915C3FF437
:1004C800D8AE4FF003025FEADC0C18BF03325FEAD4
:1004D800DC0C18BF033202EBDC02C2F1200300FA85
:1004E80003FC20FA02F001FA03FE40EA0E0021FAAA
:1004F80002F11444BDE600BF70B54FF0FF0C4CF498
:10050800E06C1CEA11541DBF1CEA135594EA0C0F49
:1005180095EA0C0F00F0DEF82C4481EA030621EA84
:100528004C5123EA4C5350EA013518BF52EA0335BF
:1005380041F4801143F4801338D0A0FB02CE4FF071
:100548000005E1FB02E506F00042E0FB03E54FF0A1
:100558000006E1FB03569CF0000F18BF4EF0010E99
:10056800A4F1FF04B6F5007F64F5407404D25FEA95
:100578004E0E6D4146EB060642EAC62141EA555148
:100588004FEAC52040EA5E504FEACE2EB4F1FD0C8A
:1005980088BFBCF5E06F1ED8BEF1004F08BF5FEA08
:1005A800500E50F1000041EB045170BD06F00046BA
:1005B80046EA010140EA020081EA0301B4EB5C0467
:1005C800C2BFD4EB0C0541EA045170BD41F480115F
:1005D8004FF0000E013C00F3AB8014F1360FDEBF84
:1005E800002001F0004170BDC4F10004203C35DA60
:1005F8000C341BDC04F11404C4F1200500FA05F3E3
:1006080020FA04F001FA05F240EA020001F0004283
:1006180021F0004110EBD37021FA04F642EB0601F9
:100628005EEA430E08BF20EAD37070BDC4F10C0423
:10063800C4F1200500FA04F320FA05F001FA04F2E7
:1006480040EA020001F0004110EBD37041F10001D3
:100658005EEA430E08BF20EAD37070BDC4F12005DE
:1006680000FA05F24EEA020E20FA04F301FA05F246
:1006780043EA020321FA04F001F0004121FA04F2EE
:1006880020EA020000EBD3705EEA430E08BF20EABE
:10069800D37070BD94F0000F0FD101F000464000F8
:1006A80041EB010111F4801F08BF013CF7D041EA7A
:1006B800060195F0000F18BF704703F0004652007E
:1006C80043EB030313F4801F08BF013DF7D043EA4F
:1006D8000603704794EA0C0F0CEA135518BF95EA05
:1006E8000C0F0CD050EA410618BF52EA4306D1D18C
:1006F80081EA030101F000414FF0000070BD50EAAB
:10070800410606BF1046194652EA430619D094EA34
:100718000C0F02D150EA013613D195EA0C0F05D11E
:1007280052EA03361CBF104619460AD181EA030172
:1007380001F0004141F0FE4141F470014FF000002A
:1007480070BD41F0FE4141F4780170BD70B54FF0C5
:10075800FF0C4CF4E06C1CEA11541DBF1CEA135545
:1007680094EA0C0F95EA0C0F00F0A7F8A4EB050427
:1007780081EA030E52EA03354FEA013100F088801E
:100788004FEA03334FF0805545EA131343EA1263E7
:100798004FEA022245EA111545EA10654FEA00269C
:1007A8000EF000419D4208BF964244F1FD0404F555
:1007B800407402D25B084FEA3202B61A65EB0305B1
:1007C8005B084FEA32024FF480104FF4002CB6EB6E
:1007D800020E75EB030E22BFB61A754640EA0C00EE
:1007E8005B084FEA3202B6EB020E75EB030E22BF2E
:1007F800B61A754640EA5C005B084FEA3202B6EB6F
:10080800020E75EB030E22BFB61A754640EA9C002D
:100818005B084FEA3202B6EB020E75EB030E22BFFD
:10082800B61A754640EADC0055EA060E18D04FEABB
:10083800051545EA16754FEA06164FEAC30343EA5B
:1008480052734FEAC2025FEA1C1CC0D111F4801F28
:100858000BD141EA00014FF000004FF0004CB6E721
:1008680011F4801F04BF01430020B4F1FD0C88BFC0
:10087800BCF5E06F3FF6AFAEB5EB030C04BFB6EBCB
:10088800020C5FEA500C50F1000041EB045170BDBE
:100898000EF0004E4EEA113114EB5C04C2BFD4EBEB
:1008A8000C0541EA045170BD41F480114FF0000E6F
:1008B800013C90E645EA060E8DE60CEA135594EAEB
:1008C8000C0F08BF95EA0C0F3FF43BAF94EA0C0FEE
:1008D8000AD150EA01347FF434AF95EA0C0F7FF463
:1008E80025AF104619462CE795EA0C0F06D152EAB7
:1008F80003353FF4FDAE1046194622E750EA41069B
:1009080018BF52EA43067FF4C5AE50EA41047FF4AB
:100918000DAF52EA43057FF4EBAE12E74FF0FF3C10
:1009280006E000BF4FF0010C02E000BF4FF0010CE1
:100938004DF804CD4FEA410C7FEA6C5C4FEA430C5A
:1009480018BF7FEA6C5C1BD001B050EA410C0CBFA9
:1009580052EA430C91EA030F02BF90EA020F00200B
:10096800704710F1000F91EA030F58BF994208BF72
:1009780090422CBFD8176FEAE37040F0010070472F
:100988004FEA410C7FEA6C5C02D150EA013C07D186
:100998004FEA430C7FEA6C5CD6D152EA033CD3D0D1
:1009A8005DF8040B704700BF8446104662468C46CB
:1009B8001946634600E000BF01B5FFF7B7FF0028FE
:1009C80048BF10F1000F01BD4DF808EDFFF7F4FF27
:1009D8000CBF012000205DF808FB00BF4DF808EDB2
:1009E800FFF7EAFF34BF012000205DF808FB00BFD5
:1009F8004DF808EDFFF7E0FF94BF012000205DF8F7
:100A080008FB00BF4DF808EDFFF7CEFF94BF0120AB
:100A180000205DF808FB00BF4DF808EDFFF7C4FFA4
:100A280034BF012000205DF808FB00BF4FEA4102F7
:100A380012F5001215D211D56FF47873B3EB625228
:100A480012D94FEAC12343F0004343EA505311F04F
:100A5800004F23FA02F018BF404270474FF00000E1
:100A6800704750EA013005D111F0004008BF6FF01F
:100A7800004070474FF00000704700BF4FEA410246
:100A8800B2F1E04324BFB3F5001CDCF1FE5C0DD9E4
:100A980001F0004C4FEAC0024CEA5070B2F1004F2E
:100AA80040EB830008BF20F00100704711F0804F31
:100AB80021D113F13872BCBF01F00040704741F4F6
:100AC80080114FEA5252C2F11802C2F1200C10FAFA
:100AD8000CF320FA02F018BF40F001004FEAC123DE
:100AE8004FEAD32303FA0CFC40EA0C0023FA02F382
:100AF8004FEA4303CCE77FEA625307D150EA013358
:100B08001EBF4FF0FE4040F44000704701F0004027
:100B180040F0FE4040F40000704700BF80F0004005
:100B280002E000BF81F0004142001FBF5FEA4103BD
:100B380092EA030F7FEA226C7FEA236C6AD04FEABD
:100B48001262D2EB1363C1BFD21841404840414002
:100B5800B8BF5B42192B88BF704710F0004F40F4B4
:100B6800000020F07F4018BF404211F0004F41F4D0
:100B7800000121F07F4118BF494292EA030F3FD09C
:100B8800A2F1010241FA03FC10EB0C00C3F12003AF
:100B980001FA03F100F0004302D5494260EB40003E
:100BA800B0F5000F13D3B0F1807F06D340084FEAA9
:100BB800310102F10102FE2A51D2B1F1004F40EB9E
:100BC800C25008BF20F0010040EA03007047490006
:100BD80040EB0000013A28BFB0F5000FEDD2B0FAA3
:100BE80080FCACF1080CB2EB0C0200FA0CF0AABFC6
:100BF80000EBC25052421843BCBFD0401843704764
:100C080092F0000F81F4000106BF80F40000013269
:100C1800013BB5E74FEA41037FEA226C18BF7FEA40
:100C2800236C21D092EA030F04D092F0000F08BF82
:100C38000846704790EA010F1CBF0020704712F069
:100C48007F4F04D1400028BF40F00040704712F1A8
:100C580000723CBF00F50000704700F0004343F00D
:100C6800FE4040F4000070477FEA226216BF084643
:100C78007FEA23630146420206BF5FEA412390EA06
:100C8800010F40F4800070474FF0000304E000BFFC
:100C980010F0004348BF40425FEA000C08BF7047AD
:100CA80043F0964301464FF000001CE050EA010271
:100CB80008BF70474FF000030AE000BF50EA010286
:100CC80008BF704711F0004302D5404261EB410173
:100CD8005FEA010C02BF84460146002043F0B64398
:100CE80008BFA3F18053A3F50003BCFA8CF2083ABD
:100CF800A3EBC25310DB01FA02FC634400FA02FCC6
:100D0800C2F12002BCF1004F20FA02F243EB0200CC
:100D180008BF20F00100704702F1200201FA02FC2E
:100D2800C2F1200250EA4C0021FA02F243EB020021
:100D380008BF20EADC7070474FEA4002B2F1FE4F6C
:100D48000FD34FF09E03B3EB12620DD94FEA002385
:100D580043F0004310F0004F23FA02F018BF40425E
:100D680070474FF00000704712F1610F01D1420245
:100D780005D110F0004008BF6FF0004070474FF0F9
:100D88000000704753B94AB9002908BF00281CBFA2
:100D98004FF0FF314FF0FF3000F070B9ADF1080CA3
:100DA8006DE904CE00F006F8DDF804E0DDE9022381
:100DB80004B070472DE9F047089E0D4604460F46DB
:100DC800002B4AD18A42944665D9B2FA82F343B1DC
:100DD80002FA03FCC3F120029F4020FA02F21743F3
:100DE8009C404FEA1C4E1FFA8CF5B7FBFEF1220C13
:100DF8000EFB117742EA074201FB05F090420AD93F
:100E08001CEB020201F1FF3780F01B81904240F297
:100E1800188102396244121AA4B2B2FBFEF00EFB2A
:100E2800102244EA024400FB05F5A5420AD91CEB4E
:100E3800040400F1FF3280F00681A54240F20381EC
:100E48006444023840EA0140641B00211EB1DC40C2
:100E58000023C6E90043BDE8F0878B4208D9002E7D
:100E680000F0EC800021C6E900050846BDE8F087DF
:100E7800B3FA83F1002949D1AB4202D3824200F28E
:100E8800F780841A65EB030201201746002EE2D092
:100E9800C6E90047DFE702B9FFDEB2FA82F3002BAA
:100EA80040F08F808A1A4FEA1C471FFA8CFE0121F6
:100EB800B2FBF7F507FB1520220C42EA00420EFBB5
:100EC80005F0904208D91CEB020205F1FF3802D266
:100ED800904200F2CA804546121AA4B2B2FBF7F05B
:100EE80007FB102244EA02440EFB00FEA64508D97F
:100EF8001CEB040400F1FF3202D2A64500F2BA80CE
:100F08001046A4EB0E0440EA05409FE7C1F1200714
:100F18008B4022FA07FC4CEA030C05FA01F420FA8C
:100F280007F3FD40234300FA01F94FEA1C401FFA7A
:100F38008CFEB5FBF0F81C0C00FB185544EA054480
:100F480008FB0EF5A54202FA01F20BD91CEB0404CA
:100F580008F1FF3A80F08780A54240F28480A8F12A
:100F680002086444641B9DB2B4FBF0F300FB134415
:100F780045EA044403FB0EFEA64508D91CEB04040D
:100F880003F1FF306BD2A64569D9023B644443EABA
:100F98000840A0FB0283A4EB0E049C42C6461D46F3
:100FA80055D352D056B1B9EB0E0364EB050404FADD
:100FB80007F7CB40CC401F43C6E900740021BDE8C9
:100FC800F087C3F1200102FA03FC20FA01F225FAA6
:100FD80001F19D402A434FEA1C471FFA8CFEB1FBE2
:100FE800F7F007FB1015110C41EA054100FB0EF55F
:100FF8008D4204FA03F408D91CEB010100F1FF3813
:101008002FD28D422DD902386144491B92B2B1FBCF
:10101800F7F507FB151142EA014205FB0EF1914273
:1010280008D91CEB020205F1FF3816D2914214D9F7
:10103800023D6244521A45EA004139E731463046DA
:1010480009E73946E7E61046FCE6C145AAD2B8EBFF
:10105800020E63EB0C050138A4E74546EAE70346B0
:1010680095E74046D1E7D0467CE7023D624433E746
:1010780008460BE76444023843E700BF704700BFE7
:1010880080B500AF00224FF40071024804F0E0FF81
:1010980000BF80BD0004004880B500AF01224FF4B6
:1010A8000071024804F0D4FF00BF80BD000400486E
:1010B80080B500AF01224FF48061024804F0C8FFF8
:1010C80000BF80BD0004004880B500AF00224FF487
:1010D8008061024804F0BCFF00BF80BD00040048E6
:1010E80080B584B000AF03460A46FB711346BB7156
:1010F800FB7943F02003DBB23B73BB797B73FFF7CB
:10110800BFFFFFF7C9FF00BF1037BD4680BD000015
:1011180080B586B000AF0346B9607A60FB73FB7B8D
:1011280043F02003DBB23B75FFF7AAFF07F1140178
:1011380064230122084807F03DFD7B689AB24FF40A
:101148007A73B968044807F035FDFFF7A5FF00BFBB
:101158001837BD4680BD00BF3403002080B584B079
:1011680000AF0346FB710023FB73FFF789FFF91DEE
:1011780064230122084807F01DFD07F10F016423CD
:101188000122054807F0A6FEFFF786FFFB7B1846FD
:101198001037BD4680BD00BF3403002080B584B041
:1011A80000AF0346B9607A60FB73FFF769FF07F188
:1011B8000F0164230122084807F0FCFC7B689AB2FF
:1011C8004FF47A73B968044807F084FEFFF764FFA8
:1011D80000BF1037BD4680BD3403002080B588B0FD
:1011E80000AF0346FB71FB79072B04D100210720D0
:1011F800FFF776FF90E0FB79172B04D11121172018
:10120800FFF76EFF88E008210020FFF769FF3F2104
:101218000120FFF765FF03210220FFF761FF03218B
:101228000320FFF75DFF03210420FFF759FF022188
:101238000520FFF755FF0E210620FFF751FF00217B
:101248000720FFF74DFF00210820FFF749FF002185
:101258000920FFF745FF324A07F1180392E8030017
:1012680018600433197007F11803052219460A207B
:10127800FFF74EFF2B4A07F1100392E803001860AE
:101288000433197007F11003052219460B20FFF7E4
:101298003FFFC3210C20FFF723FFC4210D20FFF7D8
:1012A8001FFFC5210E20FFF71BFFC6210F20FFF7E8
:1012B80017FF1B4A07F1080392E80300186004337C
:1012C800197007F10803052219461020FFF720FFBF
:1012D80000211120FFF704FF00211220FFF700FF73
:1012E80000211320FFF7FCFE00211420FFF7F8FE71
:1012F80000211520FFF7F4FE00211620FFF7F0FE6D
:1013080011211720FFF7ECFE00211C20FFF7E8FE53
:1013180000211D20FFF7E4FE00BF2037BD4680BD39
:10132800F8E5010800E6010880B500AFFFF7CCFE3C
:101338000020FFF753FF00210020FFF7D1FE002116
:101348000120FFF7CDFE00210220FFF7C9FE03218F
:101358000320FFF7C5FE00210420FFF7C1FE00218E
:101368000520FFF7BDFE0E210620FFF7B9FEFFF7A7
:101378009FFE00BF80BD80B584B000AF78600B468B
:10138800FB70FFF7A1FE0720FFF728FFFB7819463F
:101398000520FFF7A5FE0220FFF7E0FE0346FB73DA
:1013A800FB7B43F00403FB73FB7B19460220FFF72A
:1013B80097FE052279680B20FFF7AAFEEE210C2084
:1013C800FFF78EFE20211320FFF78AFE0020FFF78B
:1013D800C5FE0346BB73BB7B43F00303BB73BB7BF8
:1013E80019460020FFF77CFEFFF762FE00BF1037AA
:1013F800BD4680BD80B584B000AF78600720FFF798
:10140800ADFE0346FB73FB7B03F04003002B0BD0C0
:10141800FA7B7B685B001340002B05D04021072036
:10142800FFF75EFE012300E0002318461037BD4693
:1014380080BD90B585B000AF78600023FB600CE0FC
:10144800FB68D9B2FB687A68D4180846FFF786FEAD
:1014580003462370FB680133FB60FB68092BEFDD53
:101468007B680A33052219460A20FFF797FE7B6836
:101478000F33052219460B20FFF790FE7B6803F116
:1014880014040C20FFF76AFE034623707B6803F1FF
:1014980015040D20FFF762FE034623707B6803F1F5
:1014A80016040E20FFF75AFE034623707B6803F1EB
:1014B80017040F20FFF752FE034623707B6818338A
:1014C800052219460A20FFF769FE1D23BB600EE0BE
:1014D800BB68DBB20C3BD9B2BB687A68D418084643
:1014E800FFF73CFE03462370BB680133BB60BB6853
:1014F800252BEDDD00BF00BF1437BD4690BD80B47D
:1015080085B000AF78604FF0B0431A6E4FF0B0412D
:101518007B6813430B664FF0B0431A6E7B68134029
:10152800FB60FB6800BF1437BD4680BC704780B4C1
:1015380083B000AF78604FF0B0431A6E7B68DB432E
:101548004FF0B04113400B6600BF0C37BD4680BC5E
:101558007047000080B500AF234B244A1A60224B25
:101568004FF000425A60204B00229A601E4B002226
:10157800DA601D4B00221A611B4B04225A611A4B78
:1015880000221A76184B00225A76174B00229A76B8
:10159800154B0122DA61144B002283F82020124BEC
:1015A80000225A62104B00229A620F4B002283F8E5
:1015B8002C200D4B4FF480521A630B4B07225A63B1
:1015C800094B07229A63084B002283F83C20064BFC
:1015D8000022DA64044802F023FC0346002B01D001
:1015E80000F0A2FD00BF80BD94010020002401404E
:1015F80080B582B000AF78607B681B68054A93426B
:1016080003D14FF40070FFF77AFF00BF0837BD46DB
:1016180080BD00BF0024014080B582B000AF786073
:101628007B681B68054A934203D14FF40070FFF7AB
:101638007EFF00BF0837BD4680BD00BF00240140C3
:1016480080B400AF034B044A1A6000BFBD4680BC9B
:10165800704700BF940100200024014080B582B08B
:1016680000AF0023FB8000233B60134800F02AF8FA
:1016780038603B68002B02D10023FB8016E00F4B3B
:101688001B884FF6FF7293420BD00C4B1B881A46EF
:1016980040F6E44303FB02F23B68B2FBF3F3FB8042
:1016A80004E0074A3B68B2FBF3F3FB80FB8818466B
:1016B8000837BD4680BD00BF002000B4AA75FF1FD3
:1016C800D8084C0080B586B000AF786000237B61F5
:1016D80007F1080300221A605A609A60FFF73AFF80
:1016E8001A4803F0CCF90346002B01D000F01CFD8A
:1016F8007B68BB600023FB6000233B6107F10803A4
:101708001946124802F0D8FE0346002B01D000F01B
:101718000BFD0E4802F0B4FD0346002B01D000F08B
:1017280003FD4FF0FF31094802F022FE074802F09E
:10173800EDFD064802F0B3FE7861044802F024FD8E
:101748007B6918461837BD4680BD00BF940100204C
:1017580080B485B000AF78604FF0B0439A6C4FF01A
:10176800B0417B6813438B644FF0B0439A6C7B683D
:101778001340FB60FB6800BF1437BD4680BC704750
:1017880080B500AF0420FFF7E3FF0120FFF7E0FF7B
:10179800002202210B2003F018FB0B2003F02FFB83
:1017A800002200210C2003F010FB0C2003F027FB83
:1017B800002200213D2003F008FB3D2003F01FFB21
:1017C80000BF80BD80B400AF064B1B6903F4002343
:1017D800B3F5002F01D1012300E000231846BD46D0
:1017E80080BC70470040005880B58CB000AFF860EE
:1017F800B9607A603B600023FB62FB6803F17842C2
:10180800564B1B689902564B0B40B2FBF3F101FB98
:1018180003F3D31ADB0ABB61FA687B68134403F14C
:101828007843013B4D4A126891024D4A0A40B3FB86
:10183800F2F101FB02F29B1ADB0A7B617B68BB6257
:10184800FB687B62BB683B62BB68002B09D07B6886
:1018580003F00703002B04D1FB6803F00703002BF8
:1018680002D06FF0040374E03E4B5B69002B02DA90
:101878006FF003036DE0BA697B699A4205D0FB6893
:10188800C3F30A03C3F50063BB62BB69FB615BE09A
:101898007B6AB96A184600F0F8F80346002B37D07F
:1018A8003B68002B02D16FF0040352E0FB6903F59B
:1018B8008033DB024FF40062194638681BF0B6FA31
:1018C8007B6AC3F30A033A681344396ABA6A92B264
:1018D80018461BF0ABFA00220121F86900F065F800
:1018E8000346002B03D06FF00103FB6230E0FB6975
:1018F80003F58033DB024FF400623968184600F0C4
:101908008AF80346002B10D06FF00203FB621FE039
:101918003B6ABA6A1946786A00F07DF80346002BDC
:1019280003D06FF00203FB6212E07A6ABB6A1344C9
:101938007B623A6ABB6A13443B627A68BB6AD31A11
:10194800BB62FB690133FB61FA697B699A429FD9E3
:10195800FB6A18463037BD4680BD00BFE075FF1FE3
:1019680000FCFF030040005880B584B000AFF86069
:10197800C7E900230BE000BFFFF724FF0346002B55
:10198800FAD1D7E90023F968012003F0D1FEFB68FA
:10199800D3E90023D7E90001994208BF9042EAD170
:1019A800002318461037BD4680BD80B58AB000AF09
:1019B800F8600B467A607B810223BB61FB68FB61A0
:1019C8007B893B627B68002B08D007F11803184617
:1019D80004F04CF8034687F827300AE007F11402B0
:1019E80007F118031146184603F0E8FF034687F885
:1019F800273097F82730002B08D097F82730022B8C
:101A080001D1012303E06FF0010300E00023184631
:101A18002837BD4680BD80B58AB000AFF860B96090
:101A28007A60BB687B6200233B620023FB6120E095
:101A380007F110030822796A18461BF0F7F9D7E96D
:101A48000423B3F1FF3F08BFB2F1FF3F05D0D7E948
:101A58000423F868FFF788FF3862FB680833FB60E7
:101A68007B6A08337B623B6A002B08D1FB69013330
:101A7800FB617B68DB08FA699A42D9D300E000BFB2
:101A88003B6A18462837BD4680BD80B485B000AF94
:101A9800786039600AE07B685A1C7A601B78FF2BF3
:101AA80001D0012339E03B68013B3B607B6803F0D0
:101AB8000703002BEFD17B68FB600023BB6010E0BD
:101AC800FB6803F10802FA60D3E90023B3F1FF3F92
:101AD80008BFB2F1FF3F01D001231EE0BB6801330C
:101AE800BB603B68DB08BA689A42E9D3BB68DB0095
:101AF8003A68D31A3B60FB687B600AE07B685A1C33
:101B08007A601B78FF2B01D0012306E03B68013B7C
:101B18003B603B68002BF1D1002318461437BD46C3
:101B280080BC704780B485B000AF78604FF0B04398
:101B3800DA6C4FF0B0417B681343CB644FF0B0438D
:101B4800DA6C7B681340FB60FB6800BF1437BD4646
:101B580080BC704780B586B000AF3B1D00221A607C
:101B68005A609A60DA601A610120FFF7DBFF0220F1
:101B7800FFF7D8FF0420FFF7D5FF00224FF4C36119
:101B8800254804F065FA01222021234804F060FA70
:101B9800002240F231214FF0904004F059FA3823E6
:101BA8007B600123BB600023FB6003233B613B1D7B
:101BB8001946194804F01EF84FF4C0637B600123EE
:101BC800BB600023FB6000233B613B1D19461248A4
:101BD80004F010F831237B600123BB600023FB6015
:101BE80003233B613B1D19464FF0904004F002F877
:101BF8004FF400737B601123BB600023FB60032359
:101C08003B613B1D19464FF0904003F0F3FF00BFC6
:101C18001837BD4680BD00BF0004004880B485B0B9
:101C280000AF78604FF0B043DA6C4FF0B0417B689A
:101C38001343CB644FF0B043DA6C7B681340FB600E
:101C4800FB6800BF1437BD4680BC704780B485B0C0
:101C580000AF78604FF0B0439A6D4FF0B0417B68A9
:101C680013438B654FF0B0439A6D7B681340FB605C
:101C7800FB6800BF1437BD4680BC704780B500AF15
:101C88001B4B1C4A1A601A4B1B4A5A60184B0022FD
:101C98009A60174B0122DA60154B00221A61144B27
:101CA80000225A61124B00229A61114B0022DA611C
:101CB8000F4B00221A620E4804F0FAF90346002B73
:101CC80001D000F031FA0021094804F0E1FE034692
:101CD800002B01D000F028FA0021054804F022FF6B
:101CE8000346002B01D000F01FFA00BF80BD00BFE3
:101CF800F801002000580040BB7C700080B596B009
:101D080000AF786007F1440300221A605A609A60B5
:101D1800DA601A6107F10C033822002118461CF01A
:101D280049FB7B681B68214A93423BD18023FB60B7
:101D38004FF440237B6207F10C03184606F0C8F9FC
:101D48000346002B01D000F0EFF90120FFF766FFF2
:101D58000220FFF763FF4FF400437B641223BB6448
:101D68000123FB6401233B6504237B6507F14403DE
:101D780019464FF0904003F03DFF4FF400437B6459
:101D88001223BB640123FB6401233B6504237B65A9
:101D980007F144031946064803F02CFF4FF480006E
:101DA800FFF754FF00BF5837BD4680BD00580040BC
:101DB8000004004880B483B000AF78604FF0B043AF
:101DC800D3F8903023F018024FF0B0417B681343EA
:101DD800C1F8903000BF0C37BD4680BC704700008A
:101DE80080B582B002AF01F02DFE00F0E3F8FFF7F6
:101DF800B1FE0AF0CDFF01F07BFAFFF73FFF00F0DC
:101E0800D1FE00F003FF00F0F3FA594B00221A70DC
:101E1800FFF78AFA0A215748FFF7ADFA5648FFF745
:101E280008FB00F08DF920225449554808F05EFE61
:101E380000224FF400714FF0904004F009F9514826
:101E480008F0D6FB6423009301234F4A88214F48AA
:101E580004F0BEF90AF0A4FF00F0B6F9034698476B
:101E68006423009306234A4A8821484804F0A4FAC8
:101E7800474B1B789BB21B029AB2454B5B789BB2CF
:101E880013449AB2434B1A80414BDB789BB21B0236
:101E98009AB23F4B1B799BB213449AB23E4B1A80BD
:101EA8003C4B1B881846FEF7EFFE03461846FEF724
:101EB800CBFA2BA3D3E90023FEF71EFB02460B4601
:101EC8001046194628A3D3E90023FEF73FFC024633
:101ED8000B46104619464FF00002304BFEF754F9F6
:101EE80002460B4610461946FEF7C8FD03462C4A23
:101EF8001360294B1B881846FEF7C6FE0346184692
:101F0800FEF7A2FA4FF00002264BFEF7F5FA02465A
:101F18000B461046194614A3D3E90023FEF716FC16
:101F280002460B46104619464FF000021E4BFEF7BC
:101F38002BF902460B4610461946FEF79FFD03464D
:101F48001A4A13600A4B1B78002B01D000F09CF84A
:101F58000220FFF74FFA2021154804F090F871E7A6
:101F68000000000000E0654000000000E0FFEF40D6
:101F78001000002004000020740200204402002009
:101F8800E0040020B003002009000020F801002030
:101F9800A8020020AE020020B002002000804640C7
:101FA8006802002000405F40000018406C020020DA
:101FB8000004004880B59AB000AF07F1200348221A
:101FC800002118461CF0F6F907F1080300221A60F0
:101FD8005A609A60DA601A615A6104F0EFFD0020D5
:101FE800FFF7E8FE214B1B6823F4C0631F4A43F444
:101FF800007313601D4B1B6803F4C0637B607B6830
:1020080007233B624FF404137B628123FB624FF486
:1020180080733B6340237B630023BB620023FB6424
:1020280007F12003184605F015F90346002B01D0E7
:1020380000F07AF84F23BB600223FB6000233B616A
:1020480000237B610023BB610023FB6107F10803C8
:102058000121184605F09AFC0346002B01D000F038
:1020680063F800BF6837BD4680BD00BF0004005854
:1020780080B500AF00224FF400714FF0904003F09C
:10208800E7FF00BF80BD000080B500AF20220349F4
:10209800034808F02BFD00BF80BD00BF44020020AC
:1020A800E004002080B582B000AF78607B68194AF0
:1020B80093422BD1184B1B680133174A1360164BF8
:1020C8001B68B3F54D7F07D0B3F54D7F0FDC052BAB
:1020D80006D00A2B08D00AE0104800F041F806E0C4
:1020E8000F4B01221A7002E00D4B00221A700A4BA6
:1020F80019680C4B83FB0123DA10CB17D21A13464D
:102108009B0013449B00CA1A034B1A6000BF083790
:10211800BD4680BDB0030020700200207920000871
:10212800000000206766666680B400AF72B600BF24
:10213800FEE780B400AF00BFBD4680BC704700001A
:1021480080B400AF044B00221A60044B00221A60CE
:1021580000BFBD4680BC7047B4020020B802002012
:1021680080B483B000AF7860144B1B6801335A42C7
:1021780003F00F0302F00F0258BF5342104A1268CF
:10218800934201D1012314E00C4B1B685A1C0B49E4
:102198000A600C497A6841F82320084B1B685A42A8
:1021A80003F00F0302F00F0258BF5342034A1360B3
:1021B800002318460C37BD4680BC7047B402002087
:1021C800B8020020BC02002080B483B000AF114BDD
:1021D8001A68114B1B689A4201D1104B14E00E4B40
:1021E8001B685A1C0C490A600D4A52F823307B6060
:1021F800094B1B685A4203F00F0302F00F0258BF45
:102208005342054A13607B6818460C37BD4680BCAC
:10221800704700BFB4020020B80200203B2100082C
:10222800BC02002080B400AF4FF0B043D3F8903028
:102238004FF0B04243F40043C2F8903000BFBD46AF
:1022480080BC704780B485B000AF78604FF0B04371
:102258009A6D4FF0B0417B6813438B654FF0B043E4
:102268009A6D7B681340FB60FB6800BF1437BD465E
:1022780080BC704780B58CB000AF3B1D2C2200217C
:1022880018461CF097F8224B224A1A60204B1F224E
:102298009A601F4B00221A611D4B00225A611C4B89
:1022A80000229A611A4B4FF08042DA61184B0022E3
:1022B8001A62174B4FF480725A62154806F022F8DA
:1022C8000346002B01D0FFF72FFF114806F010FB43
:1022D8000346002B01D0FFF727FF00233B620023B2
:1022E800BB600023BB614FF00053FB614FF4807368
:1022F800FB623B1D00221946054806F07DF803469F
:10230800002B01D0FFF710FF00BF3037BD4680BD5E
:10231800FC0200200028004080B590B000AF786033
:1023280007F108033822002118461CF043F87B689F
:102338001B68164A934225D14FF48033BB604FF493
:102348008073FB6307F10803184605F0C1FE0346D6
:10235800002B01D0FFF7E8FEFFF764FF4FF4806021
:10236800FFF770FF00220021022002F02EFD02205C
:1023780002F045FD002200212A2002F026FD2A2035
:1023880002F03DFD00BF4037BD4680BD002800403B
:1023980080B485B000AF78604FF0B043DA6C4FF08E
:1023A800B0417B681343CB644FF0B043DA6C7B6871
:1023B8001340FB60FB6800BF1437BD4680BC704704
:1023C80080B485B000AF78604FF0B0439A6D4FF09D
:1023D800B0417B6813438B654FF0B0439A6D7B68BF
:1023E8001340FB60FB6800BF1437BD4680BC7047D4
:1023F80080B500AF1B4B1C4A1A601A4B4FF482720F
:102408005A60184B00229A60164B4FF4E062DA606B
:10241800144B00221A61134B00225A61114B4FF4DE
:1024280000729A610F4B1822DA610E4B00221A6271
:102438000C4B00225A620B4B00229A62094B07226E
:10244800DA62084B00221A63064B08225A630548D1
:1024580006F0DCFA0346002B01D0FFF765FE00BF4B
:1024680080BD00BF340300200038004080B596B01E
:1024780000AF786007F1440300221A605A609A603E
:10248800DA601A6107F10C033822002118461BF0A4
:1024980091FF7B681B68214A93423BD11023FB6064
:1024A8004FF40073BB6107F10C03184605F010FEEA
:1024B8000346002B01D0FFF737FE4FF48040FFF7AB
:1024C8007FFF0220FFF764FF0120FFF761FF4FF451
:1024D800C0437B640223BB640023FB6400233B6589
:1024E80005237B6507F1440319460D4803F082FB79
:1024F8004FF480637B640223BB640023FB640023E6
:102508003B6505237B6507F1440319464FF090406E
:1025180003F070FB00BF5837BD4680BD003800404F
:102528000004004880B400AF034B0122C3F88820A0
:1025380000BFBD4680BC70470004005880B400AF9F
:1025480000BFBD4680BC704780B400AF00BFBD4629
:1025580080BC704780B500AF01F094FAFFF7E2FF46
:10256800012004F0BDFB00BF80BD80B500AF01F0C5
:1025780097FA01F005F900BF80BD80B500AF01F002
:1025880081FA0121002004F027FB00BF80BD80B53F
:1025980000AF01F085FA00BF80BD80B400AF00BF76
:1025A800BD4680BC704780B400AFFEE780B400AF82
:1025B800FEE780B400AFFEE780B400AFFEE780B46A
:1025C80000AFFEE780B400AF00BFBD4680BC7047D7
:1025D80080B400AF00BFBD4680BC704780B400AF78
:1025E80000BFBD4680BC704780B400AF00BFBD4689
:1025F80080BC704780B500AF024806F0B5F900BF4F
:1026080080BD00BFFC02002080B500AF024802F088
:102618008DFE00BF80BD00BF7005002080B500AFF3
:10262800024802F083FE00BF80BD00BFD005002035
:1026380080B500AF044808F027F8044B1B68013345
:10264800024A136000BF80BDB00300209803002039
:1026580080B500AF044808F017F8044B1B68013335
:10266800024A136000BF80BDFC0300209C030020C9
:1026780080B500AF024808F021FB00BF80BD00BF55
:102688005004002080B500AF024808F017FB00BFD7
:1026980080BD00BFE004002080B500AF024806F00E
:1026A80013F800BF80BD00BFFC02002080B500AF5A
:1026B800024807F0AFFD00BF80BD00BFA0030020A7
:1026C80080B500AF024802F0E1FF00BF80BD00BF47
:1026D800D005002080B485B000AF78604FF0B043DB
:1026E8005A6E4FF0B0417B6813434B664FF0B043CE
:1026F8005A6E7B681340FB60FB6800BF1437BD4609
:1027080080BC704780B500AF064B08221A600548A8
:1027180007F004FB0346002B01D0FFF705FD00BFBF
:1027280080BD00BFA003002080B582B000AF7860F4
:102738000120FFF7CFFF00220021322002F045FBE5
:10274800322002F05CFB00BF0837BD4680BD80B474
:1027580083B000AF78604FF0B0439B6823F4004229
:102768004FF0B0417B6813438B6000BF0C37BD4608
:1027780080BC704780B400AF024B1B681846BD464A
:1027880080BC70478075FF1F80B400AF034B1B6887
:10279800DBB21846BD4680BC704700BF8475FF1F7A
:1027A80080B400AF034B1B681B0A1846BD4680BCAB
:1027B800704700BF8475FF1F80B500AF0020FFF78A
:1027C800C6FF1BF0C1F8104B01221A7000F088F9FF
:1027D8001BF04AFB0D481BF0F5FB0D4B4FF4004274
:1027E8001A6102201BF0FCFBFEF72AFF00F0B0F98B
:1027F8001AF076FA012101201AF0B2FA012101201B
:102808001AF07EFA00BF80BDAC030020E129000861
:102818000040005880B500AF1AF0D2FA00BF80BD62
:1028280080B582B000AF0023FB71FEF717FF0346A7
:10283800BB80BB8840F6B832934202D9FE23FB71B5
:1028480014E0BB88B3F5E16F02D20023FB710DE001
:10285800BB88A3F5E1631A461346DB019B1A5B00AC
:102868001A46054BA3FB0223DB09FB71FB791846CB
:102878000837BD4680BD00BFB5814E1B80B588B006
:1028880000AF0023FB833B1D184600F037F9BB68F7
:102898001846FEF751FA0346FB83B7F91E3018466F
:1028A8002037BD4680BD90B587B000AF7860002363
:1028B8007B61FFF75FFF78617B69B3F1FF3F38D138
:1028C80001F0FCF8044601F00DF9034623443B618E
:1028D80001F0FEF8F8603B691A0E7B680733D2B244
:1028E8001A703B691A0C7B680633D2B21A703B69BE
:1028F8001A0A7B680533D2B21A707B6804333A69C6
:10290800D2B21A70FB681A0E7B680333D2B21A70FF
:10291800FB681A0C7B680233D2B21A70FB681A0A79
:102928007B680133D2B21A70FB68DAB27B681A701E
:1029380031E07B6807337A69D2B21A707B691A0A68
:102948007B680633D2B21A707B691A0C7B68053330
:10295800D2B21A707B691A0E7B680433D2B21A702D
:10296800FFF712FF78617B6803337A69D2B21A7075
:10297800FFF716FF78617B6802337A69D2B21A7062
:102988007B691A0A7B680133D2B21A707B691B0C07
:10299800DAB27B681A7000BF1C37BD4690BD90B58F
:1029A80083B000AF00237B60FFF7E4FE78607B68AC
:1029B800B3F1FF3F0BD101F081F8044601F088F82C
:1029C80003465C4001F08EF8034663407B607B68F9
:1029D80018460C37BD4690BD80B586B002AF78600A
:1029E800396007F1080318461AF0FAFABB68B7F914
:1029F8000C200092074A1021786800F01DF87868CA
:102A0800FDF7B6FB03469AB23B681A8000BF103741
:102A1800BD4680BD08E6010880B500AF012102204F
:102A28001AF06EF900BF80BD80B500AF002102200A
:102A38001AF066F900BF80BD0CB480B584B000AF51
:102A48007860396007F11C03FB603968FB68BA6974
:102A580078681AF097FC00BF1037BD46BDE8804083
:102A680002B0704780B483B000AF78600023184686
:102A78000C37BD4680BC704780B582B000AF0023DC
:102A88007B60064B1B78002B02D000F0DDF97860E4
:102A98007B6818460837BD4680BD00BFAC030020E0
:102AA80080B582B000AF78607B68184600F053FAB2
:102AB80000BF0837BD4680BD80B483B000AF7860E2
:102AC800064BD3F8902005497B681343C1F8903032
:102AD80000BF0C37BD4680BC704700BF00080058D7
:102AE80080B500AF4FF48040FFF7E6FF01F004F82F
:102AF80001F008F801F00CF800BF80BD80B487B081
:102B080000AF78600D4B7B610D4B3B610D4BFB605B
:102B18007B687A699A607B683A695A607B68FA6868
:102B28001A607B68084ADA607B68084A1A610023E1
:102B380018461C37BD4680BC704700BF000048429D
:102B48000000904100007A440D093E00AB030500E7
:102B580080B483B000AF00237B60002318460C3795
:102B6800BD4680BC704780B400AF00BFBD4680BC86
:102B7800704780B485B000AF78604FF0B0431A6EEC
:102B88004FF0B0417B6813430B664FF0B0431A6EA9
:102B98007B681340FB60FB6800BF1437BD4680BCF0
:102BA8007047000080B500AF164B174A1A60154BE6
:102BB80040F2E7325A60134B00229A60114B4FF4EF
:102BC800FA42DA600F4B00221A610E4B00225A615A
:102BD8000C4B80229A610B4807F0B2FC0346002B8D
:102BE80001D0FFF7A1FA4FF40030FFF7C2FF00222F
:102BF80000211C2002F0E9F81C2002F000F900BFB7
:102C080080BD00BFB00300200044014080B500AF84
:102C1800154B164A1A60144B00225A60124B0022B8
:102C28009A60114B4FF6FF72DA600F4B00221A615F
:102C38000D4B00225A610C4B00229A610A4807F09A
:102C48007FFC0346002B01D0FFF76EFA4FF480207B
:102C5800FFF78FFF002200211D2002F0B6F81D208B
:102C680002F0CDF800BF80BDFC0300200048014001
:102C780080B582B000AF78607B681B68124A9342C7
:102C88000CD14FF40030FFF774FF002200211C2004
:102C980002F09BF81C2002F0B2F810E07B681B6879
:102CA8000A4A93420BD14FF48020FFF762FF0022BB
:102CB80000211D2002F089F81D2002F0A0F800BFB5
:102CC8000837BD4680BD00BF0044014000480140B0
:102CD80080B483B000AF78607B689B6818460C3777
:102CE800BD4680BC7047000080B582B000AF0023AD
:102CF800FB71144B1B7883F00103DBB2002B1BD054
:102D0800114B4FF0FF321A63FFF7B4FA00F056F890
:102D18004FF480710C4805F07BFC0B4B4FF0FF32F1
:102D28001A63094805F0B2FD002000F0D3F900F05D
:102D38005FF8044B01221A70FB7918460837BD4624
:102D480080BD00BF48040020FC02002080B58EB082
:102D580000AF7860002387F8373007F108032C228A
:102D6800002118461BF026FB00F028F8114B1B68C1
:102D78007A6813447B6000237B627B68DB43FB60DB
:102D88000023FB614FF000533B624FF480733B63B9
:102D980007F1080301221946074805F02DFB0346F1
:102DA800002B01D0FFF7C0F997F8373018463837AD
:102DB800BD4680BD4C040020FC02002080B582B0D6
:102DC80000AF0023FB71084B0122DA654FF48071D4
:102DD800064805F01DFC054B4FF0FF321A63FB79DE
:102DE80018460837BD4680BD00280040FC02002078
:102DF80080B500AF00F08EF90346034A1360024B1A
:102E08001B68184680BD00BF4C04002080B400AF8A
:102E1800024B1B681846BD4680BC70474C04002016
:102E280080B582B000AF00237B6000F073F90246E2
:102E3800044B1B68D31A7B607B6818460837BD466D
:102E480080BD00BF4C04002080B582B000AF0023D5
:102E58007B60064B1B78002B02D000F05BF9786092
:102E68007B6818460837BD4680BD00BF480400206F
:102E780080B483B000AF00237B6003237B607B6852
:102E880018460C37BD4680BC7047B0B584B000AF5B
:102E980078600021F960796800200A460346950D9C
:102EA80094024FF47A724FF0000320462946FDF74A
:102EB80069FF02460B461346FB60FB68184610374D
:102EC800BD46B0BD2DE9B00F85B000AF78600021D8
:102ED800F960796800200C460546204629464FF0DF
:102EE800000A4FF0000B4FEA411B4BEAD06B4FEA48
:102EF800401A50465946021B61EB05034FF000008B
:102F08004FF00001990041EA9271900002460B4689
:102F180012EB040843EB05094FF000024FF00003E1
:102F28004FEAC90343EA58734FEAC80290469946E4
:102F3800404649464FF000024FF00003820A42EA39
:102F480081528B0A1346FB60FB6818461437BD464E
:102F5800BDE8B00F704780B584B000AF786078687E
:102F6800FFF793FFF86000F0D5F8B86000E000BF05
:102F780000F0D0F80246BB68D31AFA689A42F6D82D
:102F880000BF00BF1037BD4680BD80B582B000AF1E
:102F980078601AF027FE00BF0837BD4680BD80B5AF
:102FA80084B000AF786000F0A5F8F860FB680133E2
:102FB800184600F08FF800BF1037BD4680BD2DE9D8
:102FC800B04F8CB000AF78610023FB6200F0A2F82C
:102FD800B86200F08FF878627B6A0022BB60FA6002
:102FE8004FF000024FF00003B9680B000022B96AE5
:102FF80000200C46054612EB040843EB0509C7E917
:103008000689D7E906014FF000024FF00003820A53
:1030180042EA81528B0A1346FB62BB6900223B607D
:103028007A603B68C3F3090A4FF0000BC7E906ABA7
:10303800BB691846FFF746FF03469AB27B691A80B8
:10304800FB6A18463037BD46BDE8B08F80B582B000
:1030580000AF78607A680021034805F0A9FC00BF3A
:103068000837BD4680BD00BFFC02002080B582B095
:1030780000AF78607A680121034805F099FC00BF29
:103088000837BD4680BD00BFFC02002080B582B075
:1030980000AF00237B600021044805F0A1FC7860A4
:1030A8007B6818460837BD4680BD00BFFC0200207B
:1030B80080B582B000AF00237B600121044805F091
:1030C8008FFC78607B6818460837BD4680BD00BF16
:1030D800FC02002080B582B000AF78607A680221D7
:1030E800034805F065FC00BF0837BD4680BD00BF3A
:1030F800FC02002080B582B000AF0221044805F030
:103108006FFC78607B6818460837BD4680BD00BFF5
:10311800FC02002080B582B000AF0B48FFF7D8FD55
:10312800786003E00848FFF7D3FD78600648FFF7AA
:10313800CFFD02467B689342F4D17B68DB43184697
:103148000837BD4680BD00BF0028004080B485B068
:1031580000AF78604FF0B043DA6C4FF0B0417B6855
:103168001343CB644FF0B043DA6C7B681340FB60C9
:10317800FB6800BF1437BD4680BC704780B485B07B
:1031880000AF78604FF0B0439A6D4FF0B0417B6864
:1031980013438B654FF0B0439A6D7B681340FB6017
:1031A800FB6800BF1437BD4680BC704780B483B04D
:1031B80000AF78604FF0B0439A6D7B68DB434FF007
:1031C800B04113408B6500BF0C37BD4680BC7047CB
:1031D80080B485B000AF78604FF0B0431A6E4FF0FE
:1031E800B0417B6813430B664FF0B0431A6E7B689F
:1031F8001340FB60FB6800BF1437BD4680BC7047B6
:1032080080B483B000AF78604FF0B0431A6E7B682B
:10321800DB434FF0B04113400B6600BF0C37BD468F
:1032280080BC704780B483B000AF7860054B5A68A3
:1032380004497B6813434B6000BF0C37BD4680BC14
:10324800704700BF0000014080B500AF264B274AF9
:103258001A60254B4FF4E1325A60234B00229A60E2
:10326800214B0022DA60204B00221A611E4B0C22EF
:103278005A611D4B00229A611B4B0022DA611A4BDE
:1032880000221A62184B00225A62174B40229A6297
:10329800154B4FF480125A64134B00229A6412485B
:1032A80007F0D4FB0346002B01D0FEF73DFF0021B9
:1032B8000D4809F082FC0346002B01D0FEF734FFCD
:1032C8000021094809F0B7FC0346002B01D0FEF79E
:1032D8002BFF054809F0FEFB0346002B01D0FEF743
:1032E80023FF00BF80BD00BF50040020003801400C
:1032F80080B500AF234B244A1A60224B4FF4165274
:103308005A60204B00229A601E4B0022DA601D4B47
:1033180000221A611B4B0C225A611A4B00229A6137
:10332800184B4FF40042DA61164B00221A62154B13
:1033380000225A62134B00229A62124807F086FB59
:103348000346002B01D0FEF7EFFE00210D4809F0DF
:1033580034FC0346002B01D0FEF7E6FE00210948A5
:1033680009F069FC0346002B01D0FEF7DDFE054895
:1033780009F0EBFB0346002B01D0FEF7D5FE00BF9A
:1033880080BD00BFE00400200044004080B59AB032
:1033980000AF786007F1540300221A605A609A60FF
:1033A800DA601A6107F1440300221A605A609A60D1
:1033B800DA6007F10C033822002118461AF0FAFFE8
:1033C8007B681B686F4A934240F0A3800123FB602F
:1033D8004FF440333B6107F10C03184604F078FEC4
:1033E8000346002B01D0FEF79FFE4FF48040FFF705
:1033F800EFFE0220FFF7AAFEC0237B650223BB6510
:103408000123FB6501233B6607237B6607F1540311
:1034180019465D4802F0EEFB4FF40030FFF702FF5B
:103428004FF48030FFF7FEFE584B594A1A60574B4D
:1034380012225A60554B10229A60544B0022DA60CF
:10344800524B80221A61514B00225A614F4B002285
:103458009A614E4B0022DA614C4B00221A624B48AB
:1034680001F0EAFC0346002B01D0FEF75DFE7B6805
:10347800464A9A67454A7B689362464B464A1A60B1
:10348800444B11225A60434B00229A60414B002260
:10349800DA60404B80221A613E4B00225A613D4B54
:1034A80000229A613B4B0022DA613A4B00221A62F1
:1034B800384801F0C1FC0346002B01D0FEF734FE6A
:1034C80000237B640023BB64002387F84C3001236E
:1034D80087F84D3001233B6507F1440319462D4811
:1034E80002F094F80346002B01D0FEF71DFE7B681E
:1034F800284ADA67274A7B6893620022022124203F
:1035080001F063FC242001F07AFC0C2001F077FC28
:1035180033E07B681B68214A93422ED10223FB606B
:103528004FF440237B6107F10C03184604F0D0FDEB
:103538000346002B01D0FEF7F7FD4FF40030FFF7EC
:103548001DFE0120FFF702FE0C237B650223BB65ED
:103558000123FB6501233B6607237B6607F15403C0
:1035680019464FF0904002F045FB0022002125202B
:1035780001F02BFC252001F042FC00BF6837BD4656
:1035880080BD00BF003801400004004870050020DD
:1035980008000240D00500201C0002400044004002
:1035A80080B582B000AF78607B681B68164A93428A
:1035B80015D14FF48040FFF723FEC021134802F0D5
:1035C80079FC7B689B6F184601F0DEFC7B68DB6F3B
:1035D800184601F0D9FC242001F01FFC10E07B689C
:1035E8001B680B4A93420BD14FF40030FFF7DEFD06
:1035F8000C214FF0904002F05DFC252001F00DFCFD
:1036080000BF0837BD4680BD0038014000040048AF
:103618000044004080B483B000AF78604FF0B043FE
:103628001A6C4FF0B0417B6813430B6400BF0C3732
:10363800BD4680BC704780B483B000AF78604FF05F
:10364800B0431A6C7B68DB434FF0B04113400B6406
:1036580000BF0C37BD4680BC7047000080B483B003
:1036680000AF7860064BD3F8802005497B68134388
:10367800C1F8803000BF0C37BD4680BC704700BF22
:103688000008005880B582B000AF7860074A7B68B0
:103698001360FEF775F8FFF7D7FD4FF08060FFF76E
:1036A800DDFF002318460837BD4680BD34060020DC
:1036B80080B500AF4FF48040FFF7ACFF4FF4804077
:1036C800FFF7B9FF0448FFF76BFF0F2001F0A5FBD8
:1036D8000023184680BD00BF5004002080B582B08A
:1036E80000AF78600B467B807B881A46796804486F
:1036F80007F052FA002318460837BD4680BD00BFC0
:103708005004002080B584B000AF7860194A7B6807
:1037180013604FF40013BB6007F1080393E8060039
:10372800154809F04AF900BF134B1B68DB6903F41D
:103738008033B3F5803FF7D000BF0F4B1B68DB69C0
:1037480003F48003B3F5800FF7D10B4B1B689A681D
:10375800094B1B6842F480029A60074809F088F90F
:1037680001220649044807F0C1F90023184610371A
:10377800BD4680BD380600205004002030060020D9
:1037880080B500AF084807F061F90346002B01D067
:10379800FEF7CAFC054801F04FFB0346002B01D099
:1037A800FEF7C2FC00BF80BD500400207005002059
:1037B80080B582B000AF78607B681B68054A934289
:1037C80003D1054B1B680020984700BF0837BD464A
:1037D80080BD00BF003801403406002080B582B0AB
:1037E80000AF78607B681B68134A934213D1134B70
:1037F8001B68002B0AD07B68D3F88C30002B05D1CE
:103808000E4B1B68002201210D48984701220C49E4
:10381800786807F06BF97B681B680A4A934206D1FF
:10382800094B1B6810221A62084B01221A7000BF4C
:103838000837BD4680BD00BF00380140380600206B
:103848003006002000440040E00400201000002062
:103858000D488546FFF787F90C480D490D4A0023A6
:1038680002E0D458C4500433C4188C42F9D30A4A2D
:103878000A4C002301E013600432A242FBD31AF081
:10388800A1FDFEF7ADFAFEE70000012000000020D0
:103898007801002090F501087801002074270020A5
:1038A800FEE780B586B000AF3B1D00221A605A6063
:1038B8009A60DA601A6110237B600123BB600023E1
:1038C800FB6003233B613B1D19464FF0904002F01B
:1038D80091F920237B603B1D19464FF0904002F080
:1038E80089F9002220214FF0904002F0B1FB00221C
:1038F80010214FF0904002F0ABFB00231846183718
:10390800BD4680BD80B582B000AF0346FB71FB7930
:10391800032B3FD801A252F823F000BF3539000825
:103928004F3900086939000883390008002210213E
:103938004FF0904002F08CFB002220214FF0904085
:1039480002F086FB27E0012210214FF0904002F0A0
:103958007FFB002220214FF0904002F079FB1AE013
:10396800012210214FF0904002F072FB0122202129
:103978004FF0904002F06CFB0DE0002210214FF058
:10398800904002F065FB012220214FF0904002F0A8
:103998005FFB00E000BF002318460837BD4680BD26
:1039A80080B400AF02231846BD4680BC704780B47F
:1039B80000AF01231846BD4680BC704780B400AFF5
:1039C80001231846BD4680BC704780B485B000AF5F
:1039D8000346FB71FB79002B02D10F23FB6001E04A
:1039E8001623FB60FB6818461437BD4680BC704739
:1039F80080B400AF044B5B68034A43F00103536093
:103A080000BFBD4680BC7047002004E080B400AF12
:103A1800044B5B68034A43F00203536000BFBD4692
:103A280080BC7047002004E080B400AF044B5B68A2
:103A3800034A43F00403536000BFBD4680BC70478F
:103A4800002004E080B582B000AF0023FB710320A2
:103A580001F0B0F904F05EF90346094A13600F203B
:103A6800FFF700F80346002B02D00123FB7101E0A9
:103A7800FEF793FDFB7918460837BD4680BD00BFA9
:103A88000C00002080B400AF044B1B68034A23F0ED
:103A98000203136000BFBD4680BC704710E000E021
:103AA80080B400AF044B1B68034A43F00203136061
:103AB80000BFBD4680BC704710E000E080B400AF96
:103AC800024B1B681846BD4680BC70479075FF1FA7
:103AD80080B400AF024B1B681846BD4680BC7047D7
:103AE8009475FF1F80B400AF024B1B681846BD4693
:103AF80080BC70479875FF1F80B500AFFFF778FF4F
:103B080000BF80BD80B500AFFFF780FF00BF80BD5C
:103B180080B500AFFFF788FF00BF80BD80B483B0D9
:103B280000AF786039607B681B6823F0E0723B68FF
:103B38001A437B681A6000BF0C37BD4680BC7047CB
:103B480080B483B000AF78607B681B6803F0E073D3
:103B580018460C37BD4680BC704780B485B000AFAE
:103B6800F860B9607A60FB685A69BB6803F00403BF
:103B7800072101FA03F3DB431A40BB6803F004038F
:103B8800796801FA03F31A43FB685A6100BF1437D6
:103B9800BD4680BC704780B483B000AF78603960A0
:103BA8007B685A693B6803F00403072101FA03F3B1
:103BB8001A403B6803F0040322FA03F318460C3753
:103BC800BD4680BC704780B483B000AF78607B6826
:103BD800DB6803F44063002B01D1012300E00023DC
:103BE80018460C37BD4680BC704780B485B000AF1E
:103BF800F860B9607A60FB689A6ABB6803F01F03D3
:103C08000F2101FA03F3DB431A407B689B0E03F094
:103C18000F01BB6803F01F0301FA03F31A43FB68A3
:103C28009A6200BF1437BD4680BC704780B483B029
:103C380000AF786039607B689A6A3B68C3F3110308
:103C48001A437B689A6200BF0C37BD4680BC704738
:103C580080B483B000AF786039607B689A6A3B684B
:103C6800C3F31103DB431A407B689A6200BF0C3729
:103C7800BD4680BC704780B485B000AFF860B960BD
:103C88007A60FB685A69BB681B02DB431A40BB6851
:103C980019027B680B4023F07C4323F0FF031A438F
:103CA800FB685A6100BF1437BD4680BC704780B4BA
:103CB80083B000AF78607B689B6823F0104323F0E3
:103CC800170343F080527B689A6000BF0C37BD46EB
:103CD80080BC704780B483B000AF78607B689B6815
:103CE80023F0104323F017037A68936000BF0C3762
:103CF800BD4680BC704780B483B000AF78607B68F5
:103D08009B6803F08053B3F1805F01D1012300E089
:103D1800002318460C37BD4680BC704780B483B07A
:103D280000AF78607B689B6823F0004323F017039B
:103D380043F001027B689A6000BF0C37BD4680BC27
:103D4800704780B483B000AF78607B689B6823F0CD
:103D5800004323F0170343F002027B689A6000BF18
:103D68000C37BD4680BC704780B483B000AF786024
:103D78007B689B6803F00103012B01D1012300E05C
:103D8800002318460C37BD4680BC704780B483B00A
:103D980000AF78607B689B6803F00203022B01D1B7
:103DA800012300E0002318460C37BD4680BC70474D
:103DB80080B483B000AF78607B689B6823F00043D1
:103DC80023F0170343F004027B689A6000BF0C37A6
:103DD800BD4680BC704780B483B000AF78607B6814
:103DE8009B6823F0004323F0170343F010027B681D
:103DF8009A6000BF0C37BD4680BC704780B483B062
:103E080000AF78607B689B6803F00403042B01D142
:103E1800012300E0002318460C37BD4680BC7047DC
:103E280080B588B000AF78600023FB770023BB61C2
:103E380000237B610023BB607B68002B01D1012339
:103E48009EE17B681B69002B7B689B6D002B09D169
:103E58007868FDF7CDFB7B680022DA657B68002275
:103E680083F854207B681B681846FFF744FF034615
:103E7800002B15D17B681B681846FFF718FF994B74
:103E88001B689B09984AA2FB03239B0901335B002B
:103E9800BB6002E0BB68013BBB60BB68002BF9D18B
:103EA8007B681B681846FFF726FF0346002B0DD1D9
:103EB8007B689B6D43F010027B689A657B68DB6DBD
:103EC80043F001027B68DA650123FB777B681B6896
:103ED8001846FFF793FFF8607B689B6D03F01003AB
:103EE800002B40F04481FB68002B40F040817B6848
:103EF8009B6D23F4817343F002027B689A657B68AB
:103F08001B681846FFF730FF0346002B40F0A780D8
:103F18007B689A687B681B7E9B031A437B685B7E81
:103F2800DB031A437B689B7E5B0313437A68126B3F
:103F3800002A02D04FF4805200E000221A437B6826
:103F4800DB681A437B681B69002B04DA7B681B69F2
:103F580023F0004301E04FF400131A437B6893F801
:103F68002C305B001343BA691343BB617B6893F839
:103F78002030012B14D17B689B7E002B04D1BB69B8
:103F880043F48033BB610BE07B689B6D43F02002F8
:103F98007B689A657B68DB6D43F001027B68DA65B4
:103FA8007B685B6A002B09D07B685B6A03F4E0726C
:103FB8007B689B6A1343BA691343BB617B681B68C0
:103FC800DB6823F4FE3323F4FF737A681268B96957
:103FD8000B43D3607B685B6803F040427B68DB6C13
:103FE80013437A6913437B617B6893F83C30012B58
:103FF80011D17B685B6803F040427B681B6C1A43F5
:104008007B685B6C1A437B689B6C1A437B69134320
:1040180043F001037B617B681B681A69334B1340CB
:104028007A68126879690B4313617B685B68B3F13E
:10403800404F14D07B685B68B3F1804F0FD07B682A
:104048005B68B3F1004F0AD0294B1B6823F4701248
:104058007B685B6803F47013254913430B607B6826
:1040680018687B685B6B1A460021FFF776FD7B6852
:1040780018687B689B6B1A461E49FFF76EFD7B68C4
:104088001B69002B08D17B681B689A6A7B681B68D0
:1040980062F00F029A6242E07B681B69B3F5001F69
:1040A8003DD100233B610CE07B681A6E3B699B00A5
:1040B80022FA03F303F00F030F2B06D03B690133F9
:1040C8003B613B69072BEFD900E000BF3B69012B3F
:1040D80012D17B681B689A6A7B681B6862F00F02C2
:1040E8009A621CE00C000020632D3E0502FCFF1FB5
:1040F8000827014004FFFF037B681B689B6A7B68F5
:10410800DB69013B9B0003F01C036FF00F0202FA0E
:1041180003F17B681A6E7B681B680A439A627B68A6
:104128001B6800211846FFF736FD02467B685B6B6B
:104138009A420BD17B680022DA657B689B6D23F07D
:10414800030343F001027B689A6518E07B689B6D66
:1041580023F0120343F010027B689A657B68DB6DDD
:1041680043F001027B68DA650123FB7707E07B688F
:104178009B6D43F010027B689A650123FB77FB7FF8
:1041880018462037BD4680BD80B584B000AF786042
:104198007B68002B01D101236AE07B689B6D43F0AB
:1041A80002027B689A65786800F0BEFA0346FB73E2
:1041B800FB7B002B0FD1786800F082FB0346FB7372
:1041C800FB7B002B02D17B6801229A657B681B6808
:1041D8001846FFF77FFD7B681B685B687A68126882
:1041E80023F4677323F0030353607B681B6840F272
:1041F8009F321A607B681B68D9687B681A681E4BF7
:104208000B40D3607B681B681A697B681B6822F0C7
:1042180040421A617B681B685A697B681B6822F0F8
:1042280007025A617B681B681A6A7B681B6802F080
:10423800F0221A627B681B689B6A7B681B680022F5
:104248009A620E4B1B680D4A23F0FE731360786860
:10425800FDF7E2F97B6800221A667B680022DA65BE
:104268007B6800229A657B68002283F85420FB7BD8
:1042780018461037BD4680BD00023E83082701401E
:1042880080B584B000AF78607B681B681846FFF77C
:10429800B5FD0346002B32D17B6893F85430012BCF
:1042A80001D102232EE07B68012283F8542078682C
:1042B80000F080FA0346FB73FB7B002B1AD17B6866
:1042C8009B6D23F4706323F0010343F480727B68D1
:1042D8009A657B680022DA657B681B681C221A6075
:1042E8007B68002283F854207B681B681846FFF718
:1042F8005FFD06E07B68002283F8542001E002237A
:10430800FB73FB7B18461037BD4680BD80B584B073
:1043180000AF78607B6893F85430012B01D10223F9
:1043280022E07B68012283F85420786800F0FCF9C9
:104338000346FB73FB7B002B11D1786800F0C0FAB1
:104348000346FB73FB7B002B09D17B689B6D23F431
:10435800807323F0010343F001027B689A657B6850
:10436800002283F85420FB7B18461037BD4680BDD9
:1043780080B584B000AF786039607B685B69082BD2
:1043880002D10823FB6010E07B681B68DB6803F040
:104398000103002B07D07B689B6D43F020027B68EC
:1043A8009A65012377E00423FB60FEF765FBB8609C
:1043B80021E03B68B3F1FF3F1DD0FEF75DFB0246ED
:1043C800BB68D31A3A689A4202D33B68002B12D1D1
:1043D8007B681B681A68FB681340002B0BD17B684D
:1043E8009B6D43F004027B689A657B68002283F822
:1043F800542003234FE07B681B681A68FB6813404E
:10440800002BD6D07B689B6D43F400727B689A655D
:104418007B681B681846FFF7D6FB0346002B31D094
:104428007B689B7E002B2DD17B681B681B6803F083
:104438000803082B26D17B681B681846FFF7DEFCAB
:104448000346002B12D17B681B685A687B681B687F
:1044580022F00C025A607B689B6D23F4807323F072
:10446800010343F001027B689A650BE07B689B6D52
:1044780043F020027B689A657B68DB6D43F001029C
:104488007B68DA657B681B7E002B03D17B681B6821
:104498000C221A60002318461037BD4680BD80B430
:1044A80083B000AF78607B681B681B6C18460C37BC
:1044B800BD4680BC7047000080B588B000AF78600A
:1044C80039600023FB770023BB607B681B69B3F16D
:1044D800004F7B6893F85430012B01D1022310E17F
:1044E8007B68012283F854207B681B681846FFF715
:1044F80085FC0346002B40F0F7803B685B68022B85
:1045080000F0B1807B681B69B3F1004F04D07B6871
:104518001B697E4A934208D17B681A683B681B680E
:1045280019461046FFF782FB41E07B681A6E3B682C
:104538005B6803F01F030F2101FA03F3DB431A4002
:104548003B681B68C3F31103002B05D13B681B684C
:104558009B0E03F01F0311E03B681B683B613B693E
:1045680093FAA3F3FB60FB687B617B69002B01D1A5
:10457800202303E07B69B3FA83F3DBB23968496827
:1045880001F01F018B401A437B681A663B685B6821
:104598009B085A1C7B68DB699A4208D87B681868B4
:1045A8003B6859683B681B681A46FFF71EFB7B6827
:1045B80018683B6819683B689B681A46FFF75BFBFD
:1045C8003B681B68002B80F297805148FFF7B8FAC8
:1045D800B8613B681B684F4A934220D1BB6903F41A
:1045E8000003002B1BD1BB6943F40003194648485C
:1045F800FFF794FA484B1B689B09484AA2FB032320
:104608009B095A1C13465B0013449B00BB6002E0E5
:10461800BB68013BBB60BB68002BF9D16CE03B6811
:104628001B683F4A93420CD1BB6903F08073002B8F
:1046380007D1BB6943F0807319463548FFF76EFA16
:104648005AE03B681B68374A934255D1BB6903F46B
:104658008003002B50D1BB6943F4800319462C48D2
:10466800FFF75CFA48E07B681B69B3F1004F04D0A0
:104678007B681B69254A934207D17B681A683B68A7
:104688001B6819461046FFF7E3FA3B681B68002BC6
:1046980032DA1F48FFF754FAB8613B681B681D4AB5
:1046A800934207D1BB6923F4000319461848FFF762
:1046B80035FA21E03B681B68194A934207D1BB6968
:1046C80023F0807319461248FFF728FA14E03B6874
:1046D8001B68144A93420FD1BB6923F4800319461F
:1046E8000B48FFF71BFA07E07B689B6D43F020023D
:1046F8007B689A650123FB777B68002283F8542046
:10470800FB7F18462037BD4680BD00BF04000080EF
:1047180008270140001000B00C000020632D3E0562
:10472800004000B8002000B480B584B000AF7860C5
:104738007B681B681846FFF761FB0346002B33D0E4
:104748007B681B681846FFF721FB0346002B04D142
:104758007B681B681846FFF73EFBFEF78DF9F8608B
:104768001BE0FEF789F90246FB68D31A022B14D91D
:104778007B681B689B6803F00403002B0DD07B68E3
:104788009B6D43F010027B689A657B68DB6D43F094
:1047980001027B68DA65012307E07B681B689B6878
:1047A80003F00403002BDCD1002318461037BD4664
:1047B80080BD000080B584B000AF78600023BB6086
:1047C8007B681B681846FFF7CFFA0346002B69D1B0
:1047D8007B681B689A68364B1340002B0DD07B68AA
:1047E8009B6D43F010027B689A657B68DB6D43F034
:1047F80001027B68DA65012355E07B681B6818466F
:10480800FFF78CFA2B48FFF79BF9034603F40003E4
:10481800002B0FD0284B1B689B09284AA2FB0323B7
:104828009B090133BB6002E0BB68013BBB60BB680E
:10483800002BF9D17B685B7E012B33D0FEF71CF986
:10484800F86028E07B681B681846FFF78DFA034676
:10485800002B04D17B681B681846FFF75FFAFEF748
:104868000BF90246FB68D31A022B14D97B681B6824
:104878001B6803F00103012B0DD07B689B6D43F08F
:1048880010027B689A657B68DB6D43F001027B68E8
:10489800DA65012307E07B681B681B6803F00103E6
:1048A800012BCFD1002318461037BD4680BD00BF6D
:1048B80017000080082701400C000020632D3E05EA
:1048C80080B584B000AF78607B681B681846FFF736
:1048D8005DFAF8607B681B681846FFF745FA0346DF
:1048E800002B47D0FB68002B44D17B681B689B6872
:1048F80003F00503012B0CD17B681B681846FFF7F2
:1049080020FA7B681B6803221A60FEF7B5F8B860C6
:1049180029E07B689B6D43F010027B689A657B6891
:10492800DB6D43F001027B68DA65012323E0FEF7C3
:10493800A3F80246BB68D31A022B14D97B681B68FC
:104948009B6803F00103002B0DD07B689B6D43F03F
:1049580010027B689A657B68DB6D43F001027B6817
:10496800DA65012307E07B681B689B6803F0010395
:10497800002BDCD1002318461037BD4680BD80B41B
:1049880083B000AF786039607B68D3F8B43023F027
:104998007F023B681A437B68C3F8B42000BF0C371A
:1049A800BD4680BC704780B483B000AF78607B6838
:1049B800D3F8B43003F07F0318460C37BD4680BCEB
:1049C800704780B483B000AF78607B689B6823F041
:1049D800004323F0170343F001027B689A6000BF8D
:1049E8000C37BD4680BC704780B483B000AF786098
:1049F8007B689B6823F0004323F0170343F002020F
:104A08007B689A6000BF0C37BD4680BC704780B495
:104A180083B000AF78607B689B6803F00103012BCB
:104A280001D1012300E0002318460C37BD4680BCA5
:104A3800704780B483B000AF78607B689B6823F0D0
:104A4800004323F0170343F000427B689A6000BFDD
:104A58000C37BD4680BC704780B483B000AF786027
:104A68007B689B6803F00043B3F1004F01D1012339
:104A780000E0002318460C37BD4680BC704780B55F
:104A880088B000AF78600023BB600023BB617B68FF
:104A980093F85430012B01D10223B9E07B6801223D
:104AA80083F854207868FFF70BFF0346FB757B6893
:104AB8001B681846FFF7ABFF0346002B40F09D80AC
:104AC8007B689B6D23F4817343F002027B689A65CF
:104AD8007B681B68DA6848F2030313403B617B6814
:104AE8001B68DB687A68126823F4004323F0030329
:104AF800D3600023FB612EE07B681B681846FFF734
:104B080098FF14E0BB680133BB60BB68B3F52E3F68
:104B18000DD37B689B6D23F0120343F010027B6872
:104B28009A657B68002283F85420012370E07B6833
:104B38001B681846FFF790FF0346002BE2D17B68FD
:104B48001B681846FFF72FFF0246BB691344BB6179
:104B5800FB690133FB61FB69072BCDD9BA69FB6996
:104B6800B2FBF3F3BB617B681B681846FFF729FFAC
:104B78007B681B68B9691846FFF701FF7B681B68EB
:104B88001846FFF731FFFDF777FFF8601CE0FDF7E7
:104B980073FF0246FB68D31A022B15D97B681B6882
:104BA8001846FFF734FF0346002B0DD07B689B6D3A
:104BB80043F010027B689A657B68DB6D43F0010265
:104BC8007B68DA65012323E07B681B681846FFF7DA
:104BD8001EFF0346002BDAD17B681B68D9687B6807
:104BE8001B683A690A43DA607B689B6D23F003030C
:104BF80043F001027B689A6505E07B689B6D43F092
:104C080010027B689A657B68002283F85420FB7D3C
:104C180018462037BD4680BD80B485B000AF7860A7
:104C28007B6803F00703FB600C4BDB68BB60BA686A
:104C38004FF6FF031340BB60FB681A02BB681343BF
:104C480043F0BF6343F40033BB60044ABB68D360DE
:104C580000BF1437BD4680BC704700BF00ED00E0C0
:104C680080B400AF044BDB681B0A03F00703184647
:104C7800BD4680BC704700BF00ED00E080B483B043
:104C880000AF0346FB7197F90730002B0BDBFB796C
:104C980003F01F02064997F907305B09012000FA63
:104CA80002F241F8232000BF0C37BD4680BC704794
:104CB80000E100E080B483B000AF0346FB7197F9D0
:104CC8000730002B12DBFB7903F01F020A4997F922
:104CD80007305B09012000FA02F2203341F8232053
:104CE800BFF34F8F00BFBFF36F8F00BF00BF0C37FC
:104CF800BD4680BC704700BF00E100E080B483B0CF
:104D080000AF03463960FB7197F90730002B0ADBC7
:104D18003B68DAB20C4997F907301201D2B20B445A
:104D280083F800230AE03B68DAB20849FB7903F00C
:104D38000F03043B1201D2B20B441A7600BF0C37A2
:104D4800BD4680BC704700BF00E100E000ED00E018
:104D580080B489B000AFF860B9607A60FB6803F08E
:104D68000703FB61FB69C3F10703042B28BF042376
:104D7800BB61FB690433062B02D9FB69033B00E0E6
:104D880000237B614FF0FF32BB6902FA03F3DA4379
:104D9800BB681A407B699A404FF0FF317B6901FA82
:104DA80003F3D9437B680B40134318462437BD46A9
:104DB80080BC704780B582B000AF78607868FFF734
:104DC8002BFF00BF0837BD4680BD80B586B000AF59
:104DD8000346B9607A60FB73FFF742FF78617A682F
:104DE800B9687869FFF7B4FF024697F90F301146A2
:104DF8001846FFF783FF00BF1837BD4680BD80B552
:104E080082B000AF0346FB7197F907301846FFF7E9
:104E180035FF00BF0837BD4680BD80B582B000AF02
:104E28000346FB7197F907301846FFF743FF00BFA9
:104E38000837BD4680BD000080B582B000AF7860FD
:104E48007B68002B01D101238EE07B681B681A4622
:104E5800474B9A420FD87B681B681A46454B134448
:104E6800454AA2FB03231B099A007B685A647B68A6
:104E7800424A1A640EE07B681B681A46404B13448A
:104E88003D4AA2FB03231B099A007B685A647B688E
:104E98003C4A1A647B68022283F825207B681B68D9
:104EA8001B687A68126823F4FF4323F070031360C9
:104EB8007B681B6819687B689A687B68DB681A439B
:104EC8007B681B691A437B685B691A437B689B692B
:104ED8001A437B68DB691A437B681B6A1A437B6841
:104EE8001B680A431A60786800F024FB7B689B689B
:104EF800B3F5804F02D17B6800225A607B685A68FC
:104F08007B689B6C02F07F021A607B68DB6C7A68B6
:104F1800126D5A607B685B68002B10D07B685B68F9
:104F2800042B0CD8786800F04DFB7B685B6D002281
:104F38001A607B689B6D7A68D26D5A6008E07B685E
:104F480000225A657B6800229A657B680022DA6530
:104F58007B680022DA637B68012283F825207B685E
:104F6800002283F82420002318460837BD4680BD58
:104F780007040240F8FFFDBFCDCCCCCC00000240B6
:104F8800F8FBFDBF0004024080B582B000AF786036
:104F98007B68002B01D101237BE07B681B681A68C2
:104FA8007B681B6822F001021A607B681B681A463E
:104FB8003A4B9A420FD87B681B681A46384B134401
:104FC800384AA2FB03231B099A007B685A647B6852
:104FD800354A1A640EE07B681B681A46334B134443
:104FE800304AA2FB03231B099A007B685A647B683A
:104FF8002F4A1A647B681B6800221A607B685B6C06
:1050080003F01C027B681B6C012101FA02F25A6052
:10501800786800F08FFA7B689B6C00221A607B68C6
:10502800DB6C7A68126D5A607B685B68002B0FD066
:105038007B685B68042B0BD8786800F0C3FA7B6840
:105048005B6D00221A607B689B6D7A68D26D5A602E
:105058007B6800225A657B6800229A657B6800227B
:10506800DA657B680022DA627B6800221A637B6853
:1050780000225A637B6800229A637B680022DA6305
:105088007B68002283F825207B68002283F824208F
:10509800002318460837BD4680BD00BF07040240FC
:1050A800F8FFFDBFCDCCCCCC00000240F8FBFDBF23
:1050B8000004024080B586B000AFF860B9607A603D
:1050C8003B600023FB75FB6893F82430012B01D16A
:1050D800022369E0FB68012283F82420FB6893F827
:1050E8002530DBB2012B55D1FB68022283F825203D
:1050F800FB680022DA63FB681B681A68FB681B6898
:1051080022F001021A603B687A68B968F86800F012
:10511800D3F9FB681B6B002B08D0FB681B681A6867
:10512800FB681B6842F00E021A600FE0FB681B6800
:105138001A68FB681B6822F004021A60FB681B6887
:105148001A68FB681B6842F00A021A60FB689B6CCD
:105158001B6803F48033002B07D0FB689B6C1A682C
:10516800FB689B6C42F480721A60FB685B6D002BD5
:1051780007D0FB685B6D1A68FB685B6D42F4807250
:105188001A60FB681B681A68FB681B6842F001021A
:105198001A6008E0FB688022DA63FB68002283F863
:1051A80024200123FB75FB7D18461837BD4680BDBA
:1051B80080B483B000AF78607B68002B01D10123F5
:1051C8004FE07B6893F82530DBB2022B08D07B6870
:1051D8000422DA637B68002283F82420012340E05C
:1051E8007B681B681A687B681B6822F00E021A60CD
:1051F8007B689B6C1A687B689B6C22F480721A60CF
:105208007B681B681A687B681B6822F001021A60B9
:105218007B685B6C03F01C027B681B6C012101FA44
:1052280002F25A607B68DB6C7A68126D5A607B68A0
:105238005B6D002B0CD07B685B6D1A687B685B6DBF
:1052480022F480721A607B689B6D7A68D26D5A600E
:105258007B68012283F825207B68002283F82420BC
:10526800002318460C37BD4680BC704780B584B013
:1052780000AF78600023FB737B6893F82530DBB2BE
:10528800022B05D07B680422DA630123FB7347E015
:105298007B681B681A687B681B6822F00E021A601C
:1052A8007B681B681A687B681B6822F001021A6019
:1052B8007B689B6C1A687B689B6C22F480721A600E
:1052C8007B685B6C03F01C027B681B6C012101FA94
:1052D80002F25A607B68DB6C7A68126D5A607B68F0
:1052E8005B6D002B0CD07B685B6D1A687B685B6D0F
:1052F80022F480721A607B689B6D7A68D26D5A605E
:105308007B68012283F825207B68002283F824200B
:105318007B689B6B002B03D07B689B6B78689847F6
:10532800FB7B18461037BD4680BD000080B584B0B1
:1053380000AF78607B681B6C1B68FB607B681B6830
:105348001B68BB607B685B6C03F01C0304229A40FB
:10535800FB681340002B27D0BB6803F00403002B25
:1053680022D07B681B681B6803F02003002B07D141
:105378007B681B681A687B681B6822F004021A6045
:105388007B685B6C03F01C027B681B6C042101FAD0
:1053980002F25A607B681B6B002B00F081807B68EF
:1053A8001B6B786898477BE07B685B6C03F01C0399
:1053B80002229A40FB681340002B3DD0BB6803F0E3
:1053C8000203002B38D07B681B681B6803F020039E
:1053D800002B0BD17B681B681A687B681B6822F05E
:1053E8000A021A607B68012283F825207B681B6803
:1053F8001A462E4B9A4209D97B685B6C03F01C0352
:105408002B4A022101FA03F3536008E07B685B6CC6
:1054180003F01C03274A022101FA03F353607B6857
:10542800002283F824207B68DB6A002B38D07B6855
:10543800DB6A7868984733E07B685B6C03F01C0391
:1054480008229A40FB681340002B2AD0BB6803F05F
:105458000803002B25D07B681B681A687B681B68CB
:1054680022F00E021A607B685B6C03F01C027B68FA
:105478001B6C012101FA02F25A607B680122DA638F
:105488007B68012283F825207B68002283F824208A
:105498007B685B6B002B04D07B685B6B78689847F4
:1054A80000BF00BF1037BD4680BD00BF800002406E
:1054B800000402400000024080B485B000AFF860EC
:1054C800B9607A603B60FB68DB6CFA68126D5A6001
:1054D800FB685B6D002B04D0FB689B6DFA68D26D8E
:1054E8005A60FB685B6C03F01C02FB681B6C0121B3
:1054F80001FA02F25A60FB681B683A685A60FB6856
:105508009B68102B08D1FB681B687A689A60FB6857
:105518001B68BA68DA6007E0FB681B68BA689A60BB
:10552800FB681B687A68DA6000BF1437BD4680BC28
:105538007047000080B485B000AF78607B681B6856
:105548001A461C4B9A4213D87B685B6C9B089B00DD
:1055580003F1804303F502337A6893647B681B6820
:10556800DBB2083B144AA2FB03231B09FB6011E0D2
:105578007B685B6C9B089A00104B13447A689364B1
:105588007B681B68DBB2083B0B4AA2FB03231B09A1
:105598000733FB607B680A4ADA64FB6803F01F0381
:1055A80001229A407B681A6500BF1437BD4680BC4B
:1055B800704700BF07040240CDCCCCCC1C08024089
:1055C8008008024080B485B000AF78607B685B6873
:1055D80003F07F03FB60FA680A4B13449B001A46EA
:1055E8007B685A657B68084A9A65FB68013B03F04B
:1055F800030301229A407B68DA6500BF1437BD4671
:1056080080BC70473F8200104009024080B483B0DC
:1056180000AF786039607B6893F82530DBB2012BE6
:105628002BD17B6893F82430012B01D1022328E089
:105638007B68012283F824207B689B6C1B6803F03D
:105648007F013B681A683B68DB68013BDB041A434F
:105658003B685B681A433B681B7A1B041A433B6828
:105668005B7A5B021A437B689B6C0A431A607B680F
:10567800002283F82420002303E07B688022DA6379
:10568800012318460C37BD4680BC704780B582B0F0
:1056980000AF78607B68DB6C1A687B681B6D134011
:1056A800002B1AD07B689B6C1A687B689B6C22F471
:1056B80080721A607B68DB6C7A68126D5A607B684E
:1056C800DB6B43F400727B68DA637B685B6B002BEF
:1056D80003D07B685B6B786898477B685B6D002BB1
:1056E80022D07B689B6D1A687B68DB6D1340002BAA
:1056F8001AD07B685B6D1A687B685B6D22F48072D8
:105708001A607B689B6D7A68D26D5A607B68DB6B28
:1057180043F480627B68DA637B685B6B002B03D0A1
:105728007B685B6B7868984700BF0837BD4680BDCB
:1057380080B586B000AFF860B960C7E900231C4B9C
:105748001B78012B01D102232DE0194B01221A707D
:10575800174B00225A604FF47A7000F069F803463C
:10576800FB75FB7D002B1AD1FB68012B05D1D7E90E
:105778000023B86800F0BEF804E03B681946B86832
:1057880000F0DEF84FF47A7000F052F80346FB752B
:10579800084B5A69FB68DB43064913404B61044BCD
:1057A80000221A70FB7D18461837BD4680BD00BF21
:1057B8003C0600200040005880B483B000AF0023AE
:1057C800FB710B4B5B69002B0BDA094B094A9A609A
:1057D800074B094A9A60064B5B69002B01DA0123E3
:1057E800FB71FB7918460C37BD4680BC704700BF7B
:1057F8000040005823016745AB89EFCD80B483B0E2
:1058080000AF0023FB71094B5B69084A43F0004372
:105818005361064B5B69002B01DB0123FB71FB79AC
:1058280018460C37BD4680BC704700BF0040005882
:1058380080B584B000AF7860FDF71EF9F86009E024
:10584800FDF71AF90246FB68D31A7A689A4201D81A
:10585800032347E0254B1B6903F48033B3F5803FEE
:10586800EED0224B1B69BB60BB6803F00103002B21
:1058780002D01E4B01221A61BA684CF2FA33134067
:10588800BB60BB6803F04043002B07D0174B9A69F5
:10589800BB6803F04043154913438B61BB6823F091
:1058A8004043002B04D0114ABB6823F040431361E6
:1058B800BB68002B0ED00E4ABB685360012311E071
:1058C800FDF7DAF80246FB68D31A7A689A4201D8DB
:1058D800032307E0054B1B6903F48023B3F5802FEE
:1058E800EED0002318461037BD4680BD0040005852
:1058F8003C06002080B485B000AFF860C7E90023FB
:105908000E4B5B690D4A43F001035361FB683A682B
:105918001A60BFF36F8F00BFD7E900014FF0000294
:105928004FF000030A000023F968043113460B60A6
:1059380000BF1437BD4680BC704700BF0040005808
:1059480080B489B000AF786039604023FB777B680A
:10595800BB613B687B61184B5B69174A43F4802342
:105968005361EFF31083FB60FB683B6172B600BFC5
:105978007B691A68BB691A60BB690433BB617B69C0
:1059880004337B61FB7F013BFB77FB7F002BEFD16F
:1059980000BF094B1B6903F48033B3F5803FF8D08F
:1059A8003B69BB60BB6883F3108800BF00BF243726
:1059B800BD4680BC704700BF0040005880B584B029
:1059C80000AF78603960284B1B78012B01D1022386
:1059D80046E0254B01221A70234B00225A604FF4EF
:1059E8007A70FFF725FF0346FB73FB7B002B33D14F
:1059F8007B681B68042B08D100F080F84FF47A709C
:105A0800FFF716FF0346FB7324E03B684FF0FF32B5
:105A18001A607B685B68BB6012E0B86800F07EF8CB
:105A28004FF47A70FFF704FF0346FB73FB7B002BF0
:105A380003D03B68BA681A600AE0BB680133BB60F0
:105A48007B685A687B689B681344BA689A42E4D3B7
:105A580000F0C0F800F07AF8034B00221A70FB7BC4
:105A680018461037BD4680BD3C06002080B584B07E
:105A780000AF78601F4B1B78012B01D1022334E063
:105A88001C4B01221A701B4B00225A607B681B6852
:105A9800184A93604FF47A70FFF7CAFE0346FB7307
:105AA800FB7B002B03D0134B00221A701CE0124B17
:105AB8005B69114A43F0407353617B681B68042B90
:105AC80005D10C4B00221A6100F018F80CE07B6835
